{
	"contracts/14.sol": {
		"SuperHuman": {
			"abi": [
				{
					"inputs": [],
					"name": "sayHello",
					"outputs": [
						{
							"internalType": "string",
							"name": "",
							"type": "string"
						}
					],
					"stateMutability": "pure",
					"type": "function"
				},
				{
					"inputs": [
						{
							"internalType": "bool",
							"name": "isMember",
							"type": "bool"
						}
					],
					"name": "welcomeMsg",
					"outputs": [
						{
							"internalType": "string",
							"name": "",
							"type": "string"
						}
					],
					"stateMutability": "pure",
					"type": "function"
				}
			],
			"devdoc": {
				"kind": "dev",
				"methods": {},
				"version": 1
			},
			"evm": {
				"assembly": "    /* \"contracts/14.sol\":1867:2519  contract SuperHuman is Human {... */\n  mstore(0x40, 0x80)\n  callvalue\n  dup1\n  iszero\n  tag_1\n  jumpi\n  0x00\n  dup1\n  revert\ntag_1:\n  pop\n  dataSize(sub_0)\n  dup1\n  dataOffset(sub_0)\n  0x00\n  codecopy\n  0x00\n  return\nstop\n\nsub_0: assembly {\n        /* \"contracts/14.sol\":1867:2519  contract SuperHuman is Human {... */\n      mstore(0x40, 0x80)\n      callvalue\n      dup1\n      iszero\n      tag_1\n      jumpi\n      0x00\n      dup1\n      revert\n    tag_1:\n      pop\n      jumpi(tag_2, lt(calldatasize, 0x04))\n      shr(0xe0, calldataload(0x00))\n      dup1\n      0x8163604a\n      eq\n      tag_3\n      jumpi\n      dup1\n      0xef5fb05b\n      eq\n      tag_4\n      jumpi\n    tag_2:\n      0x00\n      dup1\n      revert\n        /* \"contracts/14.sol\":2220:2516  function welcomeMsg(bool isMember) public pure returns(string memory) {... */\n    tag_3:\n      tag_5\n      0x04\n      dup1\n      calldatasize\n      sub\n      dup2\n      add\n      swap1\n      tag_6\n      swap2\n      swap1\n      tag_7\n      jump\t// in\n    tag_6:\n      tag_8\n      jump\t// in\n    tag_5:\n      mload(0x40)\n      tag_9\n      swap2\n      swap1\n      tag_10\n      jump\t// in\n    tag_9:\n      mload(0x40)\n      dup1\n      swap2\n      sub\n      swap1\n      return\n        /* \"contracts/14.sol\":1996:2131  function sayHello() public pure override returns(string memory) {... */\n    tag_4:\n      tag_11\n      tag_12\n      jump\t// in\n    tag_11:\n      mload(0x40)\n      tag_13\n      swap2\n      swap1\n      tag_10\n      jump\t// in\n    tag_13:\n      mload(0x40)\n      dup1\n      swap2\n      sub\n      swap1\n      return\n        /* \"contracts/14.sol\":2220:2516  function welcomeMsg(bool isMember) public pure returns(string memory) {... */\n    tag_8:\n        /* \"contracts/14.sol\":2275:2288  string memory */\n      0x60\n        /* \"contracts/14.sol\":2468:2476  isMember */\n      dup2\n        /* \"contracts/14.sol\":2468:2508  isMember ? sayHello() : super.sayHello() */\n      tag_15\n      jumpi\n        /* \"contracts/14.sol\":2492:2508  super.sayHello() */\n      tag_16\n        /* \"contracts/14.sol\":2492:2506  super.sayHello */\n      tag_17\n        /* \"contracts/14.sol\":2492:2508  super.sayHello() */\n      jump\t// in\n    tag_16:\n        /* \"contracts/14.sol\":2468:2508  isMember ? sayHello() : super.sayHello() */\n      jump(tag_18)\n    tag_15:\n        /* \"contracts/14.sol\":2479:2489  sayHello() */\n      tag_19\n        /* \"contracts/14.sol\":2479:2487  sayHello */\n      tag_12\n        /* \"contracts/14.sol\":2479:2489  sayHello() */\n      jump\t// in\n    tag_19:\n        /* \"contracts/14.sol\":2468:2508  isMember ? sayHello() : super.sayHello() */\n    tag_18:\n        /* \"contracts/14.sol\":2461:2508  return isMember ? sayHello() : super.sayHello() */\n      swap1\n      pop\n        /* \"contracts/14.sol\":2220:2516  function welcomeMsg(bool isMember) public pure returns(string memory) {... */\n      swap2\n      swap1\n      pop\n      jump\t// out\n        /* \"contracts/14.sol\":1996:2131  function sayHello() public pure override returns(string memory) {... */\n    tag_12:\n        /* \"contracts/14.sol\":2045:2058  string memory */\n      0x60\n        /* \"contracts/14.sol\":2071:2093  return \"Welcome back.\" */\n      mload(0x40)\n      dup1\n      0x40\n      add\n      0x40\n      mstore\n      dup1\n      0x0d\n      dup2\n      mstore\n      0x20\n      add\n      0x57656c636f6d65206261636b2e00000000000000000000000000000000000000\n      dup2\n      mstore\n      pop\n      swap1\n      pop\n        /* \"contracts/14.sol\":1996:2131  function sayHello() public pure override returns(string memory) {... */\n      swap1\n      jump\t// out\n        /* \"contracts/14.sol\":1572:1692  function sayHello() public pure virtual returns(string memory) {... */\n    tag_17:\n        /* \"contracts/14.sol\":1620:1633  string memory */\n      0x60\n        /* \"contracts/14.sol\":1646:1663  return \"Welcome.\" */\n      mload(0x40)\n      dup1\n      0x40\n      add\n      0x40\n      mstore\n      dup1\n      0x08\n      dup2\n      mstore\n      0x20\n      add\n      0x57656c636f6d652e000000000000000000000000000000000000000000000000\n      dup2\n      mstore\n      pop\n      swap1\n      pop\n        /* \"contracts/14.sol\":1572:1692  function sayHello() public pure virtual returns(string memory) {... */\n      swap1\n      jump\t// out\n        /* \"#utility.yul\":88:205   */\n    tag_23:\n        /* \"#utility.yul\":197:198   */\n      0x00\n        /* \"#utility.yul\":194:195   */\n      dup1\n        /* \"#utility.yul\":187:199   */\n      revert\n        /* \"#utility.yul\":334:424   */\n    tag_25:\n        /* \"#utility.yul\":368:375   */\n      0x00\n        /* \"#utility.yul\":411:416   */\n      dup2\n        /* \"#utility.yul\":404:417   */\n      iszero\n        /* \"#utility.yul\":397:418   */\n      iszero\n        /* \"#utility.yul\":386:418   */\n      swap1\n      pop\n        /* \"#utility.yul\":334:424   */\n      swap2\n      swap1\n      pop\n      jump\t// out\n        /* \"#utility.yul\":430:546   */\n    tag_26:\n        /* \"#utility.yul\":500:521   */\n      tag_39\n        /* \"#utility.yul\":515:520   */\n      dup2\n        /* \"#utility.yul\":500:521   */\n      tag_25\n      jump\t// in\n    tag_39:\n        /* \"#utility.yul\":493:498   */\n      dup2\n        /* \"#utility.yul\":490:522   */\n      eq\n        /* \"#utility.yul\":480:540   */\n      tag_40\n      jumpi\n        /* \"#utility.yul\":536:537   */\n      0x00\n        /* \"#utility.yul\":533:534   */\n      dup1\n        /* \"#utility.yul\":526:538   */\n      revert\n        /* \"#utility.yul\":480:540   */\n    tag_40:\n        /* \"#utility.yul\":430:546   */\n      pop\n      jump\t// out\n        /* \"#utility.yul\":552:685   */\n    tag_27:\n        /* \"#utility.yul\":595:600   */\n      0x00\n        /* \"#utility.yul\":633:639   */\n      dup2\n        /* \"#utility.yul\":620:640   */\n      calldataload\n        /* \"#utility.yul\":611:640   */\n      swap1\n      pop\n        /* \"#utility.yul\":649:679   */\n      tag_42\n        /* \"#utility.yul\":673:678   */\n      dup2\n        /* \"#utility.yul\":649:679   */\n      tag_26\n      jump\t// in\n    tag_42:\n        /* \"#utility.yul\":552:685   */\n      swap3\n      swap2\n      pop\n      pop\n      jump\t// out\n        /* \"#utility.yul\":691:1014   */\n    tag_7:\n        /* \"#utility.yul\":747:753   */\n      0x00\n        /* \"#utility.yul\":796:798   */\n      0x20\n        /* \"#utility.yul\":784:793   */\n      dup3\n        /* \"#utility.yul\":775:782   */\n      dup5\n        /* \"#utility.yul\":771:794   */\n      sub\n        /* \"#utility.yul\":767:799   */\n      slt\n        /* \"#utility.yul\":764:883   */\n      iszero\n      tag_44\n      jumpi\n        /* \"#utility.yul\":802:881   */\n      tag_45\n      tag_23\n      jump\t// in\n    tag_45:\n        /* \"#utility.yul\":764:883   */\n    tag_44:\n        /* \"#utility.yul\":922:923   */\n      0x00\n        /* \"#utility.yul\":947:997   */\n      tag_46\n        /* \"#utility.yul\":989:996   */\n      dup5\n        /* \"#utility.yul\":980:986   */\n      dup3\n        /* \"#utility.yul\":969:978   */\n      dup6\n        /* \"#utility.yul\":965:987   */\n      add\n        /* \"#utility.yul\":947:997   */\n      tag_27\n      jump\t// in\n    tag_46:\n        /* \"#utility.yul\":937:997   */\n      swap2\n      pop\n        /* \"#utility.yul\":893:1007   */\n      pop\n        /* \"#utility.yul\":691:1014   */\n      swap3\n      swap2\n      pop\n      pop\n      jump\t// out\n        /* \"#utility.yul\":1020:1119   */\n    tag_28:\n        /* \"#utility.yul\":1072:1078   */\n      0x00\n        /* \"#utility.yul\":1106:1111   */\n      dup2\n        /* \"#utility.yul\":1100:1112   */\n      mload\n        /* \"#utility.yul\":1090:1112   */\n      swap1\n      pop\n        /* \"#utility.yul\":1020:1119   */\n      swap2\n      swap1\n      pop\n      jump\t// out\n        /* \"#utility.yul\":1125:1294   */\n    tag_29:\n        /* \"#utility.yul\":1209:1220   */\n      0x00\n        /* \"#utility.yul\":1243:1249   */\n      dup3\n        /* \"#utility.yul\":1238:1241   */\n      dup3\n        /* \"#utility.yul\":1231:1250   */\n      mstore\n        /* \"#utility.yul\":1283:1287   */\n      0x20\n        /* \"#utility.yul\":1278:1281   */\n      dup3\n        /* \"#utility.yul\":1274:1288   */\n      add\n        /* \"#utility.yul\":1259:1288   */\n      swap1\n      pop\n        /* \"#utility.yul\":1125:1294   */\n      swap3\n      swap2\n      pop\n      pop\n      jump\t// out\n        /* \"#utility.yul\":1300:1439   */\n    tag_30:\n        /* \"#utility.yul\":1389:1395   */\n      dup3\n        /* \"#utility.yul\":1384:1387   */\n      dup2\n        /* \"#utility.yul\":1379:1382   */\n      dup4\n        /* \"#utility.yul\":1373:1396   */\n      mcopy\n        /* \"#utility.yul\":1430:1431   */\n      0x00\n        /* \"#utility.yul\":1421:1427   */\n      dup4\n        /* \"#utility.yul\":1416:1419   */\n      dup4\n        /* \"#utility.yul\":1412:1428   */\n      add\n        /* \"#utility.yul\":1405:1432   */\n      mstore\n        /* \"#utility.yul\":1300:1439   */\n      pop\n      pop\n      pop\n      jump\t// out\n        /* \"#utility.yul\":1445:1547   */\n    tag_31:\n        /* \"#utility.yul\":1486:1492   */\n      0x00\n        /* \"#utility.yul\":1537:1539   */\n      0x1f\n        /* \"#utility.yul\":1533:1540   */\n      not\n        /* \"#utility.yul\":1528:1530   */\n      0x1f\n        /* \"#utility.yul\":1521:1526   */\n      dup4\n        /* \"#utility.yul\":1517:1531   */\n      add\n        /* \"#utility.yul\":1513:1541   */\n      and\n        /* \"#utility.yul\":1503:1541   */\n      swap1\n      pop\n        /* \"#utility.yul\":1445:1547   */\n      swap2\n      swap1\n      pop\n      jump\t// out\n        /* \"#utility.yul\":1553:1930   */\n    tag_32:\n        /* \"#utility.yul\":1641:1644   */\n      0x00\n        /* \"#utility.yul\":1669:1708   */\n      tag_52\n        /* \"#utility.yul\":1702:1707   */\n      dup3\n        /* \"#utility.yul\":1669:1708   */\n      tag_28\n      jump\t// in\n    tag_52:\n        /* \"#utility.yul\":1724:1795   */\n      tag_53\n        /* \"#utility.yul\":1788:1794   */\n      dup2\n        /* \"#utility.yul\":1783:1786   */\n      dup6\n        /* \"#utility.yul\":1724:1795   */\n      tag_29\n      jump\t// in\n    tag_53:\n        /* \"#utility.yul\":1717:1795   */\n      swap4\n      pop\n        /* \"#utility.yul\":1804:1869   */\n      tag_54\n        /* \"#utility.yul\":1862:1868   */\n      dup2\n        /* \"#utility.yul\":1857:1860   */\n      dup6\n        /* \"#utility.yul\":1850:1854   */\n      0x20\n        /* \"#utility.yul\":1843:1848   */\n      dup7\n        /* \"#utility.yul\":1839:1855   */\n      add\n        /* \"#utility.yul\":1804:1869   */\n      tag_30\n      jump\t// in\n    tag_54:\n        /* \"#utility.yul\":1894:1923   */\n      tag_55\n        /* \"#utility.yul\":1916:1922   */\n      dup2\n        /* \"#utility.yul\":1894:1923   */\n      tag_31\n      jump\t// in\n    tag_55:\n        /* \"#utility.yul\":1889:1892   */\n      dup5\n        /* \"#utility.yul\":1885:1924   */\n      add\n        /* \"#utility.yul\":1878:1924   */\n      swap2\n      pop\n        /* \"#utility.yul\":1645:1930   */\n      pop\n        /* \"#utility.yul\":1553:1930   */\n      swap3\n      swap2\n      pop\n      pop\n      jump\t// out\n        /* \"#utility.yul\":1936:2249   */\n    tag_10:\n        /* \"#utility.yul\":2049:2053   */\n      0x00\n        /* \"#utility.yul\":2087:2089   */\n      0x20\n        /* \"#utility.yul\":2076:2085   */\n      dup3\n        /* \"#utility.yul\":2072:2090   */\n      add\n        /* \"#utility.yul\":2064:2090   */\n      swap1\n      pop\n        /* \"#utility.yul\":2136:2145   */\n      dup2\n        /* \"#utility.yul\":2130:2134   */\n      dup2\n        /* \"#utility.yul\":2126:2146   */\n      sub\n        /* \"#utility.yul\":2122:2123   */\n      0x00\n        /* \"#utility.yul\":2111:2120   */\n      dup4\n        /* \"#utility.yul\":2107:2124   */\n      add\n        /* \"#utility.yul\":2100:2147   */\n      mstore\n        /* \"#utility.yul\":2164:2242   */\n      tag_57\n        /* \"#utility.yul\":2237:2241   */\n      dup2\n        /* \"#utility.yul\":2228:2234   */\n      dup5\n        /* \"#utility.yul\":2164:2242   */\n      tag_32\n      jump\t// in\n    tag_57:\n        /* \"#utility.yul\":2156:2242   */\n      swap1\n      pop\n        /* \"#utility.yul\":1936:2249   */\n      swap3\n      swap2\n      pop\n      pop\n      jump\t// out\n\n    auxdata: 0xa26469706673582212201aa3b0f5e60b670d0c698fc306100f2483a0b48ee12181957c93dd23d8569df964736f6c634300081a0033\n}\n",
				"bytecode": {
					"linkReferences": {},
					"object": "6080604052348015600e575f80fd5b5061024e8061001c5f395ff3fe608060405234801561000f575f80fd5b5060043610610034575f3560e01c80638163604a14610038578063ef5fb05b14610068575b5f80fd5b610052600480360381019061004d919061015d565b610086565b60405161005f91906101f8565b60405180910390f35b6100706100aa565b60405161007d91906101f8565b60405180910390f35b60608161009a576100956100e7565b6100a3565b6100a26100aa565b5b9050919050565b60606040518060400160405280600d81526020017f57656c636f6d65206261636b2e00000000000000000000000000000000000000815250905090565b60606040518060400160405280600881526020017f57656c636f6d652e000000000000000000000000000000000000000000000000815250905090565b5f80fd5b5f8115159050919050565b61013c81610128565b8114610146575f80fd5b50565b5f8135905061015781610133565b92915050565b5f6020828403121561017257610171610124565b5b5f61017f84828501610149565b91505092915050565b5f81519050919050565b5f82825260208201905092915050565b8281835e5f83830152505050565b5f601f19601f8301169050919050565b5f6101ca82610188565b6101d48185610192565b93506101e48185602086016101a2565b6101ed816101b0565b840191505092915050565b5f6020820190508181035f83015261021081846101c0565b90509291505056fea26469706673582212201aa3b0f5e60b670d0c698fc306100f2483a0b48ee12181957c93dd23d8569df964736f6c634300081a0033",
					"opcodes": "PUSH1 0x80 PUSH1 0x40 MSTORE CALLVALUE DUP1 ISZERO PUSH1 0xE JUMPI PUSH0 DUP1 REVERT JUMPDEST POP PUSH2 0x24E DUP1 PUSH2 0x1C PUSH0 CODECOPY PUSH0 RETURN INVALID PUSH1 0x80 PUSH1 0x40 MSTORE CALLVALUE DUP1 ISZERO PUSH2 0xF JUMPI PUSH0 DUP1 REVERT JUMPDEST POP PUSH1 0x4 CALLDATASIZE LT PUSH2 0x34 JUMPI PUSH0 CALLDATALOAD PUSH1 0xE0 SHR DUP1 PUSH4 0x8163604A EQ PUSH2 0x38 JUMPI DUP1 PUSH4 0xEF5FB05B EQ PUSH2 0x68 JUMPI JUMPDEST PUSH0 DUP1 REVERT JUMPDEST PUSH2 0x52 PUSH1 0x4 DUP1 CALLDATASIZE SUB DUP2 ADD SWAP1 PUSH2 0x4D SWAP2 SWAP1 PUSH2 0x15D JUMP JUMPDEST PUSH2 0x86 JUMP JUMPDEST PUSH1 0x40 MLOAD PUSH2 0x5F SWAP2 SWAP1 PUSH2 0x1F8 JUMP JUMPDEST PUSH1 0x40 MLOAD DUP1 SWAP2 SUB SWAP1 RETURN JUMPDEST PUSH2 0x70 PUSH2 0xAA JUMP JUMPDEST PUSH1 0x40 MLOAD PUSH2 0x7D SWAP2 SWAP1 PUSH2 0x1F8 JUMP JUMPDEST PUSH1 0x40 MLOAD DUP1 SWAP2 SUB SWAP1 RETURN JUMPDEST PUSH1 0x60 DUP2 PUSH2 0x9A JUMPI PUSH2 0x95 PUSH2 0xE7 JUMP JUMPDEST PUSH2 0xA3 JUMP JUMPDEST PUSH2 0xA2 PUSH2 0xAA JUMP JUMPDEST JUMPDEST SWAP1 POP SWAP2 SWAP1 POP JUMP JUMPDEST PUSH1 0x60 PUSH1 0x40 MLOAD DUP1 PUSH1 0x40 ADD PUSH1 0x40 MSTORE DUP1 PUSH1 0xD DUP2 MSTORE PUSH1 0x20 ADD PUSH32 0x57656C636F6D65206261636B2E00000000000000000000000000000000000000 DUP2 MSTORE POP SWAP1 POP SWAP1 JUMP JUMPDEST PUSH1 0x60 PUSH1 0x40 MLOAD DUP1 PUSH1 0x40 ADD PUSH1 0x40 MSTORE DUP1 PUSH1 0x8 DUP2 MSTORE PUSH1 0x20 ADD PUSH32 0x57656C636F6D652E000000000000000000000000000000000000000000000000 DUP2 MSTORE POP SWAP1 POP SWAP1 JUMP JUMPDEST PUSH0 DUP1 REVERT JUMPDEST PUSH0 DUP2 ISZERO ISZERO SWAP1 POP SWAP2 SWAP1 POP JUMP JUMPDEST PUSH2 0x13C DUP2 PUSH2 0x128 JUMP JUMPDEST DUP2 EQ PUSH2 0x146 JUMPI PUSH0 DUP1 REVERT JUMPDEST POP JUMP JUMPDEST PUSH0 DUP2 CALLDATALOAD SWAP1 POP PUSH2 0x157 DUP2 PUSH2 0x133 JUMP JUMPDEST SWAP3 SWAP2 POP POP JUMP JUMPDEST PUSH0 PUSH1 0x20 DUP3 DUP5 SUB SLT ISZERO PUSH2 0x172 JUMPI PUSH2 0x171 PUSH2 0x124 JUMP JUMPDEST JUMPDEST PUSH0 PUSH2 0x17F DUP5 DUP3 DUP6 ADD PUSH2 0x149 JUMP JUMPDEST SWAP2 POP POP SWAP3 SWAP2 POP POP JUMP JUMPDEST PUSH0 DUP2 MLOAD SWAP1 POP SWAP2 SWAP1 POP JUMP JUMPDEST PUSH0 DUP3 DUP3 MSTORE PUSH1 0x20 DUP3 ADD SWAP1 POP SWAP3 SWAP2 POP POP JUMP JUMPDEST DUP3 DUP2 DUP4 MCOPY PUSH0 DUP4 DUP4 ADD MSTORE POP POP POP JUMP JUMPDEST PUSH0 PUSH1 0x1F NOT PUSH1 0x1F DUP4 ADD AND SWAP1 POP SWAP2 SWAP1 POP JUMP JUMPDEST PUSH0 PUSH2 0x1CA DUP3 PUSH2 0x188 JUMP JUMPDEST PUSH2 0x1D4 DUP2 DUP6 PUSH2 0x192 JUMP JUMPDEST SWAP4 POP PUSH2 0x1E4 DUP2 DUP6 PUSH1 0x20 DUP7 ADD PUSH2 0x1A2 JUMP JUMPDEST PUSH2 0x1ED DUP2 PUSH2 0x1B0 JUMP JUMPDEST DUP5 ADD SWAP2 POP POP SWAP3 SWAP2 POP POP JUMP JUMPDEST PUSH0 PUSH1 0x20 DUP3 ADD SWAP1 POP DUP2 DUP2 SUB PUSH0 DUP4 ADD MSTORE PUSH2 0x210 DUP2 DUP5 PUSH2 0x1C0 JUMP JUMPDEST SWAP1 POP SWAP3 SWAP2 POP POP JUMP INVALID LOG2 PUSH5 0x6970667358 0x22 SLT KECCAK256 BYTE LOG3 0xB0 CREATE2 0xE6 SIGNEXTEND PUSH8 0xD0C698FC306100F 0x24 DUP4 LOG0 0xB4 DUP15 0xE1 0x21 DUP2 SWAP6 PUSH29 0x93DD23D8569DF964736F6C634300081A00330000000000000000000000 "
				},
				"gasEstimates": {
					"creation": {
						"codeDepositCost": "118000",
						"executionCost": "163",
						"totalCost": "118163"
					},
					"external": {
						"sayHello()": "infinite",
						"welcomeMsg(bool)": "infinite"
					}
				},
				"methodIdentifiers": {
					"sayHello()": "ef5fb05b",
					"welcomeMsg(bool)": "8163604a"
				}
			},
			"storageLayout": {
				"storage": [],
				"types": null
			},
			"userdoc": {
				"kind": "user",
				"methods": {},
				"version": 1
			}
		}
	}
}