{
	"contracts/14.sol": {
		"SuperHuman": {
			"abi": [
				{
					"inputs": [],
					"name": "sayHello",
					"outputs": [
						{
							"internalType": "string",
							"name": "",
							"type": "string"
						}
					],
					"stateMutability": "pure",
					"type": "function"
				},
				{
					"inputs": [
						{
							"internalType": "bool",
							"name": "isMember",
							"type": "bool"
						}
					],
					"name": "welcomeMsg",
					"outputs": [
						{
							"internalType": "string",
							"name": "",
							"type": "string"
						}
					],
					"stateMutability": "pure",
					"type": "function"
				}
			],
			"devdoc": {
				"kind": "dev",
				"methods": {},
				"version": 1
			},
			"evm": {
				"assembly": "    /* \"contracts/14.sol\":465:784  contract SuperHuman is Human {\r... */\n  mstore(0x40, 0x80)\n  callvalue\n  dup1\n  iszero\n  tag_1\n  jumpi\n  0x00\n  dup1\n  revert\ntag_1:\n  pop\n  dataSize(sub_0)\n  dup1\n  dataOffset(sub_0)\n  0x00\n  codecopy\n  0x00\n  return\nstop\n\nsub_0: assembly {\n        /* \"contracts/14.sol\":465:784  contract SuperHuman is Human {\r... */\n      mstore(0x40, 0x80)\n      callvalue\n      dup1\n      iszero\n      tag_1\n      jumpi\n      0x00\n      dup1\n      revert\n    tag_1:\n      pop\n      jumpi(tag_2, lt(calldatasize, 0x04))\n      shr(0xe0, calldataload(0x00))\n      dup1\n      0x8163604a\n      eq\n      tag_3\n      jumpi\n      dup1\n      0xef5fb05b\n      eq\n      tag_4\n      jumpi\n    tag_2:\n      0x00\n      dup1\n      revert\n        /* \"contracts/14.sol\":645:781  function welcomeMsg(bool isMember) public pure returns(string memory) {\r... */\n    tag_3:\n      tag_5\n      0x04\n      dup1\n      calldatasize\n      sub\n      dup2\n      add\n      swap1\n      tag_6\n      swap2\n      swap1\n      tag_7\n      jump\t// in\n    tag_6:\n      tag_8\n      jump\t// in\n    tag_5:\n      mload(0x40)\n      tag_9\n      swap2\n      swap1\n      tag_10\n      jump\t// in\n    tag_9:\n      mload(0x40)\n      dup1\n      swap2\n      sub\n      swap1\n      return\n        /* \"contracts/14.sol\":501:637  function sayHello() public pure override returns(string memory) {\r... */\n    tag_4:\n      tag_11\n      tag_12\n      jump\t// in\n    tag_11:\n      mload(0x40)\n      tag_13\n      swap2\n      swap1\n      tag_10\n      jump\t// in\n    tag_13:\n      mload(0x40)\n      dup1\n      swap2\n      sub\n      swap1\n      return\n        /* \"contracts/14.sol\":645:781  function welcomeMsg(bool isMember) public pure returns(string memory) {\r... */\n    tag_8:\n        /* \"contracts/14.sol\":700:713  string memory */\n      0x60\n        /* \"contracts/14.sol\":733:741  isMember */\n      dup2\n        /* \"contracts/14.sol\":733:773  isMember ? sayHello() : super.sayHello() */\n      tag_15\n      jumpi\n        /* \"contracts/14.sol\":757:773  super.sayHello() */\n      tag_16\n        /* \"contracts/14.sol\":757:771  super.sayHello */\n      tag_17\n        /* \"contracts/14.sol\":757:773  super.sayHello() */\n      jump\t// in\n    tag_16:\n        /* \"contracts/14.sol\":733:773  isMember ? sayHello() : super.sayHello() */\n      jump(tag_18)\n    tag_15:\n        /* \"contracts/14.sol\":744:754  sayHello() */\n      tag_19\n        /* \"contracts/14.sol\":744:752  sayHello */\n      tag_12\n        /* \"contracts/14.sol\":744:754  sayHello() */\n      jump\t// in\n    tag_19:\n        /* \"contracts/14.sol\":733:773  isMember ? sayHello() : super.sayHello() */\n    tag_18:\n        /* \"contracts/14.sol\":726:773  return isMember ? sayHello() : super.sayHello() */\n      swap1\n      pop\n        /* \"contracts/14.sol\":645:781  function welcomeMsg(bool isMember) public pure returns(string memory) {\r... */\n      swap2\n      swap1\n      pop\n      jump\t// out\n        /* \"contracts/14.sol\":501:637  function sayHello() public pure override returns(string memory) {\r... */\n    tag_12:\n        /* \"contracts/14.sol\":550:563  string memory */\n      0x60\n        /* \"contracts/14.sol\":576:629  return \"Selamlar itu blockchain uyesi, nasilsin ? :)\" */\n      mload(0x40)\n      dup1\n      0x60\n      add\n      0x40\n      mstore\n      dup1\n      0x2c\n      dup2\n      mstore\n      0x20\n      add\n      data_7cf16e5e88d1a8e27a7dc9e9d441f1e8fe1c8d5bafca9438508620601a99b7bc\n      0x2c\n      swap2\n      codecopy\n      swap1\n      pop\n        /* \"contracts/14.sol\":501:637  function sayHello() public pure override returns(string memory) {\r... */\n      swap1\n      jump\t// out\n        /* \"contracts/14.sol\":196:349  function sayHello() public pure virtual returns(string memory) {\r... */\n    tag_17:\n        /* \"contracts/14.sol\":244:257  string memory */\n      0x60\n        /* \"contracts/14.sol\":270:341  return \"itublockchain.com adresi uzerinden kulube uye olabilirsiniz :)\" */\n      mload(0x40)\n      dup1\n      0x60\n      add\n      0x40\n      mstore\n      dup1\n      0x3e\n      dup2\n      mstore\n      0x20\n      add\n      data_21d9e59d7b932fa9522054d2353c2cc3a5ef5536b2468dfd58e2095208144532\n      0x3e\n      swap2\n      codecopy\n      swap1\n      pop\n        /* \"contracts/14.sol\":196:349  function sayHello() public pure virtual returns(string memory) {\r... */\n      swap1\n      jump\t// out\n        /* \"#utility.yul\":7:140   */\n    tag_23:\n      0x00\n        /* \"#utility.yul\":88:94   */\n      dup2\n        /* \"#utility.yul\":75:95   */\n      calldataload\n        /* \"#utility.yul\":66:95   */\n      swap1\n      pop\n        /* \"#utility.yul\":104:134   */\n      tag_25\n        /* \"#utility.yul\":128:133   */\n      dup2\n        /* \"#utility.yul\":104:134   */\n      tag_26\n      jump\t// in\n    tag_25:\n        /* \"#utility.yul\":56:140   */\n      swap3\n      swap2\n      pop\n      pop\n      jump\t// out\n        /* \"#utility.yul\":146:402   */\n    tag_7:\n      0x00\n        /* \"#utility.yul\":251:253   */\n      0x20\n        /* \"#utility.yul\":239:248   */\n      dup3\n        /* \"#utility.yul\":230:237   */\n      dup5\n        /* \"#utility.yul\":226:249   */\n      sub\n        /* \"#utility.yul\":222:254   */\n      slt\n        /* \"#utility.yul\":219:221   */\n      iszero\n      tag_28\n      jumpi\n        /* \"#utility.yul\":267:268   */\n      0x00\n        /* \"#utility.yul\":264:265   */\n      dup1\n        /* \"#utility.yul\":257:269   */\n      revert\n        /* \"#utility.yul\":219:221   */\n    tag_28:\n        /* \"#utility.yul\":310:311   */\n      0x00\n        /* \"#utility.yul\":335:385   */\n      tag_29\n        /* \"#utility.yul\":377:384   */\n      dup5\n        /* \"#utility.yul\":368:374   */\n      dup3\n        /* \"#utility.yul\":357:366   */\n      dup6\n        /* \"#utility.yul\":353:375   */\n      add\n        /* \"#utility.yul\":335:385   */\n      tag_23\n      jump\t// in\n    tag_29:\n        /* \"#utility.yul\":325:385   */\n      swap2\n      pop\n        /* \"#utility.yul\":281:395   */\n      pop\n        /* \"#utility.yul\":209:402   */\n      swap3\n      swap2\n      pop\n      pop\n      jump\t// out\n        /* \"#utility.yul\":408:772   */\n    tag_30:\n      0x00\n        /* \"#utility.yul\":524:563   */\n      tag_32\n        /* \"#utility.yul\":557:562   */\n      dup3\n        /* \"#utility.yul\":524:563   */\n      tag_33\n      jump\t// in\n    tag_32:\n        /* \"#utility.yul\":579:650   */\n      tag_34\n        /* \"#utility.yul\":643:649   */\n      dup2\n        /* \"#utility.yul\":638:641   */\n      dup6\n        /* \"#utility.yul\":579:650   */\n      tag_35\n      jump\t// in\n    tag_34:\n        /* \"#utility.yul\":572:650   */\n      swap4\n      pop\n        /* \"#utility.yul\":659:711   */\n      tag_36\n        /* \"#utility.yul\":704:710   */\n      dup2\n        /* \"#utility.yul\":699:702   */\n      dup6\n        /* \"#utility.yul\":692:696   */\n      0x20\n        /* \"#utility.yul\":685:690   */\n      dup7\n        /* \"#utility.yul\":681:697   */\n      add\n        /* \"#utility.yul\":659:711   */\n      tag_37\n      jump\t// in\n    tag_36:\n        /* \"#utility.yul\":736:765   */\n      tag_38\n        /* \"#utility.yul\":758:764   */\n      dup2\n        /* \"#utility.yul\":736:765   */\n      tag_39\n      jump\t// in\n    tag_38:\n        /* \"#utility.yul\":731:734   */\n      dup5\n        /* \"#utility.yul\":727:766   */\n      add\n        /* \"#utility.yul\":720:766   */\n      swap2\n      pop\n        /* \"#utility.yul\":500:772   */\n      pop\n      swap3\n      swap2\n      pop\n      pop\n      jump\t// out\n        /* \"#utility.yul\":778:1091   */\n    tag_10:\n      0x00\n        /* \"#utility.yul\":929:931   */\n      0x20\n        /* \"#utility.yul\":918:927   */\n      dup3\n        /* \"#utility.yul\":914:932   */\n      add\n        /* \"#utility.yul\":906:932   */\n      swap1\n      pop\n        /* \"#utility.yul\":978:987   */\n      dup2\n        /* \"#utility.yul\":972:976   */\n      dup2\n        /* \"#utility.yul\":968:988   */\n      sub\n        /* \"#utility.yul\":964:965   */\n      0x00\n        /* \"#utility.yul\":953:962   */\n      dup4\n        /* \"#utility.yul\":949:966   */\n      add\n        /* \"#utility.yul\":942:989   */\n      mstore\n        /* \"#utility.yul\":1006:1084   */\n      tag_41\n        /* \"#utility.yul\":1079:1083   */\n      dup2\n        /* \"#utility.yul\":1070:1076   */\n      dup5\n        /* \"#utility.yul\":1006:1084   */\n      tag_30\n      jump\t// in\n    tag_41:\n        /* \"#utility.yul\":998:1084   */\n      swap1\n      pop\n        /* \"#utility.yul\":896:1091   */\n      swap3\n      swap2\n      pop\n      pop\n      jump\t// out\n        /* \"#utility.yul\":1097:1196   */\n    tag_33:\n      0x00\n        /* \"#utility.yul\":1183:1188   */\n      dup2\n        /* \"#utility.yul\":1177:1189   */\n      mload\n        /* \"#utility.yul\":1167:1189   */\n      swap1\n      pop\n        /* \"#utility.yul\":1156:1196   */\n      swap2\n      swap1\n      pop\n      jump\t// out\n        /* \"#utility.yul\":1202:1371   */\n    tag_35:\n      0x00\n        /* \"#utility.yul\":1320:1326   */\n      dup3\n        /* \"#utility.yul\":1315:1318   */\n      dup3\n        /* \"#utility.yul\":1308:1327   */\n      mstore\n        /* \"#utility.yul\":1360:1364   */\n      0x20\n        /* \"#utility.yul\":1355:1358   */\n      dup3\n        /* \"#utility.yul\":1351:1365   */\n      add\n        /* \"#utility.yul\":1336:1365   */\n      swap1\n      pop\n        /* \"#utility.yul\":1298:1371   */\n      swap3\n      swap2\n      pop\n      pop\n      jump\t// out\n        /* \"#utility.yul\":1377:1467   */\n    tag_44:\n      0x00\n        /* \"#utility.yul\":1454:1459   */\n      dup2\n        /* \"#utility.yul\":1447:1460   */\n      iszero\n        /* \"#utility.yul\":1440:1461   */\n      iszero\n        /* \"#utility.yul\":1429:1461   */\n      swap1\n      pop\n        /* \"#utility.yul\":1419:1467   */\n      swap2\n      swap1\n      pop\n      jump\t// out\n        /* \"#utility.yul\":1473:1780   */\n    tag_37:\n        /* \"#utility.yul\":1541:1542   */\n      0x00\n        /* \"#utility.yul\":1551:1664   */\n    tag_47:\n        /* \"#utility.yul\":1565:1571   */\n      dup4\n        /* \"#utility.yul\":1562:1563   */\n      dup2\n        /* \"#utility.yul\":1559:1572   */\n      lt\n        /* \"#utility.yul\":1551:1664   */\n      iszero\n      tag_49\n      jumpi\n        /* \"#utility.yul\":1650:1651   */\n      dup1\n        /* \"#utility.yul\":1645:1648   */\n      dup3\n        /* \"#utility.yul\":1641:1652   */\n      add\n        /* \"#utility.yul\":1635:1653   */\n      mload\n        /* \"#utility.yul\":1631:1632   */\n      dup2\n        /* \"#utility.yul\":1626:1629   */\n      dup5\n        /* \"#utility.yul\":1622:1633   */\n      add\n        /* \"#utility.yul\":1615:1654   */\n      mstore\n        /* \"#utility.yul\":1587:1589   */\n      0x20\n        /* \"#utility.yul\":1584:1585   */\n      dup2\n        /* \"#utility.yul\":1580:1590   */\n      add\n        /* \"#utility.yul\":1575:1590   */\n      swap1\n      pop\n        /* \"#utility.yul\":1551:1664   */\n      jump(tag_47)\n    tag_49:\n        /* \"#utility.yul\":1682:1688   */\n      dup4\n        /* \"#utility.yul\":1679:1680   */\n      dup2\n        /* \"#utility.yul\":1676:1689   */\n      gt\n        /* \"#utility.yul\":1673:1675   */\n      iszero\n      tag_50\n      jumpi\n        /* \"#utility.yul\":1762:1763   */\n      0x00\n        /* \"#utility.yul\":1753:1759   */\n      dup5\n        /* \"#utility.yul\":1748:1751   */\n      dup5\n        /* \"#utility.yul\":1744:1760   */\n      add\n        /* \"#utility.yul\":1737:1764   */\n      mstore\n        /* \"#utility.yul\":1673:1675   */\n    tag_50:\n        /* \"#utility.yul\":1522:1780   */\n      pop\n      pop\n      pop\n      pop\n      jump\t// out\n        /* \"#utility.yul\":1786:1888   */\n    tag_39:\n      0x00\n        /* \"#utility.yul\":1878:1880   */\n      0x1f\n        /* \"#utility.yul\":1874:1881   */\n      not\n        /* \"#utility.yul\":1869:1871   */\n      0x1f\n        /* \"#utility.yul\":1862:1867   */\n      dup4\n        /* \"#utility.yul\":1858:1872   */\n      add\n        /* \"#utility.yul\":1854:1882   */\n      and\n        /* \"#utility.yul\":1844:1882   */\n      swap1\n      pop\n        /* \"#utility.yul\":1834:1888   */\n      swap2\n      swap1\n      pop\n      jump\t// out\n        /* \"#utility.yul\":1894:2010   */\n    tag_26:\n        /* \"#utility.yul\":1964:1985   */\n      tag_53\n        /* \"#utility.yul\":1979:1984   */\n      dup2\n        /* \"#utility.yul\":1964:1985   */\n      tag_44\n      jump\t// in\n    tag_53:\n        /* \"#utility.yul\":1957:1962   */\n      dup2\n        /* \"#utility.yul\":1954:1986   */\n      eq\n        /* \"#utility.yul\":1944:1946   */\n      tag_54\n      jumpi\n        /* \"#utility.yul\":2000:2001   */\n      0x00\n        /* \"#utility.yul\":1997:1998   */\n      dup1\n        /* \"#utility.yul\":1990:2002   */\n      revert\n        /* \"#utility.yul\":1944:1946   */\n    tag_54:\n        /* \"#utility.yul\":1934:2010   */\n      pop\n      jump\t// out\n    stop\n    data_21d9e59d7b932fa9522054d2353c2cc3a5ef5536b2468dfd58e2095208144532 697475626c6f636b636861696e2e636f6d2061647265736920757a6572696e64656e206b756c75626520757965206f6c6162696c697273696e697a203a29\n    data_7cf16e5e88d1a8e27a7dc9e9d441f1e8fe1c8d5bafca9438508620601a99b7bc 53656c616d6c61722069747520626c6f636b636861696e2075796573692c206e6173696c73696e203f203a29\n\n    auxdata: 0xa2646970667358221220f938cc4382856a6a800f1fecab55c67ba9cbe4864ac5dd6b30066dc6f6bf742364736f6c63430008000033\n}\n",
				"bytecode": {
					"linkReferences": {},
					"object": "608060405234801561001057600080fd5b506102a9806100206000396000f3fe608060405234801561001057600080fd5b50600436106100365760003560e01c80638163604a1461003b578063ef5fb05b1461006b575b600080fd5b61005560048036038101906100509190610102565b610089565b6040516100629190610164565b60405180910390f35b6100736100ad565b6040516100809190610164565b60405180910390f35b60608161009d576100986100cd565b6100a6565b6100a56100ad565b5b9050919050565b60606040518060600160405280602c8152602001610248602c9139905090565b60606040518060600160405280603e815260200161020a603e9139905090565b6000813590506100fc816101f2565b92915050565b60006020828403121561011457600080fd5b6000610122848285016100ed565b91505092915050565b600061013682610186565b6101408185610191565b93506101508185602086016101ae565b610159816101e1565b840191505092915050565b6000602082019050818103600083015261017e818461012b565b905092915050565b600081519050919050565b600082825260208201905092915050565b60008115159050919050565b60005b838110156101cc5780820151818401526020810190506101b1565b838111156101db576000848401525b50505050565b6000601f19601f8301169050919050565b6101fb816101a2565b811461020657600080fd5b5056fe697475626c6f636b636861696e2e636f6d2061647265736920757a6572696e64656e206b756c75626520757965206f6c6162696c697273696e697a203a2953656c616d6c61722069747520626c6f636b636861696e2075796573692c206e6173696c73696e203f203a29a2646970667358221220f938cc4382856a6a800f1fecab55c67ba9cbe4864ac5dd6b30066dc6f6bf742364736f6c63430008000033",
					"opcodes": "PUSH1 0x80 PUSH1 0x40 MSTORE CALLVALUE DUP1 ISZERO PUSH2 0x10 JUMPI PUSH1 0x0 DUP1 REVERT JUMPDEST POP PUSH2 0x2A9 DUP1 PUSH2 0x20 PUSH1 0x0 CODECOPY PUSH1 0x0 RETURN INVALID PUSH1 0x80 PUSH1 0x40 MSTORE CALLVALUE DUP1 ISZERO PUSH2 0x10 JUMPI PUSH1 0x0 DUP1 REVERT JUMPDEST POP PUSH1 0x4 CALLDATASIZE LT PUSH2 0x36 JUMPI PUSH1 0x0 CALLDATALOAD PUSH1 0xE0 SHR DUP1 PUSH4 0x8163604A EQ PUSH2 0x3B JUMPI DUP1 PUSH4 0xEF5FB05B EQ PUSH2 0x6B JUMPI JUMPDEST PUSH1 0x0 DUP1 REVERT JUMPDEST PUSH2 0x55 PUSH1 0x4 DUP1 CALLDATASIZE SUB DUP2 ADD SWAP1 PUSH2 0x50 SWAP2 SWAP1 PUSH2 0x102 JUMP JUMPDEST PUSH2 0x89 JUMP JUMPDEST PUSH1 0x40 MLOAD PUSH2 0x62 SWAP2 SWAP1 PUSH2 0x164 JUMP JUMPDEST PUSH1 0x40 MLOAD DUP1 SWAP2 SUB SWAP1 RETURN JUMPDEST PUSH2 0x73 PUSH2 0xAD JUMP JUMPDEST PUSH1 0x40 MLOAD PUSH2 0x80 SWAP2 SWAP1 PUSH2 0x164 JUMP JUMPDEST PUSH1 0x40 MLOAD DUP1 SWAP2 SUB SWAP1 RETURN JUMPDEST PUSH1 0x60 DUP2 PUSH2 0x9D JUMPI PUSH2 0x98 PUSH2 0xCD JUMP JUMPDEST PUSH2 0xA6 JUMP JUMPDEST PUSH2 0xA5 PUSH2 0xAD JUMP JUMPDEST JUMPDEST SWAP1 POP SWAP2 SWAP1 POP JUMP JUMPDEST PUSH1 0x60 PUSH1 0x40 MLOAD DUP1 PUSH1 0x60 ADD PUSH1 0x40 MSTORE DUP1 PUSH1 0x2C DUP2 MSTORE PUSH1 0x20 ADD PUSH2 0x248 PUSH1 0x2C SWAP2 CODECOPY SWAP1 POP SWAP1 JUMP JUMPDEST PUSH1 0x60 PUSH1 0x40 MLOAD DUP1 PUSH1 0x60 ADD PUSH1 0x40 MSTORE DUP1 PUSH1 0x3E DUP2 MSTORE PUSH1 0x20 ADD PUSH2 0x20A PUSH1 0x3E SWAP2 CODECOPY SWAP1 POP SWAP1 JUMP JUMPDEST PUSH1 0x0 DUP2 CALLDATALOAD SWAP1 POP PUSH2 0xFC DUP2 PUSH2 0x1F2 JUMP JUMPDEST SWAP3 SWAP2 POP POP JUMP JUMPDEST PUSH1 0x0 PUSH1 0x20 DUP3 DUP5 SUB SLT ISZERO PUSH2 0x114 JUMPI PUSH1 0x0 DUP1 REVERT JUMPDEST PUSH1 0x0 PUSH2 0x122 DUP5 DUP3 DUP6 ADD PUSH2 0xED JUMP JUMPDEST SWAP2 POP POP SWAP3 SWAP2 POP POP JUMP JUMPDEST PUSH1 0x0 PUSH2 0x136 DUP3 PUSH2 0x186 JUMP JUMPDEST PUSH2 0x140 DUP2 DUP6 PUSH2 0x191 JUMP JUMPDEST SWAP4 POP PUSH2 0x150 DUP2 DUP6 PUSH1 0x20 DUP7 ADD PUSH2 0x1AE JUMP JUMPDEST PUSH2 0x159 DUP2 PUSH2 0x1E1 JUMP JUMPDEST DUP5 ADD SWAP2 POP POP SWAP3 SWAP2 POP POP JUMP JUMPDEST PUSH1 0x0 PUSH1 0x20 DUP3 ADD SWAP1 POP DUP2 DUP2 SUB PUSH1 0x0 DUP4 ADD MSTORE PUSH2 0x17E DUP2 DUP5 PUSH2 0x12B JUMP JUMPDEST SWAP1 POP SWAP3 SWAP2 POP POP JUMP JUMPDEST PUSH1 0x0 DUP2 MLOAD SWAP1 POP SWAP2 SWAP1 POP JUMP JUMPDEST PUSH1 0x0 DUP3 DUP3 MSTORE PUSH1 0x20 DUP3 ADD SWAP1 POP SWAP3 SWAP2 POP POP JUMP JUMPDEST PUSH1 0x0 DUP2 ISZERO ISZERO SWAP1 POP SWAP2 SWAP1 POP JUMP JUMPDEST PUSH1 0x0 JUMPDEST DUP4 DUP2 LT ISZERO PUSH2 0x1CC JUMPI DUP1 DUP3 ADD MLOAD DUP2 DUP5 ADD MSTORE PUSH1 0x20 DUP2 ADD SWAP1 POP PUSH2 0x1B1 JUMP JUMPDEST DUP4 DUP2 GT ISZERO PUSH2 0x1DB JUMPI PUSH1 0x0 DUP5 DUP5 ADD MSTORE JUMPDEST POP POP POP POP JUMP JUMPDEST PUSH1 0x0 PUSH1 0x1F NOT PUSH1 0x1F DUP4 ADD AND SWAP1 POP SWAP2 SWAP1 POP JUMP JUMPDEST PUSH2 0x1FB DUP2 PUSH2 0x1A2 JUMP JUMPDEST DUP2 EQ PUSH2 0x206 JUMPI PUSH1 0x0 DUP1 REVERT JUMPDEST POP JUMP INVALID PUSH10 0x7475626C6F636B636861 PUSH10 0x6E2E636F6D2061647265 PUSH20 0x6920757A6572696E64656E206B756C7562652075 PUSH26 0x65206F6C6162696C697273696E697A203A2953656C616D6C6172 KECCAK256 PUSH10 0x747520626C6F636B6368 PUSH2 0x696E KECCAK256 PUSH22 0x796573692C206E6173696C73696E203F203A29A26469 PUSH17 0x667358221220F938CC4382856A6A800F1F 0xEC 0xAB SSTORE 0xC6 PUSH28 0xA9CBE4864AC5DD6B30066DC6F6BF742364736F6C6343000800003300 "
				},
				"gasEstimates": {
					"creation": {
						"codeDepositCost": "136200",
						"executionCost": "183",
						"totalCost": "136383"
					},
					"external": {
						"sayHello()": "infinite",
						"welcomeMsg(bool)": "infinite"
					}
				},
				"methodIdentifiers": {
					"sayHello()": "ef5fb05b",
					"welcomeMsg(bool)": "8163604a"
				}
			},
			"storageLayout": {
				"storage": [],
				"types": null
			},
			"userdoc": {
				"kind": "user",
				"methods": {},
				"version": 1
			}
		}
	}
}