{
	"data": {
		"bytecode": {
			"linkReferences": {},
			"object": "6080604052348015600e575f5ffd5b503360015f6101000a81548173ffffffffffffffffffffffffffffffffffffffff021916908373ffffffffffffffffffffffffffffffffffffffff1602179055506117208061005c5f395ff3fe608060405234801561000f575f5ffd5b506004361061007b575f3560e01c80638574cd14116100595780638574cd14146100e9578063995593db14610107578063ba3eeaca14610123578063feff9c1e146101555761007b565b80634ace52131461007f578063737f545f1461009b57806373fea758146100b9575b5f5ffd5b61009960048036038101906100949190610b14565b610185565b005b6100a361043c565b6040516100b09190610b4e565b60405180910390f35b6100d360048036038101906100ce9190610b14565b610442565b6040516100e09190610da7565b60405180910390f35b6100f1610637565b6040516100fe9190610dd6565b60405180910390f35b610121600480360381019061011c9190610f1b565b61065c565b005b61013d60048036038101906101389190610b14565b6107a4565b60405161014c93929190610fcc565b60405180910390f35b61016f600480360381019061016a91906110cc565b610889565b60405161017c9190610b4e565b60405180910390f35b805f8054905081106101cc576040517f08c379a00000000000000000000000000000000000000000000000000000000081526004016101c39061118c565b60405180910390fd5b60015f9054906101000a900473ffffffffffffffffffffffffffffffffffffffff1673ffffffffffffffffffffffffffffffffffffffff163373ffffffffffffffffffffffffffffffffffffffff161461025b576040517f08c379a0000000000000000000000000000000000000000000000000000000008152600401610252906111f4565b60405180910390fd5b5f5f838154811061026f5761026e611212565b5b905f5260205f20906004020190506003808111156102905761028f610ccd565b5b816003015f9054906101000a900460ff1660038111156102b3576102b2610ccd565b5b036102f3576040517f08c379a00000000000000000000000000000000000000000000000000000000081526004016102ea90611289565b60405180910390fd5b5f600381111561030657610305610ccd565b5b816003015f9054906101000a900460ff16600381111561032957610328610ccd565b5b0361035f576001816003015f6101000a81548160ff0219169083600381111561035557610354610ccd565b5b0217905550610437565b6001600381111561037357610372610ccd565b5b816003015f9054906101000a900460ff16600381111561039657610395610ccd565b5b036103cc576002816003015f6101000a81548160ff021916908360038111156103c2576103c1610ccd565b5b0217905550610436565b600260038111156103e0576103df610ccd565b5b816003015f9054906101000a900460ff16600381111561040357610402610ccd565b5b03610435576003816003015f6101000a81548160ff0219169083600381111561042f5761042e610ccd565b5b02179055505b5b5b505050565b60025481565b61044a610a1c565b815f805490508110610491576040517f08c379a00000000000000000000000000000000000000000000000000000000081526004016104889061118c565b60405180910390fd5b5f83815481106104a4576104a3611212565b5b905f5260205f2090600402016040518060800160405290815f82015f9054906101000a900473ffffffffffffffffffffffffffffffffffffffff1673ffffffffffffffffffffffffffffffffffffffff1673ffffffffffffffffffffffffffffffffffffffff16815260200160018201805461051f906112d4565b80601f016020809104026020016040519081016040528092919081815260200182805461054b906112d4565b80156105965780601f1061056d57610100808354040283529160200191610596565b820191905f5260205f20905b81548152906001019060200180831161057957829003601f168201915b50505050508152602001600282018054806020026020016040519081016040528092919081815260200182805480156105ec57602002820191905f5260205f20905b8154815260200190600101908083116105d8575b50505050508152602001600382015f9054906101000a900460ff16600381111561061957610618610ccd565b5b600381111561062b5761062a610ccd565b5b81525050915050919050565b60015f9054906101000a900473ffffffffffffffffffffffffffffffffffffffff1681565b813373ffffffffffffffffffffffffffffffffffffffff165f828154811061068757610686611212565b5b905f5260205f2090600402015f015f9054906101000a900473ffffffffffffffffffffffffffffffffffffffff1673ffffffffffffffffffffffffffffffffffffffff161461070b576040517f08c379a00000000000000000000000000000000000000000000000000000000081526004016107029061134e565b60405180910390fd5b825f805490508110610752576040517f08c379a00000000000000000000000000000000000000000000000000000000081526004016107499061118c565b60405180910390fd5b5f5f858154811061076657610765611212565b5b905f5260205f209060040201905083816001019081610785919061150c565b50505060025f81548092919061079a90611608565b9190505550505050565b5f81815481106107b2575f80fd5b905f5260205f2090600402015f91509050805f015f9054906101000a900473ffffffffffffffffffffffffffffffffffffffff16908060010180546107f6906112d4565b80601f0160208091040260200160405190810160405280929190818152602001828054610822906112d4565b801561086d5780601f106108445761010080835404028352916020019161086d565b820191905f5260205f20905b81548152906001019060200180831161085057829003601f168201915b505050505090806003015f9054906101000a900460ff16905083565b5f815f8151116108ce576040517f08c379a00000000000000000000000000000000000000000000000000000000081526004016108c590611699565b60405180910390fd5b5f60405180608001604052803373ffffffffffffffffffffffffffffffffffffffff1681526020018681526020018581526020015f600381111561091557610914610ccd565b5b81525090505f81908060018154018082558091505060019003905f5260205f2090600402015f909190919091505f820151815f015f6101000a81548173ffffffffffffffffffffffffffffffffffffffff021916908373ffffffffffffffffffffffffffffffffffffffff160217905550602082015181600101908161099b919061150c565b5060408201518160020190805190602001906109b8929190610a6a565b506060820151816003015f6101000a81548160ff021916908360038111156109e3576109e2610ccd565b5b0217905550505060015f805490506109fb91906116b7565b9250505060025f815480929190610a1190611608565b919050555092915050565b60405180608001604052805f73ffffffffffffffffffffffffffffffffffffffff16815260200160608152602001606081526020015f6003811115610a6457610a63610ccd565b5b81525090565b828054828255905f5260205f20908101928215610aa4579160200282015b82811115610aa3578251825591602001919060010190610a88565b5b509050610ab19190610ab5565b5090565b5b80821115610acc575f815f905550600101610ab6565b5090565b5f604051905090565b5f5ffd5b5f5ffd5b5f819050919050565b610af381610ae1565b8114610afd575f5ffd5b50565b5f81359050610b0e81610aea565b92915050565b5f60208284031215610b2957610b28610ad9565b5b5f610b3684828501610b00565b91505092915050565b610b4881610ae1565b82525050565b5f602082019050610b615f830184610b3f565b92915050565b5f73ffffffffffffffffffffffffffffffffffffffff82169050919050565b5f610b9082610b67565b9050919050565b610ba081610b86565b82525050565b5f81519050919050565b5f82825260208201905092915050565b8281835e5f83830152505050565b5f601f19601f8301169050919050565b5f610be882610ba6565b610bf28185610bb0565b9350610c02818560208601610bc0565b610c0b81610bce565b840191505092915050565b5f81519050919050565b5f82825260208201905092915050565b5f819050602082019050919050565b610c4881610ae1565b82525050565b5f610c598383610c3f565b60208301905092915050565b5f602082019050919050565b5f610c7b82610c16565b610c858185610c20565b9350610c9083610c30565b805f5b83811015610cc0578151610ca78882610c4e565b9750610cb283610c65565b925050600181019050610c93565b5085935050505092915050565b7f4e487b71000000000000000000000000000000000000000000000000000000005f52602160045260245ffd5b60048110610d0b57610d0a610ccd565b5b50565b5f819050610d1b82610cfa565b919050565b5f610d2a82610d0e565b9050919050565b610d3a81610d20565b82525050565b5f608083015f830151610d555f860182610b97565b5060208301518482036020860152610d6d8282610bde565b91505060408301518482036040860152610d878282610c71565b9150506060830151610d9c6060860182610d31565b508091505092915050565b5f6020820190508181035f830152610dbf8184610d40565b905092915050565b610dd081610b86565b82525050565b5f602082019050610de95f830184610dc7565b92915050565b5f5ffd5b5f5ffd5b7f4e487b71000000000000000000000000000000000000000000000000000000005f52604160045260245ffd5b610e2d82610bce565b810181811067ffffffffffffffff82111715610e4c57610e4b610df7565b5b80604052505050565b5f610e5e610ad0565b9050610e6a8282610e24565b919050565b5f67ffffffffffffffff821115610e8957610e88610df7565b5b610e9282610bce565b9050602081019050919050565b828183375f83830152505050565b5f610ebf610eba84610e6f565b610e55565b905082815260208101848484011115610edb57610eda610df3565b5b610ee6848285610e9f565b509392505050565b5f82601f830112610f0257610f01610def565b5b8135610f12848260208601610ead565b91505092915050565b5f5f60408385031215610f3157610f30610ad9565b5b5f610f3e85828601610b00565b925050602083013567ffffffffffffffff811115610f5f57610f5e610add565b5b610f6b85828601610eee565b9150509250929050565b5f82825260208201905092915050565b5f610f8f82610ba6565b610f998185610f75565b9350610fa9818560208601610bc0565b610fb281610bce565b840191505092915050565b610fc681610d20565b82525050565b5f606082019050610fdf5f830186610dc7565b8181036020830152610ff18185610f85565b90506110006040830184610fbd565b949350505050565b5f67ffffffffffffffff82111561102257611021610df7565b5b602082029050602081019050919050565b5f5ffd5b5f61104961104484611008565b610e55565b9050808382526020820190506020840283018581111561106c5761106b611033565b5b835b8181101561109557806110818882610b00565b84526020840193505060208101905061106e565b5050509392505050565b5f82601f8301126110b3576110b2610def565b5b81356110c3848260208601611037565b91505092915050565b5f5f604083850312156110e2576110e1610ad9565b5b5f83013567ffffffffffffffff8111156110ff576110fe610add565b5b61110b85828601610eee565b925050602083013567ffffffffffffffff81111561112c5761112b610add565b5b6111388582860161109f565b9150509250929050565b7f47656365726c6920626972207369706172697320494427736920646567696c2e5f82015250565b5f611176602083610f75565b915061118182611142565b602082019050919050565b5f6020820190508181035f8301526111a38161116a565b9050919050565b7f5965746b696e697a20796f6b2e000000000000000000000000000000000000005f82015250565b5f6111de600d83610f75565b91506111e9826111aa565b602082019050919050565b5f6020820190508181035f83015261120b816111d2565b9050919050565b7f4e487b71000000000000000000000000000000000000000000000000000000005f52603260045260245ffd5b7f53697061726973207a6174656e206b6172676f6c616e64692e000000000000005f82015250565b5f611273601983610f75565b915061127e8261123f565b602082019050919050565b5f6020820190508181035f8301526112a081611267565b9050919050565b7f4e487b71000000000000000000000000000000000000000000000000000000005f52602260045260245ffd5b5f60028204905060018216806112eb57607f821691505b6020821081036112fe576112fd6112a7565b5b50919050565b7f53697061726973696e2073616869626920646567696c73696e697a2e000000005f82015250565b5f611338601c83610f75565b915061134382611304565b602082019050919050565b5f6020820190508181035f8301526113658161132c565b9050919050565b5f819050815f5260205f209050919050565b5f6020601f8301049050919050565b5f82821b905092915050565b5f600883026113c87fffffffffffffffffffffffffffffffffffffffffffffffffffffffffffffffff8261138d565b6113d2868361138d565b95508019841693508086168417925050509392505050565b5f819050919050565b5f61140d61140861140384610ae1565b6113ea565b610ae1565b9050919050565b5f819050919050565b611426836113f3565b61143a61143282611414565b848454611399565b825550505050565b5f5f905090565b611451611442565b61145c81848461141d565b505050565b5b8181101561147f576114745f82611449565b600181019050611462565b5050565b601f8211156114c4576114958161136c565b61149e8461137e565b810160208510156114ad578190505b6114c16114b98561137e565b830182611461565b50505b505050565b5f82821c905092915050565b5f6114e45f19846008026114c9565b1980831691505092915050565b5f6114fc83836114d5565b9150826002028217905092915050565b61151582610ba6565b67ffffffffffffffff81111561152e5761152d610df7565b5b61153882546112d4565b611543828285611483565b5f60209050601f831160018114611574575f8415611562578287015190505b61156c85826114f1565b8655506115d3565b601f1984166115828661136c565b5f5b828110156115a957848901518255600182019150602085019450602081019050611584565b868310156115c657848901516115c2601f8916826114d5565b8355505b6001600288020188555050505b505050505050565b7f4e487b71000000000000000000000000000000000000000000000000000000005f52601160045260245ffd5b5f61161282610ae1565b91507fffffffffffffffffffffffffffffffffffffffffffffffffffffffffffffffff8203611644576116436115db565b5b600182019050919050565b7f5572756e206c69737465736920626f73206f6c616d617a2e00000000000000005f82015250565b5f611683601883610f75565b915061168e8261164f565b602082019050919050565b5f6020820190508181035f8301526116b081611677565b9050919050565b5f6116c182610ae1565b91506116cc83610ae1565b92508282039050818111156116e4576116e36115db565b5b9291505056fea26469706673582212206454788b2eafab4adc01f6dc4c94a738fb09e40d6d08f7a10e28269408bedf9764736f6c634300081c0033",
			"opcodes": "PUSH1 0x80 PUSH1 0x40 MSTORE CALLVALUE DUP1 ISZERO PUSH1 0xE JUMPI PUSH0 PUSH0 REVERT JUMPDEST POP CALLER PUSH1 0x1 PUSH0 PUSH2 0x100 EXP DUP2 SLOAD DUP2 PUSH20 0xFFFFFFFFFFFFFFFFFFFFFFFFFFFFFFFFFFFFFFFF MUL NOT AND SWAP1 DUP4 PUSH20 0xFFFFFFFFFFFFFFFFFFFFFFFFFFFFFFFFFFFFFFFF AND MUL OR SWAP1 SSTORE POP PUSH2 0x1720 DUP1 PUSH2 0x5C PUSH0 CODECOPY PUSH0 RETURN INVALID PUSH1 0x80 PUSH1 0x40 MSTORE CALLVALUE DUP1 ISZERO PUSH2 0xF JUMPI PUSH0 PUSH0 REVERT JUMPDEST POP PUSH1 0x4 CALLDATASIZE LT PUSH2 0x7B JUMPI PUSH0 CALLDATALOAD PUSH1 0xE0 SHR DUP1 PUSH4 0x8574CD14 GT PUSH2 0x59 JUMPI DUP1 PUSH4 0x8574CD14 EQ PUSH2 0xE9 JUMPI DUP1 PUSH4 0x995593DB EQ PUSH2 0x107 JUMPI DUP1 PUSH4 0xBA3EEACA EQ PUSH2 0x123 JUMPI DUP1 PUSH4 0xFEFF9C1E EQ PUSH2 0x155 JUMPI PUSH2 0x7B JUMP JUMPDEST DUP1 PUSH4 0x4ACE5213 EQ PUSH2 0x7F JUMPI DUP1 PUSH4 0x737F545F EQ PUSH2 0x9B JUMPI DUP1 PUSH4 0x73FEA758 EQ PUSH2 0xB9 JUMPI JUMPDEST PUSH0 PUSH0 REVERT JUMPDEST PUSH2 0x99 PUSH1 0x4 DUP1 CALLDATASIZE SUB DUP2 ADD SWAP1 PUSH2 0x94 SWAP2 SWAP1 PUSH2 0xB14 JUMP JUMPDEST PUSH2 0x185 JUMP JUMPDEST STOP JUMPDEST PUSH2 0xA3 PUSH2 0x43C JUMP JUMPDEST PUSH1 0x40 MLOAD PUSH2 0xB0 SWAP2 SWAP1 PUSH2 0xB4E JUMP JUMPDEST PUSH1 0x40 MLOAD DUP1 SWAP2 SUB SWAP1 RETURN JUMPDEST PUSH2 0xD3 PUSH1 0x4 DUP1 CALLDATASIZE SUB DUP2 ADD SWAP1 PUSH2 0xCE SWAP2 SWAP1 PUSH2 0xB14 JUMP JUMPDEST PUSH2 0x442 JUMP JUMPDEST PUSH1 0x40 MLOAD PUSH2 0xE0 SWAP2 SWAP1 PUSH2 0xDA7 JUMP JUMPDEST PUSH1 0x40 MLOAD DUP1 SWAP2 SUB SWAP1 RETURN JUMPDEST PUSH2 0xF1 PUSH2 0x637 JUMP JUMPDEST PUSH1 0x40 MLOAD PUSH2 0xFE SWAP2 SWAP1 PUSH2 0xDD6 JUMP JUMPDEST PUSH1 0x40 MLOAD DUP1 SWAP2 SUB SWAP1 RETURN JUMPDEST PUSH2 0x121 PUSH1 0x4 DUP1 CALLDATASIZE SUB DUP2 ADD SWAP1 PUSH2 0x11C SWAP2 SWAP1 PUSH2 0xF1B JUMP JUMPDEST PUSH2 0x65C JUMP JUMPDEST STOP JUMPDEST PUSH2 0x13D PUSH1 0x4 DUP1 CALLDATASIZE SUB DUP2 ADD SWAP1 PUSH2 0x138 SWAP2 SWAP1 PUSH2 0xB14 JUMP JUMPDEST PUSH2 0x7A4 JUMP JUMPDEST PUSH1 0x40 MLOAD PUSH2 0x14C SWAP4 SWAP3 SWAP2 SWAP1 PUSH2 0xFCC JUMP JUMPDEST PUSH1 0x40 MLOAD DUP1 SWAP2 SUB SWAP1 RETURN JUMPDEST PUSH2 0x16F PUSH1 0x4 DUP1 CALLDATASIZE SUB DUP2 ADD SWAP1 PUSH2 0x16A SWAP2 SWAP1 PUSH2 0x10CC JUMP JUMPDEST PUSH2 0x889 JUMP JUMPDEST PUSH1 0x40 MLOAD PUSH2 0x17C SWAP2 SWAP1 PUSH2 0xB4E JUMP JUMPDEST PUSH1 0x40 MLOAD DUP1 SWAP2 SUB SWAP1 RETURN JUMPDEST DUP1 PUSH0 DUP1 SLOAD SWAP1 POP DUP2 LT PUSH2 0x1CC JUMPI PUSH1 0x40 MLOAD PUSH32 0x8C379A000000000000000000000000000000000000000000000000000000000 DUP2 MSTORE PUSH1 0x4 ADD PUSH2 0x1C3 SWAP1 PUSH2 0x118C JUMP JUMPDEST PUSH1 0x40 MLOAD DUP1 SWAP2 SUB SWAP1 REVERT JUMPDEST PUSH1 0x1 PUSH0 SWAP1 SLOAD SWAP1 PUSH2 0x100 EXP SWAP1 DIV PUSH20 0xFFFFFFFFFFFFFFFFFFFFFFFFFFFFFFFFFFFFFFFF AND PUSH20 0xFFFFFFFFFFFFFFFFFFFFFFFFFFFFFFFFFFFFFFFF AND CALLER PUSH20 0xFFFFFFFFFFFFFFFFFFFFFFFFFFFFFFFFFFFFFFFF AND EQ PUSH2 0x25B JUMPI PUSH1 0x40 MLOAD PUSH32 0x8C379A000000000000000000000000000000000000000000000000000000000 DUP2 MSTORE PUSH1 0x4 ADD PUSH2 0x252 SWAP1 PUSH2 0x11F4 JUMP JUMPDEST PUSH1 0x40 MLOAD DUP1 SWAP2 SUB SWAP1 REVERT JUMPDEST PUSH0 PUSH0 DUP4 DUP2 SLOAD DUP2 LT PUSH2 0x26F JUMPI PUSH2 0x26E PUSH2 0x1212 JUMP JUMPDEST JUMPDEST SWAP1 PUSH0 MSTORE PUSH1 0x20 PUSH0 KECCAK256 SWAP1 PUSH1 0x4 MUL ADD SWAP1 POP PUSH1 0x3 DUP1 DUP2 GT ISZERO PUSH2 0x290 JUMPI PUSH2 0x28F PUSH2 0xCCD JUMP JUMPDEST JUMPDEST DUP2 PUSH1 0x3 ADD PUSH0 SWAP1 SLOAD SWAP1 PUSH2 0x100 EXP SWAP1 DIV PUSH1 0xFF AND PUSH1 0x3 DUP2 GT ISZERO PUSH2 0x2B3 JUMPI PUSH2 0x2B2 PUSH2 0xCCD JUMP JUMPDEST JUMPDEST SUB PUSH2 0x2F3 JUMPI PUSH1 0x40 MLOAD PUSH32 0x8C379A000000000000000000000000000000000000000000000000000000000 DUP2 MSTORE PUSH1 0x4 ADD PUSH2 0x2EA SWAP1 PUSH2 0x1289 JUMP JUMPDEST PUSH1 0x40 MLOAD DUP1 SWAP2 SUB SWAP1 REVERT JUMPDEST PUSH0 PUSH1 0x3 DUP2 GT ISZERO PUSH2 0x306 JUMPI PUSH2 0x305 PUSH2 0xCCD JUMP JUMPDEST JUMPDEST DUP2 PUSH1 0x3 ADD PUSH0 SWAP1 SLOAD SWAP1 PUSH2 0x100 EXP SWAP1 DIV PUSH1 0xFF AND PUSH1 0x3 DUP2 GT ISZERO PUSH2 0x329 JUMPI PUSH2 0x328 PUSH2 0xCCD JUMP JUMPDEST JUMPDEST SUB PUSH2 0x35F JUMPI PUSH1 0x1 DUP2 PUSH1 0x3 ADD PUSH0 PUSH2 0x100 EXP DUP2 SLOAD DUP2 PUSH1 0xFF MUL NOT AND SWAP1 DUP4 PUSH1 0x3 DUP2 GT ISZERO PUSH2 0x355 JUMPI PUSH2 0x354 PUSH2 0xCCD JUMP JUMPDEST JUMPDEST MUL OR SWAP1 SSTORE POP PUSH2 0x437 JUMP JUMPDEST PUSH1 0x1 PUSH1 0x3 DUP2 GT ISZERO PUSH2 0x373 JUMPI PUSH2 0x372 PUSH2 0xCCD JUMP JUMPDEST JUMPDEST DUP2 PUSH1 0x3 ADD PUSH0 SWAP1 SLOAD SWAP1 PUSH2 0x100 EXP SWAP1 DIV PUSH1 0xFF AND PUSH1 0x3 DUP2 GT ISZERO PUSH2 0x396 JUMPI PUSH2 0x395 PUSH2 0xCCD JUMP JUMPDEST JUMPDEST SUB PUSH2 0x3CC JUMPI PUSH1 0x2 DUP2 PUSH1 0x3 ADD PUSH0 PUSH2 0x100 EXP DUP2 SLOAD DUP2 PUSH1 0xFF MUL NOT AND SWAP1 DUP4 PUSH1 0x3 DUP2 GT ISZERO PUSH2 0x3C2 JUMPI PUSH2 0x3C1 PUSH2 0xCCD JUMP JUMPDEST JUMPDEST MUL OR SWAP1 SSTORE POP PUSH2 0x436 JUMP JUMPDEST PUSH1 0x2 PUSH1 0x3 DUP2 GT ISZERO PUSH2 0x3E0 JUMPI PUSH2 0x3DF PUSH2 0xCCD JUMP JUMPDEST JUMPDEST DUP2 PUSH1 0x3 ADD PUSH0 SWAP1 SLOAD SWAP1 PUSH2 0x100 EXP SWAP1 DIV PUSH1 0xFF AND PUSH1 0x3 DUP2 GT ISZERO PUSH2 0x403 JUMPI PUSH2 0x402 PUSH2 0xCCD JUMP JUMPDEST JUMPDEST SUB PUSH2 0x435 JUMPI PUSH1 0x3 DUP2 PUSH1 0x3 ADD PUSH0 PUSH2 0x100 EXP DUP2 SLOAD DUP2 PUSH1 0xFF MUL NOT AND SWAP1 DUP4 PUSH1 0x3 DUP2 GT ISZERO PUSH2 0x42F JUMPI PUSH2 0x42E PUSH2 0xCCD JUMP JUMPDEST JUMPDEST MUL OR SWAP1 SSTORE POP JUMPDEST JUMPDEST JUMPDEST POP POP POP JUMP JUMPDEST PUSH1 0x2 SLOAD DUP2 JUMP JUMPDEST PUSH2 0x44A PUSH2 0xA1C JUMP JUMPDEST DUP2 PUSH0 DUP1 SLOAD SWAP1 POP DUP2 LT PUSH2 0x491 JUMPI PUSH1 0x40 MLOAD PUSH32 0x8C379A000000000000000000000000000000000000000000000000000000000 DUP2 MSTORE PUSH1 0x4 ADD PUSH2 0x488 SWAP1 PUSH2 0x118C JUMP JUMPDEST PUSH1 0x40 MLOAD DUP1 SWAP2 SUB SWAP1 REVERT JUMPDEST PUSH0 DUP4 DUP2 SLOAD DUP2 LT PUSH2 0x4A4 JUMPI PUSH2 0x4A3 PUSH2 0x1212 JUMP JUMPDEST JUMPDEST SWAP1 PUSH0 MSTORE PUSH1 0x20 PUSH0 KECCAK256 SWAP1 PUSH1 0x4 MUL ADD PUSH1 0x40 MLOAD DUP1 PUSH1 0x80 ADD PUSH1 0x40 MSTORE SWAP1 DUP2 PUSH0 DUP3 ADD PUSH0 SWAP1 SLOAD SWAP1 PUSH2 0x100 EXP SWAP1 DIV PUSH20 0xFFFFFFFFFFFFFFFFFFFFFFFFFFFFFFFFFFFFFFFF AND PUSH20 0xFFFFFFFFFFFFFFFFFFFFFFFFFFFFFFFFFFFFFFFF AND PUSH20 0xFFFFFFFFFFFFFFFFFFFFFFFFFFFFFFFFFFFFFFFF AND DUP2 MSTORE PUSH1 0x20 ADD PUSH1 0x1 DUP3 ADD DUP1 SLOAD PUSH2 0x51F SWAP1 PUSH2 0x12D4 JUMP JUMPDEST DUP1 PUSH1 0x1F ADD PUSH1 0x20 DUP1 SWAP2 DIV MUL PUSH1 0x20 ADD PUSH1 0x40 MLOAD SWAP1 DUP2 ADD PUSH1 0x40 MSTORE DUP1 SWAP3 SWAP2 SWAP1 DUP2 DUP2 MSTORE PUSH1 0x20 ADD DUP3 DUP1 SLOAD PUSH2 0x54B SWAP1 PUSH2 0x12D4 JUMP JUMPDEST DUP1 ISZERO PUSH2 0x596 JUMPI DUP1 PUSH1 0x1F LT PUSH2 0x56D JUMPI PUSH2 0x100 DUP1 DUP4 SLOAD DIV MUL DUP4 MSTORE SWAP2 PUSH1 0x20 ADD SWAP2 PUSH2 0x596 JUMP JUMPDEST DUP3 ADD SWAP2 SWAP1 PUSH0 MSTORE PUSH1 0x20 PUSH0 KECCAK256 SWAP1 JUMPDEST DUP2 SLOAD DUP2 MSTORE SWAP1 PUSH1 0x1 ADD SWAP1 PUSH1 0x20 ADD DUP1 DUP4 GT PUSH2 0x579 JUMPI DUP3 SWAP1 SUB PUSH1 0x1F AND DUP3 ADD SWAP2 JUMPDEST POP POP POP POP POP DUP2 MSTORE PUSH1 0x20 ADD PUSH1 0x2 DUP3 ADD DUP1 SLOAD DUP1 PUSH1 0x20 MUL PUSH1 0x20 ADD PUSH1 0x40 MLOAD SWAP1 DUP2 ADD PUSH1 0x40 MSTORE DUP1 SWAP3 SWAP2 SWAP1 DUP2 DUP2 MSTORE PUSH1 0x20 ADD DUP3 DUP1 SLOAD DUP1 ISZERO PUSH2 0x5EC JUMPI PUSH1 0x20 MUL DUP3 ADD SWAP2 SWAP1 PUSH0 MSTORE PUSH1 0x20 PUSH0 KECCAK256 SWAP1 JUMPDEST DUP2 SLOAD DUP2 MSTORE PUSH1 0x20 ADD SWAP1 PUSH1 0x1 ADD SWAP1 DUP1 DUP4 GT PUSH2 0x5D8 JUMPI JUMPDEST POP POP POP POP POP DUP2 MSTORE PUSH1 0x20 ADD PUSH1 0x3 DUP3 ADD PUSH0 SWAP1 SLOAD SWAP1 PUSH2 0x100 EXP SWAP1 DIV PUSH1 0xFF AND PUSH1 0x3 DUP2 GT ISZERO PUSH2 0x619 JUMPI PUSH2 0x618 PUSH2 0xCCD JUMP JUMPDEST JUMPDEST PUSH1 0x3 DUP2 GT ISZERO PUSH2 0x62B JUMPI PUSH2 0x62A PUSH2 0xCCD JUMP JUMPDEST JUMPDEST DUP2 MSTORE POP POP SWAP2 POP POP SWAP2 SWAP1 POP JUMP JUMPDEST PUSH1 0x1 PUSH0 SWAP1 SLOAD SWAP1 PUSH2 0x100 EXP SWAP1 DIV PUSH20 0xFFFFFFFFFFFFFFFFFFFFFFFFFFFFFFFFFFFFFFFF AND DUP2 JUMP JUMPDEST DUP2 CALLER PUSH20 0xFFFFFFFFFFFFFFFFFFFFFFFFFFFFFFFFFFFFFFFF AND PUSH0 DUP3 DUP2 SLOAD DUP2 LT PUSH2 0x687 JUMPI PUSH2 0x686 PUSH2 0x1212 JUMP JUMPDEST JUMPDEST SWAP1 PUSH0 MSTORE PUSH1 0x20 PUSH0 KECCAK256 SWAP1 PUSH1 0x4 MUL ADD PUSH0 ADD PUSH0 SWAP1 SLOAD SWAP1 PUSH2 0x100 EXP SWAP1 DIV PUSH20 0xFFFFFFFFFFFFFFFFFFFFFFFFFFFFFFFFFFFFFFFF AND PUSH20 0xFFFFFFFFFFFFFFFFFFFFFFFFFFFFFFFFFFFFFFFF AND EQ PUSH2 0x70B JUMPI PUSH1 0x40 MLOAD PUSH32 0x8C379A000000000000000000000000000000000000000000000000000000000 DUP2 MSTORE PUSH1 0x4 ADD PUSH2 0x702 SWAP1 PUSH2 0x134E JUMP JUMPDEST PUSH1 0x40 MLOAD DUP1 SWAP2 SUB SWAP1 REVERT JUMPDEST DUP3 PUSH0 DUP1 SLOAD SWAP1 POP DUP2 LT PUSH2 0x752 JUMPI PUSH1 0x40 MLOAD PUSH32 0x8C379A000000000000000000000000000000000000000000000000000000000 DUP2 MSTORE PUSH1 0x4 ADD PUSH2 0x749 SWAP1 PUSH2 0x118C JUMP JUMPDEST PUSH1 0x40 MLOAD DUP1 SWAP2 SUB SWAP1 REVERT JUMPDEST PUSH0 PUSH0 DUP6 DUP2 SLOAD DUP2 LT PUSH2 0x766 JUMPI PUSH2 0x765 PUSH2 0x1212 JUMP JUMPDEST JUMPDEST SWAP1 PUSH0 MSTORE PUSH1 0x20 PUSH0 KECCAK256 SWAP1 PUSH1 0x4 MUL ADD SWAP1 POP DUP4 DUP2 PUSH1 0x1 ADD SWAP1 DUP2 PUSH2 0x785 SWAP2 SWAP1 PUSH2 0x150C JUMP JUMPDEST POP POP POP PUSH1 0x2 PUSH0 DUP2 SLOAD DUP1 SWAP3 SWAP2 SWAP1 PUSH2 0x79A SWAP1 PUSH2 0x1608 JUMP JUMPDEST SWAP2 SWAP1 POP SSTORE POP POP POP POP JUMP JUMPDEST PUSH0 DUP2 DUP2 SLOAD DUP2 LT PUSH2 0x7B2 JUMPI PUSH0 DUP1 REVERT JUMPDEST SWAP1 PUSH0 MSTORE PUSH1 0x20 PUSH0 KECCAK256 SWAP1 PUSH1 0x4 MUL ADD PUSH0 SWAP2 POP SWAP1 POP DUP1 PUSH0 ADD PUSH0 SWAP1 SLOAD SWAP1 PUSH2 0x100 EXP SWAP1 DIV PUSH20 0xFFFFFFFFFFFFFFFFFFFFFFFFFFFFFFFFFFFFFFFF AND SWAP1 DUP1 PUSH1 0x1 ADD DUP1 SLOAD PUSH2 0x7F6 SWAP1 PUSH2 0x12D4 JUMP JUMPDEST DUP1 PUSH1 0x1F ADD PUSH1 0x20 DUP1 SWAP2 DIV MUL PUSH1 0x20 ADD PUSH1 0x40 MLOAD SWAP1 DUP2 ADD PUSH1 0x40 MSTORE DUP1 SWAP3 SWAP2 SWAP1 DUP2 DUP2 MSTORE PUSH1 0x20 ADD DUP3 DUP1 SLOAD PUSH2 0x822 SWAP1 PUSH2 0x12D4 JUMP JUMPDEST DUP1 ISZERO PUSH2 0x86D JUMPI DUP1 PUSH1 0x1F LT PUSH2 0x844 JUMPI PUSH2 0x100 DUP1 DUP4 SLOAD DIV MUL DUP4 MSTORE SWAP2 PUSH1 0x20 ADD SWAP2 PUSH2 0x86D JUMP JUMPDEST DUP3 ADD SWAP2 SWAP1 PUSH0 MSTORE PUSH1 0x20 PUSH0 KECCAK256 SWAP1 JUMPDEST DUP2 SLOAD DUP2 MSTORE SWAP1 PUSH1 0x1 ADD SWAP1 PUSH1 0x20 ADD DUP1 DUP4 GT PUSH2 0x850 JUMPI DUP3 SWAP1 SUB PUSH1 0x1F AND DUP3 ADD SWAP2 JUMPDEST POP POP POP POP POP SWAP1 DUP1 PUSH1 0x3 ADD PUSH0 SWAP1 SLOAD SWAP1 PUSH2 0x100 EXP SWAP1 DIV PUSH1 0xFF AND SWAP1 POP DUP4 JUMP JUMPDEST PUSH0 DUP2 PUSH0 DUP2 MLOAD GT PUSH2 0x8CE JUMPI PUSH1 0x40 MLOAD PUSH32 0x8C379A000000000000000000000000000000000000000000000000000000000 DUP2 MSTORE PUSH1 0x4 ADD PUSH2 0x8C5 SWAP1 PUSH2 0x1699 JUMP JUMPDEST PUSH1 0x40 MLOAD DUP1 SWAP2 SUB SWAP1 REVERT JUMPDEST PUSH0 PUSH1 0x40 MLOAD DUP1 PUSH1 0x80 ADD PUSH1 0x40 MSTORE DUP1 CALLER PUSH20 0xFFFFFFFFFFFFFFFFFFFFFFFFFFFFFFFFFFFFFFFF AND DUP2 MSTORE PUSH1 0x20 ADD DUP7 DUP2 MSTORE PUSH1 0x20 ADD DUP6 DUP2 MSTORE PUSH1 0x20 ADD PUSH0 PUSH1 0x3 DUP2 GT ISZERO PUSH2 0x915 JUMPI PUSH2 0x914 PUSH2 0xCCD JUMP JUMPDEST JUMPDEST DUP2 MSTORE POP SWAP1 POP PUSH0 DUP2 SWAP1 DUP1 PUSH1 0x1 DUP2 SLOAD ADD DUP1 DUP3 SSTORE DUP1 SWAP2 POP POP PUSH1 0x1 SWAP1 SUB SWAP1 PUSH0 MSTORE PUSH1 0x20 PUSH0 KECCAK256 SWAP1 PUSH1 0x4 MUL ADD PUSH0 SWAP1 SWAP2 SWAP1 SWAP2 SWAP1 SWAP2 POP PUSH0 DUP3 ADD MLOAD DUP2 PUSH0 ADD PUSH0 PUSH2 0x100 EXP DUP2 SLOAD DUP2 PUSH20 0xFFFFFFFFFFFFFFFFFFFFFFFFFFFFFFFFFFFFFFFF MUL NOT AND SWAP1 DUP4 PUSH20 0xFFFFFFFFFFFFFFFFFFFFFFFFFFFFFFFFFFFFFFFF AND MUL OR SWAP1 SSTORE POP PUSH1 0x20 DUP3 ADD MLOAD DUP2 PUSH1 0x1 ADD SWAP1 DUP2 PUSH2 0x99B SWAP2 SWAP1 PUSH2 0x150C JUMP JUMPDEST POP PUSH1 0x40 DUP3 ADD MLOAD DUP2 PUSH1 0x2 ADD SWAP1 DUP1 MLOAD SWAP1 PUSH1 0x20 ADD SWAP1 PUSH2 0x9B8 SWAP3 SWAP2 SWAP1 PUSH2 0xA6A JUMP JUMPDEST POP PUSH1 0x60 DUP3 ADD MLOAD DUP2 PUSH1 0x3 ADD PUSH0 PUSH2 0x100 EXP DUP2 SLOAD DUP2 PUSH1 0xFF MUL NOT AND SWAP1 DUP4 PUSH1 0x3 DUP2 GT ISZERO PUSH2 0x9E3 JUMPI PUSH2 0x9E2 PUSH2 0xCCD JUMP JUMPDEST JUMPDEST MUL OR SWAP1 SSTORE POP POP POP PUSH1 0x1 PUSH0 DUP1 SLOAD SWAP1 POP PUSH2 0x9FB SWAP2 SWAP1 PUSH2 0x16B7 JUMP JUMPDEST SWAP3 POP POP POP PUSH1 0x2 PUSH0 DUP2 SLOAD DUP1 SWAP3 SWAP2 SWAP1 PUSH2 0xA11 SWAP1 PUSH2 0x1608 JUMP JUMPDEST SWAP2 SWAP1 POP SSTORE POP SWAP3 SWAP2 POP POP JUMP JUMPDEST PUSH1 0x40 MLOAD DUP1 PUSH1 0x80 ADD PUSH1 0x40 MSTORE DUP1 PUSH0 PUSH20 0xFFFFFFFFFFFFFFFFFFFFFFFFFFFFFFFFFFFFFFFF AND DUP2 MSTORE PUSH1 0x20 ADD PUSH1 0x60 DUP2 MSTORE PUSH1 0x20 ADD PUSH1 0x60 DUP2 MSTORE PUSH1 0x20 ADD PUSH0 PUSH1 0x3 DUP2 GT ISZERO PUSH2 0xA64 JUMPI PUSH2 0xA63 PUSH2 0xCCD JUMP JUMPDEST JUMPDEST DUP2 MSTORE POP SWAP1 JUMP JUMPDEST DUP3 DUP1 SLOAD DUP3 DUP3 SSTORE SWAP1 PUSH0 MSTORE PUSH1 0x20 PUSH0 KECCAK256 SWAP1 DUP2 ADD SWAP3 DUP3 ISZERO PUSH2 0xAA4 JUMPI SWAP2 PUSH1 0x20 MUL DUP3 ADD JUMPDEST DUP3 DUP2 GT ISZERO PUSH2 0xAA3 JUMPI DUP3 MLOAD DUP3 SSTORE SWAP2 PUSH1 0x20 ADD SWAP2 SWAP1 PUSH1 0x1 ADD SWAP1 PUSH2 0xA88 JUMP JUMPDEST JUMPDEST POP SWAP1 POP PUSH2 0xAB1 SWAP2 SWAP1 PUSH2 0xAB5 JUMP JUMPDEST POP SWAP1 JUMP JUMPDEST JUMPDEST DUP1 DUP3 GT ISZERO PUSH2 0xACC JUMPI PUSH0 DUP2 PUSH0 SWAP1 SSTORE POP PUSH1 0x1 ADD PUSH2 0xAB6 JUMP JUMPDEST POP SWAP1 JUMP JUMPDEST PUSH0 PUSH1 0x40 MLOAD SWAP1 POP SWAP1 JUMP JUMPDEST PUSH0 PUSH0 REVERT JUMPDEST PUSH0 PUSH0 REVERT JUMPDEST PUSH0 DUP2 SWAP1 POP SWAP2 SWAP1 POP JUMP JUMPDEST PUSH2 0xAF3 DUP2 PUSH2 0xAE1 JUMP JUMPDEST DUP2 EQ PUSH2 0xAFD JUMPI PUSH0 PUSH0 REVERT JUMPDEST POP JUMP JUMPDEST PUSH0 DUP2 CALLDATALOAD SWAP1 POP PUSH2 0xB0E DUP2 PUSH2 0xAEA JUMP JUMPDEST SWAP3 SWAP2 POP POP JUMP JUMPDEST PUSH0 PUSH1 0x20 DUP3 DUP5 SUB SLT ISZERO PUSH2 0xB29 JUMPI PUSH2 0xB28 PUSH2 0xAD9 JUMP JUMPDEST JUMPDEST PUSH0 PUSH2 0xB36 DUP5 DUP3 DUP6 ADD PUSH2 0xB00 JUMP JUMPDEST SWAP2 POP POP SWAP3 SWAP2 POP POP JUMP JUMPDEST PUSH2 0xB48 DUP2 PUSH2 0xAE1 JUMP JUMPDEST DUP3 MSTORE POP POP JUMP JUMPDEST PUSH0 PUSH1 0x20 DUP3 ADD SWAP1 POP PUSH2 0xB61 PUSH0 DUP4 ADD DUP5 PUSH2 0xB3F JUMP JUMPDEST SWAP3 SWAP2 POP POP JUMP JUMPDEST PUSH0 PUSH20 0xFFFFFFFFFFFFFFFFFFFFFFFFFFFFFFFFFFFFFFFF DUP3 AND SWAP1 POP SWAP2 SWAP1 POP JUMP JUMPDEST PUSH0 PUSH2 0xB90 DUP3 PUSH2 0xB67 JUMP JUMPDEST SWAP1 POP SWAP2 SWAP1 POP JUMP JUMPDEST PUSH2 0xBA0 DUP2 PUSH2 0xB86 JUMP JUMPDEST DUP3 MSTORE POP POP JUMP JUMPDEST PUSH0 DUP2 MLOAD SWAP1 POP SWAP2 SWAP1 POP JUMP JUMPDEST PUSH0 DUP3 DUP3 MSTORE PUSH1 0x20 DUP3 ADD SWAP1 POP SWAP3 SWAP2 POP POP JUMP JUMPDEST DUP3 DUP2 DUP4 MCOPY PUSH0 DUP4 DUP4 ADD MSTORE POP POP POP JUMP JUMPDEST PUSH0 PUSH1 0x1F NOT PUSH1 0x1F DUP4 ADD AND SWAP1 POP SWAP2 SWAP1 POP JUMP JUMPDEST PUSH0 PUSH2 0xBE8 DUP3 PUSH2 0xBA6 JUMP JUMPDEST PUSH2 0xBF2 DUP2 DUP6 PUSH2 0xBB0 JUMP JUMPDEST SWAP4 POP PUSH2 0xC02 DUP2 DUP6 PUSH1 0x20 DUP7 ADD PUSH2 0xBC0 JUMP JUMPDEST PUSH2 0xC0B DUP2 PUSH2 0xBCE JUMP JUMPDEST DUP5 ADD SWAP2 POP POP SWAP3 SWAP2 POP POP JUMP JUMPDEST PUSH0 DUP2 MLOAD SWAP1 POP SWAP2 SWAP1 POP JUMP JUMPDEST PUSH0 DUP3 DUP3 MSTORE PUSH1 0x20 DUP3 ADD SWAP1 POP SWAP3 SWAP2 POP POP JUMP JUMPDEST PUSH0 DUP2 SWAP1 POP PUSH1 0x20 DUP3 ADD SWAP1 POP SWAP2 SWAP1 POP JUMP JUMPDEST PUSH2 0xC48 DUP2 PUSH2 0xAE1 JUMP JUMPDEST DUP3 MSTORE POP POP JUMP JUMPDEST PUSH0 PUSH2 0xC59 DUP4 DUP4 PUSH2 0xC3F JUMP JUMPDEST PUSH1 0x20 DUP4 ADD SWAP1 POP SWAP3 SWAP2 POP POP JUMP JUMPDEST PUSH0 PUSH1 0x20 DUP3 ADD SWAP1 POP SWAP2 SWAP1 POP JUMP JUMPDEST PUSH0 PUSH2 0xC7B DUP3 PUSH2 0xC16 JUMP JUMPDEST PUSH2 0xC85 DUP2 DUP6 PUSH2 0xC20 JUMP JUMPDEST SWAP4 POP PUSH2 0xC90 DUP4 PUSH2 0xC30 JUMP JUMPDEST DUP1 PUSH0 JUMPDEST DUP4 DUP2 LT ISZERO PUSH2 0xCC0 JUMPI DUP2 MLOAD PUSH2 0xCA7 DUP9 DUP3 PUSH2 0xC4E JUMP JUMPDEST SWAP8 POP PUSH2 0xCB2 DUP4 PUSH2 0xC65 JUMP JUMPDEST SWAP3 POP POP PUSH1 0x1 DUP2 ADD SWAP1 POP PUSH2 0xC93 JUMP JUMPDEST POP DUP6 SWAP4 POP POP POP POP SWAP3 SWAP2 POP POP JUMP JUMPDEST PUSH32 0x4E487B7100000000000000000000000000000000000000000000000000000000 PUSH0 MSTORE PUSH1 0x21 PUSH1 0x4 MSTORE PUSH1 0x24 PUSH0 REVERT JUMPDEST PUSH1 0x4 DUP2 LT PUSH2 0xD0B JUMPI PUSH2 0xD0A PUSH2 0xCCD JUMP JUMPDEST JUMPDEST POP JUMP JUMPDEST PUSH0 DUP2 SWAP1 POP PUSH2 0xD1B DUP3 PUSH2 0xCFA JUMP JUMPDEST SWAP2 SWAP1 POP JUMP JUMPDEST PUSH0 PUSH2 0xD2A DUP3 PUSH2 0xD0E JUMP JUMPDEST SWAP1 POP SWAP2 SWAP1 POP JUMP JUMPDEST PUSH2 0xD3A DUP2 PUSH2 0xD20 JUMP JUMPDEST DUP3 MSTORE POP POP JUMP JUMPDEST PUSH0 PUSH1 0x80 DUP4 ADD PUSH0 DUP4 ADD MLOAD PUSH2 0xD55 PUSH0 DUP7 ADD DUP3 PUSH2 0xB97 JUMP JUMPDEST POP PUSH1 0x20 DUP4 ADD MLOAD DUP5 DUP3 SUB PUSH1 0x20 DUP7 ADD MSTORE PUSH2 0xD6D DUP3 DUP3 PUSH2 0xBDE JUMP JUMPDEST SWAP2 POP POP PUSH1 0x40 DUP4 ADD MLOAD DUP5 DUP3 SUB PUSH1 0x40 DUP7 ADD MSTORE PUSH2 0xD87 DUP3 DUP3 PUSH2 0xC71 JUMP JUMPDEST SWAP2 POP POP PUSH1 0x60 DUP4 ADD MLOAD PUSH2 0xD9C PUSH1 0x60 DUP7 ADD DUP3 PUSH2 0xD31 JUMP JUMPDEST POP DUP1 SWAP2 POP POP SWAP3 SWAP2 POP POP JUMP JUMPDEST PUSH0 PUSH1 0x20 DUP3 ADD SWAP1 POP DUP2 DUP2 SUB PUSH0 DUP4 ADD MSTORE PUSH2 0xDBF DUP2 DUP5 PUSH2 0xD40 JUMP JUMPDEST SWAP1 POP SWAP3 SWAP2 POP POP JUMP JUMPDEST PUSH2 0xDD0 DUP2 PUSH2 0xB86 JUMP JUMPDEST DUP3 MSTORE POP POP JUMP JUMPDEST PUSH0 PUSH1 0x20 DUP3 ADD SWAP1 POP PUSH2 0xDE9 PUSH0 DUP4 ADD DUP5 PUSH2 0xDC7 JUMP JUMPDEST SWAP3 SWAP2 POP POP JUMP JUMPDEST PUSH0 PUSH0 REVERT JUMPDEST PUSH0 PUSH0 REVERT JUMPDEST PUSH32 0x4E487B7100000000000000000000000000000000000000000000000000000000 PUSH0 MSTORE PUSH1 0x41 PUSH1 0x4 MSTORE PUSH1 0x24 PUSH0 REVERT JUMPDEST PUSH2 0xE2D DUP3 PUSH2 0xBCE JUMP JUMPDEST DUP2 ADD DUP2 DUP2 LT PUSH8 0xFFFFFFFFFFFFFFFF DUP3 GT OR ISZERO PUSH2 0xE4C JUMPI PUSH2 0xE4B PUSH2 0xDF7 JUMP JUMPDEST JUMPDEST DUP1 PUSH1 0x40 MSTORE POP POP POP JUMP JUMPDEST PUSH0 PUSH2 0xE5E PUSH2 0xAD0 JUMP JUMPDEST SWAP1 POP PUSH2 0xE6A DUP3 DUP3 PUSH2 0xE24 JUMP JUMPDEST SWAP2 SWAP1 POP JUMP JUMPDEST PUSH0 PUSH8 0xFFFFFFFFFFFFFFFF DUP3 GT ISZERO PUSH2 0xE89 JUMPI PUSH2 0xE88 PUSH2 0xDF7 JUMP JUMPDEST JUMPDEST PUSH2 0xE92 DUP3 PUSH2 0xBCE JUMP JUMPDEST SWAP1 POP PUSH1 0x20 DUP2 ADD SWAP1 POP SWAP2 SWAP1 POP JUMP JUMPDEST DUP3 DUP2 DUP4 CALLDATACOPY PUSH0 DUP4 DUP4 ADD MSTORE POP POP POP JUMP JUMPDEST PUSH0 PUSH2 0xEBF PUSH2 0xEBA DUP5 PUSH2 0xE6F JUMP JUMPDEST PUSH2 0xE55 JUMP JUMPDEST SWAP1 POP DUP3 DUP2 MSTORE PUSH1 0x20 DUP2 ADD DUP5 DUP5 DUP5 ADD GT ISZERO PUSH2 0xEDB JUMPI PUSH2 0xEDA PUSH2 0xDF3 JUMP JUMPDEST JUMPDEST PUSH2 0xEE6 DUP5 DUP3 DUP6 PUSH2 0xE9F JUMP JUMPDEST POP SWAP4 SWAP3 POP POP POP JUMP JUMPDEST PUSH0 DUP3 PUSH1 0x1F DUP4 ADD SLT PUSH2 0xF02 JUMPI PUSH2 0xF01 PUSH2 0xDEF JUMP JUMPDEST JUMPDEST DUP2 CALLDATALOAD PUSH2 0xF12 DUP5 DUP3 PUSH1 0x20 DUP7 ADD PUSH2 0xEAD JUMP JUMPDEST SWAP2 POP POP SWAP3 SWAP2 POP POP JUMP JUMPDEST PUSH0 PUSH0 PUSH1 0x40 DUP4 DUP6 SUB SLT ISZERO PUSH2 0xF31 JUMPI PUSH2 0xF30 PUSH2 0xAD9 JUMP JUMPDEST JUMPDEST PUSH0 PUSH2 0xF3E DUP6 DUP3 DUP7 ADD PUSH2 0xB00 JUMP JUMPDEST SWAP3 POP POP PUSH1 0x20 DUP4 ADD CALLDATALOAD PUSH8 0xFFFFFFFFFFFFFFFF DUP2 GT ISZERO PUSH2 0xF5F JUMPI PUSH2 0xF5E PUSH2 0xADD JUMP JUMPDEST JUMPDEST PUSH2 0xF6B DUP6 DUP3 DUP7 ADD PUSH2 0xEEE JUMP JUMPDEST SWAP2 POP POP SWAP3 POP SWAP3 SWAP1 POP JUMP JUMPDEST PUSH0 DUP3 DUP3 MSTORE PUSH1 0x20 DUP3 ADD SWAP1 POP SWAP3 SWAP2 POP POP JUMP JUMPDEST PUSH0 PUSH2 0xF8F DUP3 PUSH2 0xBA6 JUMP JUMPDEST PUSH2 0xF99 DUP2 DUP6 PUSH2 0xF75 JUMP JUMPDEST SWAP4 POP PUSH2 0xFA9 DUP2 DUP6 PUSH1 0x20 DUP7 ADD PUSH2 0xBC0 JUMP JUMPDEST PUSH2 0xFB2 DUP2 PUSH2 0xBCE JUMP JUMPDEST DUP5 ADD SWAP2 POP POP SWAP3 SWAP2 POP POP JUMP JUMPDEST PUSH2 0xFC6 DUP2 PUSH2 0xD20 JUMP JUMPDEST DUP3 MSTORE POP POP JUMP JUMPDEST PUSH0 PUSH1 0x60 DUP3 ADD SWAP1 POP PUSH2 0xFDF PUSH0 DUP4 ADD DUP7 PUSH2 0xDC7 JUMP JUMPDEST DUP2 DUP2 SUB PUSH1 0x20 DUP4 ADD MSTORE PUSH2 0xFF1 DUP2 DUP6 PUSH2 0xF85 JUMP JUMPDEST SWAP1 POP PUSH2 0x1000 PUSH1 0x40 DUP4 ADD DUP5 PUSH2 0xFBD JUMP JUMPDEST SWAP5 SWAP4 POP POP POP POP JUMP JUMPDEST PUSH0 PUSH8 0xFFFFFFFFFFFFFFFF DUP3 GT ISZERO PUSH2 0x1022 JUMPI PUSH2 0x1021 PUSH2 0xDF7 JUMP JUMPDEST JUMPDEST PUSH1 0x20 DUP3 MUL SWAP1 POP PUSH1 0x20 DUP2 ADD SWAP1 POP SWAP2 SWAP1 POP JUMP JUMPDEST PUSH0 PUSH0 REVERT JUMPDEST PUSH0 PUSH2 0x1049 PUSH2 0x1044 DUP5 PUSH2 0x1008 JUMP JUMPDEST PUSH2 0xE55 JUMP JUMPDEST SWAP1 POP DUP1 DUP4 DUP3 MSTORE PUSH1 0x20 DUP3 ADD SWAP1 POP PUSH1 0x20 DUP5 MUL DUP4 ADD DUP6 DUP2 GT ISZERO PUSH2 0x106C JUMPI PUSH2 0x106B PUSH2 0x1033 JUMP JUMPDEST JUMPDEST DUP4 JUMPDEST DUP2 DUP2 LT ISZERO PUSH2 0x1095 JUMPI DUP1 PUSH2 0x1081 DUP9 DUP3 PUSH2 0xB00 JUMP JUMPDEST DUP5 MSTORE PUSH1 0x20 DUP5 ADD SWAP4 POP POP PUSH1 0x20 DUP2 ADD SWAP1 POP PUSH2 0x106E JUMP JUMPDEST POP POP POP SWAP4 SWAP3 POP POP POP JUMP JUMPDEST PUSH0 DUP3 PUSH1 0x1F DUP4 ADD SLT PUSH2 0x10B3 JUMPI PUSH2 0x10B2 PUSH2 0xDEF JUMP JUMPDEST JUMPDEST DUP2 CALLDATALOAD PUSH2 0x10C3 DUP5 DUP3 PUSH1 0x20 DUP7 ADD PUSH2 0x1037 JUMP JUMPDEST SWAP2 POP POP SWAP3 SWAP2 POP POP JUMP JUMPDEST PUSH0 PUSH0 PUSH1 0x40 DUP4 DUP6 SUB SLT ISZERO PUSH2 0x10E2 JUMPI PUSH2 0x10E1 PUSH2 0xAD9 JUMP JUMPDEST JUMPDEST PUSH0 DUP4 ADD CALLDATALOAD PUSH8 0xFFFFFFFFFFFFFFFF DUP2 GT ISZERO PUSH2 0x10FF JUMPI PUSH2 0x10FE PUSH2 0xADD JUMP JUMPDEST JUMPDEST PUSH2 0x110B DUP6 DUP3 DUP7 ADD PUSH2 0xEEE JUMP JUMPDEST SWAP3 POP POP PUSH1 0x20 DUP4 ADD CALLDATALOAD PUSH8 0xFFFFFFFFFFFFFFFF DUP2 GT ISZERO PUSH2 0x112C JUMPI PUSH2 0x112B PUSH2 0xADD JUMP JUMPDEST JUMPDEST PUSH2 0x1138 DUP6 DUP3 DUP7 ADD PUSH2 0x109F JUMP JUMPDEST SWAP2 POP POP SWAP3 POP SWAP3 SWAP1 POP JUMP JUMPDEST PUSH32 0x47656365726C6920626972207369706172697320494427736920646567696C2E PUSH0 DUP3 ADD MSTORE POP JUMP JUMPDEST PUSH0 PUSH2 0x1176 PUSH1 0x20 DUP4 PUSH2 0xF75 JUMP JUMPDEST SWAP2 POP PUSH2 0x1181 DUP3 PUSH2 0x1142 JUMP JUMPDEST PUSH1 0x20 DUP3 ADD SWAP1 POP SWAP2 SWAP1 POP JUMP JUMPDEST PUSH0 PUSH1 0x20 DUP3 ADD SWAP1 POP DUP2 DUP2 SUB PUSH0 DUP4 ADD MSTORE PUSH2 0x11A3 DUP2 PUSH2 0x116A JUMP JUMPDEST SWAP1 POP SWAP2 SWAP1 POP JUMP JUMPDEST PUSH32 0x5965746B696E697A20796F6B2E00000000000000000000000000000000000000 PUSH0 DUP3 ADD MSTORE POP JUMP JUMPDEST PUSH0 PUSH2 0x11DE PUSH1 0xD DUP4 PUSH2 0xF75 JUMP JUMPDEST SWAP2 POP PUSH2 0x11E9 DUP3 PUSH2 0x11AA JUMP JUMPDEST PUSH1 0x20 DUP3 ADD SWAP1 POP SWAP2 SWAP1 POP JUMP JUMPDEST PUSH0 PUSH1 0x20 DUP3 ADD SWAP1 POP DUP2 DUP2 SUB PUSH0 DUP4 ADD MSTORE PUSH2 0x120B DUP2 PUSH2 0x11D2 JUMP JUMPDEST SWAP1 POP SWAP2 SWAP1 POP JUMP JUMPDEST PUSH32 0x4E487B7100000000000000000000000000000000000000000000000000000000 PUSH0 MSTORE PUSH1 0x32 PUSH1 0x4 MSTORE PUSH1 0x24 PUSH0 REVERT JUMPDEST PUSH32 0x53697061726973207A6174656E206B6172676F6C616E64692E00000000000000 PUSH0 DUP3 ADD MSTORE POP JUMP JUMPDEST PUSH0 PUSH2 0x1273 PUSH1 0x19 DUP4 PUSH2 0xF75 JUMP JUMPDEST SWAP2 POP PUSH2 0x127E DUP3 PUSH2 0x123F JUMP JUMPDEST PUSH1 0x20 DUP3 ADD SWAP1 POP SWAP2 SWAP1 POP JUMP JUMPDEST PUSH0 PUSH1 0x20 DUP3 ADD SWAP1 POP DUP2 DUP2 SUB PUSH0 DUP4 ADD MSTORE PUSH2 0x12A0 DUP2 PUSH2 0x1267 JUMP JUMPDEST SWAP1 POP SWAP2 SWAP1 POP JUMP JUMPDEST PUSH32 0x4E487B7100000000000000000000000000000000000000000000000000000000 PUSH0 MSTORE PUSH1 0x22 PUSH1 0x4 MSTORE PUSH1 0x24 PUSH0 REVERT JUMPDEST PUSH0 PUSH1 0x2 DUP3 DIV SWAP1 POP PUSH1 0x1 DUP3 AND DUP1 PUSH2 0x12EB JUMPI PUSH1 0x7F DUP3 AND SWAP2 POP JUMPDEST PUSH1 0x20 DUP3 LT DUP2 SUB PUSH2 0x12FE JUMPI PUSH2 0x12FD PUSH2 0x12A7 JUMP JUMPDEST JUMPDEST POP SWAP2 SWAP1 POP JUMP JUMPDEST PUSH32 0x53697061726973696E2073616869626920646567696C73696E697A2E00000000 PUSH0 DUP3 ADD MSTORE POP JUMP JUMPDEST PUSH0 PUSH2 0x1338 PUSH1 0x1C DUP4 PUSH2 0xF75 JUMP JUMPDEST SWAP2 POP PUSH2 0x1343 DUP3 PUSH2 0x1304 JUMP JUMPDEST PUSH1 0x20 DUP3 ADD SWAP1 POP SWAP2 SWAP1 POP JUMP JUMPDEST PUSH0 PUSH1 0x20 DUP3 ADD SWAP1 POP DUP2 DUP2 SUB PUSH0 DUP4 ADD MSTORE PUSH2 0x1365 DUP2 PUSH2 0x132C JUMP JUMPDEST SWAP1 POP SWAP2 SWAP1 POP JUMP JUMPDEST PUSH0 DUP2 SWAP1 POP DUP2 PUSH0 MSTORE PUSH1 0x20 PUSH0 KECCAK256 SWAP1 POP SWAP2 SWAP1 POP JUMP JUMPDEST PUSH0 PUSH1 0x20 PUSH1 0x1F DUP4 ADD DIV SWAP1 POP SWAP2 SWAP1 POP JUMP JUMPDEST PUSH0 DUP3 DUP3 SHL SWAP1 POP SWAP3 SWAP2 POP POP JUMP JUMPDEST PUSH0 PUSH1 0x8 DUP4 MUL PUSH2 0x13C8 PUSH32 0xFFFFFFFFFFFFFFFFFFFFFFFFFFFFFFFFFFFFFFFFFFFFFFFFFFFFFFFFFFFFFFFF DUP3 PUSH2 0x138D JUMP JUMPDEST PUSH2 0x13D2 DUP7 DUP4 PUSH2 0x138D JUMP JUMPDEST SWAP6 POP DUP1 NOT DUP5 AND SWAP4 POP DUP1 DUP7 AND DUP5 OR SWAP3 POP POP POP SWAP4 SWAP3 POP POP POP JUMP JUMPDEST PUSH0 DUP2 SWAP1 POP SWAP2 SWAP1 POP JUMP JUMPDEST PUSH0 PUSH2 0x140D PUSH2 0x1408 PUSH2 0x1403 DUP5 PUSH2 0xAE1 JUMP JUMPDEST PUSH2 0x13EA JUMP JUMPDEST PUSH2 0xAE1 JUMP JUMPDEST SWAP1 POP SWAP2 SWAP1 POP JUMP JUMPDEST PUSH0 DUP2 SWAP1 POP SWAP2 SWAP1 POP JUMP JUMPDEST PUSH2 0x1426 DUP4 PUSH2 0x13F3 JUMP JUMPDEST PUSH2 0x143A PUSH2 0x1432 DUP3 PUSH2 0x1414 JUMP JUMPDEST DUP5 DUP5 SLOAD PUSH2 0x1399 JUMP JUMPDEST DUP3 SSTORE POP POP POP POP JUMP JUMPDEST PUSH0 PUSH0 SWAP1 POP SWAP1 JUMP JUMPDEST PUSH2 0x1451 PUSH2 0x1442 JUMP JUMPDEST PUSH2 0x145C DUP2 DUP5 DUP5 PUSH2 0x141D JUMP JUMPDEST POP POP POP JUMP JUMPDEST JUMPDEST DUP2 DUP2 LT ISZERO PUSH2 0x147F JUMPI PUSH2 0x1474 PUSH0 DUP3 PUSH2 0x1449 JUMP JUMPDEST PUSH1 0x1 DUP2 ADD SWAP1 POP PUSH2 0x1462 JUMP JUMPDEST POP POP JUMP JUMPDEST PUSH1 0x1F DUP3 GT ISZERO PUSH2 0x14C4 JUMPI PUSH2 0x1495 DUP2 PUSH2 0x136C JUMP JUMPDEST PUSH2 0x149E DUP5 PUSH2 0x137E JUMP JUMPDEST DUP2 ADD PUSH1 0x20 DUP6 LT ISZERO PUSH2 0x14AD JUMPI DUP2 SWAP1 POP JUMPDEST PUSH2 0x14C1 PUSH2 0x14B9 DUP6 PUSH2 0x137E JUMP JUMPDEST DUP4 ADD DUP3 PUSH2 0x1461 JUMP JUMPDEST POP POP JUMPDEST POP POP POP JUMP JUMPDEST PUSH0 DUP3 DUP3 SHR SWAP1 POP SWAP3 SWAP2 POP POP JUMP JUMPDEST PUSH0 PUSH2 0x14E4 PUSH0 NOT DUP5 PUSH1 0x8 MUL PUSH2 0x14C9 JUMP JUMPDEST NOT DUP1 DUP4 AND SWAP2 POP POP SWAP3 SWAP2 POP POP JUMP JUMPDEST PUSH0 PUSH2 0x14FC DUP4 DUP4 PUSH2 0x14D5 JUMP JUMPDEST SWAP2 POP DUP3 PUSH1 0x2 MUL DUP3 OR SWAP1 POP SWAP3 SWAP2 POP POP JUMP JUMPDEST PUSH2 0x1515 DUP3 PUSH2 0xBA6 JUMP JUMPDEST PUSH8 0xFFFFFFFFFFFFFFFF DUP2 GT ISZERO PUSH2 0x152E JUMPI PUSH2 0x152D PUSH2 0xDF7 JUMP JUMPDEST JUMPDEST PUSH2 0x1538 DUP3 SLOAD PUSH2 0x12D4 JUMP JUMPDEST PUSH2 0x1543 DUP3 DUP3 DUP6 PUSH2 0x1483 JUMP JUMPDEST PUSH0 PUSH1 0x20 SWAP1 POP PUSH1 0x1F DUP4 GT PUSH1 0x1 DUP2 EQ PUSH2 0x1574 JUMPI PUSH0 DUP5 ISZERO PUSH2 0x1562 JUMPI DUP3 DUP8 ADD MLOAD SWAP1 POP JUMPDEST PUSH2 0x156C DUP6 DUP3 PUSH2 0x14F1 JUMP JUMPDEST DUP7 SSTORE POP PUSH2 0x15D3 JUMP JUMPDEST PUSH1 0x1F NOT DUP5 AND PUSH2 0x1582 DUP7 PUSH2 0x136C JUMP JUMPDEST PUSH0 JUMPDEST DUP3 DUP2 LT ISZERO PUSH2 0x15A9 JUMPI DUP5 DUP10 ADD MLOAD DUP3 SSTORE PUSH1 0x1 DUP3 ADD SWAP2 POP PUSH1 0x20 DUP6 ADD SWAP5 POP PUSH1 0x20 DUP2 ADD SWAP1 POP PUSH2 0x1584 JUMP JUMPDEST DUP7 DUP4 LT ISZERO PUSH2 0x15C6 JUMPI DUP5 DUP10 ADD MLOAD PUSH2 0x15C2 PUSH1 0x1F DUP10 AND DUP3 PUSH2 0x14D5 JUMP JUMPDEST DUP4 SSTORE POP JUMPDEST PUSH1 0x1 PUSH1 0x2 DUP9 MUL ADD DUP9 SSTORE POP POP POP JUMPDEST POP POP POP POP POP POP JUMP JUMPDEST PUSH32 0x4E487B7100000000000000000000000000000000000000000000000000000000 PUSH0 MSTORE PUSH1 0x11 PUSH1 0x4 MSTORE PUSH1 0x24 PUSH0 REVERT JUMPDEST PUSH0 PUSH2 0x1612 DUP3 PUSH2 0xAE1 JUMP JUMPDEST SWAP2 POP PUSH32 0xFFFFFFFFFFFFFFFFFFFFFFFFFFFFFFFFFFFFFFFFFFFFFFFFFFFFFFFFFFFFFFFF DUP3 SUB PUSH2 0x1644 JUMPI PUSH2 0x1643 PUSH2 0x15DB JUMP JUMPDEST JUMPDEST PUSH1 0x1 DUP3 ADD SWAP1 POP SWAP2 SWAP1 POP JUMP JUMPDEST PUSH32 0x5572756E206C69737465736920626F73206F6C616D617A2E0000000000000000 PUSH0 DUP3 ADD MSTORE POP JUMP JUMPDEST PUSH0 PUSH2 0x1683 PUSH1 0x18 DUP4 PUSH2 0xF75 JUMP JUMPDEST SWAP2 POP PUSH2 0x168E DUP3 PUSH2 0x164F JUMP JUMPDEST PUSH1 0x20 DUP3 ADD SWAP1 POP SWAP2 SWAP1 POP JUMP JUMPDEST PUSH0 PUSH1 0x20 DUP3 ADD SWAP1 POP DUP2 DUP2 SUB PUSH0 DUP4 ADD MSTORE PUSH2 0x16B0 DUP2 PUSH2 0x1677 JUMP JUMPDEST SWAP1 POP SWAP2 SWAP1 POP JUMP JUMPDEST PUSH0 PUSH2 0x16C1 DUP3 PUSH2 0xAE1 JUMP JUMPDEST SWAP2 POP PUSH2 0x16CC DUP4 PUSH2 0xAE1 JUMP JUMPDEST SWAP3 POP DUP3 DUP3 SUB SWAP1 POP DUP2 DUP2 GT ISZERO PUSH2 0x16E4 JUMPI PUSH2 0x16E3 PUSH2 0x15DB JUMP JUMPDEST JUMPDEST SWAP3 SWAP2 POP POP JUMP INVALID LOG2 PUSH5 0x6970667358 0x22 SLT KECCAK256 PUSH5 0x54788B2EAF 0xAB BLOBBASEFEE 0xDC ADD 0xF6 0xDC 0x4C SWAP5 0xA7 CODESIZE 0xFB MULMOD 0xE4 0xD PUSH14 0x8F7A10E28269408BEDF9764736F PUSH13 0x634300081C0033000000000000 "
		},
		"gasEstimates": {
			"creation": {
				"codeDepositCost": "1184000",
				"executionCost": "25490",
				"totalCost": "1209490"
			},
			"external": {
				"islemSayisi()": "2448",
				"postaKoduGuncelle(uint256,string)": "infinite",
				"sahip()": "2508",
				"siparisGetir(uint256)": "infinite",
				"siparisIlerle(uint256)": "40063",
				"siparisOlustur(string,uint256[])": "infinite",
				"siparisler(uint256)": "infinite"
			}
		},
		"methodIdentifiers": {
			"islemSayisi()": "737f545f",
			"postaKoduGuncelle(uint256,string)": "995593db",
			"sahip()": "8574cd14",
			"siparisGetir(uint256)": "73fea758",
			"siparisIlerle(uint256)": "4ace5213",
			"siparisOlustur(string,uint256[])": "feff9c1e",
			"siparisler(uint256)": "ba3eeaca"
		}
	},
	"abi": [
		{
			"inputs": [],
			"stateMutability": "nonpayable",
			"type": "constructor"
		},
		{
			"inputs": [],
			"name": "islemSayisi",
			"outputs": [
				{
					"internalType": "uint256",
					"name": "",
					"type": "uint256"
				}
			],
			"stateMutability": "view",
			"type": "function"
		},
		{
			"inputs": [
				{
					"internalType": "uint256",
					"name": "_siparisId",
					"type": "uint256"
				},
				{
					"internalType": "string",
					"name": "_posta",
					"type": "string"
				}
			],
			"name": "postaKoduGuncelle",
			"outputs": [],
			"stateMutability": "nonpayable",
			"type": "function"
		},
		{
			"inputs": [],
			"name": "sahip",
			"outputs": [
				{
					"internalType": "address",
					"name": "",
					"type": "address"
				}
			],
			"stateMutability": "view",
			"type": "function"
		},
		{
			"inputs": [
				{
					"internalType": "uint256",
					"name": "_siparisId",
					"type": "uint256"
				}
			],
			"name": "siparisGetir",
			"outputs": [
				{
					"components": [
						{
							"internalType": "address",
							"name": "musteri",
							"type": "address"
						},
						{
							"internalType": "string",
							"name": "postaKodu",
							"type": "string"
						},
						{
							"internalType": "uint256[]",
							"name": "urunler",
							"type": "uint256[]"
						},
						{
							"internalType": "enum Modifiers.Durum",
							"name": "durum",
							"type": "uint8"
						}
					],
					"internalType": "struct Modifiers.Siparis",
					"name": "",
					"type": "tuple"
				}
			],
			"stateMutability": "view",
			"type": "function"
		},
		{
			"inputs": [
				{
					"internalType": "uint256",
					"name": "_siparisId",
					"type": "uint256"
				}
			],
			"name": "siparisIlerle",
			"outputs": [],
			"stateMutability": "nonpayable",
			"type": "function"
		},
		{
			"inputs": [
				{
					"internalType": "string",
					"name": "_postaKodu",
					"type": "string"
				},
				{
					"internalType": "uint256[]",
					"name": "_urunler",
					"type": "uint256[]"
				}
			],
			"name": "siparisOlustur",
			"outputs": [
				{
					"internalType": "uint256",
					"name": "",
					"type": "uint256"
				}
			],
			"stateMutability": "nonpayable",
			"type": "function"
		},
		{
			"inputs": [
				{
					"internalType": "uint256",
					"name": "",
					"type": "uint256"
				}
			],
			"name": "siparisler",
			"outputs": [
				{
					"internalType": "address",
					"name": "musteri",
					"type": "address"
				},
				{
					"internalType": "string",
					"name": "postaKodu",
					"type": "string"
				},
				{
					"internalType": "enum Modifiers.Durum",
					"name": "durum",
					"type": "uint8"
				}
			],
			"stateMutability": "view",
			"type": "function"
		}
	]
}