{
	"contracts/enumandstructs.sol": {
		"StructsAndEnums": {
			"abi": [
				{
					"inputs": [],
					"stateMutability": "nonpayable",
					"type": "constructor"
				},
				{
					"inputs": [
						{
							"internalType": "uint256",
							"name": "_siparisId",
							"type": "uint256"
						},
						{
							"internalType": "string",
							"name": "_posta",
							"type": "string"
						}
					],
					"name": "postaKoduGuncelle",
					"outputs": [],
					"stateMutability": "nonpayable",
					"type": "function"
				},
				{
					"inputs": [],
					"name": "sahip",
					"outputs": [
						{
							"internalType": "address",
							"name": "",
							"type": "address"
						}
					],
					"stateMutability": "view",
					"type": "function"
				},
				{
					"inputs": [
						{
							"internalType": "uint256",
							"name": "_siparisId",
							"type": "uint256"
						}
					],
					"name": "siparisGetir",
					"outputs": [
						{
							"components": [
								{
									"internalType": "address",
									"name": "musteri",
									"type": "address"
								},
								{
									"internalType": "string",
									"name": "postaKodu",
									"type": "string"
								},
								{
									"internalType": "uint256[]",
									"name": "urunler",
									"type": "uint256[]"
								},
								{
									"internalType": "enum StructsAndEnums.Durum",
									"name": "durum",
									"type": "uint8"
								}
							],
							"internalType": "struct StructsAndEnums.Siparis",
							"name": "",
							"type": "tuple"
						}
					],
					"stateMutability": "view",
					"type": "function"
				},
				{
					"inputs": [
						{
							"internalType": "uint256",
							"name": "_siparisId",
							"type": "uint256"
						}
					],
					"name": "siparisIlerle",
					"outputs": [],
					"stateMutability": "nonpayable",
					"type": "function"
				},
				{
					"inputs": [
						{
							"internalType": "string",
							"name": "_postaKodu",
							"type": "string"
						},
						{
							"internalType": "uint256[]",
							"name": "_urunler",
							"type": "uint256[]"
						}
					],
					"name": "siparisOlustur",
					"outputs": [
						{
							"internalType": "uint256",
							"name": "",
							"type": "uint256"
						}
					],
					"stateMutability": "nonpayable",
					"type": "function"
				},
				{
					"inputs": [
						{
							"internalType": "string",
							"name": "_postaKodu",
							"type": "string"
						},
						{
							"internalType": "uint256[]",
							"name": "_urunler",
							"type": "uint256[]"
						}
					],
					"name": "siparisOlustur2",
					"outputs": [
						{
							"internalType": "uint256",
							"name": "",
							"type": "uint256"
						}
					],
					"stateMutability": "nonpayable",
					"type": "function"
				},
				{
					"inputs": [
						{
							"internalType": "string",
							"name": "_postaKodu",
							"type": "string"
						},
						{
							"internalType": "uint256[]",
							"name": "_urunler",
							"type": "uint256[]"
						}
					],
					"name": "siparisOlustur3",
					"outputs": [
						{
							"internalType": "uint256",
							"name": "",
							"type": "uint256"
						}
					],
					"stateMutability": "nonpayable",
					"type": "function"
				},
				{
					"inputs": [
						{
							"internalType": "uint256",
							"name": "",
							"type": "uint256"
						}
					],
					"name": "siparisler",
					"outputs": [
						{
							"internalType": "address",
							"name": "musteri",
							"type": "address"
						},
						{
							"internalType": "string",
							"name": "postaKodu",
							"type": "string"
						},
						{
							"internalType": "enum StructsAndEnums.Durum",
							"name": "durum",
							"type": "uint8"
						}
					],
					"stateMutability": "view",
					"type": "function"
				}
			],
			"devdoc": {
				"kind": "dev",
				"methods": {
					"constructor": {
						"details": "Kontrat olusturucu, kontrati dagitan adresi sahip olarak atar."
					},
					"postaKoduGuncelle(uint256,string)": {
						"details": "Bir siparisin posta kodunu gunceller.",
						"params": {
							"_posta": "Yeni posta kodu.",
							"_siparisId": "Posta kodu guncellenecek siparisin ID'si."
						}
					},
					"siparisGetir(uint256)": {
						"details": "Belirli bir siparisin bilgilerini getirir.",
						"params": {
							"_siparisId": "Bilgileri alinacak siparisin ID'si."
						},
						"returns": {
							"_0": "Siparis bilgileri."
						}
					},
					"siparisIlerle(uint256)": {
						"details": "Bir siparisin durumunu bir sonraki asamaya ilerletir.",
						"params": {
							"_siparisId": "Ilerletilecek siparisin ID'si."
						}
					},
					"siparisOlustur(string,uint256[])": {
						"details": "Yeni bir siparis olusturur.",
						"params": {
							"_postaKodu": "Siparisin gonderilecegi posta kodu.",
							"_urunler": "Siparis edilen urunlerin ID'lerinden olusan liste."
						},
						"returns": {
							"_0": "Olusturulan siparisin ID'si."
						}
					},
					"siparisOlustur2(string,uint256[])": {
						"details": "Alternatif yolla yeni bir siparis olusturur.",
						"params": {
							"_postaKodu": "Siparisin gonderilecegi posta kodu.",
							"_urunler": "Siparis edilen urunlerin ID'lerinden olusan liste."
						},
						"returns": {
							"_0": "Olusturulan siparisin ID'si."
						}
					},
					"siparisOlustur3(string,uint256[])": {
						"details": "Alternatif yolla siparis olusturma (daha kısa)."
					}
				},
				"version": 1
			},
			"evm": {
				"assembly": "    /* \"contracts/enumandstructs.sol\":60:4737  contract StructsAndEnums {... */\n  mstore(0x40, 0x80)\n    /* \"contracts/enumandstructs.sol\":1101:1152  constructor() {... */\n  callvalue\n  dup1\n  iszero\n  tag_1\n  jumpi\n  revert(0x00, 0x00)\ntag_1:\n  pop\n    /* \"contracts/enumandstructs.sol\":1134:1144  msg.sender */\n  caller\n    /* \"contracts/enumandstructs.sol\":1126:1131  sahip */\n  0x01\n  0x00\n    /* \"contracts/enumandstructs.sol\":1126:1144  sahip = msg.sender */\n  0x0100\n  exp\n  dup2\n  sload\n  dup2\n  0xffffffffffffffffffffffffffffffffffffffff\n  mul\n  not\n  and\n  swap1\n  dup4\n  0xffffffffffffffffffffffffffffffffffffffff\n  and\n  mul\n  or\n  swap1\n  sstore\n  pop\n    /* \"contracts/enumandstructs.sol\":60:4737  contract StructsAndEnums {... */\n  dataSize(sub_0)\n  dup1\n  dataOffset(sub_0)\n  0x00\n  codecopy\n  0x00\n  return\nstop\n\nsub_0: assembly {\n        /* \"contracts/enumandstructs.sol\":60:4737  contract StructsAndEnums {... */\n      mstore(0x40, 0x80)\n      callvalue\n      dup1\n      iszero\n      tag_1\n      jumpi\n      revert(0x00, 0x00)\n    tag_1:\n      pop\n      jumpi(tag_2, lt(calldatasize, 0x04))\n      shr(0xe0, calldataload(0x00))\n      dup1\n      0x8574cd14\n      gt\n      tag_11\n      jumpi\n      dup1\n      0x8574cd14\n      eq\n      tag_7\n      jumpi\n      dup1\n      0x995593db\n      eq\n      tag_8\n      jumpi\n      dup1\n      0xba3eeaca\n      eq\n      tag_9\n      jumpi\n      dup1\n      0xfeff9c1e\n      eq\n      tag_10\n      jumpi\n      jump(tag_2)\n    tag_11:\n      dup1\n      0x11887dc1\n      eq\n      tag_3\n      jumpi\n      dup1\n      0x45d31537\n      eq\n      tag_4\n      jumpi\n      dup1\n      0x4ace5213\n      eq\n      tag_5\n      jumpi\n      dup1\n      0x73fea758\n      eq\n      tag_6\n      jumpi\n    tag_2:\n      revert(0x00, 0x00)\n        /* \"contracts/enumandstructs.sol\":2134:2593  function siparisOlustur2(string memory _postaKodu, uint256[] memory _urunler)... */\n    tag_3:\n      tag_12\n      0x04\n      dup1\n      calldatasize\n      sub\n      dup2\n      add\n      swap1\n      tag_13\n      swap2\n      swap1\n      tag_14\n      jump\t// in\n    tag_13:\n      tag_15\n      jump\t// in\n    tag_12:\n      mload(0x40)\n      tag_16\n      swap2\n      swap1\n      tag_17\n      jump\t// in\n    tag_16:\n      mload(0x40)\n      dup1\n      swap2\n      sub\n      swap1\n      return\n        /* \"contracts/enumandstructs.sol\":2681:2991  function siparisOlustur3(string memory _postaKodu, uint256[] memory _urunler)... */\n    tag_4:\n      tag_18\n      0x04\n      dup1\n      calldatasize\n      sub\n      dup2\n      add\n      swap1\n      tag_19\n      swap2\n      swap1\n      tag_14\n      jump\t// in\n    tag_19:\n      tag_20\n      jump\t// in\n    tag_18:\n      mload(0x40)\n      tag_21\n      swap2\n      swap1\n      tag_17\n      jump\t// in\n    tag_21:\n      mload(0x40)\n      dup1\n      swap2\n      sub\n      swap1\n      return\n        /* \"contracts/enumandstructs.sol\":3141:3807  function siparisIlerle(uint256 _siparisId) public {... */\n    tag_5:\n      tag_22\n      0x04\n      dup1\n      calldatasize\n      sub\n      dup2\n      add\n      swap1\n      tag_23\n      swap2\n      swap1\n      tag_24\n      jump\t// in\n    tag_23:\n      tag_25\n      jump\t// in\n    tag_22:\n      stop\n        /* \"contracts/enumandstructs.sol\":3986:4201  function siparisGetir(uint256 _siparisId) external view returns (Siparis memory) {... */\n    tag_6:\n      tag_26\n      0x04\n      dup1\n      calldatasize\n      sub\n      dup2\n      add\n      swap1\n      tag_27\n      swap2\n      swap1\n      tag_24\n      jump\t// in\n    tag_27:\n      tag_28\n      jump\t// in\n    tag_26:\n      mload(0x40)\n      tag_29\n      swap2\n      swap1\n      tag_30\n      jump\t// in\n    tag_29:\n      mload(0x40)\n      dup1\n      swap2\n      sub\n      swap1\n      return\n        /* \"contracts/enumandstructs.sol\":978:998  address public sahip */\n    tag_7:\n      tag_31\n      tag_32\n      jump\t// in\n    tag_31:\n      mload(0x40)\n      tag_33\n      swap2\n      swap1\n      tag_34\n      jump\t// in\n    tag_33:\n      mload(0x40)\n      dup1\n      swap2\n      sub\n      swap1\n      return\n        /* \"contracts/enumandstructs.sol\":4385:4734  function postaKoduGuncelle(uint256 _siparisId, string memory _posta) external {... */\n    tag_8:\n      tag_35\n      0x04\n      dup1\n      calldatasize\n      sub\n      dup2\n      add\n      swap1\n      tag_36\n      swap2\n      swap1\n      tag_37\n      jump\t// in\n    tag_36:\n      tag_38\n      jump\t// in\n    tag_35:\n      stop\n        /* \"contracts/enumandstructs.sol\":908:935  Siparis[] public siparisler */\n    tag_9:\n      tag_39\n      0x04\n      dup1\n      calldatasize\n      sub\n      dup2\n      add\n      swap1\n      tag_40\n      swap2\n      swap1\n      tag_24\n      jump\t// in\n    tag_40:\n      tag_41\n      jump\t// in\n    tag_39:\n      mload(0x40)\n      tag_42\n      swap4\n      swap3\n      swap2\n      swap1\n      tag_43\n      jump\t// in\n    tag_42:\n      mload(0x40)\n      dup1\n      swap2\n      sub\n      swap1\n      return\n        /* \"contracts/enumandstructs.sol\":1401:1868  function siparisOlustur(string memory _postaKodu, uint256[] memory _urunler)... */\n    tag_10:\n      tag_44\n      0x04\n      dup1\n      calldatasize\n      sub\n      dup2\n      add\n      swap1\n      tag_45\n      swap2\n      swap1\n      tag_14\n      jump\t// in\n    tag_45:\n      tag_46\n      jump\t// in\n    tag_44:\n      mload(0x40)\n      tag_47\n      swap2\n      swap1\n      tag_17\n      jump\t// in\n    tag_47:\n      mload(0x40)\n      dup1\n      swap2\n      sub\n      swap1\n      return\n        /* \"contracts/enumandstructs.sol\":2134:2593  function siparisOlustur2(string memory _postaKodu, uint256[] memory _urunler)... */\n    tag_15:\n        /* \"contracts/enumandstructs.sol\":2248:2255  uint256 */\n      0x00\n        /* \"contracts/enumandstructs.sol\":2299:2300  0 */\n      0x00\n        /* \"contracts/enumandstructs.sol\":2281:2289  _urunler */\n      dup3\n        /* \"contracts/enumandstructs.sol\":2281:2296  _urunler.length */\n      mload\n        /* \"contracts/enumandstructs.sol\":2281:2300  _urunler.length > 0 */\n      gt\n        /* \"contracts/enumandstructs.sol\":2273:2314  require(_urunler.length > 0, \"Urun yok.\") */\n      tag_49\n      jumpi\n      mload(0x40)\n      0x08c379a000000000000000000000000000000000000000000000000000000000\n      dup2\n      mstore\n      0x04\n      add\n      tag_50\n      swap1\n      tag_51\n      jump\t// in\n    tag_50:\n      mload(0x40)\n      dup1\n      swap2\n      sub\n      swap1\n      revert\n    tag_49:\n        /* \"contracts/enumandstructs.sol\":2327:2337  siparisler */\n      0x00\n        /* \"contracts/enumandstructs.sol\":2357:2533  Siparis({... */\n      mload(0x40)\n      dup1\n      0x80\n      add\n      0x40\n      mstore\n      dup1\n        /* \"contracts/enumandstructs.sol\":2393:2403  msg.sender */\n      caller\n        /* \"contracts/enumandstructs.sol\":2357:2533  Siparis({... */\n      0xffffffffffffffffffffffffffffffffffffffff\n      and\n      dup2\n      mstore\n      0x20\n      add\n        /* \"contracts/enumandstructs.sol\":2433:2443  _postaKodu */\n      dup6\n        /* \"contracts/enumandstructs.sol\":2357:2533  Siparis({... */\n      dup2\n      mstore\n      0x20\n      add\n        /* \"contracts/enumandstructs.sol\":2471:2479  _urunler */\n      dup5\n        /* \"contracts/enumandstructs.sol\":2357:2533  Siparis({... */\n      dup2\n      mstore\n      0x20\n      add\n        /* \"contracts/enumandstructs.sol\":2505:2517  Durum.Alindi */\n      0x00\n        /* \"contracts/enumandstructs.sol\":2357:2533  Siparis({... */\n      0x03\n      dup2\n      gt\n      iszero\n      tag_52\n      jumpi\n      tag_53\n      tag_54\n      jump\t// in\n    tag_53:\n    tag_52:\n      dup2\n      mstore\n      pop\n        /* \"contracts/enumandstructs.sol\":2327:2544  siparisler.push(... */\n      swap1\n      dup1\n      0x01\n      dup2\n      sload\n      add\n      dup1\n      dup3\n      sstore\n      dup1\n      swap2\n      pop\n      pop\n      0x01\n      swap1\n      sub\n      swap1\n      0x00\n      mstore\n      keccak256(0x00, 0x20)\n      swap1\n      0x04\n      mul\n      add\n      0x00\n      swap1\n      swap2\n      swap1\n      swap2\n      swap1\n      swap2\n      pop\n      0x00\n      dup3\n      add\n      mload\n      dup2\n      0x00\n      add\n      exp(0x0100, 0x00)\n      dup2\n      sload\n      dup2\n      0xffffffffffffffffffffffffffffffffffffffff\n      mul\n      not\n      and\n      swap1\n      dup4\n      0xffffffffffffffffffffffffffffffffffffffff\n      and\n      mul\n      or\n      swap1\n      sstore\n      pop\n      0x20\n      dup3\n      add\n      mload\n      dup2\n      0x01\n      add\n      swap1\n      dup2\n      tag_56\n      swap2\n      swap1\n      tag_57\n      jump\t// in\n    tag_56:\n      pop\n      0x40\n      dup3\n      add\n      mload\n      dup2\n      0x02\n      add\n      swap1\n      dup1\n      mload\n      swap1\n      0x20\n      add\n      swap1\n      tag_58\n      swap3\n      swap2\n      swap1\n      tag_59\n      jump\t// in\n    tag_58:\n      pop\n      0x60\n      dup3\n      add\n      mload\n      dup2\n      0x03\n      add\n      exp(0x0100, 0x00)\n      dup2\n      sload\n      dup2\n      0xff\n      mul\n      not\n      and\n      swap1\n      dup4\n      0x03\n      dup2\n      gt\n      iszero\n      tag_60\n      jumpi\n      tag_61\n      tag_54\n      jump\t// in\n    tag_61:\n    tag_60:\n      mul\n      or\n      swap1\n      sstore\n      pop\n      pop\n      pop\n        /* \"contracts/enumandstructs.sol\":2584:2585  1 */\n      0x01\n        /* \"contracts/enumandstructs.sol\":2564:2574  siparisler */\n      0x00\n        /* \"contracts/enumandstructs.sol\":2564:2581  siparisler.length */\n      dup1\n      sload\n      swap1\n      pop\n        /* \"contracts/enumandstructs.sol\":2564:2585  siparisler.length - 1 */\n      tag_62\n      swap2\n      swap1\n      tag_63\n      jump\t// in\n    tag_62:\n        /* \"contracts/enumandstructs.sol\":2557:2585  return siparisler.length - 1 */\n      swap1\n      pop\n        /* \"contracts/enumandstructs.sol\":2134:2593  function siparisOlustur2(string memory _postaKodu, uint256[] memory _urunler)... */\n      swap3\n      swap2\n      pop\n      pop\n      jump\t// out\n        /* \"contracts/enumandstructs.sol\":2681:2991  function siparisOlustur3(string memory _postaKodu, uint256[] memory _urunler)... */\n    tag_20:\n        /* \"contracts/enumandstructs.sol\":2795:2802  uint256 */\n      0x00\n        /* \"contracts/enumandstructs.sol\":2846:2847  0 */\n      0x00\n        /* \"contracts/enumandstructs.sol\":2828:2836  _urunler */\n      dup3\n        /* \"contracts/enumandstructs.sol\":2828:2843  _urunler.length */\n      mload\n        /* \"contracts/enumandstructs.sol\":2828:2847  _urunler.length > 0 */\n      gt\n        /* \"contracts/enumandstructs.sol\":2820:2861  require(_urunler.length > 0, \"Urun yok.\") */\n      tag_65\n      jumpi\n      mload(0x40)\n      0x08c379a000000000000000000000000000000000000000000000000000000000\n      dup2\n      mstore\n      0x04\n      add\n      tag_66\n      swap1\n      tag_51\n      jump\t// in\n    tag_66:\n      mload(0x40)\n      dup1\n      swap2\n      sub\n      swap1\n      revert\n    tag_65:\n        /* \"contracts/enumandstructs.sol\":2872:2882  siparisler */\n      0x00\n        /* \"contracts/enumandstructs.sol\":2888:2943  Siparis(msg.sender, _postaKodu, _urunler, Durum.Alindi) */\n      mload(0x40)\n      dup1\n      0x80\n      add\n      0x40\n      mstore\n      dup1\n        /* \"contracts/enumandstructs.sol\":2896:2906  msg.sender */\n      caller\n        /* \"contracts/enumandstructs.sol\":2888:2943  Siparis(msg.sender, _postaKodu, _urunler, Durum.Alindi) */\n      0xffffffffffffffffffffffffffffffffffffffff\n      and\n      dup2\n      mstore\n      0x20\n      add\n        /* \"contracts/enumandstructs.sol\":2908:2918  _postaKodu */\n      dup6\n        /* \"contracts/enumandstructs.sol\":2888:2943  Siparis(msg.sender, _postaKodu, _urunler, Durum.Alindi) */\n      dup2\n      mstore\n      0x20\n      add\n        /* \"contracts/enumandstructs.sol\":2920:2928  _urunler */\n      dup5\n        /* \"contracts/enumandstructs.sol\":2888:2943  Siparis(msg.sender, _postaKodu, _urunler, Durum.Alindi) */\n      dup2\n      mstore\n      0x20\n      add\n        /* \"contracts/enumandstructs.sol\":2930:2942  Durum.Alindi */\n      0x00\n        /* \"contracts/enumandstructs.sol\":2888:2943  Siparis(msg.sender, _postaKodu, _urunler, Durum.Alindi) */\n      0x03\n      dup2\n      gt\n      iszero\n      tag_67\n      jumpi\n      tag_68\n      tag_54\n      jump\t// in\n    tag_68:\n    tag_67:\n      dup2\n      mstore\n      pop\n        /* \"contracts/enumandstructs.sol\":2872:2944  siparisler.push(Siparis(msg.sender, _postaKodu, _urunler, Durum.Alindi)) */\n      swap1\n      dup1\n      0x01\n      dup2\n      sload\n      add\n      dup1\n      dup3\n      sstore\n      dup1\n      swap2\n      pop\n      pop\n      0x01\n      swap1\n      sub\n      swap1\n      0x00\n      mstore\n      keccak256(0x00, 0x20)\n      swap1\n      0x04\n      mul\n      add\n      0x00\n      swap1\n      swap2\n      swap1\n      swap2\n      swap1\n      swap2\n      pop\n      0x00\n      dup3\n      add\n      mload\n      dup2\n      0x00\n      add\n      exp(0x0100, 0x00)\n      dup2\n      sload\n      dup2\n      0xffffffffffffffffffffffffffffffffffffffff\n      mul\n      not\n      and\n      swap1\n      dup4\n      0xffffffffffffffffffffffffffffffffffffffff\n      and\n      mul\n      or\n      swap1\n      sstore\n      pop\n      0x20\n      dup3\n      add\n      mload\n      dup2\n      0x01\n      add\n      swap1\n      dup2\n      tag_70\n      swap2\n      swap1\n      tag_57\n      jump\t// in\n    tag_70:\n      pop\n      0x40\n      dup3\n      add\n      mload\n      dup2\n      0x02\n      add\n      swap1\n      dup1\n      mload\n      swap1\n      0x20\n      add\n      swap1\n      tag_71\n      swap3\n      swap2\n      swap1\n      tag_59\n      jump\t// in\n    tag_71:\n      pop\n      0x60\n      dup3\n      add\n      mload\n      dup2\n      0x03\n      add\n      exp(0x0100, 0x00)\n      dup2\n      sload\n      dup2\n      0xff\n      mul\n      not\n      and\n      swap1\n      dup4\n      0x03\n      dup2\n      gt\n      iszero\n      tag_72\n      jumpi\n      tag_73\n      tag_54\n      jump\t// in\n    tag_73:\n    tag_72:\n      mul\n      or\n      swap1\n      sstore\n      pop\n      pop\n      pop\n        /* \"contracts/enumandstructs.sol\":2982:2983  1 */\n      0x01\n        /* \"contracts/enumandstructs.sol\":2962:2972  siparisler */\n      0x00\n        /* \"contracts/enumandstructs.sol\":2962:2979  siparisler.length */\n      dup1\n      sload\n      swap1\n      pop\n        /* \"contracts/enumandstructs.sol\":2962:2983  siparisler.length - 1 */\n      tag_74\n      swap2\n      swap1\n      tag_63\n      jump\t// in\n    tag_74:\n        /* \"contracts/enumandstructs.sol\":2955:2983  return siparisler.length - 1 */\n      swap1\n      pop\n        /* \"contracts/enumandstructs.sol\":2681:2991  function siparisOlustur3(string memory _postaKodu, uint256[] memory _urunler)... */\n      swap3\n      swap2\n      pop\n      pop\n      jump\t// out\n        /* \"contracts/enumandstructs.sol\":3141:3807  function siparisIlerle(uint256 _siparisId) public {... */\n    tag_25:\n        /* \"contracts/enumandstructs.sol\":3224:3229  sahip */\n      0x01\n      0x00\n      swap1\n      sload\n      swap1\n      0x0100\n      exp\n      swap1\n      div\n      0xffffffffffffffffffffffffffffffffffffffff\n      and\n        /* \"contracts/enumandstructs.sol\":3210:3229  msg.sender == sahip */\n      0xffffffffffffffffffffffffffffffffffffffff\n      and\n        /* \"contracts/enumandstructs.sol\":3210:3220  msg.sender */\n      caller\n        /* \"contracts/enumandstructs.sol\":3210:3229  msg.sender == sahip */\n      0xffffffffffffffffffffffffffffffffffffffff\n      and\n      eq\n        /* \"contracts/enumandstructs.sol\":3202:3247  require(msg.sender == sahip, \"Yetkiniz yok.\") */\n      tag_76\n      jumpi\n      mload(0x40)\n      0x08c379a000000000000000000000000000000000000000000000000000000000\n      dup2\n      mstore\n      0x04\n      add\n      tag_77\n      swap1\n      tag_78\n      jump\t// in\n    tag_77:\n      mload(0x40)\n      dup1\n      swap2\n      sub\n      swap1\n      revert\n    tag_76:\n        /* \"contracts/enumandstructs.sol\":3279:3289  siparisler */\n      0x00\n        /* \"contracts/enumandstructs.sol\":3279:3296  siparisler.length */\n      dup1\n      sload\n      swap1\n      pop\n        /* \"contracts/enumandstructs.sol\":3266:3276  _siparisId */\n      dup2\n        /* \"contracts/enumandstructs.sol\":3266:3296  _siparisId < siparisler.length */\n      lt\n        /* \"contracts/enumandstructs.sol\":3258:3333  require(_siparisId < siparisler.length, \"Gecerli bir siparis ID'si degil.\") */\n      tag_79\n      jumpi\n      mload(0x40)\n      0x08c379a000000000000000000000000000000000000000000000000000000000\n      dup2\n      mstore\n      0x04\n      add\n      tag_80\n      swap1\n      tag_81\n      jump\t// in\n    tag_80:\n      mload(0x40)\n      dup1\n      swap2\n      sub\n      swap1\n      revert\n    tag_79:\n        /* \"contracts/enumandstructs.sol\":3346:3369  Siparis storage siparis */\n      0x00\n        /* \"contracts/enumandstructs.sol\":3372:3382  siparisler */\n      0x00\n        /* \"contracts/enumandstructs.sol\":3383:3393  _siparisId */\n      dup3\n        /* \"contracts/enumandstructs.sol\":3372:3394  siparisler[_siparisId] */\n      dup2\n      sload\n      dup2\n      lt\n      tag_82\n      jumpi\n      tag_83\n      tag_84\n      jump\t// in\n    tag_83:\n    tag_82:\n      swap1\n      0x00\n      mstore\n      keccak256(0x00, 0x20)\n      swap1\n      0x04\n      mul\n      add\n        /* \"contracts/enumandstructs.sol\":3346:3394  Siparis storage siparis = siparisler[_siparisId] */\n      swap1\n      pop\n        /* \"contracts/enumandstructs.sol\":3430:3446  Durum.Kargolandi */\n      0x03\n        /* \"contracts/enumandstructs.sol\":3413:3446  siparis.durum != Durum.Kargolandi */\n      dup1\n      dup2\n      gt\n      iszero\n      tag_86\n      jumpi\n      tag_87\n      tag_54\n      jump\t// in\n    tag_87:\n    tag_86:\n        /* \"contracts/enumandstructs.sol\":3413:3420  siparis */\n      dup2\n        /* \"contracts/enumandstructs.sol\":3413:3426  siparis.durum */\n      0x03\n      add\n      0x00\n      swap1\n      sload\n      swap1\n      0x0100\n      exp\n      swap1\n      div\n      0xff\n      and\n        /* \"contracts/enumandstructs.sol\":3413:3446  siparis.durum != Durum.Kargolandi */\n      0x03\n      dup2\n      gt\n      iszero\n      tag_88\n      jumpi\n      tag_89\n      tag_54\n      jump\t// in\n    tag_89:\n    tag_88:\n      sub\n        /* \"contracts/enumandstructs.sol\":3405:3481  require(siparis.durum != Durum.Kargolandi, \"Siparis zaten kargoya verildi.\") */\n      tag_90\n      jumpi\n      mload(0x40)\n      0x08c379a000000000000000000000000000000000000000000000000000000000\n      dup2\n      mstore\n      0x04\n      add\n      tag_91\n      swap1\n      tag_92\n      jump\t// in\n    tag_91:\n      mload(0x40)\n      dup1\n      swap2\n      sub\n      swap1\n      revert\n    tag_90:\n        /* \"contracts/enumandstructs.sol\":3515:3527  Durum.Alindi */\n      0x00\n        /* \"contracts/enumandstructs.sol\":3498:3527  siparis.durum == Durum.Alindi */\n      0x03\n      dup2\n      gt\n      iszero\n      tag_93\n      jumpi\n      tag_94\n      tag_54\n      jump\t// in\n    tag_94:\n    tag_93:\n        /* \"contracts/enumandstructs.sol\":3498:3505  siparis */\n      dup2\n        /* \"contracts/enumandstructs.sol\":3498:3511  siparis.durum */\n      0x03\n      add\n      0x00\n      swap1\n      sload\n      swap1\n      0x0100\n      exp\n      swap1\n      div\n      0xff\n      and\n        /* \"contracts/enumandstructs.sol\":3498:3527  siparis.durum == Durum.Alindi */\n      0x03\n      dup2\n      gt\n      iszero\n      tag_95\n      jumpi\n      tag_96\n      tag_54\n      jump\t// in\n    tag_96:\n    tag_95:\n      sub\n        /* \"contracts/enumandstructs.sol\":3494:3800  if (siparis.durum == Durum.Alindi) {... */\n      tag_97\n      jumpi\n        /* \"contracts/enumandstructs.sol\":3560:3578  Durum.Hazirlaniyor */\n      0x01\n        /* \"contracts/enumandstructs.sol\":3544:3551  siparis */\n      dup2\n        /* \"contracts/enumandstructs.sol\":3544:3557  siparis.durum */\n      0x03\n      add\n      0x00\n        /* \"contracts/enumandstructs.sol\":3544:3578  siparis.durum = Durum.Hazirlaniyor */\n      0x0100\n      exp\n      dup2\n      sload\n      dup2\n      0xff\n      mul\n      not\n      and\n      swap1\n      dup4\n      0x03\n      dup2\n      gt\n      iszero\n      tag_98\n      jumpi\n      tag_99\n      tag_54\n      jump\t// in\n    tag_99:\n    tag_98:\n      mul\n      or\n      swap1\n      sstore\n      pop\n        /* \"contracts/enumandstructs.sol\":3494:3800  if (siparis.durum == Durum.Alindi) {... */\n      jump(tag_100)\n    tag_97:\n        /* \"contracts/enumandstructs.sol\":3617:3635  Durum.Hazirlaniyor */\n      0x01\n        /* \"contracts/enumandstructs.sol\":3600:3635  siparis.durum == Durum.Hazirlaniyor */\n      0x03\n      dup2\n      gt\n      iszero\n      tag_101\n      jumpi\n      tag_102\n      tag_54\n      jump\t// in\n    tag_102:\n    tag_101:\n        /* \"contracts/enumandstructs.sol\":3600:3607  siparis */\n      dup2\n        /* \"contracts/enumandstructs.sol\":3600:3613  siparis.durum */\n      0x03\n      add\n      0x00\n      swap1\n      sload\n      swap1\n      0x0100\n      exp\n      swap1\n      div\n      0xff\n      and\n        /* \"contracts/enumandstructs.sol\":3600:3635  siparis.durum == Durum.Hazirlaniyor */\n      0x03\n      dup2\n      gt\n      iszero\n      tag_103\n      jumpi\n      tag_104\n      tag_54\n      jump\t// in\n    tag_104:\n    tag_103:\n      sub\n        /* \"contracts/enumandstructs.sol\":3596:3800  if (siparis.durum == Durum.Hazirlaniyor) {... */\n      tag_105\n      jumpi\n        /* \"contracts/enumandstructs.sol\":3668:3684  Durum.Paketlendi */\n      0x02\n        /* \"contracts/enumandstructs.sol\":3652:3659  siparis */\n      dup2\n        /* \"contracts/enumandstructs.sol\":3652:3665  siparis.durum */\n      0x03\n      add\n      0x00\n        /* \"contracts/enumandstructs.sol\":3652:3684  siparis.durum = Durum.Paketlendi */\n      0x0100\n      exp\n      dup2\n      sload\n      dup2\n      0xff\n      mul\n      not\n      and\n      swap1\n      dup4\n      0x03\n      dup2\n      gt\n      iszero\n      tag_106\n      jumpi\n      tag_107\n      tag_54\n      jump\t// in\n    tag_107:\n    tag_106:\n      mul\n      or\n      swap1\n      sstore\n      pop\n        /* \"contracts/enumandstructs.sol\":3596:3800  if (siparis.durum == Durum.Hazirlaniyor) {... */\n      jump(tag_108)\n    tag_105:\n        /* \"contracts/enumandstructs.sol\":3723:3739  Durum.Paketlendi */\n      0x02\n        /* \"contracts/enumandstructs.sol\":3706:3739  siparis.durum == Durum.Paketlendi */\n      0x03\n      dup2\n      gt\n      iszero\n      tag_109\n      jumpi\n      tag_110\n      tag_54\n      jump\t// in\n    tag_110:\n    tag_109:\n        /* \"contracts/enumandstructs.sol\":3706:3713  siparis */\n      dup2\n        /* \"contracts/enumandstructs.sol\":3706:3719  siparis.durum */\n      0x03\n      add\n      0x00\n      swap1\n      sload\n      swap1\n      0x0100\n      exp\n      swap1\n      div\n      0xff\n      and\n        /* \"contracts/enumandstructs.sol\":3706:3739  siparis.durum == Durum.Paketlendi */\n      0x03\n      dup2\n      gt\n      iszero\n      tag_111\n      jumpi\n      tag_112\n      tag_54\n      jump\t// in\n    tag_112:\n    tag_111:\n      sub\n        /* \"contracts/enumandstructs.sol\":3702:3800  if (siparis.durum == Durum.Paketlendi) {... */\n      tag_113\n      jumpi\n        /* \"contracts/enumandstructs.sol\":3772:3788  Durum.Kargolandi */\n      0x03\n        /* \"contracts/enumandstructs.sol\":3756:3763  siparis */\n      dup2\n        /* \"contracts/enumandstructs.sol\":3756:3769  siparis.durum */\n      0x03\n      add\n      0x00\n        /* \"contracts/enumandstructs.sol\":3756:3788  siparis.durum = Durum.Kargolandi */\n      0x0100\n      exp\n      dup2\n      sload\n      dup2\n      0xff\n      mul\n      not\n      and\n      swap1\n      dup4\n      0x03\n      dup2\n      gt\n      iszero\n      tag_114\n      jumpi\n      tag_115\n      tag_54\n      jump\t// in\n    tag_115:\n    tag_114:\n      mul\n      or\n      swap1\n      sstore\n      pop\n        /* \"contracts/enumandstructs.sol\":3702:3800  if (siparis.durum == Durum.Paketlendi) {... */\n    tag_113:\n        /* \"contracts/enumandstructs.sol\":3596:3800  if (siparis.durum == Durum.Hazirlaniyor) {... */\n    tag_108:\n        /* \"contracts/enumandstructs.sol\":3494:3800  if (siparis.durum == Durum.Alindi) {... */\n    tag_100:\n        /* \"contracts/enumandstructs.sol\":3191:3807  {... */\n      pop\n        /* \"contracts/enumandstructs.sol\":3141:3807  function siparisIlerle(uint256 _siparisId) public {... */\n      pop\n      jump\t// out\n        /* \"contracts/enumandstructs.sol\":3986:4201  function siparisGetir(uint256 _siparisId) external view returns (Siparis memory) {... */\n    tag_28:\n        /* \"contracts/enumandstructs.sol\":4051:4065  Siparis memory */\n      tag_116\n      tag_117\n      jump\t// in\n    tag_116:\n        /* \"contracts/enumandstructs.sol\":4099:4109  siparisler */\n      0x00\n        /* \"contracts/enumandstructs.sol\":4099:4116  siparisler.length */\n      dup1\n      sload\n      swap1\n      pop\n        /* \"contracts/enumandstructs.sol\":4086:4096  _siparisId */\n      dup3\n        /* \"contracts/enumandstructs.sol\":4086:4116  _siparisId < siparisler.length */\n      lt\n        /* \"contracts/enumandstructs.sol\":4078:4153  require(_siparisId < siparisler.length, \"Gecerli bir siparis ID'si degil.\") */\n      tag_119\n      jumpi\n      mload(0x40)\n      0x08c379a000000000000000000000000000000000000000000000000000000000\n      dup2\n      mstore\n      0x04\n      add\n      tag_120\n      swap1\n      tag_81\n      jump\t// in\n    tag_120:\n      mload(0x40)\n      dup1\n      swap2\n      sub\n      swap1\n      revert\n    tag_119:\n        /* \"contracts/enumandstructs.sol\":4171:4181  siparisler */\n      0x00\n        /* \"contracts/enumandstructs.sol\":4182:4192  _siparisId */\n      dup3\n        /* \"contracts/enumandstructs.sol\":4171:4193  siparisler[_siparisId] */\n      dup2\n      sload\n      dup2\n      lt\n      tag_121\n      jumpi\n      tag_122\n      tag_84\n      jump\t// in\n    tag_122:\n    tag_121:\n      swap1\n      0x00\n      mstore\n      keccak256(0x00, 0x20)\n      swap1\n      0x04\n      mul\n      add\n        /* \"contracts/enumandstructs.sol\":4164:4193  return siparisler[_siparisId] */\n      mload(0x40)\n      dup1\n      0x80\n      add\n      0x40\n      mstore\n      swap1\n      dup2\n      0x00\n      dup3\n      add\n      0x00\n      swap1\n      sload\n      swap1\n      0x0100\n      exp\n      swap1\n      div\n      0xffffffffffffffffffffffffffffffffffffffff\n      and\n      0xffffffffffffffffffffffffffffffffffffffff\n      and\n      0xffffffffffffffffffffffffffffffffffffffff\n      and\n      dup2\n      mstore\n      0x20\n      add\n      0x01\n      dup3\n      add\n      dup1\n      sload\n      tag_124\n      swap1\n      tag_125\n      jump\t// in\n    tag_124:\n      dup1\n      0x1f\n      add\n      0x20\n      dup1\n      swap2\n      div\n      mul\n      0x20\n      add\n      mload(0x40)\n      swap1\n      dup2\n      add\n      0x40\n      mstore\n      dup1\n      swap3\n      swap2\n      swap1\n      dup2\n      dup2\n      mstore\n      0x20\n      add\n      dup3\n      dup1\n      sload\n      tag_126\n      swap1\n      tag_125\n      jump\t// in\n    tag_126:\n      dup1\n      iszero\n      tag_127\n      jumpi\n      dup1\n      0x1f\n      lt\n      tag_128\n      jumpi\n      0x0100\n      dup1\n      dup4\n      sload\n      div\n      mul\n      dup4\n      mstore\n      swap2\n      0x20\n      add\n      swap2\n      jump(tag_127)\n    tag_128:\n      dup3\n      add\n      swap2\n      swap1\n      0x00\n      mstore\n      keccak256(0x00, 0x20)\n      swap1\n    tag_129:\n      dup2\n      sload\n      dup2\n      mstore\n      swap1\n      0x01\n      add\n      swap1\n      0x20\n      add\n      dup1\n      dup4\n      gt\n      tag_129\n      jumpi\n      dup3\n      swap1\n      sub\n      0x1f\n      and\n      dup3\n      add\n      swap2\n    tag_127:\n      pop\n      pop\n      pop\n      pop\n      pop\n      dup2\n      mstore\n      0x20\n      add\n      0x02\n      dup3\n      add\n      dup1\n      sload\n      dup1\n      0x20\n      mul\n      0x20\n      add\n      mload(0x40)\n      swap1\n      dup2\n      add\n      0x40\n      mstore\n      dup1\n      swap3\n      swap2\n      swap1\n      dup2\n      dup2\n      mstore\n      0x20\n      add\n      dup3\n      dup1\n      sload\n      dup1\n      iszero\n      tag_130\n      jumpi\n      0x20\n      mul\n      dup3\n      add\n      swap2\n      swap1\n      0x00\n      mstore\n      keccak256(0x00, 0x20)\n      swap1\n    tag_131:\n      dup2\n      sload\n      dup2\n      mstore\n      0x20\n      add\n      swap1\n      0x01\n      add\n      swap1\n      dup1\n      dup4\n      gt\n      tag_131\n      jumpi\n    tag_130:\n      pop\n      pop\n      pop\n      pop\n      pop\n      dup2\n      mstore\n      0x20\n      add\n      0x03\n      dup3\n      add\n      0x00\n      swap1\n      sload\n      swap1\n      0x0100\n      exp\n      swap1\n      div\n      0xff\n      and\n      0x03\n      dup2\n      gt\n      iszero\n      tag_132\n      jumpi\n      tag_133\n      tag_54\n      jump\t// in\n    tag_133:\n    tag_132:\n      0x03\n      dup2\n      gt\n      iszero\n      tag_134\n      jumpi\n      tag_135\n      tag_54\n      jump\t// in\n    tag_135:\n    tag_134:\n      dup2\n      mstore\n      pop\n      pop\n      swap1\n      pop\n        /* \"contracts/enumandstructs.sol\":3986:4201  function siparisGetir(uint256 _siparisId) external view returns (Siparis memory) {... */\n      swap2\n      swap1\n      pop\n      jump\t// out\n        /* \"contracts/enumandstructs.sol\":978:998  address public sahip */\n    tag_32:\n      0x01\n      0x00\n      swap1\n      sload\n      swap1\n      0x0100\n      exp\n      swap1\n      div\n      0xffffffffffffffffffffffffffffffffffffffff\n      and\n      dup2\n      jump\t// out\n        /* \"contracts/enumandstructs.sol\":4385:4734  function postaKoduGuncelle(uint256 _siparisId, string memory _posta) external {... */\n    tag_38:\n        /* \"contracts/enumandstructs.sol\":4495:4505  siparisler */\n      0x00\n        /* \"contracts/enumandstructs.sol\":4495:4512  siparisler.length */\n      dup1\n      sload\n      swap1\n      pop\n        /* \"contracts/enumandstructs.sol\":4482:4492  _siparisId */\n      dup3\n        /* \"contracts/enumandstructs.sol\":4482:4512  _siparisId < siparisler.length */\n      lt\n        /* \"contracts/enumandstructs.sol\":4474:4549  require(_siparisId < siparisler.length, \"Gecerli bir siparis ID'si degil.\") */\n      tag_137\n      jumpi\n      mload(0x40)\n      0x08c379a000000000000000000000000000000000000000000000000000000000\n      dup2\n      mstore\n      0x04\n      add\n      tag_138\n      swap1\n      tag_81\n      jump\t// in\n    tag_138:\n      mload(0x40)\n      dup1\n      swap2\n      sub\n      swap1\n      revert\n    tag_137:\n        /* \"contracts/enumandstructs.sol\":4560:4583  Siparis storage siparis */\n      0x00\n        /* \"contracts/enumandstructs.sol\":4586:4596  siparisler */\n      0x00\n        /* \"contracts/enumandstructs.sol\":4597:4607  _siparisId */\n      dup4\n        /* \"contracts/enumandstructs.sol\":4586:4608  siparisler[_siparisId] */\n      dup2\n      sload\n      dup2\n      lt\n      tag_139\n      jumpi\n      tag_140\n      tag_84\n      jump\t// in\n    tag_140:\n    tag_139:\n      swap1\n      0x00\n      mstore\n      keccak256(0x00, 0x20)\n      swap1\n      0x04\n      mul\n      add\n        /* \"contracts/enumandstructs.sol\":4560:4608  Siparis storage siparis = siparisler[_siparisId] */\n      swap1\n      pop\n        /* \"contracts/enumandstructs.sol\":4646:4656  msg.sender */\n      caller\n        /* \"contracts/enumandstructs.sol\":4627:4656  siparis.musteri == msg.sender */\n      0xffffffffffffffffffffffffffffffffffffffff\n      and\n        /* \"contracts/enumandstructs.sol\":4627:4634  siparis */\n      dup2\n        /* \"contracts/enumandstructs.sol\":4627:4642  siparis.musteri */\n      0x00\n      add\n      0x00\n      swap1\n      sload\n      swap1\n      0x0100\n      exp\n      swap1\n      div\n      0xffffffffffffffffffffffffffffffffffffffff\n      and\n        /* \"contracts/enumandstructs.sol\":4627:4656  siparis.musteri == msg.sender */\n      0xffffffffffffffffffffffffffffffffffffffff\n      and\n      eq\n        /* \"contracts/enumandstructs.sol\":4619:4689  require(siparis.musteri == msg.sender, \"Siparisin sahibi degilsiniz.\") */\n      tag_142\n      jumpi\n      mload(0x40)\n      0x08c379a000000000000000000000000000000000000000000000000000000000\n      dup2\n      mstore\n      0x04\n      add\n      tag_143\n      swap1\n      tag_144\n      jump\t// in\n    tag_143:\n      mload(0x40)\n      dup1\n      swap2\n      sub\n      swap1\n      revert\n    tag_142:\n        /* \"contracts/enumandstructs.sol\":4720:4726  _posta */\n      dup2\n        /* \"contracts/enumandstructs.sol\":4700:4707  siparis */\n      dup2\n        /* \"contracts/enumandstructs.sol\":4700:4717  siparis.postaKodu */\n      0x01\n      add\n        /* \"contracts/enumandstructs.sol\":4700:4726  siparis.postaKodu = _posta */\n      swap1\n      dup2\n      tag_145\n      swap2\n      swap1\n      tag_57\n      jump\t// in\n    tag_145:\n      pop\n        /* \"contracts/enumandstructs.sol\":4463:4734  {... */\n      pop\n        /* \"contracts/enumandstructs.sol\":4385:4734  function postaKoduGuncelle(uint256 _siparisId, string memory _posta) external {... */\n      pop\n      pop\n      jump\t// out\n        /* \"contracts/enumandstructs.sol\":908:935  Siparis[] public siparisler */\n    tag_41:\n      0x00\n      dup2\n      dup2\n      sload\n      dup2\n      lt\n      tag_146\n      jumpi\n      0x00\n      dup1\n      revert\n    tag_146:\n      swap1\n      0x00\n      mstore\n      keccak256(0x00, 0x20)\n      swap1\n      0x04\n      mul\n      add\n      0x00\n      swap2\n      pop\n      swap1\n      pop\n      dup1\n      0x00\n      add\n      0x00\n      swap1\n      sload\n      swap1\n      0x0100\n      exp\n      swap1\n      div\n      0xffffffffffffffffffffffffffffffffffffffff\n      and\n      swap1\n      dup1\n      0x01\n      add\n      dup1\n      sload\n      tag_148\n      swap1\n      tag_125\n      jump\t// in\n    tag_148:\n      dup1\n      0x1f\n      add\n      0x20\n      dup1\n      swap2\n      div\n      mul\n      0x20\n      add\n      mload(0x40)\n      swap1\n      dup2\n      add\n      0x40\n      mstore\n      dup1\n      swap3\n      swap2\n      swap1\n      dup2\n      dup2\n      mstore\n      0x20\n      add\n      dup3\n      dup1\n      sload\n      tag_149\n      swap1\n      tag_125\n      jump\t// in\n    tag_149:\n      dup1\n      iszero\n      tag_150\n      jumpi\n      dup1\n      0x1f\n      lt\n      tag_151\n      jumpi\n      0x0100\n      dup1\n      dup4\n      sload\n      div\n      mul\n      dup4\n      mstore\n      swap2\n      0x20\n      add\n      swap2\n      jump(tag_150)\n    tag_151:\n      dup3\n      add\n      swap2\n      swap1\n      0x00\n      mstore\n      keccak256(0x00, 0x20)\n      swap1\n    tag_152:\n      dup2\n      sload\n      dup2\n      mstore\n      swap1\n      0x01\n      add\n      swap1\n      0x20\n      add\n      dup1\n      dup4\n      gt\n      tag_152\n      jumpi\n      dup3\n      swap1\n      sub\n      0x1f\n      and\n      dup3\n      add\n      swap2\n    tag_150:\n      pop\n      pop\n      pop\n      pop\n      pop\n      swap1\n      dup1\n      0x03\n      add\n      0x00\n      swap1\n      sload\n      swap1\n      0x0100\n      exp\n      swap1\n      div\n      0xff\n      and\n      swap1\n      pop\n      dup4\n      jump\t// out\n        /* \"contracts/enumandstructs.sol\":1401:1868  function siparisOlustur(string memory _postaKodu, uint256[] memory _urunler)... */\n    tag_46:\n        /* \"contracts/enumandstructs.sol\":1514:1521  uint256 */\n      0x00\n        /* \"contracts/enumandstructs.sol\":1565:1566  0 */\n      0x00\n        /* \"contracts/enumandstructs.sol\":1547:1555  _urunler */\n      dup3\n        /* \"contracts/enumandstructs.sol\":1547:1562  _urunler.length */\n      mload\n        /* \"contracts/enumandstructs.sol\":1547:1566  _urunler.length > 0 */\n      gt\n        /* \"contracts/enumandstructs.sol\":1539:1580  require(_urunler.length > 0, \"Urun yok.\") */\n      tag_154\n      jumpi\n      mload(0x40)\n      0x08c379a000000000000000000000000000000000000000000000000000000000\n      dup2\n      mstore\n      0x04\n      add\n      tag_155\n      swap1\n      tag_51\n      jump\t// in\n    tag_155:\n      mload(0x40)\n      dup1\n      swap2\n      sub\n      swap1\n      revert\n    tag_154:\n        /* \"contracts/enumandstructs.sol\":1593:1619  Siparis memory yeniSiparis */\n      0x00\n        /* \"contracts/enumandstructs.sol\":1622:1778  Siparis({... */\n      mload(0x40)\n      dup1\n      0x80\n      add\n      0x40\n      mstore\n      dup1\n        /* \"contracts/enumandstructs.sol\":1654:1664  msg.sender */\n      caller\n        /* \"contracts/enumandstructs.sol\":1622:1778  Siparis({... */\n      0xffffffffffffffffffffffffffffffffffffffff\n      and\n      dup2\n      mstore\n      0x20\n      add\n        /* \"contracts/enumandstructs.sol\":1690:1700  _postaKodu */\n      dup6\n        /* \"contracts/enumandstructs.sol\":1622:1778  Siparis({... */\n      dup2\n      mstore\n      0x20\n      add\n        /* \"contracts/enumandstructs.sol\":1724:1732  _urunler */\n      dup5\n        /* \"contracts/enumandstructs.sol\":1622:1778  Siparis({... */\n      dup2\n      mstore\n      0x20\n      add\n        /* \"contracts/enumandstructs.sol\":1754:1766  Durum.Alindi */\n      0x00\n        /* \"contracts/enumandstructs.sol\":1622:1778  Siparis({... */\n      0x03\n      dup2\n      gt\n      iszero\n      tag_156\n      jumpi\n      tag_157\n      tag_54\n      jump\t// in\n    tag_157:\n    tag_156:\n      dup2\n      mstore\n      pop\n        /* \"contracts/enumandstructs.sol\":1593:1778  Siparis memory yeniSiparis = Siparis({... */\n      swap1\n      pop\n        /* \"contracts/enumandstructs.sol\":1791:1801  siparisler */\n      0x00\n        /* \"contracts/enumandstructs.sol\":1807:1818  yeniSiparis */\n      dup2\n        /* \"contracts/enumandstructs.sol\":1791:1819  siparisler.push(yeniSiparis) */\n      swap1\n      dup1\n      0x01\n      dup2\n      sload\n      add\n      dup1\n      dup3\n      sstore\n      dup1\n      swap2\n      pop\n      pop\n      0x01\n      swap1\n      sub\n      swap1\n      0x00\n      mstore\n      keccak256(0x00, 0x20)\n      swap1\n      0x04\n      mul\n      add\n      0x00\n      swap1\n      swap2\n      swap1\n      swap2\n      swap1\n      swap2\n      pop\n      0x00\n      dup3\n      add\n      mload\n      dup2\n      0x00\n      add\n      exp(0x0100, 0x00)\n      dup2\n      sload\n      dup2\n      0xffffffffffffffffffffffffffffffffffffffff\n      mul\n      not\n      and\n      swap1\n      dup4\n      0xffffffffffffffffffffffffffffffffffffffff\n      and\n      mul\n      or\n      swap1\n      sstore\n      pop\n      0x20\n      dup3\n      add\n      mload\n      dup2\n      0x01\n      add\n      swap1\n      dup2\n      tag_159\n      swap2\n      swap1\n      tag_57\n      jump\t// in\n    tag_159:\n      pop\n      0x40\n      dup3\n      add\n      mload\n      dup2\n      0x02\n      add\n      swap1\n      dup1\n      mload\n      swap1\n      0x20\n      add\n      swap1\n      tag_160\n      swap3\n      swap2\n      swap1\n      tag_59\n      jump\t// in\n    tag_160:\n      pop\n      0x60\n      dup3\n      add\n      mload\n      dup2\n      0x03\n      add\n      exp(0x0100, 0x00)\n      dup2\n      sload\n      dup2\n      0xff\n      mul\n      not\n      and\n      swap1\n      dup4\n      0x03\n      dup2\n      gt\n      iszero\n      tag_161\n      jumpi\n      tag_162\n      tag_54\n      jump\t// in\n    tag_162:\n    tag_161:\n      mul\n      or\n      swap1\n      sstore\n      pop\n      pop\n      pop\n        /* \"contracts/enumandstructs.sol\":1859:1860  1 */\n      0x01\n        /* \"contracts/enumandstructs.sol\":1839:1849  siparisler */\n      0x00\n        /* \"contracts/enumandstructs.sol\":1839:1856  siparisler.length */\n      dup1\n      sload\n      swap1\n      pop\n        /* \"contracts/enumandstructs.sol\":1839:1860  siparisler.length - 1 */\n      tag_163\n      swap2\n      swap1\n      tag_63\n      jump\t// in\n    tag_163:\n        /* \"contracts/enumandstructs.sol\":1832:1860  return siparisler.length - 1 */\n      swap2\n      pop\n      pop\n        /* \"contracts/enumandstructs.sol\":1401:1868  function siparisOlustur(string memory _postaKodu, uint256[] memory _urunler)... */\n      swap3\n      swap2\n      pop\n      pop\n      jump\t// out\n    tag_59:\n      dup3\n      dup1\n      sload\n      dup3\n      dup3\n      sstore\n      swap1\n      0x00\n      mstore\n      keccak256(0x00, 0x20)\n      swap1\n      dup2\n      add\n      swap3\n      dup3\n      iszero\n      tag_164\n      jumpi\n      swap2\n      0x20\n      mul\n      dup3\n      add\n    tag_165:\n      dup3\n      dup2\n      gt\n      iszero\n      tag_166\n      jumpi\n      dup3\n      mload\n      dup3\n      sstore\n      swap2\n      0x20\n      add\n      swap2\n      swap1\n      0x01\n      add\n      swap1\n      jump(tag_165)\n    tag_166:\n    tag_164:\n      pop\n      swap1\n      pop\n      tag_167\n      swap2\n      swap1\n      tag_168\n      jump\t// in\n    tag_167:\n      pop\n      swap1\n      jump\t// out\n    tag_117:\n      mload(0x40)\n      dup1\n      0x80\n      add\n      0x40\n      mstore\n      dup1\n      and(0xffffffffffffffffffffffffffffffffffffffff, 0x00)\n      dup2\n      mstore\n      0x20\n      add\n      0x60\n      dup2\n      mstore\n      0x20\n      add\n      0x60\n      dup2\n      mstore\n      0x20\n      add\n      0x00\n      0x03\n      dup2\n      gt\n      iszero\n      tag_169\n      jumpi\n      tag_170\n      tag_54\n      jump\t// in\n    tag_170:\n    tag_169:\n      dup2\n      mstore\n      pop\n      swap1\n      jump\t// out\n    tag_168:\n    tag_171:\n      dup1\n      dup3\n      gt\n      iszero\n      tag_172\n      jumpi\n      0x00\n      dup2\n      0x00\n      swap1\n      sstore\n      pop\n      0x01\n      add\n      jump(tag_171)\n    tag_172:\n      pop\n      swap1\n      jump\t// out\n        /* \"#utility.yul\":7:82   */\n    tag_173:\n        /* \"#utility.yul\":40:46   */\n      0x00\n        /* \"#utility.yul\":73:75   */\n      0x40\n        /* \"#utility.yul\":67:76   */\n      mload\n        /* \"#utility.yul\":57:76   */\n      swap1\n      pop\n        /* \"#utility.yul\":7:82   */\n      swap1\n      jump\t// out\n        /* \"#utility.yul\":88:205   */\n    tag_174:\n        /* \"#utility.yul\":197:198   */\n      0x00\n        /* \"#utility.yul\":194:195   */\n      0x00\n        /* \"#utility.yul\":187:199   */\n      revert\n        /* \"#utility.yul\":211:328   */\n    tag_175:\n        /* \"#utility.yul\":320:321   */\n      0x00\n        /* \"#utility.yul\":317:318   */\n      0x00\n        /* \"#utility.yul\":310:322   */\n      revert\n        /* \"#utility.yul\":334:451   */\n    tag_176:\n        /* \"#utility.yul\":443:444   */\n      0x00\n        /* \"#utility.yul\":440:441   */\n      0x00\n        /* \"#utility.yul\":433:445   */\n      revert\n        /* \"#utility.yul\":457:574   */\n    tag_177:\n        /* \"#utility.yul\":566:567   */\n      0x00\n        /* \"#utility.yul\":563:564   */\n      0x00\n        /* \"#utility.yul\":556:568   */\n      revert\n        /* \"#utility.yul\":580:682   */\n    tag_178:\n        /* \"#utility.yul\":621:627   */\n      0x00\n        /* \"#utility.yul\":672:674   */\n      0x1f\n        /* \"#utility.yul\":668:675   */\n      not\n        /* \"#utility.yul\":663:665   */\n      0x1f\n        /* \"#utility.yul\":656:661   */\n      dup4\n        /* \"#utility.yul\":652:666   */\n      add\n        /* \"#utility.yul\":648:676   */\n      and\n        /* \"#utility.yul\":638:676   */\n      swap1\n      pop\n        /* \"#utility.yul\":580:682   */\n      swap2\n      swap1\n      pop\n      jump\t// out\n        /* \"#utility.yul\":688:868   */\n    tag_179:\n        /* \"#utility.yul\":736:813   */\n      0x4e487b7100000000000000000000000000000000000000000000000000000000\n        /* \"#utility.yul\":733:734   */\n      0x00\n        /* \"#utility.yul\":726:814   */\n      mstore\n        /* \"#utility.yul\":833:837   */\n      0x41\n        /* \"#utility.yul\":830:831   */\n      0x04\n        /* \"#utility.yul\":823:838   */\n      mstore\n        /* \"#utility.yul\":857:861   */\n      0x24\n        /* \"#utility.yul\":854:855   */\n      0x00\n        /* \"#utility.yul\":847:862   */\n      revert\n        /* \"#utility.yul\":874:1155   */\n    tag_180:\n        /* \"#utility.yul\":957:984   */\n      tag_253\n        /* \"#utility.yul\":979:983   */\n      dup3\n        /* \"#utility.yul\":957:984   */\n      tag_178\n      jump\t// in\n    tag_253:\n        /* \"#utility.yul\":949:955   */\n      dup2\n        /* \"#utility.yul\":945:985   */\n      add\n        /* \"#utility.yul\":1087:1093   */\n      dup2\n        /* \"#utility.yul\":1075:1085   */\n      dup2\n        /* \"#utility.yul\":1072:1094   */\n      lt\n        /* \"#utility.yul\":1051:1069   */\n      0xffffffffffffffff\n        /* \"#utility.yul\":1039:1049   */\n      dup3\n        /* \"#utility.yul\":1036:1070   */\n      gt\n        /* \"#utility.yul\":1033:1095   */\n      or\n        /* \"#utility.yul\":1030:1118   */\n      iszero\n      tag_254\n      jumpi\n        /* \"#utility.yul\":1098:1116   */\n      tag_255\n      tag_179\n      jump\t// in\n    tag_255:\n        /* \"#utility.yul\":1030:1118   */\n    tag_254:\n        /* \"#utility.yul\":1138:1148   */\n      dup1\n        /* \"#utility.yul\":1134:1136   */\n      0x40\n        /* \"#utility.yul\":1127:1149   */\n      mstore\n        /* \"#utility.yul\":917:1155   */\n      pop\n        /* \"#utility.yul\":874:1155   */\n      pop\n      pop\n      jump\t// out\n        /* \"#utility.yul\":1161:1290   */\n    tag_181:\n        /* \"#utility.yul\":1195:1201   */\n      0x00\n        /* \"#utility.yul\":1222:1242   */\n      tag_257\n      tag_173\n      jump\t// in\n    tag_257:\n        /* \"#utility.yul\":1212:1242   */\n      swap1\n      pop\n        /* \"#utility.yul\":1251:1284   */\n      tag_258\n        /* \"#utility.yul\":1279:1283   */\n      dup3\n        /* \"#utility.yul\":1271:1277   */\n      dup3\n        /* \"#utility.yul\":1251:1284   */\n      tag_180\n      jump\t// in\n    tag_258:\n        /* \"#utility.yul\":1161:1290   */\n      swap2\n      swap1\n      pop\n      jump\t// out\n        /* \"#utility.yul\":1296:1604   */\n    tag_182:\n        /* \"#utility.yul\":1358:1362   */\n      0x00\n        /* \"#utility.yul\":1448:1466   */\n      0xffffffffffffffff\n        /* \"#utility.yul\":1440:1446   */\n      dup3\n        /* \"#utility.yul\":1437:1467   */\n      gt\n        /* \"#utility.yul\":1434:1490   */\n      iszero\n      tag_260\n      jumpi\n        /* \"#utility.yul\":1470:1488   */\n      tag_261\n      tag_179\n      jump\t// in\n    tag_261:\n        /* \"#utility.yul\":1434:1490   */\n    tag_260:\n        /* \"#utility.yul\":1508:1537   */\n      tag_262\n        /* \"#utility.yul\":1530:1536   */\n      dup3\n        /* \"#utility.yul\":1508:1537   */\n      tag_178\n      jump\t// in\n    tag_262:\n        /* \"#utility.yul\":1500:1537   */\n      swap1\n      pop\n        /* \"#utility.yul\":1592:1596   */\n      0x20\n        /* \"#utility.yul\":1586:1590   */\n      dup2\n        /* \"#utility.yul\":1582:1597   */\n      add\n        /* \"#utility.yul\":1574:1597   */\n      swap1\n      pop\n        /* \"#utility.yul\":1296:1604   */\n      swap2\n      swap1\n      pop\n      jump\t// out\n        /* \"#utility.yul\":1610:1758   */\n    tag_183:\n        /* \"#utility.yul\":1708:1714   */\n      dup3\n        /* \"#utility.yul\":1703:1706   */\n      dup2\n        /* \"#utility.yul\":1698:1701   */\n      dup4\n        /* \"#utility.yul\":1685:1715   */\n      calldatacopy\n        /* \"#utility.yul\":1749:1750   */\n      0x00\n        /* \"#utility.yul\":1740:1746   */\n      dup4\n        /* \"#utility.yul\":1735:1738   */\n      dup4\n        /* \"#utility.yul\":1731:1747   */\n      add\n        /* \"#utility.yul\":1724:1751   */\n      mstore\n        /* \"#utility.yul\":1610:1758   */\n      pop\n      pop\n      pop\n      jump\t// out\n        /* \"#utility.yul\":1764:2189   */\n    tag_184:\n        /* \"#utility.yul\":1842:1847   */\n      0x00\n        /* \"#utility.yul\":1867:1933   */\n      tag_265\n        /* \"#utility.yul\":1883:1932   */\n      tag_266\n        /* \"#utility.yul\":1925:1931   */\n      dup5\n        /* \"#utility.yul\":1883:1932   */\n      tag_182\n      jump\t// in\n    tag_266:\n        /* \"#utility.yul\":1867:1933   */\n      tag_181\n      jump\t// in\n    tag_265:\n        /* \"#utility.yul\":1858:1933   */\n      swap1\n      pop\n        /* \"#utility.yul\":1956:1962   */\n      dup3\n        /* \"#utility.yul\":1949:1954   */\n      dup2\n        /* \"#utility.yul\":1942:1963   */\n      mstore\n        /* \"#utility.yul\":1994:1998   */\n      0x20\n        /* \"#utility.yul\":1987:1992   */\n      dup2\n        /* \"#utility.yul\":1983:1999   */\n      add\n        /* \"#utility.yul\":2032:2035   */\n      dup5\n        /* \"#utility.yul\":2023:2029   */\n      dup5\n        /* \"#utility.yul\":2018:2021   */\n      dup5\n        /* \"#utility.yul\":2014:2030   */\n      add\n        /* \"#utility.yul\":2011:2036   */\n      gt\n        /* \"#utility.yul\":2008:2120   */\n      iszero\n      tag_267\n      jumpi\n        /* \"#utility.yul\":2039:2118   */\n      tag_268\n      tag_177\n      jump\t// in\n    tag_268:\n        /* \"#utility.yul\":2008:2120   */\n    tag_267:\n        /* \"#utility.yul\":2129:2183   */\n      tag_269\n        /* \"#utility.yul\":2176:2182   */\n      dup5\n        /* \"#utility.yul\":2171:2174   */\n      dup3\n        /* \"#utility.yul\":2166:2169   */\n      dup6\n        /* \"#utility.yul\":2129:2183   */\n      tag_183\n      jump\t// in\n    tag_269:\n        /* \"#utility.yul\":1848:2189   */\n      pop\n        /* \"#utility.yul\":1764:2189   */\n      swap4\n      swap3\n      pop\n      pop\n      pop\n      jump\t// out\n        /* \"#utility.yul\":2209:2549   */\n    tag_185:\n        /* \"#utility.yul\":2265:2270   */\n      0x00\n        /* \"#utility.yul\":2314:2317   */\n      dup3\n        /* \"#utility.yul\":2307:2311   */\n      0x1f\n        /* \"#utility.yul\":2299:2305   */\n      dup4\n        /* \"#utility.yul\":2295:2312   */\n      add\n        /* \"#utility.yul\":2291:2318   */\n      slt\n        /* \"#utility.yul\":2281:2403   */\n      tag_271\n      jumpi\n        /* \"#utility.yul\":2322:2401   */\n      tag_272\n      tag_176\n      jump\t// in\n    tag_272:\n        /* \"#utility.yul\":2281:2403   */\n    tag_271:\n        /* \"#utility.yul\":2439:2445   */\n      dup2\n        /* \"#utility.yul\":2426:2446   */\n      calldataload\n        /* \"#utility.yul\":2464:2543   */\n      tag_273\n        /* \"#utility.yul\":2539:2542   */\n      dup5\n        /* \"#utility.yul\":2531:2537   */\n      dup3\n        /* \"#utility.yul\":2524:2528   */\n      0x20\n        /* \"#utility.yul\":2516:2522   */\n      dup7\n        /* \"#utility.yul\":2512:2529   */\n      add\n        /* \"#utility.yul\":2464:2543   */\n      tag_184\n      jump\t// in\n    tag_273:\n        /* \"#utility.yul\":2455:2543   */\n      swap2\n      pop\n        /* \"#utility.yul\":2271:2549   */\n      pop\n        /* \"#utility.yul\":2209:2549   */\n      swap3\n      swap2\n      pop\n      pop\n      jump\t// out\n        /* \"#utility.yul\":2555:2866   */\n    tag_186:\n        /* \"#utility.yul\":2632:2636   */\n      0x00\n        /* \"#utility.yul\":2722:2740   */\n      0xffffffffffffffff\n        /* \"#utility.yul\":2714:2720   */\n      dup3\n        /* \"#utility.yul\":2711:2741   */\n      gt\n        /* \"#utility.yul\":2708:2764   */\n      iszero\n      tag_275\n      jumpi\n        /* \"#utility.yul\":2744:2762   */\n      tag_276\n      tag_179\n      jump\t// in\n    tag_276:\n        /* \"#utility.yul\":2708:2764   */\n    tag_275:\n        /* \"#utility.yul\":2794:2798   */\n      0x20\n        /* \"#utility.yul\":2786:2792   */\n      dup3\n        /* \"#utility.yul\":2782:2799   */\n      mul\n        /* \"#utility.yul\":2774:2799   */\n      swap1\n      pop\n        /* \"#utility.yul\":2854:2858   */\n      0x20\n        /* \"#utility.yul\":2848:2852   */\n      dup2\n        /* \"#utility.yul\":2844:2859   */\n      add\n        /* \"#utility.yul\":2836:2859   */\n      swap1\n      pop\n        /* \"#utility.yul\":2555:2866   */\n      swap2\n      swap1\n      pop\n      jump\t// out\n        /* \"#utility.yul\":2872:2989   */\n    tag_187:\n        /* \"#utility.yul\":2981:2982   */\n      0x00\n        /* \"#utility.yul\":2978:2979   */\n      0x00\n        /* \"#utility.yul\":2971:2983   */\n      revert\n        /* \"#utility.yul\":2995:3072   */\n    tag_188:\n        /* \"#utility.yul\":3032:3039   */\n      0x00\n        /* \"#utility.yul\":3061:3066   */\n      dup2\n        /* \"#utility.yul\":3050:3066   */\n      swap1\n      pop\n        /* \"#utility.yul\":2995:3072   */\n      swap2\n      swap1\n      pop\n      jump\t// out\n        /* \"#utility.yul\":3078:3200   */\n    tag_189:\n        /* \"#utility.yul\":3151:3175   */\n      tag_280\n        /* \"#utility.yul\":3169:3174   */\n      dup2\n        /* \"#utility.yul\":3151:3175   */\n      tag_188\n      jump\t// in\n    tag_280:\n        /* \"#utility.yul\":3144:3149   */\n      dup2\n        /* \"#utility.yul\":3141:3176   */\n      eq\n        /* \"#utility.yul\":3131:3194   */\n      tag_281\n      jumpi\n        /* \"#utility.yul\":3190:3191   */\n      0x00\n        /* \"#utility.yul\":3187:3188   */\n      0x00\n        /* \"#utility.yul\":3180:3192   */\n      revert\n        /* \"#utility.yul\":3131:3194   */\n    tag_281:\n        /* \"#utility.yul\":3078:3200   */\n      pop\n      jump\t// out\n        /* \"#utility.yul\":3206:3345   */\n    tag_190:\n        /* \"#utility.yul\":3252:3257   */\n      0x00\n        /* \"#utility.yul\":3290:3296   */\n      dup2\n        /* \"#utility.yul\":3277:3297   */\n      calldataload\n        /* \"#utility.yul\":3268:3297   */\n      swap1\n      pop\n        /* \"#utility.yul\":3306:3339   */\n      tag_283\n        /* \"#utility.yul\":3333:3338   */\n      dup2\n        /* \"#utility.yul\":3306:3339   */\n      tag_189\n      jump\t// in\n    tag_283:\n        /* \"#utility.yul\":3206:3345   */\n      swap3\n      swap2\n      pop\n      pop\n      jump\t// out\n        /* \"#utility.yul\":3368:4078   */\n    tag_191:\n        /* \"#utility.yul\":3464:3469   */\n      0x00\n        /* \"#utility.yul\":3489:3570   */\n      tag_285\n        /* \"#utility.yul\":3505:3569   */\n      tag_286\n        /* \"#utility.yul\":3562:3568   */\n      dup5\n        /* \"#utility.yul\":3505:3569   */\n      tag_186\n      jump\t// in\n    tag_286:\n        /* \"#utility.yul\":3489:3570   */\n      tag_181\n      jump\t// in\n    tag_285:\n        /* \"#utility.yul\":3480:3570   */\n      swap1\n      pop\n        /* \"#utility.yul\":3590:3595   */\n      dup1\n        /* \"#utility.yul\":3619:3625   */\n      dup4\n        /* \"#utility.yul\":3612:3617   */\n      dup3\n        /* \"#utility.yul\":3605:3626   */\n      mstore\n        /* \"#utility.yul\":3653:3657   */\n      0x20\n        /* \"#utility.yul\":3646:3651   */\n      dup3\n        /* \"#utility.yul\":3642:3658   */\n      add\n        /* \"#utility.yul\":3635:3658   */\n      swap1\n      pop\n        /* \"#utility.yul\":3706:3710   */\n      0x20\n        /* \"#utility.yul\":3698:3704   */\n      dup5\n        /* \"#utility.yul\":3694:3711   */\n      mul\n        /* \"#utility.yul\":3686:3692   */\n      dup4\n        /* \"#utility.yul\":3682:3712   */\n      add\n        /* \"#utility.yul\":3735:3738   */\n      dup6\n        /* \"#utility.yul\":3727:3733   */\n      dup2\n        /* \"#utility.yul\":3724:3739   */\n      gt\n        /* \"#utility.yul\":3721:3843   */\n      iszero\n      tag_287\n      jumpi\n        /* \"#utility.yul\":3754:3833   */\n      tag_288\n      tag_187\n      jump\t// in\n    tag_288:\n        /* \"#utility.yul\":3721:3843   */\n    tag_287:\n        /* \"#utility.yul\":3869:3875   */\n      dup4\n        /* \"#utility.yul\":3852:4072   */\n    tag_289:\n        /* \"#utility.yul\":3886:3892   */\n      dup2\n        /* \"#utility.yul\":3881:3884   */\n      dup2\n        /* \"#utility.yul\":3878:3893   */\n      lt\n        /* \"#utility.yul\":3852:4072   */\n      iszero\n      tag_291\n      jumpi\n        /* \"#utility.yul\":3961:3964   */\n      dup1\n        /* \"#utility.yul\":3990:4027   */\n      tag_292\n        /* \"#utility.yul\":4023:4026   */\n      dup9\n        /* \"#utility.yul\":4011:4021   */\n      dup3\n        /* \"#utility.yul\":3990:4027   */\n      tag_190\n      jump\t// in\n    tag_292:\n        /* \"#utility.yul\":3985:3988   */\n      dup5\n        /* \"#utility.yul\":3978:4028   */\n      mstore\n        /* \"#utility.yul\":4057:4061   */\n      0x20\n        /* \"#utility.yul\":4052:4055   */\n      dup5\n        /* \"#utility.yul\":4048:4062   */\n      add\n        /* \"#utility.yul\":4041:4062   */\n      swap4\n      pop\n        /* \"#utility.yul\":3928:4072   */\n      pop\n        /* \"#utility.yul\":3912:3916   */\n      0x20\n        /* \"#utility.yul\":3907:3910   */\n      dup2\n        /* \"#utility.yul\":3903:3917   */\n      add\n        /* \"#utility.yul\":3896:3917   */\n      swap1\n      pop\n        /* \"#utility.yul\":3852:4072   */\n      jump(tag_289)\n    tag_291:\n        /* \"#utility.yul\":3856:3877   */\n      pop\n        /* \"#utility.yul\":3470:4078   */\n      pop\n      pop\n        /* \"#utility.yul\":3368:4078   */\n      swap4\n      swap3\n      pop\n      pop\n      pop\n      jump\t// out\n        /* \"#utility.yul\":4101:4471   */\n    tag_192:\n        /* \"#utility.yul\":4172:4177   */\n      0x00\n        /* \"#utility.yul\":4221:4224   */\n      dup3\n        /* \"#utility.yul\":4214:4218   */\n      0x1f\n        /* \"#utility.yul\":4206:4212   */\n      dup4\n        /* \"#utility.yul\":4202:4219   */\n      add\n        /* \"#utility.yul\":4198:4225   */\n      slt\n        /* \"#utility.yul\":4188:4310   */\n      tag_294\n      jumpi\n        /* \"#utility.yul\":4229:4308   */\n      tag_295\n      tag_176\n      jump\t// in\n    tag_295:\n        /* \"#utility.yul\":4188:4310   */\n    tag_294:\n        /* \"#utility.yul\":4346:4352   */\n      dup2\n        /* \"#utility.yul\":4333:4353   */\n      calldataload\n        /* \"#utility.yul\":4371:4465   */\n      tag_296\n        /* \"#utility.yul\":4461:4464   */\n      dup5\n        /* \"#utility.yul\":4453:4459   */\n      dup3\n        /* \"#utility.yul\":4446:4450   */\n      0x20\n        /* \"#utility.yul\":4438:4444   */\n      dup7\n        /* \"#utility.yul\":4434:4451   */\n      add\n        /* \"#utility.yul\":4371:4465   */\n      tag_191\n      jump\t// in\n    tag_296:\n        /* \"#utility.yul\":4362:4465   */\n      swap2\n      pop\n        /* \"#utility.yul\":4178:4471   */\n      pop\n        /* \"#utility.yul\":4101:4471   */\n      swap3\n      swap2\n      pop\n      pop\n      jump\t// out\n        /* \"#utility.yul\":4477:5341   */\n    tag_14:\n        /* \"#utility.yul\":4580:4586   */\n      0x00\n        /* \"#utility.yul\":4588:4594   */\n      0x00\n        /* \"#utility.yul\":4637:4639   */\n      0x40\n        /* \"#utility.yul\":4625:4634   */\n      dup4\n        /* \"#utility.yul\":4616:4623   */\n      dup6\n        /* \"#utility.yul\":4612:4635   */\n      sub\n        /* \"#utility.yul\":4608:4640   */\n      slt\n        /* \"#utility.yul\":4605:4724   */\n      iszero\n      tag_298\n      jumpi\n        /* \"#utility.yul\":4643:4722   */\n      tag_299\n      tag_174\n      jump\t// in\n    tag_299:\n        /* \"#utility.yul\":4605:4724   */\n    tag_298:\n        /* \"#utility.yul\":4791:4792   */\n      0x00\n        /* \"#utility.yul\":4780:4789   */\n      dup4\n        /* \"#utility.yul\":4776:4793   */\n      add\n        /* \"#utility.yul\":4763:4794   */\n      calldataload\n        /* \"#utility.yul\":4821:4839   */\n      0xffffffffffffffff\n        /* \"#utility.yul\":4813:4819   */\n      dup2\n        /* \"#utility.yul\":4810:4840   */\n      gt\n        /* \"#utility.yul\":4807:4924   */\n      iszero\n      tag_300\n      jumpi\n        /* \"#utility.yul\":4843:4922   */\n      tag_301\n      tag_175\n      jump\t// in\n    tag_301:\n        /* \"#utility.yul\":4807:4924   */\n    tag_300:\n        /* \"#utility.yul\":4948:5011   */\n      tag_302\n        /* \"#utility.yul\":5003:5010   */\n      dup6\n        /* \"#utility.yul\":4994:5000   */\n      dup3\n        /* \"#utility.yul\":4983:4992   */\n      dup7\n        /* \"#utility.yul\":4979:5001   */\n      add\n        /* \"#utility.yul\":4948:5011   */\n      tag_185\n      jump\t// in\n    tag_302:\n        /* \"#utility.yul\":4938:5011   */\n      swap3\n      pop\n        /* \"#utility.yul\":4734:5021   */\n      pop\n        /* \"#utility.yul\":5088:5090   */\n      0x20\n        /* \"#utility.yul\":5077:5086   */\n      dup4\n        /* \"#utility.yul\":5073:5091   */\n      add\n        /* \"#utility.yul\":5060:5092   */\n      calldataload\n        /* \"#utility.yul\":5119:5137   */\n      0xffffffffffffffff\n        /* \"#utility.yul\":5111:5117   */\n      dup2\n        /* \"#utility.yul\":5108:5138   */\n      gt\n        /* \"#utility.yul\":5105:5222   */\n      iszero\n      tag_303\n      jumpi\n        /* \"#utility.yul\":5141:5220   */\n      tag_304\n      tag_175\n      jump\t// in\n    tag_304:\n        /* \"#utility.yul\":5105:5222   */\n    tag_303:\n        /* \"#utility.yul\":5246:5324   */\n      tag_305\n        /* \"#utility.yul\":5316:5323   */\n      dup6\n        /* \"#utility.yul\":5307:5313   */\n      dup3\n        /* \"#utility.yul\":5296:5305   */\n      dup7\n        /* \"#utility.yul\":5292:5314   */\n      add\n        /* \"#utility.yul\":5246:5324   */\n      tag_192\n      jump\t// in\n    tag_305:\n        /* \"#utility.yul\":5236:5324   */\n      swap2\n      pop\n        /* \"#utility.yul\":5031:5334   */\n      pop\n        /* \"#utility.yul\":4477:5341   */\n      swap3\n      pop\n      swap3\n      swap1\n      pop\n      jump\t// out\n        /* \"#utility.yul\":5347:5465   */\n    tag_193:\n        /* \"#utility.yul\":5434:5458   */\n      tag_307\n        /* \"#utility.yul\":5452:5457   */\n      dup2\n        /* \"#utility.yul\":5434:5458   */\n      tag_188\n      jump\t// in\n    tag_307:\n        /* \"#utility.yul\":5429:5432   */\n      dup3\n        /* \"#utility.yul\":5422:5459   */\n      mstore\n        /* \"#utility.yul\":5347:5465   */\n      pop\n      pop\n      jump\t// out\n        /* \"#utility.yul\":5471:5693   */\n    tag_17:\n        /* \"#utility.yul\":5564:5568   */\n      0x00\n        /* \"#utility.yul\":5602:5604   */\n      0x20\n        /* \"#utility.yul\":5591:5600   */\n      dup3\n        /* \"#utility.yul\":5587:5605   */\n      add\n        /* \"#utility.yul\":5579:5605   */\n      swap1\n      pop\n        /* \"#utility.yul\":5615:5686   */\n      tag_309\n        /* \"#utility.yul\":5683:5684   */\n      0x00\n        /* \"#utility.yul\":5672:5681   */\n      dup4\n        /* \"#utility.yul\":5668:5685   */\n      add\n        /* \"#utility.yul\":5659:5665   */\n      dup5\n        /* \"#utility.yul\":5615:5686   */\n      tag_193\n      jump\t// in\n    tag_309:\n        /* \"#utility.yul\":5471:5693   */\n      swap3\n      swap2\n      pop\n      pop\n      jump\t// out\n        /* \"#utility.yul\":5699:6028   */\n    tag_24:\n        /* \"#utility.yul\":5758:5764   */\n      0x00\n        /* \"#utility.yul\":5807:5809   */\n      0x20\n        /* \"#utility.yul\":5795:5804   */\n      dup3\n        /* \"#utility.yul\":5786:5793   */\n      dup5\n        /* \"#utility.yul\":5782:5805   */\n      sub\n        /* \"#utility.yul\":5778:5810   */\n      slt\n        /* \"#utility.yul\":5775:5894   */\n      iszero\n      tag_311\n      jumpi\n        /* \"#utility.yul\":5813:5892   */\n      tag_312\n      tag_174\n      jump\t// in\n    tag_312:\n        /* \"#utility.yul\":5775:5894   */\n    tag_311:\n        /* \"#utility.yul\":5933:5934   */\n      0x00\n        /* \"#utility.yul\":5958:6011   */\n      tag_313\n        /* \"#utility.yul\":6003:6010   */\n      dup5\n        /* \"#utility.yul\":5994:6000   */\n      dup3\n        /* \"#utility.yul\":5983:5992   */\n      dup6\n        /* \"#utility.yul\":5979:6001   */\n      add\n        /* \"#utility.yul\":5958:6011   */\n      tag_190\n      jump\t// in\n    tag_313:\n        /* \"#utility.yul\":5948:6011   */\n      swap2\n      pop\n        /* \"#utility.yul\":5904:6021   */\n      pop\n        /* \"#utility.yul\":5699:6028   */\n      swap3\n      swap2\n      pop\n      pop\n      jump\t// out\n        /* \"#utility.yul\":6034:6160   */\n    tag_194:\n        /* \"#utility.yul\":6071:6078   */\n      0x00\n        /* \"#utility.yul\":6111:6153   */\n      0xffffffffffffffffffffffffffffffffffffffff\n        /* \"#utility.yul\":6104:6109   */\n      dup3\n        /* \"#utility.yul\":6100:6154   */\n      and\n        /* \"#utility.yul\":6089:6154   */\n      swap1\n      pop\n        /* \"#utility.yul\":6034:6160   */\n      swap2\n      swap1\n      pop\n      jump\t// out\n        /* \"#utility.yul\":6166:6262   */\n    tag_195:\n        /* \"#utility.yul\":6203:6210   */\n      0x00\n        /* \"#utility.yul\":6232:6256   */\n      tag_316\n        /* \"#utility.yul\":6250:6255   */\n      dup3\n        /* \"#utility.yul\":6232:6256   */\n      tag_194\n      jump\t// in\n    tag_316:\n        /* \"#utility.yul\":6221:6256   */\n      swap1\n      pop\n        /* \"#utility.yul\":6166:6262   */\n      swap2\n      swap1\n      pop\n      jump\t// out\n        /* \"#utility.yul\":6268:6376   */\n    tag_196:\n        /* \"#utility.yul\":6345:6369   */\n      tag_318\n        /* \"#utility.yul\":6363:6368   */\n      dup2\n        /* \"#utility.yul\":6345:6369   */\n      tag_195\n      jump\t// in\n    tag_318:\n        /* \"#utility.yul\":6340:6343   */\n      dup3\n        /* \"#utility.yul\":6333:6370   */\n      mstore\n        /* \"#utility.yul\":6268:6376   */\n      pop\n      pop\n      jump\t// out\n        /* \"#utility.yul\":6382:6481   */\n    tag_197:\n        /* \"#utility.yul\":6434:6440   */\n      0x00\n        /* \"#utility.yul\":6468:6473   */\n      dup2\n        /* \"#utility.yul\":6462:6474   */\n      mload\n        /* \"#utility.yul\":6452:6474   */\n      swap1\n      pop\n        /* \"#utility.yul\":6382:6481   */\n      swap2\n      swap1\n      pop\n      jump\t// out\n        /* \"#utility.yul\":6487:6646   */\n    tag_198:\n        /* \"#utility.yul\":6561:6572   */\n      0x00\n        /* \"#utility.yul\":6595:6601   */\n      dup3\n        /* \"#utility.yul\":6590:6593   */\n      dup3\n        /* \"#utility.yul\":6583:6602   */\n      mstore\n        /* \"#utility.yul\":6635:6639   */\n      0x20\n        /* \"#utility.yul\":6630:6633   */\n      dup3\n        /* \"#utility.yul\":6626:6640   */\n      add\n        /* \"#utility.yul\":6611:6640   */\n      swap1\n      pop\n        /* \"#utility.yul\":6487:6646   */\n      swap3\n      swap2\n      pop\n      pop\n      jump\t// out\n        /* \"#utility.yul\":6652:6791   */\n    tag_199:\n        /* \"#utility.yul\":6741:6747   */\n      dup3\n        /* \"#utility.yul\":6736:6739   */\n      dup2\n        /* \"#utility.yul\":6731:6734   */\n      dup4\n        /* \"#utility.yul\":6725:6748   */\n      mcopy\n        /* \"#utility.yul\":6782:6783   */\n      0x00\n        /* \"#utility.yul\":6773:6779   */\n      dup4\n        /* \"#utility.yul\":6768:6771   */\n      dup4\n        /* \"#utility.yul\":6764:6780   */\n      add\n        /* \"#utility.yul\":6757:6784   */\n      mstore\n        /* \"#utility.yul\":6652:6791   */\n      pop\n      pop\n      pop\n      jump\t// out\n        /* \"#utility.yul\":6797:7154   */\n    tag_200:\n        /* \"#utility.yul\":6875:6878   */\n      0x00\n        /* \"#utility.yul\":6903:6942   */\n      tag_323\n        /* \"#utility.yul\":6936:6941   */\n      dup3\n        /* \"#utility.yul\":6903:6942   */\n      tag_197\n      jump\t// in\n    tag_323:\n        /* \"#utility.yul\":6958:7019   */\n      tag_324\n        /* \"#utility.yul\":7012:7018   */\n      dup2\n        /* \"#utility.yul\":7007:7010   */\n      dup6\n        /* \"#utility.yul\":6958:7019   */\n      tag_198\n      jump\t// in\n    tag_324:\n        /* \"#utility.yul\":6951:7019   */\n      swap4\n      pop\n        /* \"#utility.yul\":7028:7093   */\n      tag_325\n        /* \"#utility.yul\":7086:7092   */\n      dup2\n        /* \"#utility.yul\":7081:7084   */\n      dup6\n        /* \"#utility.yul\":7074:7078   */\n      0x20\n        /* \"#utility.yul\":7067:7072   */\n      dup7\n        /* \"#utility.yul\":7063:7079   */\n      add\n        /* \"#utility.yul\":7028:7093   */\n      tag_199\n      jump\t// in\n    tag_325:\n        /* \"#utility.yul\":7118:7147   */\n      tag_326\n        /* \"#utility.yul\":7140:7146   */\n      dup2\n        /* \"#utility.yul\":7118:7147   */\n      tag_178\n      jump\t// in\n    tag_326:\n        /* \"#utility.yul\":7113:7116   */\n      dup5\n        /* \"#utility.yul\":7109:7148   */\n      add\n        /* \"#utility.yul\":7102:7148   */\n      swap2\n      pop\n        /* \"#utility.yul\":6879:7154   */\n      pop\n        /* \"#utility.yul\":6797:7154   */\n      swap3\n      swap2\n      pop\n      pop\n      jump\t// out\n        /* \"#utility.yul\":7160:7274   */\n    tag_201:\n        /* \"#utility.yul\":7227:7233   */\n      0x00\n        /* \"#utility.yul\":7261:7266   */\n      dup2\n        /* \"#utility.yul\":7255:7267   */\n      mload\n        /* \"#utility.yul\":7245:7267   */\n      swap1\n      pop\n        /* \"#utility.yul\":7160:7274   */\n      swap2\n      swap1\n      pop\n      jump\t// out\n        /* \"#utility.yul\":7280:7454   */\n    tag_202:\n        /* \"#utility.yul\":7369:7380   */\n      0x00\n        /* \"#utility.yul\":7403:7409   */\n      dup3\n        /* \"#utility.yul\":7398:7401   */\n      dup3\n        /* \"#utility.yul\":7391:7410   */\n      mstore\n        /* \"#utility.yul\":7443:7447   */\n      0x20\n        /* \"#utility.yul\":7438:7441   */\n      dup3\n        /* \"#utility.yul\":7434:7448   */\n      add\n        /* \"#utility.yul\":7419:7448   */\n      swap1\n      pop\n        /* \"#utility.yul\":7280:7454   */\n      swap3\n      swap2\n      pop\n      pop\n      jump\t// out\n        /* \"#utility.yul\":7460:7592   */\n    tag_203:\n        /* \"#utility.yul\":7527:7531   */\n      0x00\n        /* \"#utility.yul\":7550:7553   */\n      dup2\n        /* \"#utility.yul\":7542:7553   */\n      swap1\n      pop\n        /* \"#utility.yul\":7580:7584   */\n      0x20\n        /* \"#utility.yul\":7575:7578   */\n      dup3\n        /* \"#utility.yul\":7571:7585   */\n      add\n        /* \"#utility.yul\":7563:7585   */\n      swap1\n      pop\n        /* \"#utility.yul\":7460:7592   */\n      swap2\n      swap1\n      pop\n      jump\t// out\n        /* \"#utility.yul\":7598:7706   */\n    tag_204:\n        /* \"#utility.yul\":7675:7699   */\n      tag_331\n        /* \"#utility.yul\":7693:7698   */\n      dup2\n        /* \"#utility.yul\":7675:7699   */\n      tag_188\n      jump\t// in\n    tag_331:\n        /* \"#utility.yul\":7670:7673   */\n      dup3\n        /* \"#utility.yul\":7663:7700   */\n      mstore\n        /* \"#utility.yul\":7598:7706   */\n      pop\n      pop\n      jump\t// out\n        /* \"#utility.yul\":7712:7891   */\n    tag_205:\n        /* \"#utility.yul\":7781:7791   */\n      0x00\n        /* \"#utility.yul\":7802:7848   */\n      tag_333\n        /* \"#utility.yul\":7844:7847   */\n      dup4\n        /* \"#utility.yul\":7836:7842   */\n      dup4\n        /* \"#utility.yul\":7802:7848   */\n      tag_204\n      jump\t// in\n    tag_333:\n        /* \"#utility.yul\":7880:7884   */\n      0x20\n        /* \"#utility.yul\":7875:7878   */\n      dup4\n        /* \"#utility.yul\":7871:7885   */\n      add\n        /* \"#utility.yul\":7857:7885   */\n      swap1\n      pop\n        /* \"#utility.yul\":7712:7891   */\n      swap3\n      swap2\n      pop\n      pop\n      jump\t// out\n        /* \"#utility.yul\":7897:8010   */\n    tag_206:\n        /* \"#utility.yul\":7967:7971   */\n      0x00\n        /* \"#utility.yul\":7999:8003   */\n      0x20\n        /* \"#utility.yul\":7994:7997   */\n      dup3\n        /* \"#utility.yul\":7990:8004   */\n      add\n        /* \"#utility.yul\":7982:8004   */\n      swap1\n      pop\n        /* \"#utility.yul\":7897:8010   */\n      swap2\n      swap1\n      pop\n      jump\t// out\n        /* \"#utility.yul\":8046:8758   */\n    tag_207:\n        /* \"#utility.yul\":8155:8158   */\n      0x00\n        /* \"#utility.yul\":8184:8238   */\n      tag_336\n        /* \"#utility.yul\":8232:8237   */\n      dup3\n        /* \"#utility.yul\":8184:8238   */\n      tag_201\n      jump\t// in\n    tag_336:\n        /* \"#utility.yul\":8254:8330   */\n      tag_337\n        /* \"#utility.yul\":8323:8329   */\n      dup2\n        /* \"#utility.yul\":8318:8321   */\n      dup6\n        /* \"#utility.yul\":8254:8330   */\n      tag_202\n      jump\t// in\n    tag_337:\n        /* \"#utility.yul\":8247:8330   */\n      swap4\n      pop\n        /* \"#utility.yul\":8354:8410   */\n      tag_338\n        /* \"#utility.yul\":8404:8409   */\n      dup4\n        /* \"#utility.yul\":8354:8410   */\n      tag_203\n      jump\t// in\n    tag_338:\n        /* \"#utility.yul\":8433:8440   */\n      dup1\n        /* \"#utility.yul\":8464:8465   */\n      0x00\n        /* \"#utility.yul\":8449:8733   */\n    tag_339:\n        /* \"#utility.yul\":8474:8480   */\n      dup4\n        /* \"#utility.yul\":8471:8472   */\n      dup2\n        /* \"#utility.yul\":8468:8481   */\n      lt\n        /* \"#utility.yul\":8449:8733   */\n      iszero\n      tag_341\n      jumpi\n        /* \"#utility.yul\":8550:8556   */\n      dup2\n        /* \"#utility.yul\":8544:8557   */\n      mload\n        /* \"#utility.yul\":8577:8640   */\n      tag_342\n        /* \"#utility.yul\":8636:8639   */\n      dup9\n        /* \"#utility.yul\":8621:8634   */\n      dup3\n        /* \"#utility.yul\":8577:8640   */\n      tag_205\n      jump\t// in\n    tag_342:\n        /* \"#utility.yul\":8570:8640   */\n      swap8\n      pop\n        /* \"#utility.yul\":8663:8723   */\n      tag_343\n        /* \"#utility.yul\":8716:8722   */\n      dup4\n        /* \"#utility.yul\":8663:8723   */\n      tag_206\n      jump\t// in\n    tag_343:\n        /* \"#utility.yul\":8653:8723   */\n      swap3\n      pop\n        /* \"#utility.yul\":8509:8733   */\n      pop\n        /* \"#utility.yul\":8496:8497   */\n      0x01\n        /* \"#utility.yul\":8493:8494   */\n      dup2\n        /* \"#utility.yul\":8489:8498   */\n      add\n        /* \"#utility.yul\":8484:8498   */\n      swap1\n      pop\n        /* \"#utility.yul\":8449:8733   */\n      jump(tag_339)\n    tag_341:\n        /* \"#utility.yul\":8453:8467   */\n      pop\n        /* \"#utility.yul\":8749:8752   */\n      dup6\n        /* \"#utility.yul\":8742:8752   */\n      swap4\n      pop\n        /* \"#utility.yul\":8160:8758   */\n      pop\n      pop\n      pop\n        /* \"#utility.yul\":8046:8758   */\n      swap3\n      swap2\n      pop\n      pop\n      jump\t// out\n        /* \"#utility.yul\":8764:8944   */\n    tag_54:\n        /* \"#utility.yul\":8812:8889   */\n      0x4e487b7100000000000000000000000000000000000000000000000000000000\n        /* \"#utility.yul\":8809:8810   */\n      0x00\n        /* \"#utility.yul\":8802:8890   */\n      mstore\n        /* \"#utility.yul\":8909:8913   */\n      0x21\n        /* \"#utility.yul\":8906:8907   */\n      0x04\n        /* \"#utility.yul\":8899:8914   */\n      mstore\n        /* \"#utility.yul\":8933:8937   */\n      0x24\n        /* \"#utility.yul\":8930:8931   */\n      0x00\n        /* \"#utility.yul\":8923:8938   */\n      revert\n        /* \"#utility.yul\":8950:9062   */\n    tag_208:\n        /* \"#utility.yul\":9030:9031   */\n      0x04\n        /* \"#utility.yul\":9023:9028   */\n      dup2\n        /* \"#utility.yul\":9020:9032   */\n      lt\n        /* \"#utility.yul\":9010:9056   */\n      tag_346\n      jumpi\n        /* \"#utility.yul\":9036:9054   */\n      tag_347\n      tag_54\n      jump\t// in\n    tag_347:\n        /* \"#utility.yul\":9010:9056   */\n    tag_346:\n        /* \"#utility.yul\":8950:9062   */\n      pop\n      jump\t// out\n        /* \"#utility.yul\":9068:9193   */\n    tag_209:\n        /* \"#utility.yul\":9112:9119   */\n      0x00\n        /* \"#utility.yul\":9141:9146   */\n      dup2\n        /* \"#utility.yul\":9130:9146   */\n      swap1\n      pop\n        /* \"#utility.yul\":9147:9187   */\n      tag_349\n        /* \"#utility.yul\":9181:9186   */\n      dup3\n        /* \"#utility.yul\":9147:9187   */\n      tag_208\n      jump\t// in\n    tag_349:\n        /* \"#utility.yul\":9068:9193   */\n      swap2\n      swap1\n      pop\n      jump\t// out\n        /* \"#utility.yul\":9199:9324   */\n    tag_210:\n        /* \"#utility.yul\":9254:9263   */\n      0x00\n        /* \"#utility.yul\":9287:9318   */\n      tag_351\n        /* \"#utility.yul\":9312:9317   */\n      dup3\n        /* \"#utility.yul\":9287:9318   */\n      tag_209\n      jump\t// in\n    tag_351:\n        /* \"#utility.yul\":9274:9318   */\n      swap1\n      pop\n        /* \"#utility.yul\":9199:9324   */\n      swap2\n      swap1\n      pop\n      jump\t// out\n        /* \"#utility.yul\":9330:9461   */\n    tag_211:\n        /* \"#utility.yul\":9412:9454   */\n      tag_353\n        /* \"#utility.yul\":9448:9453   */\n      dup2\n        /* \"#utility.yul\":9412:9454   */\n      tag_210\n      jump\t// in\n    tag_353:\n        /* \"#utility.yul\":9407:9410   */\n      dup3\n        /* \"#utility.yul\":9400:9455   */\n      mstore\n        /* \"#utility.yul\":9330:9461   */\n      pop\n      pop\n      jump\t// out\n        /* \"#utility.yul\":9539:10607   */\n    tag_212:\n        /* \"#utility.yul\":9654:9657   */\n      0x00\n        /* \"#utility.yul\":9690:9694   */\n      0x80\n        /* \"#utility.yul\":9685:9688   */\n      dup4\n        /* \"#utility.yul\":9681:9695   */\n      add\n        /* \"#utility.yul\":9780:9784   */\n      0x00\n        /* \"#utility.yul\":9773:9778   */\n      dup4\n        /* \"#utility.yul\":9769:9785   */\n      add\n        /* \"#utility.yul\":9763:9786   */\n      mload\n        /* \"#utility.yul\":9799:9862   */\n      tag_355\n        /* \"#utility.yul\":9856:9860   */\n      0x00\n        /* \"#utility.yul\":9851:9854   */\n      dup7\n        /* \"#utility.yul\":9847:9861   */\n      add\n        /* \"#utility.yul\":9833:9845   */\n      dup3\n        /* \"#utility.yul\":9799:9862   */\n      tag_196\n      jump\t// in\n    tag_355:\n        /* \"#utility.yul\":9705:9872   */\n      pop\n        /* \"#utility.yul\":9959:9963   */\n      0x20\n        /* \"#utility.yul\":9952:9957   */\n      dup4\n        /* \"#utility.yul\":9948:9964   */\n      add\n        /* \"#utility.yul\":9942:9965   */\n      mload\n        /* \"#utility.yul\":10012:10015   */\n      dup5\n        /* \"#utility.yul\":10006:10010   */\n      dup3\n        /* \"#utility.yul\":10002:10016   */\n      sub\n        /* \"#utility.yul\":9995:9999   */\n      0x20\n        /* \"#utility.yul\":9990:9993   */\n      dup7\n        /* \"#utility.yul\":9986:10000   */\n      add\n        /* \"#utility.yul\":9979:10017   */\n      mstore\n        /* \"#utility.yul\":10038:10111   */\n      tag_356\n        /* \"#utility.yul\":10106:10110   */\n      dup3\n        /* \"#utility.yul\":10092:10104   */\n      dup3\n        /* \"#utility.yul\":10038:10111   */\n      tag_200\n      jump\t// in\n    tag_356:\n        /* \"#utility.yul\":10030:10111   */\n      swap2\n      pop\n        /* \"#utility.yul\":9882:10122   */\n      pop\n        /* \"#utility.yul\":10207:10211   */\n      0x40\n        /* \"#utility.yul\":10200:10205   */\n      dup4\n        /* \"#utility.yul\":10196:10212   */\n      add\n        /* \"#utility.yul\":10190:10213   */\n      mload\n        /* \"#utility.yul\":10260:10263   */\n      dup5\n        /* \"#utility.yul\":10254:10258   */\n      dup3\n        /* \"#utility.yul\":10250:10264   */\n      sub\n        /* \"#utility.yul\":10243:10247   */\n      0x40\n        /* \"#utility.yul\":10238:10241   */\n      dup7\n        /* \"#utility.yul\":10234:10248   */\n      add\n        /* \"#utility.yul\":10227:10265   */\n      mstore\n        /* \"#utility.yul\":10286:10389   */\n      tag_357\n        /* \"#utility.yul\":10384:10388   */\n      dup3\n        /* \"#utility.yul\":10370:10382   */\n      dup3\n        /* \"#utility.yul\":10286:10389   */\n      tag_207\n      jump\t// in\n    tag_357:\n        /* \"#utility.yul\":10278:10389   */\n      swap2\n      pop\n        /* \"#utility.yul\":10132:10400   */\n      pop\n        /* \"#utility.yul\":10483:10487   */\n      0x60\n        /* \"#utility.yul\":10476:10481   */\n      dup4\n        /* \"#utility.yul\":10472:10488   */\n      add\n        /* \"#utility.yul\":10466:10489   */\n      mload\n        /* \"#utility.yul\":10502:10570   */\n      tag_358\n        /* \"#utility.yul\":10564:10568   */\n      0x60\n        /* \"#utility.yul\":10559:10562   */\n      dup7\n        /* \"#utility.yul\":10555:10569   */\n      add\n        /* \"#utility.yul\":10541:10553   */\n      dup3\n        /* \"#utility.yul\":10502:10570   */\n      tag_211\n      jump\t// in\n    tag_358:\n        /* \"#utility.yul\":10410:10580   */\n      pop\n        /* \"#utility.yul\":10597:10601   */\n      dup1\n        /* \"#utility.yul\":10590:10601   */\n      swap2\n      pop\n        /* \"#utility.yul\":9659:10607   */\n      pop\n        /* \"#utility.yul\":9539:10607   */\n      swap3\n      swap2\n      pop\n      pop\n      jump\t// out\n        /* \"#utility.yul\":10613:10978   */\n    tag_30:\n        /* \"#utility.yul\":10752:10756   */\n      0x00\n        /* \"#utility.yul\":10790:10792   */\n      0x20\n        /* \"#utility.yul\":10779:10788   */\n      dup3\n        /* \"#utility.yul\":10775:10793   */\n      add\n        /* \"#utility.yul\":10767:10793   */\n      swap1\n      pop\n        /* \"#utility.yul\":10839:10848   */\n      dup2\n        /* \"#utility.yul\":10833:10837   */\n      dup2\n        /* \"#utility.yul\":10829:10849   */\n      sub\n        /* \"#utility.yul\":10825:10826   */\n      0x00\n        /* \"#utility.yul\":10814:10823   */\n      dup4\n        /* \"#utility.yul\":10810:10827   */\n      add\n        /* \"#utility.yul\":10803:10850   */\n      mstore\n        /* \"#utility.yul\":10867:10971   */\n      tag_360\n        /* \"#utility.yul\":10966:10970   */\n      dup2\n        /* \"#utility.yul\":10957:10963   */\n      dup5\n        /* \"#utility.yul\":10867:10971   */\n      tag_212\n      jump\t// in\n    tag_360:\n        /* \"#utility.yul\":10859:10971   */\n      swap1\n      pop\n        /* \"#utility.yul\":10613:10978   */\n      swap3\n      swap2\n      pop\n      pop\n      jump\t// out\n        /* \"#utility.yul\":10984:11102   */\n    tag_213:\n        /* \"#utility.yul\":11071:11095   */\n      tag_362\n        /* \"#utility.yul\":11089:11094   */\n      dup2\n        /* \"#utility.yul\":11071:11095   */\n      tag_195\n      jump\t// in\n    tag_362:\n        /* \"#utility.yul\":11066:11069   */\n      dup3\n        /* \"#utility.yul\":11059:11096   */\n      mstore\n        /* \"#utility.yul\":10984:11102   */\n      pop\n      pop\n      jump\t// out\n        /* \"#utility.yul\":11108:11330   */\n    tag_34:\n        /* \"#utility.yul\":11201:11205   */\n      0x00\n        /* \"#utility.yul\":11239:11241   */\n      0x20\n        /* \"#utility.yul\":11228:11237   */\n      dup3\n        /* \"#utility.yul\":11224:11242   */\n      add\n        /* \"#utility.yul\":11216:11242   */\n      swap1\n      pop\n        /* \"#utility.yul\":11252:11323   */\n      tag_364\n        /* \"#utility.yul\":11320:11321   */\n      0x00\n        /* \"#utility.yul\":11309:11318   */\n      dup4\n        /* \"#utility.yul\":11305:11322   */\n      add\n        /* \"#utility.yul\":11296:11302   */\n      dup5\n        /* \"#utility.yul\":11252:11323   */\n      tag_213\n      jump\t// in\n    tag_364:\n        /* \"#utility.yul\":11108:11330   */\n      swap3\n      swap2\n      pop\n      pop\n      jump\t// out\n        /* \"#utility.yul\":11336:11990   */\n    tag_37:\n        /* \"#utility.yul\":11414:11420   */\n      0x00\n        /* \"#utility.yul\":11422:11428   */\n      0x00\n        /* \"#utility.yul\":11471:11473   */\n      0x40\n        /* \"#utility.yul\":11459:11468   */\n      dup4\n        /* \"#utility.yul\":11450:11457   */\n      dup6\n        /* \"#utility.yul\":11446:11469   */\n      sub\n        /* \"#utility.yul\":11442:11474   */\n      slt\n        /* \"#utility.yul\":11439:11558   */\n      iszero\n      tag_366\n      jumpi\n        /* \"#utility.yul\":11477:11556   */\n      tag_367\n      tag_174\n      jump\t// in\n    tag_367:\n        /* \"#utility.yul\":11439:11558   */\n    tag_366:\n        /* \"#utility.yul\":11597:11598   */\n      0x00\n        /* \"#utility.yul\":11622:11675   */\n      tag_368\n        /* \"#utility.yul\":11667:11674   */\n      dup6\n        /* \"#utility.yul\":11658:11664   */\n      dup3\n        /* \"#utility.yul\":11647:11656   */\n      dup7\n        /* \"#utility.yul\":11643:11665   */\n      add\n        /* \"#utility.yul\":11622:11675   */\n      tag_190\n      jump\t// in\n    tag_368:\n        /* \"#utility.yul\":11612:11675   */\n      swap3\n      pop\n        /* \"#utility.yul\":11568:11685   */\n      pop\n        /* \"#utility.yul\":11752:11754   */\n      0x20\n        /* \"#utility.yul\":11741:11750   */\n      dup4\n        /* \"#utility.yul\":11737:11755   */\n      add\n        /* \"#utility.yul\":11724:11756   */\n      calldataload\n        /* \"#utility.yul\":11783:11801   */\n      0xffffffffffffffff\n        /* \"#utility.yul\":11775:11781   */\n      dup2\n        /* \"#utility.yul\":11772:11802   */\n      gt\n        /* \"#utility.yul\":11769:11886   */\n      iszero\n      tag_369\n      jumpi\n        /* \"#utility.yul\":11805:11884   */\n      tag_370\n      tag_175\n      jump\t// in\n    tag_370:\n        /* \"#utility.yul\":11769:11886   */\n    tag_369:\n        /* \"#utility.yul\":11910:11973   */\n      tag_371\n        /* \"#utility.yul\":11965:11972   */\n      dup6\n        /* \"#utility.yul\":11956:11962   */\n      dup3\n        /* \"#utility.yul\":11945:11954   */\n      dup7\n        /* \"#utility.yul\":11941:11963   */\n      add\n        /* \"#utility.yul\":11910:11973   */\n      tag_185\n      jump\t// in\n    tag_371:\n        /* \"#utility.yul\":11900:11973   */\n      swap2\n      pop\n        /* \"#utility.yul\":11695:11983   */\n      pop\n        /* \"#utility.yul\":11336:11990   */\n      swap3\n      pop\n      swap3\n      swap1\n      pop\n      jump\t// out\n        /* \"#utility.yul\":11996:12165   */\n    tag_214:\n        /* \"#utility.yul\":12080:12091   */\n      0x00\n        /* \"#utility.yul\":12114:12120   */\n      dup3\n        /* \"#utility.yul\":12109:12112   */\n      dup3\n        /* \"#utility.yul\":12102:12121   */\n      mstore\n        /* \"#utility.yul\":12154:12158   */\n      0x20\n        /* \"#utility.yul\":12149:12152   */\n      dup3\n        /* \"#utility.yul\":12145:12159   */\n      add\n        /* \"#utility.yul\":12130:12159   */\n      swap1\n      pop\n        /* \"#utility.yul\":11996:12165   */\n      swap3\n      swap2\n      pop\n      pop\n      jump\t// out\n        /* \"#utility.yul\":12171:12548   */\n    tag_215:\n        /* \"#utility.yul\":12259:12262   */\n      0x00\n        /* \"#utility.yul\":12287:12326   */\n      tag_374\n        /* \"#utility.yul\":12320:12325   */\n      dup3\n        /* \"#utility.yul\":12287:12326   */\n      tag_197\n      jump\t// in\n    tag_374:\n        /* \"#utility.yul\":12342:12413   */\n      tag_375\n        /* \"#utility.yul\":12406:12412   */\n      dup2\n        /* \"#utility.yul\":12401:12404   */\n      dup6\n        /* \"#utility.yul\":12342:12413   */\n      tag_214\n      jump\t// in\n    tag_375:\n        /* \"#utility.yul\":12335:12413   */\n      swap4\n      pop\n        /* \"#utility.yul\":12422:12487   */\n      tag_376\n        /* \"#utility.yul\":12480:12486   */\n      dup2\n        /* \"#utility.yul\":12475:12478   */\n      dup6\n        /* \"#utility.yul\":12468:12472   */\n      0x20\n        /* \"#utility.yul\":12461:12466   */\n      dup7\n        /* \"#utility.yul\":12457:12473   */\n      add\n        /* \"#utility.yul\":12422:12487   */\n      tag_199\n      jump\t// in\n    tag_376:\n        /* \"#utility.yul\":12512:12541   */\n      tag_377\n        /* \"#utility.yul\":12534:12540   */\n      dup2\n        /* \"#utility.yul\":12512:12541   */\n      tag_178\n      jump\t// in\n    tag_377:\n        /* \"#utility.yul\":12507:12510   */\n      dup5\n        /* \"#utility.yul\":12503:12542   */\n      add\n        /* \"#utility.yul\":12496:12542   */\n      swap2\n      pop\n        /* \"#utility.yul\":12263:12548   */\n      pop\n        /* \"#utility.yul\":12171:12548   */\n      swap3\n      swap2\n      pop\n      pop\n      jump\t// out\n        /* \"#utility.yul\":12554:12695   */\n    tag_216:\n        /* \"#utility.yul\":12646:12688   */\n      tag_379\n        /* \"#utility.yul\":12682:12687   */\n      dup2\n        /* \"#utility.yul\":12646:12688   */\n      tag_210\n      jump\t// in\n    tag_379:\n        /* \"#utility.yul\":12641:12644   */\n      dup3\n        /* \"#utility.yul\":12634:12689   */\n      mstore\n        /* \"#utility.yul\":12554:12695   */\n      pop\n      pop\n      jump\t// out\n        /* \"#utility.yul\":12701:13244   */\n    tag_43:\n        /* \"#utility.yul\":12875:12879   */\n      0x00\n        /* \"#utility.yul\":12913:12915   */\n      0x60\n        /* \"#utility.yul\":12902:12911   */\n      dup3\n        /* \"#utility.yul\":12898:12916   */\n      add\n        /* \"#utility.yul\":12890:12916   */\n      swap1\n      pop\n        /* \"#utility.yul\":12926:12997   */\n      tag_381\n        /* \"#utility.yul\":12994:12995   */\n      0x00\n        /* \"#utility.yul\":12983:12992   */\n      dup4\n        /* \"#utility.yul\":12979:12996   */\n      add\n        /* \"#utility.yul\":12970:12976   */\n      dup7\n        /* \"#utility.yul\":12926:12997   */\n      tag_213\n      jump\t// in\n    tag_381:\n        /* \"#utility.yul\":13044:13053   */\n      dup2\n        /* \"#utility.yul\":13038:13042   */\n      dup2\n        /* \"#utility.yul\":13034:13054   */\n      sub\n        /* \"#utility.yul\":13029:13031   */\n      0x20\n        /* \"#utility.yul\":13018:13027   */\n      dup4\n        /* \"#utility.yul\":13014:13032   */\n      add\n        /* \"#utility.yul\":13007:13055   */\n      mstore\n        /* \"#utility.yul\":13072:13150   */\n      tag_382\n        /* \"#utility.yul\":13145:13149   */\n      dup2\n        /* \"#utility.yul\":13136:13142   */\n      dup6\n        /* \"#utility.yul\":13072:13150   */\n      tag_215\n      jump\t// in\n    tag_382:\n        /* \"#utility.yul\":13064:13150   */\n      swap1\n      pop\n        /* \"#utility.yul\":13160:13237   */\n      tag_383\n        /* \"#utility.yul\":13233:13235   */\n      0x40\n        /* \"#utility.yul\":13222:13231   */\n      dup4\n        /* \"#utility.yul\":13218:13236   */\n      add\n        /* \"#utility.yul\":13209:13215   */\n      dup5\n        /* \"#utility.yul\":13160:13237   */\n      tag_216\n      jump\t// in\n    tag_383:\n        /* \"#utility.yul\":12701:13244   */\n      swap5\n      swap4\n      pop\n      pop\n      pop\n      pop\n      jump\t// out\n        /* \"#utility.yul\":13250:13409   */\n    tag_217:\n        /* \"#utility.yul\":13390:13401   */\n      0x5572756e20796f6b2e0000000000000000000000000000000000000000000000\n        /* \"#utility.yul\":13386:13387   */\n      0x00\n        /* \"#utility.yul\":13378:13384   */\n      dup3\n        /* \"#utility.yul\":13374:13388   */\n      add\n        /* \"#utility.yul\":13367:13402   */\n      mstore\n        /* \"#utility.yul\":13250:13409   */\n      pop\n      jump\t// out\n        /* \"#utility.yul\":13415:13780   */\n    tag_218:\n        /* \"#utility.yul\":13557:13560   */\n      0x00\n        /* \"#utility.yul\":13578:13644   */\n      tag_386\n        /* \"#utility.yul\":13642:13643   */\n      0x09\n        /* \"#utility.yul\":13637:13640   */\n      dup4\n        /* \"#utility.yul\":13578:13644   */\n      tag_214\n      jump\t// in\n    tag_386:\n        /* \"#utility.yul\":13571:13644   */\n      swap2\n      pop\n        /* \"#utility.yul\":13653:13746   */\n      tag_387\n        /* \"#utility.yul\":13742:13745   */\n      dup3\n        /* \"#utility.yul\":13653:13746   */\n      tag_217\n      jump\t// in\n    tag_387:\n        /* \"#utility.yul\":13771:13773   */\n      0x20\n        /* \"#utility.yul\":13766:13769   */\n      dup3\n        /* \"#utility.yul\":13762:13774   */\n      add\n        /* \"#utility.yul\":13755:13774   */\n      swap1\n      pop\n        /* \"#utility.yul\":13415:13780   */\n      swap2\n      swap1\n      pop\n      jump\t// out\n        /* \"#utility.yul\":13786:14205   */\n    tag_51:\n        /* \"#utility.yul\":13952:13956   */\n      0x00\n        /* \"#utility.yul\":13990:13992   */\n      0x20\n        /* \"#utility.yul\":13979:13988   */\n      dup3\n        /* \"#utility.yul\":13975:13993   */\n      add\n        /* \"#utility.yul\":13967:13993   */\n      swap1\n      pop\n        /* \"#utility.yul\":14039:14048   */\n      dup2\n        /* \"#utility.yul\":14033:14037   */\n      dup2\n        /* \"#utility.yul\":14029:14049   */\n      sub\n        /* \"#utility.yul\":14025:14026   */\n      0x00\n        /* \"#utility.yul\":14014:14023   */\n      dup4\n        /* \"#utility.yul\":14010:14027   */\n      add\n        /* \"#utility.yul\":14003:14050   */\n      mstore\n        /* \"#utility.yul\":14067:14198   */\n      tag_389\n        /* \"#utility.yul\":14193:14197   */\n      dup2\n        /* \"#utility.yul\":14067:14198   */\n      tag_218\n      jump\t// in\n    tag_389:\n        /* \"#utility.yul\":14059:14198   */\n      swap1\n      pop\n        /* \"#utility.yul\":13786:14205   */\n      swap2\n      swap1\n      pop\n      jump\t// out\n        /* \"#utility.yul\":14211:14391   */\n    tag_219:\n        /* \"#utility.yul\":14259:14336   */\n      0x4e487b7100000000000000000000000000000000000000000000000000000000\n        /* \"#utility.yul\":14256:14257   */\n      0x00\n        /* \"#utility.yul\":14249:14337   */\n      mstore\n        /* \"#utility.yul\":14356:14360   */\n      0x22\n        /* \"#utility.yul\":14353:14354   */\n      0x04\n        /* \"#utility.yul\":14346:14361   */\n      mstore\n        /* \"#utility.yul\":14380:14384   */\n      0x24\n        /* \"#utility.yul\":14377:14378   */\n      0x00\n        /* \"#utility.yul\":14370:14385   */\n      revert\n        /* \"#utility.yul\":14397:14717   */\n    tag_125:\n        /* \"#utility.yul\":14441:14447   */\n      0x00\n        /* \"#utility.yul\":14478:14479   */\n      0x02\n        /* \"#utility.yul\":14472:14476   */\n      dup3\n        /* \"#utility.yul\":14468:14480   */\n      div\n        /* \"#utility.yul\":14458:14480   */\n      swap1\n      pop\n        /* \"#utility.yul\":14525:14526   */\n      0x01\n        /* \"#utility.yul\":14519:14523   */\n      dup3\n        /* \"#utility.yul\":14515:14527   */\n      and\n        /* \"#utility.yul\":14546:14564   */\n      dup1\n        /* \"#utility.yul\":14536:14617   */\n      tag_392\n      jumpi\n        /* \"#utility.yul\":14602:14606   */\n      0x7f\n        /* \"#utility.yul\":14594:14600   */\n      dup3\n        /* \"#utility.yul\":14590:14607   */\n      and\n        /* \"#utility.yul\":14580:14607   */\n      swap2\n      pop\n        /* \"#utility.yul\":14536:14617   */\n    tag_392:\n        /* \"#utility.yul\":14664:14666   */\n      0x20\n        /* \"#utility.yul\":14656:14662   */\n      dup3\n        /* \"#utility.yul\":14653:14667   */\n      lt\n        /* \"#utility.yul\":14633:14651   */\n      dup2\n        /* \"#utility.yul\":14630:14668   */\n      sub\n        /* \"#utility.yul\":14627:14711   */\n      tag_393\n      jumpi\n        /* \"#utility.yul\":14683:14701   */\n      tag_394\n      tag_219\n      jump\t// in\n    tag_394:\n        /* \"#utility.yul\":14627:14711   */\n    tag_393:\n        /* \"#utility.yul\":14448:14717   */\n      pop\n        /* \"#utility.yul\":14397:14717   */\n      swap2\n      swap1\n      pop\n      jump\t// out\n        /* \"#utility.yul\":14723:14864   */\n    tag_220:\n        /* \"#utility.yul\":14772:14776   */\n      0x00\n        /* \"#utility.yul\":14795:14798   */\n      dup2\n        /* \"#utility.yul\":14787:14798   */\n      swap1\n      pop\n        /* \"#utility.yul\":14818:14821   */\n      dup2\n        /* \"#utility.yul\":14815:14816   */\n      0x00\n        /* \"#utility.yul\":14808:14822   */\n      mstore\n        /* \"#utility.yul\":14852:14856   */\n      0x20\n        /* \"#utility.yul\":14849:14850   */\n      0x00\n        /* \"#utility.yul\":14839:14857   */\n      keccak256\n        /* \"#utility.yul\":14831:14857   */\n      swap1\n      pop\n        /* \"#utility.yul\":14723:14864   */\n      swap2\n      swap1\n      pop\n      jump\t// out\n        /* \"#utility.yul\":14870:14963   */\n    tag_221:\n        /* \"#utility.yul\":14907:14913   */\n      0x00\n        /* \"#utility.yul\":14954:14956   */\n      0x20\n        /* \"#utility.yul\":14949:14951   */\n      0x1f\n        /* \"#utility.yul\":14942:14947   */\n      dup4\n        /* \"#utility.yul\":14938:14952   */\n      add\n        /* \"#utility.yul\":14934:14957   */\n      div\n        /* \"#utility.yul\":14924:14957   */\n      swap1\n      pop\n        /* \"#utility.yul\":14870:14963   */\n      swap2\n      swap1\n      pop\n      jump\t// out\n        /* \"#utility.yul\":14969:15076   */\n    tag_222:\n        /* \"#utility.yul\":15013:15021   */\n      0x00\n        /* \"#utility.yul\":15063:15068   */\n      dup3\n        /* \"#utility.yul\":15057:15061   */\n      dup3\n        /* \"#utility.yul\":15053:15069   */\n      shl\n        /* \"#utility.yul\":15032:15069   */\n      swap1\n      pop\n        /* \"#utility.yul\":14969:15076   */\n      swap3\n      swap2\n      pop\n      pop\n      jump\t// out\n        /* \"#utility.yul\":15082:15475   */\n    tag_223:\n        /* \"#utility.yul\":15151:15157   */\n      0x00\n        /* \"#utility.yul\":15201:15202   */\n      0x08\n        /* \"#utility.yul\":15189:15199   */\n      dup4\n        /* \"#utility.yul\":15185:15203   */\n      mul\n        /* \"#utility.yul\":15224:15321   */\n      tag_399\n        /* \"#utility.yul\":15254:15320   */\n      0xffffffffffffffffffffffffffffffffffffffffffffffffffffffffffffffff\n        /* \"#utility.yul\":15243:15252   */\n      dup3\n        /* \"#utility.yul\":15224:15321   */\n      tag_222\n      jump\t// in\n    tag_399:\n        /* \"#utility.yul\":15342:15381   */\n      tag_400\n        /* \"#utility.yul\":15372:15380   */\n      dup7\n        /* \"#utility.yul\":15361:15370   */\n      dup4\n        /* \"#utility.yul\":15342:15381   */\n      tag_222\n      jump\t// in\n    tag_400:\n        /* \"#utility.yul\":15330:15381   */\n      swap6\n      pop\n        /* \"#utility.yul\":15414:15418   */\n      dup1\n        /* \"#utility.yul\":15410:15419   */\n      not\n        /* \"#utility.yul\":15403:15408   */\n      dup5\n        /* \"#utility.yul\":15399:15420   */\n      and\n        /* \"#utility.yul\":15390:15420   */\n      swap4\n      pop\n        /* \"#utility.yul\":15463:15467   */\n      dup1\n        /* \"#utility.yul\":15453:15461   */\n      dup7\n        /* \"#utility.yul\":15449:15468   */\n      and\n        /* \"#utility.yul\":15442:15447   */\n      dup5\n        /* \"#utility.yul\":15439:15469   */\n      or\n        /* \"#utility.yul\":15429:15469   */\n      swap3\n      pop\n        /* \"#utility.yul\":15158:15475   */\n      pop\n      pop\n        /* \"#utility.yul\":15082:15475   */\n      swap4\n      swap3\n      pop\n      pop\n      pop\n      jump\t// out\n        /* \"#utility.yul\":15481:15541   */\n    tag_224:\n        /* \"#utility.yul\":15509:15512   */\n      0x00\n        /* \"#utility.yul\":15530:15535   */\n      dup2\n        /* \"#utility.yul\":15523:15535   */\n      swap1\n      pop\n        /* \"#utility.yul\":15481:15541   */\n      swap2\n      swap1\n      pop\n      jump\t// out\n        /* \"#utility.yul\":15547:15689   */\n    tag_225:\n        /* \"#utility.yul\":15597:15606   */\n      0x00\n        /* \"#utility.yul\":15630:15683   */\n      tag_403\n        /* \"#utility.yul\":15648:15682   */\n      tag_404\n        /* \"#utility.yul\":15657:15681   */\n      tag_405\n        /* \"#utility.yul\":15675:15680   */\n      dup5\n        /* \"#utility.yul\":15657:15681   */\n      tag_188\n      jump\t// in\n    tag_405:\n        /* \"#utility.yul\":15648:15682   */\n      tag_224\n      jump\t// in\n    tag_404:\n        /* \"#utility.yul\":15630:15683   */\n      tag_188\n      jump\t// in\n    tag_403:\n        /* \"#utility.yul\":15617:15683   */\n      swap1\n      pop\n        /* \"#utility.yul\":15547:15689   */\n      swap2\n      swap1\n      pop\n      jump\t// out\n        /* \"#utility.yul\":15695:15770   */\n    tag_226:\n        /* \"#utility.yul\":15738:15741   */\n      0x00\n        /* \"#utility.yul\":15759:15764   */\n      dup2\n        /* \"#utility.yul\":15752:15764   */\n      swap1\n      pop\n        /* \"#utility.yul\":15695:15770   */\n      swap2\n      swap1\n      pop\n      jump\t// out\n        /* \"#utility.yul\":15776:16045   */\n    tag_227:\n        /* \"#utility.yul\":15886:15925   */\n      tag_408\n        /* \"#utility.yul\":15917:15924   */\n      dup4\n        /* \"#utility.yul\":15886:15925   */\n      tag_225\n      jump\t// in\n    tag_408:\n        /* \"#utility.yul\":15947:16038   */\n      tag_409\n        /* \"#utility.yul\":15996:16037   */\n      tag_410\n        /* \"#utility.yul\":16020:16036   */\n      dup3\n        /* \"#utility.yul\":15996:16037   */\n      tag_226\n      jump\t// in\n    tag_410:\n        /* \"#utility.yul\":15988:15994   */\n      dup5\n        /* \"#utility.yul\":15981:15985   */\n      dup5\n        /* \"#utility.yul\":15975:15986   */\n      sload\n        /* \"#utility.yul\":15947:16038   */\n      tag_223\n      jump\t// in\n    tag_409:\n        /* \"#utility.yul\":15941:15945   */\n      dup3\n        /* \"#utility.yul\":15934:16039   */\n      sstore\n        /* \"#utility.yul\":15852:16045   */\n      pop\n        /* \"#utility.yul\":15776:16045   */\n      pop\n      pop\n      pop\n      jump\t// out\n        /* \"#utility.yul\":16051:16124   */\n    tag_228:\n        /* \"#utility.yul\":16096:16099   */\n      0x00\n        /* \"#utility.yul\":16117:16118   */\n      0x00\n        /* \"#utility.yul\":16110:16118   */\n      swap1\n      pop\n        /* \"#utility.yul\":16051:16124   */\n      swap1\n      jump\t// out\n        /* \"#utility.yul\":16130:16319   */\n    tag_229:\n        /* \"#utility.yul\":16207:16239   */\n      tag_413\n      tag_228\n      jump\t// in\n    tag_413:\n        /* \"#utility.yul\":16248:16313   */\n      tag_414\n        /* \"#utility.yul\":16306:16312   */\n      dup2\n        /* \"#utility.yul\":16298:16304   */\n      dup5\n        /* \"#utility.yul\":16292:16296   */\n      dup5\n        /* \"#utility.yul\":16248:16313   */\n      tag_227\n      jump\t// in\n    tag_414:\n        /* \"#utility.yul\":16183:16319   */\n      pop\n        /* \"#utility.yul\":16130:16319   */\n      pop\n      pop\n      jump\t// out\n        /* \"#utility.yul\":16325:16511   */\n    tag_230:\n        /* \"#utility.yul\":16385:16505   */\n    tag_416:\n        /* \"#utility.yul\":16402:16405   */\n      dup2\n        /* \"#utility.yul\":16395:16400   */\n      dup2\n        /* \"#utility.yul\":16392:16406   */\n      lt\n        /* \"#utility.yul\":16385:16505   */\n      iszero\n      tag_418\n      jumpi\n        /* \"#utility.yul\":16456:16495   */\n      tag_419\n        /* \"#utility.yul\":16493:16494   */\n      0x00\n        /* \"#utility.yul\":16486:16491   */\n      dup3\n        /* \"#utility.yul\":16456:16495   */\n      tag_229\n      jump\t// in\n    tag_419:\n        /* \"#utility.yul\":16429:16430   */\n      0x01\n        /* \"#utility.yul\":16422:16427   */\n      dup2\n        /* \"#utility.yul\":16418:16431   */\n      add\n        /* \"#utility.yul\":16409:16431   */\n      swap1\n      pop\n        /* \"#utility.yul\":16385:16505   */\n      jump(tag_416)\n    tag_418:\n        /* \"#utility.yul\":16325:16511   */\n      pop\n      pop\n      jump\t// out\n        /* \"#utility.yul\":16517:17060   */\n    tag_231:\n        /* \"#utility.yul\":16618:16620   */\n      0x1f\n        /* \"#utility.yul\":16613:16616   */\n      dup3\n        /* \"#utility.yul\":16610:16621   */\n      gt\n        /* \"#utility.yul\":16607:17053   */\n      iszero\n      tag_421\n      jumpi\n        /* \"#utility.yul\":16652:16690   */\n      tag_422\n        /* \"#utility.yul\":16684:16689   */\n      dup2\n        /* \"#utility.yul\":16652:16690   */\n      tag_220\n      jump\t// in\n    tag_422:\n        /* \"#utility.yul\":16736:16765   */\n      tag_423\n        /* \"#utility.yul\":16754:16764   */\n      dup5\n        /* \"#utility.yul\":16736:16765   */\n      tag_221\n      jump\t// in\n    tag_423:\n        /* \"#utility.yul\":16726:16734   */\n      dup2\n        /* \"#utility.yul\":16722:16766   */\n      add\n        /* \"#utility.yul\":16919:16921   */\n      0x20\n        /* \"#utility.yul\":16907:16917   */\n      dup6\n        /* \"#utility.yul\":16904:16922   */\n      lt\n        /* \"#utility.yul\":16901:16950   */\n      iszero\n      tag_424\n      jumpi\n        /* \"#utility.yul\":16940:16948   */\n      dup2\n        /* \"#utility.yul\":16925:16948   */\n      swap1\n      pop\n        /* \"#utility.yul\":16901:16950   */\n    tag_424:\n        /* \"#utility.yul\":16963:17043   */\n      tag_425\n        /* \"#utility.yul\":17019:17041   */\n      tag_426\n        /* \"#utility.yul\":17037:17040   */\n      dup6\n        /* \"#utility.yul\":17019:17041   */\n      tag_221\n      jump\t// in\n    tag_426:\n        /* \"#utility.yul\":17009:17017   */\n      dup4\n        /* \"#utility.yul\":17005:17042   */\n      add\n        /* \"#utility.yul\":16992:17003   */\n      dup3\n        /* \"#utility.yul\":16963:17043   */\n      tag_230\n      jump\t// in\n    tag_425:\n        /* \"#utility.yul\":16622:17053   */\n      pop\n      pop\n        /* \"#utility.yul\":16607:17053   */\n    tag_421:\n        /* \"#utility.yul\":16517:17060   */\n      pop\n      pop\n      pop\n      jump\t// out\n        /* \"#utility.yul\":17066:17183   */\n    tag_232:\n        /* \"#utility.yul\":17120:17128   */\n      0x00\n        /* \"#utility.yul\":17170:17175   */\n      dup3\n        /* \"#utility.yul\":17164:17168   */\n      dup3\n        /* \"#utility.yul\":17160:17176   */\n      shr\n        /* \"#utility.yul\":17139:17176   */\n      swap1\n      pop\n        /* \"#utility.yul\":17066:17183   */\n      swap3\n      swap2\n      pop\n      pop\n      jump\t// out\n        /* \"#utility.yul\":17189:17358   */\n    tag_233:\n        /* \"#utility.yul\":17233:17239   */\n      0x00\n        /* \"#utility.yul\":17266:17317   */\n      tag_429\n        /* \"#utility.yul\":17314:17315   */\n      0x00\n        /* \"#utility.yul\":17310:17316   */\n      not\n        /* \"#utility.yul\":17302:17307   */\n      dup5\n        /* \"#utility.yul\":17299:17300   */\n      0x08\n        /* \"#utility.yul\":17295:17308   */\n      mul\n        /* \"#utility.yul\":17266:17317   */\n      tag_232\n      jump\t// in\n    tag_429:\n        /* \"#utility.yul\":17262:17318   */\n      not\n        /* \"#utility.yul\":17347:17351   */\n      dup1\n        /* \"#utility.yul\":17341:17345   */\n      dup4\n        /* \"#utility.yul\":17337:17352   */\n      and\n        /* \"#utility.yul\":17327:17352   */\n      swap2\n      pop\n        /* \"#utility.yul\":17240:17358   */\n      pop\n        /* \"#utility.yul\":17189:17358   */\n      swap3\n      swap2\n      pop\n      pop\n      jump\t// out\n        /* \"#utility.yul\":17363:17658   */\n    tag_234:\n        /* \"#utility.yul\":17439:17443   */\n      0x00\n        /* \"#utility.yul\":17585:17614   */\n      tag_431\n        /* \"#utility.yul\":17610:17613   */\n      dup4\n        /* \"#utility.yul\":17604:17608   */\n      dup4\n        /* \"#utility.yul\":17585:17614   */\n      tag_233\n      jump\t// in\n    tag_431:\n        /* \"#utility.yul\":17577:17614   */\n      swap2\n      pop\n        /* \"#utility.yul\":17647:17650   */\n      dup3\n        /* \"#utility.yul\":17644:17645   */\n      0x02\n        /* \"#utility.yul\":17640:17651   */\n      mul\n        /* \"#utility.yul\":17634:17638   */\n      dup3\n        /* \"#utility.yul\":17631:17652   */\n      or\n        /* \"#utility.yul\":17623:17652   */\n      swap1\n      pop\n        /* \"#utility.yul\":17363:17658   */\n      swap3\n      swap2\n      pop\n      pop\n      jump\t// out\n        /* \"#utility.yul\":17663:19058   */\n    tag_57:\n        /* \"#utility.yul\":17780:17817   */\n      tag_433\n        /* \"#utility.yul\":17813:17816   */\n      dup3\n        /* \"#utility.yul\":17780:17817   */\n      tag_197\n      jump\t// in\n    tag_433:\n        /* \"#utility.yul\":17882:17900   */\n      0xffffffffffffffff\n        /* \"#utility.yul\":17874:17880   */\n      dup2\n        /* \"#utility.yul\":17871:17901   */\n      gt\n        /* \"#utility.yul\":17868:17924   */\n      iszero\n      tag_434\n      jumpi\n        /* \"#utility.yul\":17904:17922   */\n      tag_435\n      tag_179\n      jump\t// in\n    tag_435:\n        /* \"#utility.yul\":17868:17924   */\n    tag_434:\n        /* \"#utility.yul\":17948:17986   */\n      tag_436\n        /* \"#utility.yul\":17980:17984   */\n      dup3\n        /* \"#utility.yul\":17974:17985   */\n      sload\n        /* \"#utility.yul\":17948:17986   */\n      tag_125\n      jump\t// in\n    tag_436:\n        /* \"#utility.yul\":18033:18100   */\n      tag_437\n        /* \"#utility.yul\":18093:18099   */\n      dup3\n        /* \"#utility.yul\":18085:18091   */\n      dup3\n        /* \"#utility.yul\":18079:18083   */\n      dup6\n        /* \"#utility.yul\":18033:18100   */\n      tag_231\n      jump\t// in\n    tag_437:\n        /* \"#utility.yul\":18127:18128   */\n      0x00\n        /* \"#utility.yul\":18151:18155   */\n      0x20\n        /* \"#utility.yul\":18138:18155   */\n      swap1\n      pop\n        /* \"#utility.yul\":18183:18185   */\n      0x1f\n        /* \"#utility.yul\":18175:18181   */\n      dup4\n        /* \"#utility.yul\":18172:18186   */\n      gt\n        /* \"#utility.yul\":18200:18201   */\n      0x01\n        /* \"#utility.yul\":18195:18813   */\n      dup2\n      eq\n      tag_439\n      jumpi\n        /* \"#utility.yul\":18857:18858   */\n      0x00\n        /* \"#utility.yul\":18874:18880   */\n      dup5\n        /* \"#utility.yul\":18871:18948   */\n      iszero\n      tag_440\n      jumpi\n        /* \"#utility.yul\":18923:18932   */\n      dup3\n        /* \"#utility.yul\":18918:18921   */\n      dup8\n        /* \"#utility.yul\":18914:18933   */\n      add\n        /* \"#utility.yul\":18908:18934   */\n      mload\n        /* \"#utility.yul\":18899:18934   */\n      swap1\n      pop\n        /* \"#utility.yul\":18871:18948   */\n    tag_440:\n        /* \"#utility.yul\":18974:19041   */\n      tag_441\n        /* \"#utility.yul\":19034:19040   */\n      dup6\n        /* \"#utility.yul\":19027:19032   */\n      dup3\n        /* \"#utility.yul\":18974:19041   */\n      tag_234\n      jump\t// in\n    tag_441:\n        /* \"#utility.yul\":18968:18972   */\n      dup7\n        /* \"#utility.yul\":18961:19042   */\n      sstore\n        /* \"#utility.yul\":18830:19052   */\n      pop\n        /* \"#utility.yul\":18165:19052   */\n      jump(tag_438)\n        /* \"#utility.yul\":18195:18813   */\n    tag_439:\n        /* \"#utility.yul\":18247:18251   */\n      0x1f\n        /* \"#utility.yul\":18243:18252   */\n      not\n        /* \"#utility.yul\":18235:18241   */\n      dup5\n        /* \"#utility.yul\":18231:18253   */\n      and\n        /* \"#utility.yul\":18281:18318   */\n      tag_442\n        /* \"#utility.yul\":18313:18317   */\n      dup7\n        /* \"#utility.yul\":18281:18318   */\n      tag_220\n      jump\t// in\n    tag_442:\n        /* \"#utility.yul\":18340:18341   */\n      0x00\n        /* \"#utility.yul\":18354:18562   */\n    tag_443:\n        /* \"#utility.yul\":18368:18375   */\n      dup3\n        /* \"#utility.yul\":18365:18366   */\n      dup2\n        /* \"#utility.yul\":18362:18376   */\n      lt\n        /* \"#utility.yul\":18354:18562   */\n      iszero\n      tag_445\n      jumpi\n        /* \"#utility.yul\":18447:18456   */\n      dup5\n        /* \"#utility.yul\":18442:18445   */\n      dup10\n        /* \"#utility.yul\":18438:18457   */\n      add\n        /* \"#utility.yul\":18432:18458   */\n      mload\n        /* \"#utility.yul\":18424:18430   */\n      dup3\n        /* \"#utility.yul\":18417:18459   */\n      sstore\n        /* \"#utility.yul\":18498:18499   */\n      0x01\n        /* \"#utility.yul\":18490:18496   */\n      dup3\n        /* \"#utility.yul\":18486:18500   */\n      add\n        /* \"#utility.yul\":18476:18500   */\n      swap2\n      pop\n        /* \"#utility.yul\":18545:18547   */\n      0x20\n        /* \"#utility.yul\":18534:18543   */\n      dup6\n        /* \"#utility.yul\":18530:18548   */\n      add\n        /* \"#utility.yul\":18517:18548   */\n      swap5\n      pop\n        /* \"#utility.yul\":18391:18395   */\n      0x20\n        /* \"#utility.yul\":18388:18389   */\n      dup2\n        /* \"#utility.yul\":18384:18396   */\n      add\n        /* \"#utility.yul\":18379:18396   */\n      swap1\n      pop\n        /* \"#utility.yul\":18354:18562   */\n      jump(tag_443)\n    tag_445:\n        /* \"#utility.yul\":18590:18596   */\n      dup7\n        /* \"#utility.yul\":18581:18588   */\n      dup4\n        /* \"#utility.yul\":18578:18597   */\n      lt\n        /* \"#utility.yul\":18575:18754   */\n      iszero\n      tag_446\n      jumpi\n        /* \"#utility.yul\":18648:18657   */\n      dup5\n        /* \"#utility.yul\":18643:18646   */\n      dup10\n        /* \"#utility.yul\":18639:18658   */\n      add\n        /* \"#utility.yul\":18633:18659   */\n      mload\n        /* \"#utility.yul\":18691:18739   */\n      tag_447\n        /* \"#utility.yul\":18733:18737   */\n      0x1f\n        /* \"#utility.yul\":18725:18731   */\n      dup10\n        /* \"#utility.yul\":18721:18738   */\n      and\n        /* \"#utility.yul\":18710:18719   */\n      dup3\n        /* \"#utility.yul\":18691:18739   */\n      tag_233\n      jump\t// in\n    tag_447:\n        /* \"#utility.yul\":18683:18689   */\n      dup4\n        /* \"#utility.yul\":18676:18740   */\n      sstore\n        /* \"#utility.yul\":18598:18754   */\n      pop\n        /* \"#utility.yul\":18575:18754   */\n    tag_446:\n        /* \"#utility.yul\":18800:18801   */\n      0x01\n        /* \"#utility.yul\":18796:18797   */\n      0x02\n        /* \"#utility.yul\":18788:18794   */\n      dup9\n        /* \"#utility.yul\":18784:18798   */\n      mul\n        /* \"#utility.yul\":18780:18802   */\n      add\n        /* \"#utility.yul\":18774:18778   */\n      dup9\n        /* \"#utility.yul\":18767:18803   */\n      sstore\n        /* \"#utility.yul\":18202:18813   */\n      pop\n      pop\n      pop\n        /* \"#utility.yul\":18165:19052   */\n    tag_438:\n      pop\n        /* \"#utility.yul\":17755:19058   */\n      pop\n      pop\n      pop\n        /* \"#utility.yul\":17663:19058   */\n      pop\n      pop\n      jump\t// out\n        /* \"#utility.yul\":19064:19244   */\n    tag_235:\n        /* \"#utility.yul\":19112:19189   */\n      0x4e487b7100000000000000000000000000000000000000000000000000000000\n        /* \"#utility.yul\":19109:19110   */\n      0x00\n        /* \"#utility.yul\":19102:19190   */\n      mstore\n        /* \"#utility.yul\":19209:19213   */\n      0x11\n        /* \"#utility.yul\":19206:19207   */\n      0x04\n        /* \"#utility.yul\":19199:19214   */\n      mstore\n        /* \"#utility.yul\":19233:19237   */\n      0x24\n        /* \"#utility.yul\":19230:19231   */\n      0x00\n        /* \"#utility.yul\":19223:19238   */\n      revert\n        /* \"#utility.yul\":19250:19444   */\n    tag_63:\n        /* \"#utility.yul\":19290:19294   */\n      0x00\n        /* \"#utility.yul\":19310:19330   */\n      tag_450\n        /* \"#utility.yul\":19328:19329   */\n      dup3\n        /* \"#utility.yul\":19310:19330   */\n      tag_188\n      jump\t// in\n    tag_450:\n        /* \"#utility.yul\":19305:19330   */\n      swap2\n      pop\n        /* \"#utility.yul\":19344:19364   */\n      tag_451\n        /* \"#utility.yul\":19362:19363   */\n      dup4\n        /* \"#utility.yul\":19344:19364   */\n      tag_188\n      jump\t// in\n    tag_451:\n        /* \"#utility.yul\":19339:19364   */\n      swap3\n      pop\n        /* \"#utility.yul\":19388:19389   */\n      dup3\n        /* \"#utility.yul\":19385:19386   */\n      dup3\n        /* \"#utility.yul\":19381:19390   */\n      sub\n        /* \"#utility.yul\":19373:19390   */\n      swap1\n      pop\n        /* \"#utility.yul\":19412:19413   */\n      dup2\n        /* \"#utility.yul\":19406:19410   */\n      dup2\n        /* \"#utility.yul\":19403:19414   */\n      gt\n        /* \"#utility.yul\":19400:19437   */\n      iszero\n      tag_452\n      jumpi\n        /* \"#utility.yul\":19417:19435   */\n      tag_453\n      tag_235\n      jump\t// in\n    tag_453:\n        /* \"#utility.yul\":19400:19437   */\n    tag_452:\n        /* \"#utility.yul\":19250:19444   */\n      swap3\n      swap2\n      pop\n      pop\n      jump\t// out\n        /* \"#utility.yul\":19450:19613   */\n    tag_236:\n        /* \"#utility.yul\":19590:19605   */\n      0x5965746b696e697a20796f6b2e00000000000000000000000000000000000000\n        /* \"#utility.yul\":19586:19587   */\n      0x00\n        /* \"#utility.yul\":19578:19584   */\n      dup3\n        /* \"#utility.yul\":19574:19588   */\n      add\n        /* \"#utility.yul\":19567:19606   */\n      mstore\n        /* \"#utility.yul\":19450:19613   */\n      pop\n      jump\t// out\n        /* \"#utility.yul\":19619:19985   */\n    tag_237:\n        /* \"#utility.yul\":19761:19764   */\n      0x00\n        /* \"#utility.yul\":19782:19849   */\n      tag_456\n        /* \"#utility.yul\":19846:19848   */\n      0x0d\n        /* \"#utility.yul\":19841:19844   */\n      dup4\n        /* \"#utility.yul\":19782:19849   */\n      tag_214\n      jump\t// in\n    tag_456:\n        /* \"#utility.yul\":19775:19849   */\n      swap2\n      pop\n        /* \"#utility.yul\":19858:19951   */\n      tag_457\n        /* \"#utility.yul\":19947:19950   */\n      dup3\n        /* \"#utility.yul\":19858:19951   */\n      tag_236\n      jump\t// in\n    tag_457:\n        /* \"#utility.yul\":19976:19978   */\n      0x20\n        /* \"#utility.yul\":19971:19974   */\n      dup3\n        /* \"#utility.yul\":19967:19979   */\n      add\n        /* \"#utility.yul\":19960:19979   */\n      swap1\n      pop\n        /* \"#utility.yul\":19619:19985   */\n      swap2\n      swap1\n      pop\n      jump\t// out\n        /* \"#utility.yul\":19991:20410   */\n    tag_78:\n        /* \"#utility.yul\":20157:20161   */\n      0x00\n        /* \"#utility.yul\":20195:20197   */\n      0x20\n        /* \"#utility.yul\":20184:20193   */\n      dup3\n        /* \"#utility.yul\":20180:20198   */\n      add\n        /* \"#utility.yul\":20172:20198   */\n      swap1\n      pop\n        /* \"#utility.yul\":20244:20253   */\n      dup2\n        /* \"#utility.yul\":20238:20242   */\n      dup2\n        /* \"#utility.yul\":20234:20254   */\n      sub\n        /* \"#utility.yul\":20230:20231   */\n      0x00\n        /* \"#utility.yul\":20219:20228   */\n      dup4\n        /* \"#utility.yul\":20215:20232   */\n      add\n        /* \"#utility.yul\":20208:20255   */\n      mstore\n        /* \"#utility.yul\":20272:20403   */\n      tag_459\n        /* \"#utility.yul\":20398:20402   */\n      dup2\n        /* \"#utility.yul\":20272:20403   */\n      tag_237\n      jump\t// in\n    tag_459:\n        /* \"#utility.yul\":20264:20403   */\n      swap1\n      pop\n        /* \"#utility.yul\":19991:20410   */\n      swap2\n      swap1\n      pop\n      jump\t// out\n        /* \"#utility.yul\":20416:20598   */\n    tag_238:\n        /* \"#utility.yul\":20556:20590   */\n      0x47656365726c6920626972207369706172697320494427736920646567696c2e\n        /* \"#utility.yul\":20552:20553   */\n      0x00\n        /* \"#utility.yul\":20544:20550   */\n      dup3\n        /* \"#utility.yul\":20540:20554   */\n      add\n        /* \"#utility.yul\":20533:20591   */\n      mstore\n        /* \"#utility.yul\":20416:20598   */\n      pop\n      jump\t// out\n        /* \"#utility.yul\":20604:20970   */\n    tag_239:\n        /* \"#utility.yul\":20746:20749   */\n      0x00\n        /* \"#utility.yul\":20767:20834   */\n      tag_462\n        /* \"#utility.yul\":20831:20833   */\n      0x20\n        /* \"#utility.yul\":20826:20829   */\n      dup4\n        /* \"#utility.yul\":20767:20834   */\n      tag_214\n      jump\t// in\n    tag_462:\n        /* \"#utility.yul\":20760:20834   */\n      swap2\n      pop\n        /* \"#utility.yul\":20843:20936   */\n      tag_463\n        /* \"#utility.yul\":20932:20935   */\n      dup3\n        /* \"#utility.yul\":20843:20936   */\n      tag_238\n      jump\t// in\n    tag_463:\n        /* \"#utility.yul\":20961:20963   */\n      0x20\n        /* \"#utility.yul\":20956:20959   */\n      dup3\n        /* \"#utility.yul\":20952:20964   */\n      add\n        /* \"#utility.yul\":20945:20964   */\n      swap1\n      pop\n        /* \"#utility.yul\":20604:20970   */\n      swap2\n      swap1\n      pop\n      jump\t// out\n        /* \"#utility.yul\":20976:21395   */\n    tag_81:\n        /* \"#utility.yul\":21142:21146   */\n      0x00\n        /* \"#utility.yul\":21180:21182   */\n      0x20\n        /* \"#utility.yul\":21169:21178   */\n      dup3\n        /* \"#utility.yul\":21165:21183   */\n      add\n        /* \"#utility.yul\":21157:21183   */\n      swap1\n      pop\n        /* \"#utility.yul\":21229:21238   */\n      dup2\n        /* \"#utility.yul\":21223:21227   */\n      dup2\n        /* \"#utility.yul\":21219:21239   */\n      sub\n        /* \"#utility.yul\":21215:21216   */\n      0x00\n        /* \"#utility.yul\":21204:21213   */\n      dup4\n        /* \"#utility.yul\":21200:21217   */\n      add\n        /* \"#utility.yul\":21193:21240   */\n      mstore\n        /* \"#utility.yul\":21257:21388   */\n      tag_465\n        /* \"#utility.yul\":21383:21387   */\n      dup2\n        /* \"#utility.yul\":21257:21388   */\n      tag_239\n      jump\t// in\n    tag_465:\n        /* \"#utility.yul\":21249:21388   */\n      swap1\n      pop\n        /* \"#utility.yul\":20976:21395   */\n      swap2\n      swap1\n      pop\n      jump\t// out\n        /* \"#utility.yul\":21401:21581   */\n    tag_84:\n        /* \"#utility.yul\":21449:21526   */\n      0x4e487b7100000000000000000000000000000000000000000000000000000000\n        /* \"#utility.yul\":21446:21447   */\n      0x00\n        /* \"#utility.yul\":21439:21527   */\n      mstore\n        /* \"#utility.yul\":21546:21550   */\n      0x32\n        /* \"#utility.yul\":21543:21544   */\n      0x04\n        /* \"#utility.yul\":21536:21551   */\n      mstore\n        /* \"#utility.yul\":21570:21574   */\n      0x24\n        /* \"#utility.yul\":21567:21568   */\n      0x00\n        /* \"#utility.yul\":21560:21575   */\n      revert\n        /* \"#utility.yul\":21587:21767   */\n    tag_240:\n        /* \"#utility.yul\":21727:21759   */\n      0x53697061726973207a6174656e206b6172676f796120766572696c64692e0000\n        /* \"#utility.yul\":21723:21724   */\n      0x00\n        /* \"#utility.yul\":21715:21721   */\n      dup3\n        /* \"#utility.yul\":21711:21725   */\n      add\n        /* \"#utility.yul\":21704:21760   */\n      mstore\n        /* \"#utility.yul\":21587:21767   */\n      pop\n      jump\t// out\n        /* \"#utility.yul\":21773:22139   */\n    tag_241:\n        /* \"#utility.yul\":21915:21918   */\n      0x00\n        /* \"#utility.yul\":21936:22003   */\n      tag_469\n        /* \"#utility.yul\":22000:22002   */\n      0x1e\n        /* \"#utility.yul\":21995:21998   */\n      dup4\n        /* \"#utility.yul\":21936:22003   */\n      tag_214\n      jump\t// in\n    tag_469:\n        /* \"#utility.yul\":21929:22003   */\n      swap2\n      pop\n        /* \"#utility.yul\":22012:22105   */\n      tag_470\n        /* \"#utility.yul\":22101:22104   */\n      dup3\n        /* \"#utility.yul\":22012:22105   */\n      tag_240\n      jump\t// in\n    tag_470:\n        /* \"#utility.yul\":22130:22132   */\n      0x20\n        /* \"#utility.yul\":22125:22128   */\n      dup3\n        /* \"#utility.yul\":22121:22133   */\n      add\n        /* \"#utility.yul\":22114:22133   */\n      swap1\n      pop\n        /* \"#utility.yul\":21773:22139   */\n      swap2\n      swap1\n      pop\n      jump\t// out\n        /* \"#utility.yul\":22145:22564   */\n    tag_92:\n        /* \"#utility.yul\":22311:22315   */\n      0x00\n        /* \"#utility.yul\":22349:22351   */\n      0x20\n        /* \"#utility.yul\":22338:22347   */\n      dup3\n        /* \"#utility.yul\":22334:22352   */\n      add\n        /* \"#utility.yul\":22326:22352   */\n      swap1\n      pop\n        /* \"#utility.yul\":22398:22407   */\n      dup2\n        /* \"#utility.yul\":22392:22396   */\n      dup2\n        /* \"#utility.yul\":22388:22408   */\n      sub\n        /* \"#utility.yul\":22384:22385   */\n      0x00\n        /* \"#utility.yul\":22373:22382   */\n      dup4\n        /* \"#utility.yul\":22369:22386   */\n      add\n        /* \"#utility.yul\":22362:22409   */\n      mstore\n        /* \"#utility.yul\":22426:22557   */\n      tag_472\n        /* \"#utility.yul\":22552:22556   */\n      dup2\n        /* \"#utility.yul\":22426:22557   */\n      tag_241\n      jump\t// in\n    tag_472:\n        /* \"#utility.yul\":22418:22557   */\n      swap1\n      pop\n        /* \"#utility.yul\":22145:22564   */\n      swap2\n      swap1\n      pop\n      jump\t// out\n        /* \"#utility.yul\":22570:22748   */\n    tag_242:\n        /* \"#utility.yul\":22710:22740   */\n      0x53697061726973696e2073616869626920646567696c73696e697a2e00000000\n        /* \"#utility.yul\":22706:22707   */\n      0x00\n        /* \"#utility.yul\":22698:22704   */\n      dup3\n        /* \"#utility.yul\":22694:22708   */\n      add\n        /* \"#utility.yul\":22687:22741   */\n      mstore\n        /* \"#utility.yul\":22570:22748   */\n      pop\n      jump\t// out\n        /* \"#utility.yul\":22754:23120   */\n    tag_243:\n        /* \"#utility.yul\":22896:22899   */\n      0x00\n        /* \"#utility.yul\":22917:22984   */\n      tag_475\n        /* \"#utility.yul\":22981:22983   */\n      0x1c\n        /* \"#utility.yul\":22976:22979   */\n      dup4\n        /* \"#utility.yul\":22917:22984   */\n      tag_214\n      jump\t// in\n    tag_475:\n        /* \"#utility.yul\":22910:22984   */\n      swap2\n      pop\n        /* \"#utility.yul\":22993:23086   */\n      tag_476\n        /* \"#utility.yul\":23082:23085   */\n      dup3\n        /* \"#utility.yul\":22993:23086   */\n      tag_242\n      jump\t// in\n    tag_476:\n        /* \"#utility.yul\":23111:23113   */\n      0x20\n        /* \"#utility.yul\":23106:23109   */\n      dup3\n        /* \"#utility.yul\":23102:23114   */\n      add\n        /* \"#utility.yul\":23095:23114   */\n      swap1\n      pop\n        /* \"#utility.yul\":22754:23120   */\n      swap2\n      swap1\n      pop\n      jump\t// out\n        /* \"#utility.yul\":23126:23545   */\n    tag_144:\n        /* \"#utility.yul\":23292:23296   */\n      0x00\n        /* \"#utility.yul\":23330:23332   */\n      0x20\n        /* \"#utility.yul\":23319:23328   */\n      dup3\n        /* \"#utility.yul\":23315:23333   */\n      add\n        /* \"#utility.yul\":23307:23333   */\n      swap1\n      pop\n        /* \"#utility.yul\":23379:23388   */\n      dup2\n        /* \"#utility.yul\":23373:23377   */\n      dup2\n        /* \"#utility.yul\":23369:23389   */\n      sub\n        /* \"#utility.yul\":23365:23366   */\n      0x00\n        /* \"#utility.yul\":23354:23363   */\n      dup4\n        /* \"#utility.yul\":23350:23367   */\n      add\n        /* \"#utility.yul\":23343:23390   */\n      mstore\n        /* \"#utility.yul\":23407:23538   */\n      tag_478\n        /* \"#utility.yul\":23533:23537   */\n      dup2\n        /* \"#utility.yul\":23407:23538   */\n      tag_243\n      jump\t// in\n    tag_478:\n        /* \"#utility.yul\":23399:23538   */\n      swap1\n      pop\n        /* \"#utility.yul\":23126:23545   */\n      swap2\n      swap1\n      pop\n      jump\t// out\n\n    auxdata: 0xa264697066735822122020c68b11c0c4ba562d3d1d90ef47b52c221cd46f8a361e7c4e0013b2b90646a564736f6c634300081c0033\n}\n",
				"bytecode": {
					"linkReferences": {},
					"object": "6080604052348015600e575f5ffd5b503360015f6101000a81548173ffffffffffffffffffffffffffffffffffffffff021916908373ffffffffffffffffffffffffffffffffffffffff1602179055506119b48061005c5f395ff3fe608060405234801561000f575f5ffd5b5060043610610086575f3560e01c80638574cd14116100595780638574cd1414610136578063995593db14610154578063ba3eeaca14610170578063feff9c1e146101a257610086565b806311887dc11461008a57806345d31537146100ba5780634ace5213146100ea57806373fea75814610106575b5f5ffd5b6100a4600480360381019061009f9190610fef565b6101d2565b6040516100b19190611074565b60405180910390f35b6100d460048036038101906100cf9190610fef565b610347565b6040516100e19190611074565b60405180910390f35b61010460048036038101906100ff919061108d565b6104bc565b005b610120600480360381019061011b919061108d565b610771565b60405161012d91906112e8565b60405180910390f35b61013e610964565b60405161014b9190611317565b60405180910390f35b61016e60048036038101906101699190611330565b610989565b005b61018a6004803603810190610185919061108d565b610a98565b604051610199939291906113e1565b60405180910390f35b6101bc60048036038101906101b79190610fef565b610b7d565b6040516101c99190611074565b60405180910390f35b5f5f825111610216576040517f08c379a000000000000000000000000000000000000000000000000000000000815260040161020d90611467565b60405180910390fd5b5f60405180608001604052803373ffffffffffffffffffffffffffffffffffffffff1681526020018581526020018481526020015f600381111561025d5761025c61120e565b5b815250908060018154018082558091505060019003905f5260205f2090600402015f909190919091505f820151815f015f6101000a81548173ffffffffffffffffffffffffffffffffffffffff021916908373ffffffffffffffffffffffffffffffffffffffff16021790555060208201518160010190816102df9190611682565b5060408201518160020190805190602001906102fc929190610cf7565b506060820151816003015f6101000a81548160ff021916908360038111156103275761032661120e565b5b0217905550505060015f8054905061033f919061177e565b905092915050565b5f5f82511161038b576040517f08c379a000000000000000000000000000000000000000000000000000000000815260040161038290611467565b60405180910390fd5b5f60405180608001604052803373ffffffffffffffffffffffffffffffffffffffff1681526020018581526020018481526020015f60038111156103d2576103d161120e565b5b815250908060018154018082558091505060019003905f5260205f2090600402015f909190919091505f820151815f015f6101000a81548173ffffffffffffffffffffffffffffffffffffffff021916908373ffffffffffffffffffffffffffffffffffffffff16021790555060208201518160010190816104549190611682565b506040820151816002019080519060200190610471929190610cf7565b506060820151816003015f6101000a81548160ff0219169083600381111561049c5761049b61120e565b5b0217905550505060015f805490506104b4919061177e565b905092915050565b60015f9054906101000a900473ffffffffffffffffffffffffffffffffffffffff1673ffffffffffffffffffffffffffffffffffffffff163373ffffffffffffffffffffffffffffffffffffffff161461054b576040517f08c379a0000000000000000000000000000000000000000000000000000000008152600401610542906117fb565b60405180910390fd5b5f805490508110610591576040517f08c379a000000000000000000000000000000000000000000000000000000000815260040161058890611863565b60405180910390fd5b5f5f82815481106105a5576105a4611881565b5b905f5260205f20906004020190506003808111156105c6576105c561120e565b5b816003015f9054906101000a900460ff1660038111156105e9576105e861120e565b5b03610629576040517f08c379a0000000000000000000000000000000000000000000000000000000008152600401610620906118f8565b60405180910390fd5b5f600381111561063c5761063b61120e565b5b816003015f9054906101000a900460ff16600381111561065f5761065e61120e565b5b03610695576001816003015f6101000a81548160ff0219169083600381111561068b5761068a61120e565b5b021790555061076d565b600160038111156106a9576106a861120e565b5b816003015f9054906101000a900460ff1660038111156106cc576106cb61120e565b5b03610702576002816003015f6101000a81548160ff021916908360038111156106f8576106f761120e565b5b021790555061076c565b600260038111156107165761071561120e565b5b816003015f9054906101000a900460ff1660038111156107395761073861120e565b5b0361076b576003816003015f6101000a81548160ff021916908360038111156107655761076461120e565b5b02179055505b5b5b5050565b610779610d42565b5f8054905082106107bf576040517f08c379a00000000000000000000000000000000000000000000000000000000081526004016107b690611863565b60405180910390fd5b5f82815481106107d2576107d1611881565b5b905f5260205f2090600402016040518060800160405290815f82015f9054906101000a900473ffffffffffffffffffffffffffffffffffffffff1673ffffffffffffffffffffffffffffffffffffffff1673ffffffffffffffffffffffffffffffffffffffff16815260200160018201805461084d906114b2565b80601f0160208091040260200160405190810160405280929190818152602001828054610879906114b2565b80156108c45780601f1061089b576101008083540402835291602001916108c4565b820191905f5260205f20905b8154815290600101906020018083116108a757829003601f168201915b505050505081526020016002820180548060200260200160405190810160405280929190818152602001828054801561091a57602002820191905f5260205f20905b815481526020019060010190808311610906575b50505050508152602001600382015f9054906101000a900460ff1660038111156109475761094661120e565b5b60038111156109595761095861120e565b5b815250509050919050565b60015f9054906101000a900473ffffffffffffffffffffffffffffffffffffffff1681565b5f8054905082106109cf576040517f08c379a00000000000000000000000000000000000000000000000000000000081526004016109c690611863565b60405180910390fd5b5f5f83815481106109e3576109e2611881565b5b905f5260205f20906004020190503373ffffffffffffffffffffffffffffffffffffffff16815f015f9054906101000a900473ffffffffffffffffffffffffffffffffffffffff1673ffffffffffffffffffffffffffffffffffffffff1614610a81576040517f08c379a0000000000000000000000000000000000000000000000000000000008152600401610a7890611960565b60405180910390fd5b81816001019081610a929190611682565b50505050565b5f8181548110610aa6575f80fd5b905f5260205f2090600402015f91509050805f015f9054906101000a900473ffffffffffffffffffffffffffffffffffffffff1690806001018054610aea906114b2565b80601f0160208091040260200160405190810160405280929190818152602001828054610b16906114b2565b8015610b615780601f10610b3857610100808354040283529160200191610b61565b820191905f5260205f20905b815481529060010190602001808311610b4457829003601f168201915b505050505090806003015f9054906101000a900460ff16905083565b5f5f825111610bc1576040517f08c379a0000000000000000000000000000000000000000000000000000000008152600401610bb890611467565b60405180910390fd5b5f60405180608001604052803373ffffffffffffffffffffffffffffffffffffffff1681526020018581526020018481526020015f6003811115610c0857610c0761120e565b5b81525090505f81908060018154018082558091505060019003905f5260205f2090600402015f909190919091505f820151815f015f6101000a81548173ffffffffffffffffffffffffffffffffffffffff021916908373ffffffffffffffffffffffffffffffffffffffff1602179055506020820151816001019081610c8e9190611682565b506040820151816002019080519060200190610cab929190610cf7565b506060820151816003015f6101000a81548160ff02191690836003811115610cd657610cd561120e565b5b0217905550505060015f80549050610cee919061177e565b91505092915050565b828054828255905f5260205f20908101928215610d31579160200282015b82811115610d30578251825591602001919060010190610d15565b5b509050610d3e9190610d90565b5090565b60405180608001604052805f73ffffffffffffffffffffffffffffffffffffffff16815260200160608152602001606081526020015f6003811115610d8a57610d8961120e565b5b81525090565b5b80821115610da7575f815f905550600101610d91565b5090565b5f604051905090565b5f5ffd5b5f5ffd5b5f5ffd5b5f5ffd5b5f601f19601f8301169050919050565b7f4e487b71000000000000000000000000000000000000000000000000000000005f52604160045260245ffd5b610e0a82610dc4565b810181811067ffffffffffffffff82111715610e2957610e28610dd4565b5b80604052505050565b5f610e3b610dab565b9050610e478282610e01565b919050565b5f67ffffffffffffffff821115610e6657610e65610dd4565b5b610e6f82610dc4565b9050602081019050919050565b828183375f83830152505050565b5f610e9c610e9784610e4c565b610e32565b905082815260208101848484011115610eb857610eb7610dc0565b5b610ec3848285610e7c565b509392505050565b5f82601f830112610edf57610ede610dbc565b5b8135610eef848260208601610e8a565b91505092915050565b5f67ffffffffffffffff821115610f1257610f11610dd4565b5b602082029050602081019050919050565b5f5ffd5b5f819050919050565b610f3981610f27565b8114610f43575f5ffd5b50565b5f81359050610f5481610f30565b92915050565b5f610f6c610f6784610ef8565b610e32565b90508083825260208201905060208402830185811115610f8f57610f8e610f23565b5b835b81811015610fb85780610fa48882610f46565b845260208401935050602081019050610f91565b5050509392505050565b5f82601f830112610fd657610fd5610dbc565b5b8135610fe6848260208601610f5a565b91505092915050565b5f5f6040838503121561100557611004610db4565b5b5f83013567ffffffffffffffff81111561102257611021610db8565b5b61102e85828601610ecb565b925050602083013567ffffffffffffffff81111561104f5761104e610db8565b5b61105b85828601610fc2565b9150509250929050565b61106e81610f27565b82525050565b5f6020820190506110875f830184611065565b92915050565b5f602082840312156110a2576110a1610db4565b5b5f6110af84828501610f46565b91505092915050565b5f73ffffffffffffffffffffffffffffffffffffffff82169050919050565b5f6110e1826110b8565b9050919050565b6110f1816110d7565b82525050565b5f81519050919050565b5f82825260208201905092915050565b8281835e5f83830152505050565b5f611129826110f7565b6111338185611101565b9350611143818560208601611111565b61114c81610dc4565b840191505092915050565b5f81519050919050565b5f82825260208201905092915050565b5f819050602082019050919050565b61118981610f27565b82525050565b5f61119a8383611180565b60208301905092915050565b5f602082019050919050565b5f6111bc82611157565b6111c68185611161565b93506111d183611171565b805f5b838110156112015781516111e8888261118f565b97506111f3836111a6565b9250506001810190506111d4565b5085935050505092915050565b7f4e487b71000000000000000000000000000000000000000000000000000000005f52602160045260245ffd5b6004811061124c5761124b61120e565b5b50565b5f81905061125c8261123b565b919050565b5f61126b8261124f565b9050919050565b61127b81611261565b82525050565b5f608083015f8301516112965f8601826110e8565b50602083015184820360208601526112ae828261111f565b915050604083015184820360408601526112c882826111b2565b91505060608301516112dd6060860182611272565b508091505092915050565b5f6020820190508181035f8301526113008184611281565b905092915050565b611311816110d7565b82525050565b5f60208201905061132a5f830184611308565b92915050565b5f5f6040838503121561134657611345610db4565b5b5f61135385828601610f46565b925050602083013567ffffffffffffffff81111561137457611373610db8565b5b61138085828601610ecb565b9150509250929050565b5f82825260208201905092915050565b5f6113a4826110f7565b6113ae818561138a565b93506113be818560208601611111565b6113c781610dc4565b840191505092915050565b6113db81611261565b82525050565b5f6060820190506113f45f830186611308565b8181036020830152611406818561139a565b905061141560408301846113d2565b949350505050565b7f5572756e20796f6b2e00000000000000000000000000000000000000000000005f82015250565b5f61145160098361138a565b915061145c8261141d565b602082019050919050565b5f6020820190508181035f83015261147e81611445565b9050919050565b7f4e487b71000000000000000000000000000000000000000000000000000000005f52602260045260245ffd5b5f60028204905060018216806114c957607f821691505b6020821081036114dc576114db611485565b5b50919050565b5f819050815f5260205f209050919050565b5f6020601f8301049050919050565b5f82821b905092915050565b5f6008830261153e7fffffffffffffffffffffffffffffffffffffffffffffffffffffffffffffffff82611503565b6115488683611503565b95508019841693508086168417925050509392505050565b5f819050919050565b5f61158361157e61157984610f27565b611560565b610f27565b9050919050565b5f819050919050565b61159c83611569565b6115b06115a88261158a565b84845461150f565b825550505050565b5f5f905090565b6115c76115b8565b6115d2818484611593565b505050565b5b818110156115f5576115ea5f826115bf565b6001810190506115d8565b5050565b601f82111561163a5761160b816114e2565b611614846114f4565b81016020851015611623578190505b61163761162f856114f4565b8301826115d7565b50505b505050565b5f82821c905092915050565b5f61165a5f198460080261163f565b1980831691505092915050565b5f611672838361164b565b9150826002028217905092915050565b61168b826110f7565b67ffffffffffffffff8111156116a4576116a3610dd4565b5b6116ae82546114b2565b6116b98282856115f9565b5f60209050601f8311600181146116ea575f84156116d8578287015190505b6116e28582611667565b865550611749565b601f1984166116f8866114e2565b5f5b8281101561171f578489015182556001820191506020850194506020810190506116fa565b8683101561173c5784890151611738601f89168261164b565b8355505b6001600288020188555050505b505050505050565b7f4e487b71000000000000000000000000000000000000000000000000000000005f52601160045260245ffd5b5f61178882610f27565b915061179383610f27565b92508282039050818111156117ab576117aa611751565b5b92915050565b7f5965746b696e697a20796f6b2e000000000000000000000000000000000000005f82015250565b5f6117e5600d8361138a565b91506117f0826117b1565b602082019050919050565b5f6020820190508181035f830152611812816117d9565b9050919050565b7f47656365726c6920626972207369706172697320494427736920646567696c2e5f82015250565b5f61184d60208361138a565b915061185882611819565b602082019050919050565b5f6020820190508181035f83015261187a81611841565b9050919050565b7f4e487b71000000000000000000000000000000000000000000000000000000005f52603260045260245ffd5b7f53697061726973207a6174656e206b6172676f796120766572696c64692e00005f82015250565b5f6118e2601e8361138a565b91506118ed826118ae565b602082019050919050565b5f6020820190508181035f83015261190f816118d6565b9050919050565b7f53697061726973696e2073616869626920646567696c73696e697a2e000000005f82015250565b5f61194a601c8361138a565b915061195582611916565b602082019050919050565b5f6020820190508181035f8301526119778161193e565b905091905056fea264697066735822122020c68b11c0c4ba562d3d1d90ef47b52c221cd46f8a361e7c4e0013b2b90646a564736f6c634300081c0033",
					"opcodes": "PUSH1 0x80 PUSH1 0x40 MSTORE CALLVALUE DUP1 ISZERO PUSH1 0xE JUMPI PUSH0 PUSH0 REVERT JUMPDEST POP CALLER PUSH1 0x1 PUSH0 PUSH2 0x100 EXP DUP2 SLOAD DUP2 PUSH20 0xFFFFFFFFFFFFFFFFFFFFFFFFFFFFFFFFFFFFFFFF MUL NOT AND SWAP1 DUP4 PUSH20 0xFFFFFFFFFFFFFFFFFFFFFFFFFFFFFFFFFFFFFFFF AND MUL OR SWAP1 SSTORE POP PUSH2 0x19B4 DUP1 PUSH2 0x5C PUSH0 CODECOPY PUSH0 RETURN INVALID PUSH1 0x80 PUSH1 0x40 MSTORE CALLVALUE DUP1 ISZERO PUSH2 0xF JUMPI PUSH0 PUSH0 REVERT JUMPDEST POP PUSH1 0x4 CALLDATASIZE LT PUSH2 0x86 JUMPI PUSH0 CALLDATALOAD PUSH1 0xE0 SHR DUP1 PUSH4 0x8574CD14 GT PUSH2 0x59 JUMPI DUP1 PUSH4 0x8574CD14 EQ PUSH2 0x136 JUMPI DUP1 PUSH4 0x995593DB EQ PUSH2 0x154 JUMPI DUP1 PUSH4 0xBA3EEACA EQ PUSH2 0x170 JUMPI DUP1 PUSH4 0xFEFF9C1E EQ PUSH2 0x1A2 JUMPI PUSH2 0x86 JUMP JUMPDEST DUP1 PUSH4 0x11887DC1 EQ PUSH2 0x8A JUMPI DUP1 PUSH4 0x45D31537 EQ PUSH2 0xBA JUMPI DUP1 PUSH4 0x4ACE5213 EQ PUSH2 0xEA JUMPI DUP1 PUSH4 0x73FEA758 EQ PUSH2 0x106 JUMPI JUMPDEST PUSH0 PUSH0 REVERT JUMPDEST PUSH2 0xA4 PUSH1 0x4 DUP1 CALLDATASIZE SUB DUP2 ADD SWAP1 PUSH2 0x9F SWAP2 SWAP1 PUSH2 0xFEF JUMP JUMPDEST PUSH2 0x1D2 JUMP JUMPDEST PUSH1 0x40 MLOAD PUSH2 0xB1 SWAP2 SWAP1 PUSH2 0x1074 JUMP JUMPDEST PUSH1 0x40 MLOAD DUP1 SWAP2 SUB SWAP1 RETURN JUMPDEST PUSH2 0xD4 PUSH1 0x4 DUP1 CALLDATASIZE SUB DUP2 ADD SWAP1 PUSH2 0xCF SWAP2 SWAP1 PUSH2 0xFEF JUMP JUMPDEST PUSH2 0x347 JUMP JUMPDEST PUSH1 0x40 MLOAD PUSH2 0xE1 SWAP2 SWAP1 PUSH2 0x1074 JUMP JUMPDEST PUSH1 0x40 MLOAD DUP1 SWAP2 SUB SWAP1 RETURN JUMPDEST PUSH2 0x104 PUSH1 0x4 DUP1 CALLDATASIZE SUB DUP2 ADD SWAP1 PUSH2 0xFF SWAP2 SWAP1 PUSH2 0x108D JUMP JUMPDEST PUSH2 0x4BC JUMP JUMPDEST STOP JUMPDEST PUSH2 0x120 PUSH1 0x4 DUP1 CALLDATASIZE SUB DUP2 ADD SWAP1 PUSH2 0x11B SWAP2 SWAP1 PUSH2 0x108D JUMP JUMPDEST PUSH2 0x771 JUMP JUMPDEST PUSH1 0x40 MLOAD PUSH2 0x12D SWAP2 SWAP1 PUSH2 0x12E8 JUMP JUMPDEST PUSH1 0x40 MLOAD DUP1 SWAP2 SUB SWAP1 RETURN JUMPDEST PUSH2 0x13E PUSH2 0x964 JUMP JUMPDEST PUSH1 0x40 MLOAD PUSH2 0x14B SWAP2 SWAP1 PUSH2 0x1317 JUMP JUMPDEST PUSH1 0x40 MLOAD DUP1 SWAP2 SUB SWAP1 RETURN JUMPDEST PUSH2 0x16E PUSH1 0x4 DUP1 CALLDATASIZE SUB DUP2 ADD SWAP1 PUSH2 0x169 SWAP2 SWAP1 PUSH2 0x1330 JUMP JUMPDEST PUSH2 0x989 JUMP JUMPDEST STOP JUMPDEST PUSH2 0x18A PUSH1 0x4 DUP1 CALLDATASIZE SUB DUP2 ADD SWAP1 PUSH2 0x185 SWAP2 SWAP1 PUSH2 0x108D JUMP JUMPDEST PUSH2 0xA98 JUMP JUMPDEST PUSH1 0x40 MLOAD PUSH2 0x199 SWAP4 SWAP3 SWAP2 SWAP1 PUSH2 0x13E1 JUMP JUMPDEST PUSH1 0x40 MLOAD DUP1 SWAP2 SUB SWAP1 RETURN JUMPDEST PUSH2 0x1BC PUSH1 0x4 DUP1 CALLDATASIZE SUB DUP2 ADD SWAP1 PUSH2 0x1B7 SWAP2 SWAP1 PUSH2 0xFEF JUMP JUMPDEST PUSH2 0xB7D JUMP JUMPDEST PUSH1 0x40 MLOAD PUSH2 0x1C9 SWAP2 SWAP1 PUSH2 0x1074 JUMP JUMPDEST PUSH1 0x40 MLOAD DUP1 SWAP2 SUB SWAP1 RETURN JUMPDEST PUSH0 PUSH0 DUP3 MLOAD GT PUSH2 0x216 JUMPI PUSH1 0x40 MLOAD PUSH32 0x8C379A000000000000000000000000000000000000000000000000000000000 DUP2 MSTORE PUSH1 0x4 ADD PUSH2 0x20D SWAP1 PUSH2 0x1467 JUMP JUMPDEST PUSH1 0x40 MLOAD DUP1 SWAP2 SUB SWAP1 REVERT JUMPDEST PUSH0 PUSH1 0x40 MLOAD DUP1 PUSH1 0x80 ADD PUSH1 0x40 MSTORE DUP1 CALLER PUSH20 0xFFFFFFFFFFFFFFFFFFFFFFFFFFFFFFFFFFFFFFFF AND DUP2 MSTORE PUSH1 0x20 ADD DUP6 DUP2 MSTORE PUSH1 0x20 ADD DUP5 DUP2 MSTORE PUSH1 0x20 ADD PUSH0 PUSH1 0x3 DUP2 GT ISZERO PUSH2 0x25D JUMPI PUSH2 0x25C PUSH2 0x120E JUMP JUMPDEST JUMPDEST DUP2 MSTORE POP SWAP1 DUP1 PUSH1 0x1 DUP2 SLOAD ADD DUP1 DUP3 SSTORE DUP1 SWAP2 POP POP PUSH1 0x1 SWAP1 SUB SWAP1 PUSH0 MSTORE PUSH1 0x20 PUSH0 KECCAK256 SWAP1 PUSH1 0x4 MUL ADD PUSH0 SWAP1 SWAP2 SWAP1 SWAP2 SWAP1 SWAP2 POP PUSH0 DUP3 ADD MLOAD DUP2 PUSH0 ADD PUSH0 PUSH2 0x100 EXP DUP2 SLOAD DUP2 PUSH20 0xFFFFFFFFFFFFFFFFFFFFFFFFFFFFFFFFFFFFFFFF MUL NOT AND SWAP1 DUP4 PUSH20 0xFFFFFFFFFFFFFFFFFFFFFFFFFFFFFFFFFFFFFFFF AND MUL OR SWAP1 SSTORE POP PUSH1 0x20 DUP3 ADD MLOAD DUP2 PUSH1 0x1 ADD SWAP1 DUP2 PUSH2 0x2DF SWAP2 SWAP1 PUSH2 0x1682 JUMP JUMPDEST POP PUSH1 0x40 DUP3 ADD MLOAD DUP2 PUSH1 0x2 ADD SWAP1 DUP1 MLOAD SWAP1 PUSH1 0x20 ADD SWAP1 PUSH2 0x2FC SWAP3 SWAP2 SWAP1 PUSH2 0xCF7 JUMP JUMPDEST POP PUSH1 0x60 DUP3 ADD MLOAD DUP2 PUSH1 0x3 ADD PUSH0 PUSH2 0x100 EXP DUP2 SLOAD DUP2 PUSH1 0xFF MUL NOT AND SWAP1 DUP4 PUSH1 0x3 DUP2 GT ISZERO PUSH2 0x327 JUMPI PUSH2 0x326 PUSH2 0x120E JUMP JUMPDEST JUMPDEST MUL OR SWAP1 SSTORE POP POP POP PUSH1 0x1 PUSH0 DUP1 SLOAD SWAP1 POP PUSH2 0x33F SWAP2 SWAP1 PUSH2 0x177E JUMP JUMPDEST SWAP1 POP SWAP3 SWAP2 POP POP JUMP JUMPDEST PUSH0 PUSH0 DUP3 MLOAD GT PUSH2 0x38B JUMPI PUSH1 0x40 MLOAD PUSH32 0x8C379A000000000000000000000000000000000000000000000000000000000 DUP2 MSTORE PUSH1 0x4 ADD PUSH2 0x382 SWAP1 PUSH2 0x1467 JUMP JUMPDEST PUSH1 0x40 MLOAD DUP1 SWAP2 SUB SWAP1 REVERT JUMPDEST PUSH0 PUSH1 0x40 MLOAD DUP1 PUSH1 0x80 ADD PUSH1 0x40 MSTORE DUP1 CALLER PUSH20 0xFFFFFFFFFFFFFFFFFFFFFFFFFFFFFFFFFFFFFFFF AND DUP2 MSTORE PUSH1 0x20 ADD DUP6 DUP2 MSTORE PUSH1 0x20 ADD DUP5 DUP2 MSTORE PUSH1 0x20 ADD PUSH0 PUSH1 0x3 DUP2 GT ISZERO PUSH2 0x3D2 JUMPI PUSH2 0x3D1 PUSH2 0x120E JUMP JUMPDEST JUMPDEST DUP2 MSTORE POP SWAP1 DUP1 PUSH1 0x1 DUP2 SLOAD ADD DUP1 DUP3 SSTORE DUP1 SWAP2 POP POP PUSH1 0x1 SWAP1 SUB SWAP1 PUSH0 MSTORE PUSH1 0x20 PUSH0 KECCAK256 SWAP1 PUSH1 0x4 MUL ADD PUSH0 SWAP1 SWAP2 SWAP1 SWAP2 SWAP1 SWAP2 POP PUSH0 DUP3 ADD MLOAD DUP2 PUSH0 ADD PUSH0 PUSH2 0x100 EXP DUP2 SLOAD DUP2 PUSH20 0xFFFFFFFFFFFFFFFFFFFFFFFFFFFFFFFFFFFFFFFF MUL NOT AND SWAP1 DUP4 PUSH20 0xFFFFFFFFFFFFFFFFFFFFFFFFFFFFFFFFFFFFFFFF AND MUL OR SWAP1 SSTORE POP PUSH1 0x20 DUP3 ADD MLOAD DUP2 PUSH1 0x1 ADD SWAP1 DUP2 PUSH2 0x454 SWAP2 SWAP1 PUSH2 0x1682 JUMP JUMPDEST POP PUSH1 0x40 DUP3 ADD MLOAD DUP2 PUSH1 0x2 ADD SWAP1 DUP1 MLOAD SWAP1 PUSH1 0x20 ADD SWAP1 PUSH2 0x471 SWAP3 SWAP2 SWAP1 PUSH2 0xCF7 JUMP JUMPDEST POP PUSH1 0x60 DUP3 ADD MLOAD DUP2 PUSH1 0x3 ADD PUSH0 PUSH2 0x100 EXP DUP2 SLOAD DUP2 PUSH1 0xFF MUL NOT AND SWAP1 DUP4 PUSH1 0x3 DUP2 GT ISZERO PUSH2 0x49C JUMPI PUSH2 0x49B PUSH2 0x120E JUMP JUMPDEST JUMPDEST MUL OR SWAP1 SSTORE POP POP POP PUSH1 0x1 PUSH0 DUP1 SLOAD SWAP1 POP PUSH2 0x4B4 SWAP2 SWAP1 PUSH2 0x177E JUMP JUMPDEST SWAP1 POP SWAP3 SWAP2 POP POP JUMP JUMPDEST PUSH1 0x1 PUSH0 SWAP1 SLOAD SWAP1 PUSH2 0x100 EXP SWAP1 DIV PUSH20 0xFFFFFFFFFFFFFFFFFFFFFFFFFFFFFFFFFFFFFFFF AND PUSH20 0xFFFFFFFFFFFFFFFFFFFFFFFFFFFFFFFFFFFFFFFF AND CALLER PUSH20 0xFFFFFFFFFFFFFFFFFFFFFFFFFFFFFFFFFFFFFFFF AND EQ PUSH2 0x54B JUMPI PUSH1 0x40 MLOAD PUSH32 0x8C379A000000000000000000000000000000000000000000000000000000000 DUP2 MSTORE PUSH1 0x4 ADD PUSH2 0x542 SWAP1 PUSH2 0x17FB JUMP JUMPDEST PUSH1 0x40 MLOAD DUP1 SWAP2 SUB SWAP1 REVERT JUMPDEST PUSH0 DUP1 SLOAD SWAP1 POP DUP2 LT PUSH2 0x591 JUMPI PUSH1 0x40 MLOAD PUSH32 0x8C379A000000000000000000000000000000000000000000000000000000000 DUP2 MSTORE PUSH1 0x4 ADD PUSH2 0x588 SWAP1 PUSH2 0x1863 JUMP JUMPDEST PUSH1 0x40 MLOAD DUP1 SWAP2 SUB SWAP1 REVERT JUMPDEST PUSH0 PUSH0 DUP3 DUP2 SLOAD DUP2 LT PUSH2 0x5A5 JUMPI PUSH2 0x5A4 PUSH2 0x1881 JUMP JUMPDEST JUMPDEST SWAP1 PUSH0 MSTORE PUSH1 0x20 PUSH0 KECCAK256 SWAP1 PUSH1 0x4 MUL ADD SWAP1 POP PUSH1 0x3 DUP1 DUP2 GT ISZERO PUSH2 0x5C6 JUMPI PUSH2 0x5C5 PUSH2 0x120E JUMP JUMPDEST JUMPDEST DUP2 PUSH1 0x3 ADD PUSH0 SWAP1 SLOAD SWAP1 PUSH2 0x100 EXP SWAP1 DIV PUSH1 0xFF AND PUSH1 0x3 DUP2 GT ISZERO PUSH2 0x5E9 JUMPI PUSH2 0x5E8 PUSH2 0x120E JUMP JUMPDEST JUMPDEST SUB PUSH2 0x629 JUMPI PUSH1 0x40 MLOAD PUSH32 0x8C379A000000000000000000000000000000000000000000000000000000000 DUP2 MSTORE PUSH1 0x4 ADD PUSH2 0x620 SWAP1 PUSH2 0x18F8 JUMP JUMPDEST PUSH1 0x40 MLOAD DUP1 SWAP2 SUB SWAP1 REVERT JUMPDEST PUSH0 PUSH1 0x3 DUP2 GT ISZERO PUSH2 0x63C JUMPI PUSH2 0x63B PUSH2 0x120E JUMP JUMPDEST JUMPDEST DUP2 PUSH1 0x3 ADD PUSH0 SWAP1 SLOAD SWAP1 PUSH2 0x100 EXP SWAP1 DIV PUSH1 0xFF AND PUSH1 0x3 DUP2 GT ISZERO PUSH2 0x65F JUMPI PUSH2 0x65E PUSH2 0x120E JUMP JUMPDEST JUMPDEST SUB PUSH2 0x695 JUMPI PUSH1 0x1 DUP2 PUSH1 0x3 ADD PUSH0 PUSH2 0x100 EXP DUP2 SLOAD DUP2 PUSH1 0xFF MUL NOT AND SWAP1 DUP4 PUSH1 0x3 DUP2 GT ISZERO PUSH2 0x68B JUMPI PUSH2 0x68A PUSH2 0x120E JUMP JUMPDEST JUMPDEST MUL OR SWAP1 SSTORE POP PUSH2 0x76D JUMP JUMPDEST PUSH1 0x1 PUSH1 0x3 DUP2 GT ISZERO PUSH2 0x6A9 JUMPI PUSH2 0x6A8 PUSH2 0x120E JUMP JUMPDEST JUMPDEST DUP2 PUSH1 0x3 ADD PUSH0 SWAP1 SLOAD SWAP1 PUSH2 0x100 EXP SWAP1 DIV PUSH1 0xFF AND PUSH1 0x3 DUP2 GT ISZERO PUSH2 0x6CC JUMPI PUSH2 0x6CB PUSH2 0x120E JUMP JUMPDEST JUMPDEST SUB PUSH2 0x702 JUMPI PUSH1 0x2 DUP2 PUSH1 0x3 ADD PUSH0 PUSH2 0x100 EXP DUP2 SLOAD DUP2 PUSH1 0xFF MUL NOT AND SWAP1 DUP4 PUSH1 0x3 DUP2 GT ISZERO PUSH2 0x6F8 JUMPI PUSH2 0x6F7 PUSH2 0x120E JUMP JUMPDEST JUMPDEST MUL OR SWAP1 SSTORE POP PUSH2 0x76C JUMP JUMPDEST PUSH1 0x2 PUSH1 0x3 DUP2 GT ISZERO PUSH2 0x716 JUMPI PUSH2 0x715 PUSH2 0x120E JUMP JUMPDEST JUMPDEST DUP2 PUSH1 0x3 ADD PUSH0 SWAP1 SLOAD SWAP1 PUSH2 0x100 EXP SWAP1 DIV PUSH1 0xFF AND PUSH1 0x3 DUP2 GT ISZERO PUSH2 0x739 JUMPI PUSH2 0x738 PUSH2 0x120E JUMP JUMPDEST JUMPDEST SUB PUSH2 0x76B JUMPI PUSH1 0x3 DUP2 PUSH1 0x3 ADD PUSH0 PUSH2 0x100 EXP DUP2 SLOAD DUP2 PUSH1 0xFF MUL NOT AND SWAP1 DUP4 PUSH1 0x3 DUP2 GT ISZERO PUSH2 0x765 JUMPI PUSH2 0x764 PUSH2 0x120E JUMP JUMPDEST JUMPDEST MUL OR SWAP1 SSTORE POP JUMPDEST JUMPDEST JUMPDEST POP POP JUMP JUMPDEST PUSH2 0x779 PUSH2 0xD42 JUMP JUMPDEST PUSH0 DUP1 SLOAD SWAP1 POP DUP3 LT PUSH2 0x7BF JUMPI PUSH1 0x40 MLOAD PUSH32 0x8C379A000000000000000000000000000000000000000000000000000000000 DUP2 MSTORE PUSH1 0x4 ADD PUSH2 0x7B6 SWAP1 PUSH2 0x1863 JUMP JUMPDEST PUSH1 0x40 MLOAD DUP1 SWAP2 SUB SWAP1 REVERT JUMPDEST PUSH0 DUP3 DUP2 SLOAD DUP2 LT PUSH2 0x7D2 JUMPI PUSH2 0x7D1 PUSH2 0x1881 JUMP JUMPDEST JUMPDEST SWAP1 PUSH0 MSTORE PUSH1 0x20 PUSH0 KECCAK256 SWAP1 PUSH1 0x4 MUL ADD PUSH1 0x40 MLOAD DUP1 PUSH1 0x80 ADD PUSH1 0x40 MSTORE SWAP1 DUP2 PUSH0 DUP3 ADD PUSH0 SWAP1 SLOAD SWAP1 PUSH2 0x100 EXP SWAP1 DIV PUSH20 0xFFFFFFFFFFFFFFFFFFFFFFFFFFFFFFFFFFFFFFFF AND PUSH20 0xFFFFFFFFFFFFFFFFFFFFFFFFFFFFFFFFFFFFFFFF AND PUSH20 0xFFFFFFFFFFFFFFFFFFFFFFFFFFFFFFFFFFFFFFFF AND DUP2 MSTORE PUSH1 0x20 ADD PUSH1 0x1 DUP3 ADD DUP1 SLOAD PUSH2 0x84D SWAP1 PUSH2 0x14B2 JUMP JUMPDEST DUP1 PUSH1 0x1F ADD PUSH1 0x20 DUP1 SWAP2 DIV MUL PUSH1 0x20 ADD PUSH1 0x40 MLOAD SWAP1 DUP2 ADD PUSH1 0x40 MSTORE DUP1 SWAP3 SWAP2 SWAP1 DUP2 DUP2 MSTORE PUSH1 0x20 ADD DUP3 DUP1 SLOAD PUSH2 0x879 SWAP1 PUSH2 0x14B2 JUMP JUMPDEST DUP1 ISZERO PUSH2 0x8C4 JUMPI DUP1 PUSH1 0x1F LT PUSH2 0x89B JUMPI PUSH2 0x100 DUP1 DUP4 SLOAD DIV MUL DUP4 MSTORE SWAP2 PUSH1 0x20 ADD SWAP2 PUSH2 0x8C4 JUMP JUMPDEST DUP3 ADD SWAP2 SWAP1 PUSH0 MSTORE PUSH1 0x20 PUSH0 KECCAK256 SWAP1 JUMPDEST DUP2 SLOAD DUP2 MSTORE SWAP1 PUSH1 0x1 ADD SWAP1 PUSH1 0x20 ADD DUP1 DUP4 GT PUSH2 0x8A7 JUMPI DUP3 SWAP1 SUB PUSH1 0x1F AND DUP3 ADD SWAP2 JUMPDEST POP POP POP POP POP DUP2 MSTORE PUSH1 0x20 ADD PUSH1 0x2 DUP3 ADD DUP1 SLOAD DUP1 PUSH1 0x20 MUL PUSH1 0x20 ADD PUSH1 0x40 MLOAD SWAP1 DUP2 ADD PUSH1 0x40 MSTORE DUP1 SWAP3 SWAP2 SWAP1 DUP2 DUP2 MSTORE PUSH1 0x20 ADD DUP3 DUP1 SLOAD DUP1 ISZERO PUSH2 0x91A JUMPI PUSH1 0x20 MUL DUP3 ADD SWAP2 SWAP1 PUSH0 MSTORE PUSH1 0x20 PUSH0 KECCAK256 SWAP1 JUMPDEST DUP2 SLOAD DUP2 MSTORE PUSH1 0x20 ADD SWAP1 PUSH1 0x1 ADD SWAP1 DUP1 DUP4 GT PUSH2 0x906 JUMPI JUMPDEST POP POP POP POP POP DUP2 MSTORE PUSH1 0x20 ADD PUSH1 0x3 DUP3 ADD PUSH0 SWAP1 SLOAD SWAP1 PUSH2 0x100 EXP SWAP1 DIV PUSH1 0xFF AND PUSH1 0x3 DUP2 GT ISZERO PUSH2 0x947 JUMPI PUSH2 0x946 PUSH2 0x120E JUMP JUMPDEST JUMPDEST PUSH1 0x3 DUP2 GT ISZERO PUSH2 0x959 JUMPI PUSH2 0x958 PUSH2 0x120E JUMP JUMPDEST JUMPDEST DUP2 MSTORE POP POP SWAP1 POP SWAP2 SWAP1 POP JUMP JUMPDEST PUSH1 0x1 PUSH0 SWAP1 SLOAD SWAP1 PUSH2 0x100 EXP SWAP1 DIV PUSH20 0xFFFFFFFFFFFFFFFFFFFFFFFFFFFFFFFFFFFFFFFF AND DUP2 JUMP JUMPDEST PUSH0 DUP1 SLOAD SWAP1 POP DUP3 LT PUSH2 0x9CF JUMPI PUSH1 0x40 MLOAD PUSH32 0x8C379A000000000000000000000000000000000000000000000000000000000 DUP2 MSTORE PUSH1 0x4 ADD PUSH2 0x9C6 SWAP1 PUSH2 0x1863 JUMP JUMPDEST PUSH1 0x40 MLOAD DUP1 SWAP2 SUB SWAP1 REVERT JUMPDEST PUSH0 PUSH0 DUP4 DUP2 SLOAD DUP2 LT PUSH2 0x9E3 JUMPI PUSH2 0x9E2 PUSH2 0x1881 JUMP JUMPDEST JUMPDEST SWAP1 PUSH0 MSTORE PUSH1 0x20 PUSH0 KECCAK256 SWAP1 PUSH1 0x4 MUL ADD SWAP1 POP CALLER PUSH20 0xFFFFFFFFFFFFFFFFFFFFFFFFFFFFFFFFFFFFFFFF AND DUP2 PUSH0 ADD PUSH0 SWAP1 SLOAD SWAP1 PUSH2 0x100 EXP SWAP1 DIV PUSH20 0xFFFFFFFFFFFFFFFFFFFFFFFFFFFFFFFFFFFFFFFF AND PUSH20 0xFFFFFFFFFFFFFFFFFFFFFFFFFFFFFFFFFFFFFFFF AND EQ PUSH2 0xA81 JUMPI PUSH1 0x40 MLOAD PUSH32 0x8C379A000000000000000000000000000000000000000000000000000000000 DUP2 MSTORE PUSH1 0x4 ADD PUSH2 0xA78 SWAP1 PUSH2 0x1960 JUMP JUMPDEST PUSH1 0x40 MLOAD DUP1 SWAP2 SUB SWAP1 REVERT JUMPDEST DUP2 DUP2 PUSH1 0x1 ADD SWAP1 DUP2 PUSH2 0xA92 SWAP2 SWAP1 PUSH2 0x1682 JUMP JUMPDEST POP POP POP POP JUMP JUMPDEST PUSH0 DUP2 DUP2 SLOAD DUP2 LT PUSH2 0xAA6 JUMPI PUSH0 DUP1 REVERT JUMPDEST SWAP1 PUSH0 MSTORE PUSH1 0x20 PUSH0 KECCAK256 SWAP1 PUSH1 0x4 MUL ADD PUSH0 SWAP2 POP SWAP1 POP DUP1 PUSH0 ADD PUSH0 SWAP1 SLOAD SWAP1 PUSH2 0x100 EXP SWAP1 DIV PUSH20 0xFFFFFFFFFFFFFFFFFFFFFFFFFFFFFFFFFFFFFFFF AND SWAP1 DUP1 PUSH1 0x1 ADD DUP1 SLOAD PUSH2 0xAEA SWAP1 PUSH2 0x14B2 JUMP JUMPDEST DUP1 PUSH1 0x1F ADD PUSH1 0x20 DUP1 SWAP2 DIV MUL PUSH1 0x20 ADD PUSH1 0x40 MLOAD SWAP1 DUP2 ADD PUSH1 0x40 MSTORE DUP1 SWAP3 SWAP2 SWAP1 DUP2 DUP2 MSTORE PUSH1 0x20 ADD DUP3 DUP1 SLOAD PUSH2 0xB16 SWAP1 PUSH2 0x14B2 JUMP JUMPDEST DUP1 ISZERO PUSH2 0xB61 JUMPI DUP1 PUSH1 0x1F LT PUSH2 0xB38 JUMPI PUSH2 0x100 DUP1 DUP4 SLOAD DIV MUL DUP4 MSTORE SWAP2 PUSH1 0x20 ADD SWAP2 PUSH2 0xB61 JUMP JUMPDEST DUP3 ADD SWAP2 SWAP1 PUSH0 MSTORE PUSH1 0x20 PUSH0 KECCAK256 SWAP1 JUMPDEST DUP2 SLOAD DUP2 MSTORE SWAP1 PUSH1 0x1 ADD SWAP1 PUSH1 0x20 ADD DUP1 DUP4 GT PUSH2 0xB44 JUMPI DUP3 SWAP1 SUB PUSH1 0x1F AND DUP3 ADD SWAP2 JUMPDEST POP POP POP POP POP SWAP1 DUP1 PUSH1 0x3 ADD PUSH0 SWAP1 SLOAD SWAP1 PUSH2 0x100 EXP SWAP1 DIV PUSH1 0xFF AND SWAP1 POP DUP4 JUMP JUMPDEST PUSH0 PUSH0 DUP3 MLOAD GT PUSH2 0xBC1 JUMPI PUSH1 0x40 MLOAD PUSH32 0x8C379A000000000000000000000000000000000000000000000000000000000 DUP2 MSTORE PUSH1 0x4 ADD PUSH2 0xBB8 SWAP1 PUSH2 0x1467 JUMP JUMPDEST PUSH1 0x40 MLOAD DUP1 SWAP2 SUB SWAP1 REVERT JUMPDEST PUSH0 PUSH1 0x40 MLOAD DUP1 PUSH1 0x80 ADD PUSH1 0x40 MSTORE DUP1 CALLER PUSH20 0xFFFFFFFFFFFFFFFFFFFFFFFFFFFFFFFFFFFFFFFF AND DUP2 MSTORE PUSH1 0x20 ADD DUP6 DUP2 MSTORE PUSH1 0x20 ADD DUP5 DUP2 MSTORE PUSH1 0x20 ADD PUSH0 PUSH1 0x3 DUP2 GT ISZERO PUSH2 0xC08 JUMPI PUSH2 0xC07 PUSH2 0x120E JUMP JUMPDEST JUMPDEST DUP2 MSTORE POP SWAP1 POP PUSH0 DUP2 SWAP1 DUP1 PUSH1 0x1 DUP2 SLOAD ADD DUP1 DUP3 SSTORE DUP1 SWAP2 POP POP PUSH1 0x1 SWAP1 SUB SWAP1 PUSH0 MSTORE PUSH1 0x20 PUSH0 KECCAK256 SWAP1 PUSH1 0x4 MUL ADD PUSH0 SWAP1 SWAP2 SWAP1 SWAP2 SWAP1 SWAP2 POP PUSH0 DUP3 ADD MLOAD DUP2 PUSH0 ADD PUSH0 PUSH2 0x100 EXP DUP2 SLOAD DUP2 PUSH20 0xFFFFFFFFFFFFFFFFFFFFFFFFFFFFFFFFFFFFFFFF MUL NOT AND SWAP1 DUP4 PUSH20 0xFFFFFFFFFFFFFFFFFFFFFFFFFFFFFFFFFFFFFFFF AND MUL OR SWAP1 SSTORE POP PUSH1 0x20 DUP3 ADD MLOAD DUP2 PUSH1 0x1 ADD SWAP1 DUP2 PUSH2 0xC8E SWAP2 SWAP1 PUSH2 0x1682 JUMP JUMPDEST POP PUSH1 0x40 DUP3 ADD MLOAD DUP2 PUSH1 0x2 ADD SWAP1 DUP1 MLOAD SWAP1 PUSH1 0x20 ADD SWAP1 PUSH2 0xCAB SWAP3 SWAP2 SWAP1 PUSH2 0xCF7 JUMP JUMPDEST POP PUSH1 0x60 DUP3 ADD MLOAD DUP2 PUSH1 0x3 ADD PUSH0 PUSH2 0x100 EXP DUP2 SLOAD DUP2 PUSH1 0xFF MUL NOT AND SWAP1 DUP4 PUSH1 0x3 DUP2 GT ISZERO PUSH2 0xCD6 JUMPI PUSH2 0xCD5 PUSH2 0x120E JUMP JUMPDEST JUMPDEST MUL OR SWAP1 SSTORE POP POP POP PUSH1 0x1 PUSH0 DUP1 SLOAD SWAP1 POP PUSH2 0xCEE SWAP2 SWAP1 PUSH2 0x177E JUMP JUMPDEST SWAP2 POP POP SWAP3 SWAP2 POP POP JUMP JUMPDEST DUP3 DUP1 SLOAD DUP3 DUP3 SSTORE SWAP1 PUSH0 MSTORE PUSH1 0x20 PUSH0 KECCAK256 SWAP1 DUP2 ADD SWAP3 DUP3 ISZERO PUSH2 0xD31 JUMPI SWAP2 PUSH1 0x20 MUL DUP3 ADD JUMPDEST DUP3 DUP2 GT ISZERO PUSH2 0xD30 JUMPI DUP3 MLOAD DUP3 SSTORE SWAP2 PUSH1 0x20 ADD SWAP2 SWAP1 PUSH1 0x1 ADD SWAP1 PUSH2 0xD15 JUMP JUMPDEST JUMPDEST POP SWAP1 POP PUSH2 0xD3E SWAP2 SWAP1 PUSH2 0xD90 JUMP JUMPDEST POP SWAP1 JUMP JUMPDEST PUSH1 0x40 MLOAD DUP1 PUSH1 0x80 ADD PUSH1 0x40 MSTORE DUP1 PUSH0 PUSH20 0xFFFFFFFFFFFFFFFFFFFFFFFFFFFFFFFFFFFFFFFF AND DUP2 MSTORE PUSH1 0x20 ADD PUSH1 0x60 DUP2 MSTORE PUSH1 0x20 ADD PUSH1 0x60 DUP2 MSTORE PUSH1 0x20 ADD PUSH0 PUSH1 0x3 DUP2 GT ISZERO PUSH2 0xD8A JUMPI PUSH2 0xD89 PUSH2 0x120E JUMP JUMPDEST JUMPDEST DUP2 MSTORE POP SWAP1 JUMP JUMPDEST JUMPDEST DUP1 DUP3 GT ISZERO PUSH2 0xDA7 JUMPI PUSH0 DUP2 PUSH0 SWAP1 SSTORE POP PUSH1 0x1 ADD PUSH2 0xD91 JUMP JUMPDEST POP SWAP1 JUMP JUMPDEST PUSH0 PUSH1 0x40 MLOAD SWAP1 POP SWAP1 JUMP JUMPDEST PUSH0 PUSH0 REVERT JUMPDEST PUSH0 PUSH0 REVERT JUMPDEST PUSH0 PUSH0 REVERT JUMPDEST PUSH0 PUSH0 REVERT JUMPDEST PUSH0 PUSH1 0x1F NOT PUSH1 0x1F DUP4 ADD AND SWAP1 POP SWAP2 SWAP1 POP JUMP JUMPDEST PUSH32 0x4E487B7100000000000000000000000000000000000000000000000000000000 PUSH0 MSTORE PUSH1 0x41 PUSH1 0x4 MSTORE PUSH1 0x24 PUSH0 REVERT JUMPDEST PUSH2 0xE0A DUP3 PUSH2 0xDC4 JUMP JUMPDEST DUP2 ADD DUP2 DUP2 LT PUSH8 0xFFFFFFFFFFFFFFFF DUP3 GT OR ISZERO PUSH2 0xE29 JUMPI PUSH2 0xE28 PUSH2 0xDD4 JUMP JUMPDEST JUMPDEST DUP1 PUSH1 0x40 MSTORE POP POP POP JUMP JUMPDEST PUSH0 PUSH2 0xE3B PUSH2 0xDAB JUMP JUMPDEST SWAP1 POP PUSH2 0xE47 DUP3 DUP3 PUSH2 0xE01 JUMP JUMPDEST SWAP2 SWAP1 POP JUMP JUMPDEST PUSH0 PUSH8 0xFFFFFFFFFFFFFFFF DUP3 GT ISZERO PUSH2 0xE66 JUMPI PUSH2 0xE65 PUSH2 0xDD4 JUMP JUMPDEST JUMPDEST PUSH2 0xE6F DUP3 PUSH2 0xDC4 JUMP JUMPDEST SWAP1 POP PUSH1 0x20 DUP2 ADD SWAP1 POP SWAP2 SWAP1 POP JUMP JUMPDEST DUP3 DUP2 DUP4 CALLDATACOPY PUSH0 DUP4 DUP4 ADD MSTORE POP POP POP JUMP JUMPDEST PUSH0 PUSH2 0xE9C PUSH2 0xE97 DUP5 PUSH2 0xE4C JUMP JUMPDEST PUSH2 0xE32 JUMP JUMPDEST SWAP1 POP DUP3 DUP2 MSTORE PUSH1 0x20 DUP2 ADD DUP5 DUP5 DUP5 ADD GT ISZERO PUSH2 0xEB8 JUMPI PUSH2 0xEB7 PUSH2 0xDC0 JUMP JUMPDEST JUMPDEST PUSH2 0xEC3 DUP5 DUP3 DUP6 PUSH2 0xE7C JUMP JUMPDEST POP SWAP4 SWAP3 POP POP POP JUMP JUMPDEST PUSH0 DUP3 PUSH1 0x1F DUP4 ADD SLT PUSH2 0xEDF JUMPI PUSH2 0xEDE PUSH2 0xDBC JUMP JUMPDEST JUMPDEST DUP2 CALLDATALOAD PUSH2 0xEEF DUP5 DUP3 PUSH1 0x20 DUP7 ADD PUSH2 0xE8A JUMP JUMPDEST SWAP2 POP POP SWAP3 SWAP2 POP POP JUMP JUMPDEST PUSH0 PUSH8 0xFFFFFFFFFFFFFFFF DUP3 GT ISZERO PUSH2 0xF12 JUMPI PUSH2 0xF11 PUSH2 0xDD4 JUMP JUMPDEST JUMPDEST PUSH1 0x20 DUP3 MUL SWAP1 POP PUSH1 0x20 DUP2 ADD SWAP1 POP SWAP2 SWAP1 POP JUMP JUMPDEST PUSH0 PUSH0 REVERT JUMPDEST PUSH0 DUP2 SWAP1 POP SWAP2 SWAP1 POP JUMP JUMPDEST PUSH2 0xF39 DUP2 PUSH2 0xF27 JUMP JUMPDEST DUP2 EQ PUSH2 0xF43 JUMPI PUSH0 PUSH0 REVERT JUMPDEST POP JUMP JUMPDEST PUSH0 DUP2 CALLDATALOAD SWAP1 POP PUSH2 0xF54 DUP2 PUSH2 0xF30 JUMP JUMPDEST SWAP3 SWAP2 POP POP JUMP JUMPDEST PUSH0 PUSH2 0xF6C PUSH2 0xF67 DUP5 PUSH2 0xEF8 JUMP JUMPDEST PUSH2 0xE32 JUMP JUMPDEST SWAP1 POP DUP1 DUP4 DUP3 MSTORE PUSH1 0x20 DUP3 ADD SWAP1 POP PUSH1 0x20 DUP5 MUL DUP4 ADD DUP6 DUP2 GT ISZERO PUSH2 0xF8F JUMPI PUSH2 0xF8E PUSH2 0xF23 JUMP JUMPDEST JUMPDEST DUP4 JUMPDEST DUP2 DUP2 LT ISZERO PUSH2 0xFB8 JUMPI DUP1 PUSH2 0xFA4 DUP9 DUP3 PUSH2 0xF46 JUMP JUMPDEST DUP5 MSTORE PUSH1 0x20 DUP5 ADD SWAP4 POP POP PUSH1 0x20 DUP2 ADD SWAP1 POP PUSH2 0xF91 JUMP JUMPDEST POP POP POP SWAP4 SWAP3 POP POP POP JUMP JUMPDEST PUSH0 DUP3 PUSH1 0x1F DUP4 ADD SLT PUSH2 0xFD6 JUMPI PUSH2 0xFD5 PUSH2 0xDBC JUMP JUMPDEST JUMPDEST DUP2 CALLDATALOAD PUSH2 0xFE6 DUP5 DUP3 PUSH1 0x20 DUP7 ADD PUSH2 0xF5A JUMP JUMPDEST SWAP2 POP POP SWAP3 SWAP2 POP POP JUMP JUMPDEST PUSH0 PUSH0 PUSH1 0x40 DUP4 DUP6 SUB SLT ISZERO PUSH2 0x1005 JUMPI PUSH2 0x1004 PUSH2 0xDB4 JUMP JUMPDEST JUMPDEST PUSH0 DUP4 ADD CALLDATALOAD PUSH8 0xFFFFFFFFFFFFFFFF DUP2 GT ISZERO PUSH2 0x1022 JUMPI PUSH2 0x1021 PUSH2 0xDB8 JUMP JUMPDEST JUMPDEST PUSH2 0x102E DUP6 DUP3 DUP7 ADD PUSH2 0xECB JUMP JUMPDEST SWAP3 POP POP PUSH1 0x20 DUP4 ADD CALLDATALOAD PUSH8 0xFFFFFFFFFFFFFFFF DUP2 GT ISZERO PUSH2 0x104F JUMPI PUSH2 0x104E PUSH2 0xDB8 JUMP JUMPDEST JUMPDEST PUSH2 0x105B DUP6 DUP3 DUP7 ADD PUSH2 0xFC2 JUMP JUMPDEST SWAP2 POP POP SWAP3 POP SWAP3 SWAP1 POP JUMP JUMPDEST PUSH2 0x106E DUP2 PUSH2 0xF27 JUMP JUMPDEST DUP3 MSTORE POP POP JUMP JUMPDEST PUSH0 PUSH1 0x20 DUP3 ADD SWAP1 POP PUSH2 0x1087 PUSH0 DUP4 ADD DUP5 PUSH2 0x1065 JUMP JUMPDEST SWAP3 SWAP2 POP POP JUMP JUMPDEST PUSH0 PUSH1 0x20 DUP3 DUP5 SUB SLT ISZERO PUSH2 0x10A2 JUMPI PUSH2 0x10A1 PUSH2 0xDB4 JUMP JUMPDEST JUMPDEST PUSH0 PUSH2 0x10AF DUP5 DUP3 DUP6 ADD PUSH2 0xF46 JUMP JUMPDEST SWAP2 POP POP SWAP3 SWAP2 POP POP JUMP JUMPDEST PUSH0 PUSH20 0xFFFFFFFFFFFFFFFFFFFFFFFFFFFFFFFFFFFFFFFF DUP3 AND SWAP1 POP SWAP2 SWAP1 POP JUMP JUMPDEST PUSH0 PUSH2 0x10E1 DUP3 PUSH2 0x10B8 JUMP JUMPDEST SWAP1 POP SWAP2 SWAP1 POP JUMP JUMPDEST PUSH2 0x10F1 DUP2 PUSH2 0x10D7 JUMP JUMPDEST DUP3 MSTORE POP POP JUMP JUMPDEST PUSH0 DUP2 MLOAD SWAP1 POP SWAP2 SWAP1 POP JUMP JUMPDEST PUSH0 DUP3 DUP3 MSTORE PUSH1 0x20 DUP3 ADD SWAP1 POP SWAP3 SWAP2 POP POP JUMP JUMPDEST DUP3 DUP2 DUP4 MCOPY PUSH0 DUP4 DUP4 ADD MSTORE POP POP POP JUMP JUMPDEST PUSH0 PUSH2 0x1129 DUP3 PUSH2 0x10F7 JUMP JUMPDEST PUSH2 0x1133 DUP2 DUP6 PUSH2 0x1101 JUMP JUMPDEST SWAP4 POP PUSH2 0x1143 DUP2 DUP6 PUSH1 0x20 DUP7 ADD PUSH2 0x1111 JUMP JUMPDEST PUSH2 0x114C DUP2 PUSH2 0xDC4 JUMP JUMPDEST DUP5 ADD SWAP2 POP POP SWAP3 SWAP2 POP POP JUMP JUMPDEST PUSH0 DUP2 MLOAD SWAP1 POP SWAP2 SWAP1 POP JUMP JUMPDEST PUSH0 DUP3 DUP3 MSTORE PUSH1 0x20 DUP3 ADD SWAP1 POP SWAP3 SWAP2 POP POP JUMP JUMPDEST PUSH0 DUP2 SWAP1 POP PUSH1 0x20 DUP3 ADD SWAP1 POP SWAP2 SWAP1 POP JUMP JUMPDEST PUSH2 0x1189 DUP2 PUSH2 0xF27 JUMP JUMPDEST DUP3 MSTORE POP POP JUMP JUMPDEST PUSH0 PUSH2 0x119A DUP4 DUP4 PUSH2 0x1180 JUMP JUMPDEST PUSH1 0x20 DUP4 ADD SWAP1 POP SWAP3 SWAP2 POP POP JUMP JUMPDEST PUSH0 PUSH1 0x20 DUP3 ADD SWAP1 POP SWAP2 SWAP1 POP JUMP JUMPDEST PUSH0 PUSH2 0x11BC DUP3 PUSH2 0x1157 JUMP JUMPDEST PUSH2 0x11C6 DUP2 DUP6 PUSH2 0x1161 JUMP JUMPDEST SWAP4 POP PUSH2 0x11D1 DUP4 PUSH2 0x1171 JUMP JUMPDEST DUP1 PUSH0 JUMPDEST DUP4 DUP2 LT ISZERO PUSH2 0x1201 JUMPI DUP2 MLOAD PUSH2 0x11E8 DUP9 DUP3 PUSH2 0x118F JUMP JUMPDEST SWAP8 POP PUSH2 0x11F3 DUP4 PUSH2 0x11A6 JUMP JUMPDEST SWAP3 POP POP PUSH1 0x1 DUP2 ADD SWAP1 POP PUSH2 0x11D4 JUMP JUMPDEST POP DUP6 SWAP4 POP POP POP POP SWAP3 SWAP2 POP POP JUMP JUMPDEST PUSH32 0x4E487B7100000000000000000000000000000000000000000000000000000000 PUSH0 MSTORE PUSH1 0x21 PUSH1 0x4 MSTORE PUSH1 0x24 PUSH0 REVERT JUMPDEST PUSH1 0x4 DUP2 LT PUSH2 0x124C JUMPI PUSH2 0x124B PUSH2 0x120E JUMP JUMPDEST JUMPDEST POP JUMP JUMPDEST PUSH0 DUP2 SWAP1 POP PUSH2 0x125C DUP3 PUSH2 0x123B JUMP JUMPDEST SWAP2 SWAP1 POP JUMP JUMPDEST PUSH0 PUSH2 0x126B DUP3 PUSH2 0x124F JUMP JUMPDEST SWAP1 POP SWAP2 SWAP1 POP JUMP JUMPDEST PUSH2 0x127B DUP2 PUSH2 0x1261 JUMP JUMPDEST DUP3 MSTORE POP POP JUMP JUMPDEST PUSH0 PUSH1 0x80 DUP4 ADD PUSH0 DUP4 ADD MLOAD PUSH2 0x1296 PUSH0 DUP7 ADD DUP3 PUSH2 0x10E8 JUMP JUMPDEST POP PUSH1 0x20 DUP4 ADD MLOAD DUP5 DUP3 SUB PUSH1 0x20 DUP7 ADD MSTORE PUSH2 0x12AE DUP3 DUP3 PUSH2 0x111F JUMP JUMPDEST SWAP2 POP POP PUSH1 0x40 DUP4 ADD MLOAD DUP5 DUP3 SUB PUSH1 0x40 DUP7 ADD MSTORE PUSH2 0x12C8 DUP3 DUP3 PUSH2 0x11B2 JUMP JUMPDEST SWAP2 POP POP PUSH1 0x60 DUP4 ADD MLOAD PUSH2 0x12DD PUSH1 0x60 DUP7 ADD DUP3 PUSH2 0x1272 JUMP JUMPDEST POP DUP1 SWAP2 POP POP SWAP3 SWAP2 POP POP JUMP JUMPDEST PUSH0 PUSH1 0x20 DUP3 ADD SWAP1 POP DUP2 DUP2 SUB PUSH0 DUP4 ADD MSTORE PUSH2 0x1300 DUP2 DUP5 PUSH2 0x1281 JUMP JUMPDEST SWAP1 POP SWAP3 SWAP2 POP POP JUMP JUMPDEST PUSH2 0x1311 DUP2 PUSH2 0x10D7 JUMP JUMPDEST DUP3 MSTORE POP POP JUMP JUMPDEST PUSH0 PUSH1 0x20 DUP3 ADD SWAP1 POP PUSH2 0x132A PUSH0 DUP4 ADD DUP5 PUSH2 0x1308 JUMP JUMPDEST SWAP3 SWAP2 POP POP JUMP JUMPDEST PUSH0 PUSH0 PUSH1 0x40 DUP4 DUP6 SUB SLT ISZERO PUSH2 0x1346 JUMPI PUSH2 0x1345 PUSH2 0xDB4 JUMP JUMPDEST JUMPDEST PUSH0 PUSH2 0x1353 DUP6 DUP3 DUP7 ADD PUSH2 0xF46 JUMP JUMPDEST SWAP3 POP POP PUSH1 0x20 DUP4 ADD CALLDATALOAD PUSH8 0xFFFFFFFFFFFFFFFF DUP2 GT ISZERO PUSH2 0x1374 JUMPI PUSH2 0x1373 PUSH2 0xDB8 JUMP JUMPDEST JUMPDEST PUSH2 0x1380 DUP6 DUP3 DUP7 ADD PUSH2 0xECB JUMP JUMPDEST SWAP2 POP POP SWAP3 POP SWAP3 SWAP1 POP JUMP JUMPDEST PUSH0 DUP3 DUP3 MSTORE PUSH1 0x20 DUP3 ADD SWAP1 POP SWAP3 SWAP2 POP POP JUMP JUMPDEST PUSH0 PUSH2 0x13A4 DUP3 PUSH2 0x10F7 JUMP JUMPDEST PUSH2 0x13AE DUP2 DUP6 PUSH2 0x138A JUMP JUMPDEST SWAP4 POP PUSH2 0x13BE DUP2 DUP6 PUSH1 0x20 DUP7 ADD PUSH2 0x1111 JUMP JUMPDEST PUSH2 0x13C7 DUP2 PUSH2 0xDC4 JUMP JUMPDEST DUP5 ADD SWAP2 POP POP SWAP3 SWAP2 POP POP JUMP JUMPDEST PUSH2 0x13DB DUP2 PUSH2 0x1261 JUMP JUMPDEST DUP3 MSTORE POP POP JUMP JUMPDEST PUSH0 PUSH1 0x60 DUP3 ADD SWAP1 POP PUSH2 0x13F4 PUSH0 DUP4 ADD DUP7 PUSH2 0x1308 JUMP JUMPDEST DUP2 DUP2 SUB PUSH1 0x20 DUP4 ADD MSTORE PUSH2 0x1406 DUP2 DUP6 PUSH2 0x139A JUMP JUMPDEST SWAP1 POP PUSH2 0x1415 PUSH1 0x40 DUP4 ADD DUP5 PUSH2 0x13D2 JUMP JUMPDEST SWAP5 SWAP4 POP POP POP POP JUMP JUMPDEST PUSH32 0x5572756E20796F6B2E0000000000000000000000000000000000000000000000 PUSH0 DUP3 ADD MSTORE POP JUMP JUMPDEST PUSH0 PUSH2 0x1451 PUSH1 0x9 DUP4 PUSH2 0x138A JUMP JUMPDEST SWAP2 POP PUSH2 0x145C DUP3 PUSH2 0x141D JUMP JUMPDEST PUSH1 0x20 DUP3 ADD SWAP1 POP SWAP2 SWAP1 POP JUMP JUMPDEST PUSH0 PUSH1 0x20 DUP3 ADD SWAP1 POP DUP2 DUP2 SUB PUSH0 DUP4 ADD MSTORE PUSH2 0x147E DUP2 PUSH2 0x1445 JUMP JUMPDEST SWAP1 POP SWAP2 SWAP1 POP JUMP JUMPDEST PUSH32 0x4E487B7100000000000000000000000000000000000000000000000000000000 PUSH0 MSTORE PUSH1 0x22 PUSH1 0x4 MSTORE PUSH1 0x24 PUSH0 REVERT JUMPDEST PUSH0 PUSH1 0x2 DUP3 DIV SWAP1 POP PUSH1 0x1 DUP3 AND DUP1 PUSH2 0x14C9 JUMPI PUSH1 0x7F DUP3 AND SWAP2 POP JUMPDEST PUSH1 0x20 DUP3 LT DUP2 SUB PUSH2 0x14DC JUMPI PUSH2 0x14DB PUSH2 0x1485 JUMP JUMPDEST JUMPDEST POP SWAP2 SWAP1 POP JUMP JUMPDEST PUSH0 DUP2 SWAP1 POP DUP2 PUSH0 MSTORE PUSH1 0x20 PUSH0 KECCAK256 SWAP1 POP SWAP2 SWAP1 POP JUMP JUMPDEST PUSH0 PUSH1 0x20 PUSH1 0x1F DUP4 ADD DIV SWAP1 POP SWAP2 SWAP1 POP JUMP JUMPDEST PUSH0 DUP3 DUP3 SHL SWAP1 POP SWAP3 SWAP2 POP POP JUMP JUMPDEST PUSH0 PUSH1 0x8 DUP4 MUL PUSH2 0x153E PUSH32 0xFFFFFFFFFFFFFFFFFFFFFFFFFFFFFFFFFFFFFFFFFFFFFFFFFFFFFFFFFFFFFFFF DUP3 PUSH2 0x1503 JUMP JUMPDEST PUSH2 0x1548 DUP7 DUP4 PUSH2 0x1503 JUMP JUMPDEST SWAP6 POP DUP1 NOT DUP5 AND SWAP4 POP DUP1 DUP7 AND DUP5 OR SWAP3 POP POP POP SWAP4 SWAP3 POP POP POP JUMP JUMPDEST PUSH0 DUP2 SWAP1 POP SWAP2 SWAP1 POP JUMP JUMPDEST PUSH0 PUSH2 0x1583 PUSH2 0x157E PUSH2 0x1579 DUP5 PUSH2 0xF27 JUMP JUMPDEST PUSH2 0x1560 JUMP JUMPDEST PUSH2 0xF27 JUMP JUMPDEST SWAP1 POP SWAP2 SWAP1 POP JUMP JUMPDEST PUSH0 DUP2 SWAP1 POP SWAP2 SWAP1 POP JUMP JUMPDEST PUSH2 0x159C DUP4 PUSH2 0x1569 JUMP JUMPDEST PUSH2 0x15B0 PUSH2 0x15A8 DUP3 PUSH2 0x158A JUMP JUMPDEST DUP5 DUP5 SLOAD PUSH2 0x150F JUMP JUMPDEST DUP3 SSTORE POP POP POP POP JUMP JUMPDEST PUSH0 PUSH0 SWAP1 POP SWAP1 JUMP JUMPDEST PUSH2 0x15C7 PUSH2 0x15B8 JUMP JUMPDEST PUSH2 0x15D2 DUP2 DUP5 DUP5 PUSH2 0x1593 JUMP JUMPDEST POP POP POP JUMP JUMPDEST JUMPDEST DUP2 DUP2 LT ISZERO PUSH2 0x15F5 JUMPI PUSH2 0x15EA PUSH0 DUP3 PUSH2 0x15BF JUMP JUMPDEST PUSH1 0x1 DUP2 ADD SWAP1 POP PUSH2 0x15D8 JUMP JUMPDEST POP POP JUMP JUMPDEST PUSH1 0x1F DUP3 GT ISZERO PUSH2 0x163A JUMPI PUSH2 0x160B DUP2 PUSH2 0x14E2 JUMP JUMPDEST PUSH2 0x1614 DUP5 PUSH2 0x14F4 JUMP JUMPDEST DUP2 ADD PUSH1 0x20 DUP6 LT ISZERO PUSH2 0x1623 JUMPI DUP2 SWAP1 POP JUMPDEST PUSH2 0x1637 PUSH2 0x162F DUP6 PUSH2 0x14F4 JUMP JUMPDEST DUP4 ADD DUP3 PUSH2 0x15D7 JUMP JUMPDEST POP POP JUMPDEST POP POP POP JUMP JUMPDEST PUSH0 DUP3 DUP3 SHR SWAP1 POP SWAP3 SWAP2 POP POP JUMP JUMPDEST PUSH0 PUSH2 0x165A PUSH0 NOT DUP5 PUSH1 0x8 MUL PUSH2 0x163F JUMP JUMPDEST NOT DUP1 DUP4 AND SWAP2 POP POP SWAP3 SWAP2 POP POP JUMP JUMPDEST PUSH0 PUSH2 0x1672 DUP4 DUP4 PUSH2 0x164B JUMP JUMPDEST SWAP2 POP DUP3 PUSH1 0x2 MUL DUP3 OR SWAP1 POP SWAP3 SWAP2 POP POP JUMP JUMPDEST PUSH2 0x168B DUP3 PUSH2 0x10F7 JUMP JUMPDEST PUSH8 0xFFFFFFFFFFFFFFFF DUP2 GT ISZERO PUSH2 0x16A4 JUMPI PUSH2 0x16A3 PUSH2 0xDD4 JUMP JUMPDEST JUMPDEST PUSH2 0x16AE DUP3 SLOAD PUSH2 0x14B2 JUMP JUMPDEST PUSH2 0x16B9 DUP3 DUP3 DUP6 PUSH2 0x15F9 JUMP JUMPDEST PUSH0 PUSH1 0x20 SWAP1 POP PUSH1 0x1F DUP4 GT PUSH1 0x1 DUP2 EQ PUSH2 0x16EA JUMPI PUSH0 DUP5 ISZERO PUSH2 0x16D8 JUMPI DUP3 DUP8 ADD MLOAD SWAP1 POP JUMPDEST PUSH2 0x16E2 DUP6 DUP3 PUSH2 0x1667 JUMP JUMPDEST DUP7 SSTORE POP PUSH2 0x1749 JUMP JUMPDEST PUSH1 0x1F NOT DUP5 AND PUSH2 0x16F8 DUP7 PUSH2 0x14E2 JUMP JUMPDEST PUSH0 JUMPDEST DUP3 DUP2 LT ISZERO PUSH2 0x171F JUMPI DUP5 DUP10 ADD MLOAD DUP3 SSTORE PUSH1 0x1 DUP3 ADD SWAP2 POP PUSH1 0x20 DUP6 ADD SWAP5 POP PUSH1 0x20 DUP2 ADD SWAP1 POP PUSH2 0x16FA JUMP JUMPDEST DUP7 DUP4 LT ISZERO PUSH2 0x173C JUMPI DUP5 DUP10 ADD MLOAD PUSH2 0x1738 PUSH1 0x1F DUP10 AND DUP3 PUSH2 0x164B JUMP JUMPDEST DUP4 SSTORE POP JUMPDEST PUSH1 0x1 PUSH1 0x2 DUP9 MUL ADD DUP9 SSTORE POP POP POP JUMPDEST POP POP POP POP POP POP JUMP JUMPDEST PUSH32 0x4E487B7100000000000000000000000000000000000000000000000000000000 PUSH0 MSTORE PUSH1 0x11 PUSH1 0x4 MSTORE PUSH1 0x24 PUSH0 REVERT JUMPDEST PUSH0 PUSH2 0x1788 DUP3 PUSH2 0xF27 JUMP JUMPDEST SWAP2 POP PUSH2 0x1793 DUP4 PUSH2 0xF27 JUMP JUMPDEST SWAP3 POP DUP3 DUP3 SUB SWAP1 POP DUP2 DUP2 GT ISZERO PUSH2 0x17AB JUMPI PUSH2 0x17AA PUSH2 0x1751 JUMP JUMPDEST JUMPDEST SWAP3 SWAP2 POP POP JUMP JUMPDEST PUSH32 0x5965746B696E697A20796F6B2E00000000000000000000000000000000000000 PUSH0 DUP3 ADD MSTORE POP JUMP JUMPDEST PUSH0 PUSH2 0x17E5 PUSH1 0xD DUP4 PUSH2 0x138A JUMP JUMPDEST SWAP2 POP PUSH2 0x17F0 DUP3 PUSH2 0x17B1 JUMP JUMPDEST PUSH1 0x20 DUP3 ADD SWAP1 POP SWAP2 SWAP1 POP JUMP JUMPDEST PUSH0 PUSH1 0x20 DUP3 ADD SWAP1 POP DUP2 DUP2 SUB PUSH0 DUP4 ADD MSTORE PUSH2 0x1812 DUP2 PUSH2 0x17D9 JUMP JUMPDEST SWAP1 POP SWAP2 SWAP1 POP JUMP JUMPDEST PUSH32 0x47656365726C6920626972207369706172697320494427736920646567696C2E PUSH0 DUP3 ADD MSTORE POP JUMP JUMPDEST PUSH0 PUSH2 0x184D PUSH1 0x20 DUP4 PUSH2 0x138A JUMP JUMPDEST SWAP2 POP PUSH2 0x1858 DUP3 PUSH2 0x1819 JUMP JUMPDEST PUSH1 0x20 DUP3 ADD SWAP1 POP SWAP2 SWAP1 POP JUMP JUMPDEST PUSH0 PUSH1 0x20 DUP3 ADD SWAP1 POP DUP2 DUP2 SUB PUSH0 DUP4 ADD MSTORE PUSH2 0x187A DUP2 PUSH2 0x1841 JUMP JUMPDEST SWAP1 POP SWAP2 SWAP1 POP JUMP JUMPDEST PUSH32 0x4E487B7100000000000000000000000000000000000000000000000000000000 PUSH0 MSTORE PUSH1 0x32 PUSH1 0x4 MSTORE PUSH1 0x24 PUSH0 REVERT JUMPDEST PUSH32 0x53697061726973207A6174656E206B6172676F796120766572696C64692E0000 PUSH0 DUP3 ADD MSTORE POP JUMP JUMPDEST PUSH0 PUSH2 0x18E2 PUSH1 0x1E DUP4 PUSH2 0x138A JUMP JUMPDEST SWAP2 POP PUSH2 0x18ED DUP3 PUSH2 0x18AE JUMP JUMPDEST PUSH1 0x20 DUP3 ADD SWAP1 POP SWAP2 SWAP1 POP JUMP JUMPDEST PUSH0 PUSH1 0x20 DUP3 ADD SWAP1 POP DUP2 DUP2 SUB PUSH0 DUP4 ADD MSTORE PUSH2 0x190F DUP2 PUSH2 0x18D6 JUMP JUMPDEST SWAP1 POP SWAP2 SWAP1 POP JUMP JUMPDEST PUSH32 0x53697061726973696E2073616869626920646567696C73696E697A2E00000000 PUSH0 DUP3 ADD MSTORE POP JUMP JUMPDEST PUSH0 PUSH2 0x194A PUSH1 0x1C DUP4 PUSH2 0x138A JUMP JUMPDEST SWAP2 POP PUSH2 0x1955 DUP3 PUSH2 0x1916 JUMP JUMPDEST PUSH1 0x20 DUP3 ADD SWAP1 POP SWAP2 SWAP1 POP JUMP JUMPDEST PUSH0 PUSH1 0x20 DUP3 ADD SWAP1 POP DUP2 DUP2 SUB PUSH0 DUP4 ADD MSTORE PUSH2 0x1977 DUP2 PUSH2 0x193E JUMP JUMPDEST SWAP1 POP SWAP2 SWAP1 POP JUMP INVALID LOG2 PUSH5 0x6970667358 0x22 SLT KECCAK256 KECCAK256 0xC6 DUP12 GT 0xC0 0xC4 0xBA JUMP 0x2D RETURNDATASIZE SAR SWAP1 0xEF SELFBALANCE 0xB5 0x2C 0x22 SHR 0xD4 PUSH16 0x8A361E7C4E0013B2B90646A564736F6C PUSH4 0x4300081C STOP CALLER "
				},
				"gasEstimates": {
					"creation": {
						"codeDepositCost": "1316000",
						"executionCost": "25632",
						"totalCost": "1341632"
					},
					"external": {
						"postaKoduGuncelle(uint256,string)": "infinite",
						"sahip()": "2508",
						"siparisGetir(uint256)": "infinite",
						"siparisIlerle(uint256)": "40102",
						"siparisOlustur(string,uint256[])": "infinite",
						"siparisOlustur2(string,uint256[])": "infinite",
						"siparisOlustur3(string,uint256[])": "infinite",
						"siparisler(uint256)": "infinite"
					}
				},
				"methodIdentifiers": {
					"postaKoduGuncelle(uint256,string)": "995593db",
					"sahip()": "8574cd14",
					"siparisGetir(uint256)": "73fea758",
					"siparisIlerle(uint256)": "4ace5213",
					"siparisOlustur(string,uint256[])": "feff9c1e",
					"siparisOlustur2(string,uint256[])": "11887dc1",
					"siparisOlustur3(string,uint256[])": "45d31537",
					"siparisler(uint256)": "ba3eeaca"
				}
			},
			"storageLayout": {
				"storage": [
					{
						"astId": 23,
						"contract": "contracts/enumandstructs.sol:StructsAndEnums",
						"label": "siparisler",
						"offset": 0,
						"slot": "0",
						"type": "t_array(t_struct(Siparis)19_storage)dyn_storage"
					},
					{
						"astId": 25,
						"contract": "contracts/enumandstructs.sol:StructsAndEnums",
						"label": "sahip",
						"offset": 0,
						"slot": "1",
						"type": "t_address"
					}
				],
				"types": {
					"t_address": {
						"encoding": "inplace",
						"label": "address",
						"numberOfBytes": "20"
					},
					"t_array(t_struct(Siparis)19_storage)dyn_storage": {
						"base": "t_struct(Siparis)19_storage",
						"encoding": "dynamic_array",
						"label": "struct StructsAndEnums.Siparis[]",
						"numberOfBytes": "32"
					},
					"t_array(t_uint256)dyn_storage": {
						"base": "t_uint256",
						"encoding": "dynamic_array",
						"label": "uint256[]",
						"numberOfBytes": "32"
					},
					"t_enum(Durum)7": {
						"encoding": "inplace",
						"label": "enum StructsAndEnums.Durum",
						"numberOfBytes": "1"
					},
					"t_string_storage": {
						"encoding": "bytes",
						"label": "string",
						"numberOfBytes": "32"
					},
					"t_struct(Siparis)19_storage": {
						"encoding": "inplace",
						"label": "struct StructsAndEnums.Siparis",
						"members": [
							{
								"astId": 10,
								"contract": "contracts/enumandstructs.sol:StructsAndEnums",
								"label": "musteri",
								"offset": 0,
								"slot": "0",
								"type": "t_address"
							},
							{
								"astId": 12,
								"contract": "contracts/enumandstructs.sol:StructsAndEnums",
								"label": "postaKodu",
								"offset": 0,
								"slot": "1",
								"type": "t_string_storage"
							},
							{
								"astId": 15,
								"contract": "contracts/enumandstructs.sol:StructsAndEnums",
								"label": "urunler",
								"offset": 0,
								"slot": "2",
								"type": "t_array(t_uint256)dyn_storage"
							},
							{
								"astId": 18,
								"contract": "contracts/enumandstructs.sol:StructsAndEnums",
								"label": "durum",
								"offset": 0,
								"slot": "3",
								"type": "t_enum(Durum)7"
							}
						],
						"numberOfBytes": "128"
					},
					"t_uint256": {
						"encoding": "inplace",
						"label": "uint256",
						"numberOfBytes": "32"
					}
				}
			},
			"userdoc": {
				"kind": "user",
				"methods": {},
				"version": 1
			}
		}
	}
}