{
	"contracts/events.sol": {
		"Etkinlikler": {
			"abi": [
				{
					"inputs": [],
					"stateMutability": "nonpayable",
					"type": "constructor"
				},
				{
					"anonymous": false,
					"inputs": [
						{
							"indexed": false,
							"internalType": "uint256",
							"name": "siparisId",
							"type": "uint256"
						},
						{
							"indexed": false,
							"internalType": "string",
							"name": "postaKodu",
							"type": "string"
						}
					],
					"name": "PostaKoduDegisti",
					"type": "event"
				},
				{
					"anonymous": false,
					"inputs": [
						{
							"indexed": false,
							"internalType": "uint256",
							"name": "siparisId",
							"type": "uint256"
						},
						{
							"indexed": true,
							"internalType": "address",
							"name": "musteri",
							"type": "address"
						}
					],
					"name": "SiparisOlusturuldu",
					"type": "event"
				},
				{
					"inputs": [],
					"name": "islemSayisi",
					"outputs": [
						{
							"internalType": "uint256",
							"name": "",
							"type": "uint256"
						}
					],
					"stateMutability": "view",
					"type": "function"
				},
				{
					"inputs": [
						{
							"internalType": "uint256",
							"name": "_siparisId",
							"type": "uint256"
						},
						{
							"internalType": "string",
							"name": "_posta",
							"type": "string"
						}
					],
					"name": "postaKoduGuncelle",
					"outputs": [],
					"stateMutability": "nonpayable",
					"type": "function"
				},
				{
					"inputs": [],
					"name": "sahip",
					"outputs": [
						{
							"internalType": "address",
							"name": "",
							"type": "address"
						}
					],
					"stateMutability": "view",
					"type": "function"
				},
				{
					"inputs": [
						{
							"internalType": "uint256",
							"name": "_siparisId",
							"type": "uint256"
						}
					],
					"name": "siparisGetir",
					"outputs": [
						{
							"components": [
								{
									"internalType": "address",
									"name": "musteri",
									"type": "address"
								},
								{
									"internalType": "string",
									"name": "postaKodu",
									"type": "string"
								},
								{
									"internalType": "uint256[]",
									"name": "urunler",
									"type": "uint256[]"
								},
								{
									"internalType": "enum Etkinlikler.Durum",
									"name": "durum",
									"type": "uint8"
								}
							],
							"internalType": "struct Etkinlikler.Siparis",
							"name": "",
							"type": "tuple"
						}
					],
					"stateMutability": "view",
					"type": "function"
				},
				{
					"inputs": [
						{
							"internalType": "uint256",
							"name": "_siparisId",
							"type": "uint256"
						}
					],
					"name": "siparisIlerle",
					"outputs": [],
					"stateMutability": "nonpayable",
					"type": "function"
				},
				{
					"inputs": [
						{
							"internalType": "string",
							"name": "_postaKodu",
							"type": "string"
						},
						{
							"internalType": "uint256[]",
							"name": "_urunler",
							"type": "uint256[]"
						}
					],
					"name": "siparisOlustur",
					"outputs": [
						{
							"internalType": "uint256",
							"name": "",
							"type": "uint256"
						}
					],
					"stateMutability": "nonpayable",
					"type": "function"
				},
				{
					"inputs": [
						{
							"internalType": "uint256",
							"name": "",
							"type": "uint256"
						}
					],
					"name": "siparisler",
					"outputs": [
						{
							"internalType": "address",
							"name": "musteri",
							"type": "address"
						},
						{
							"internalType": "string",
							"name": "postaKodu",
							"type": "string"
						},
						{
							"internalType": "enum Etkinlikler.Durum",
							"name": "durum",
							"type": "uint8"
						}
					],
					"stateMutability": "view",
					"type": "function"
				}
			],
			"devdoc": {
				"events": {
					"PostaKoduDegisti(uint256,string)": {
						"details": "Posta kodu güncellendiğinde tetiklenen olay.",
						"params": {
							"postaKodu": ": Güncellenmiş posta kodu.",
							"siparisId": ": Posta kodu güncellenen siparişin ID'si."
						}
					},
					"SiparisOlusturuldu(uint256,address)": {
						"details": "Sipariş oluşturulduğunda tetiklenen olay.",
						"params": {
							"musteri": ": Siparişi oluşturan müşterinin adresi.",
							"siparisId": ": Yeni oluşturulan siparişin ID'si."
						}
					}
				},
				"kind": "dev",
				"methods": {
					"constructor": {
						"details": "Kontrat oluşturucu. Kontratı dağıtan adresi sahip olarak ayarlar."
					},
					"postaKoduGuncelle(uint256,string)": {
						"details": "Bir siparişin posta kodunu günceller.",
						"params": {
							"_posta": ": Yeni posta kodu.",
							"_siparisId": ": Posta kodu güncellenecek siparişin ID'si."
						}
					},
					"siparisGetir(uint256)": {
						"details": "Bir siparişin detaylarını döndürür.",
						"params": {
							"_siparisId": ": Detayları döndürülecek siparişin ID'si."
						},
						"returns": {
							"_0": "İstenen siparişin detayları."
						}
					},
					"siparisIlerle(uint256)": {
						"details": "Bir siparişin durumunu bir sonraki aşamaya ilerletir.",
						"params": {
							"_siparisId": ": İlerletilecek siparişin ID'si."
						}
					},
					"siparisOlustur(string,uint256[])": {
						"details": "Yeni bir sipariş oluşturur.",
						"params": {
							"_postaKodu": ": Siparişin gönderileceği posta kodu.",
							"_urunler": ": Sipariş edilen ürünlerin ID'lerinden oluşan liste."
						},
						"returns": {
							"_0": "Yeni oluşturulan siparişin ID'si."
						}
					}
				},
				"version": 1
			},
			"evm": {
				"assembly": "    /* \"contracts/events.sol\":60:5655  contract Etkinlikler {... */\n  mstore(0x40, 0x80)\n    /* \"contracts/events.sol\":1860:1911  constructor() {... */\n  callvalue\n  dup1\n  iszero\n  tag_1\n  jumpi\n  revert(0x00, 0x00)\ntag_1:\n  pop\n    /* \"contracts/events.sol\":1893:1903  msg.sender */\n  caller\n    /* \"contracts/events.sol\":1885:1890  sahip */\n  0x01\n  0x00\n    /* \"contracts/events.sol\":1885:1903  sahip = msg.sender */\n  0x0100\n  exp\n  dup2\n  sload\n  dup2\n  0xffffffffffffffffffffffffffffffffffffffff\n  mul\n  not\n  and\n  swap1\n  dup4\n  0xffffffffffffffffffffffffffffffffffffffff\n  and\n  mul\n  or\n  swap1\n  sstore\n  pop\n    /* \"contracts/events.sol\":60:5655  contract Etkinlikler {... */\n  dataSize(sub_0)\n  dup1\n  dataOffset(sub_0)\n  0x00\n  codecopy\n  0x00\n  return\nstop\n\nsub_0: assembly {\n        /* \"contracts/events.sol\":60:5655  contract Etkinlikler {... */\n      mstore(0x40, 0x80)\n      callvalue\n      dup1\n      iszero\n      tag_1\n      jumpi\n      revert(0x00, 0x00)\n    tag_1:\n      pop\n      jumpi(tag_2, lt(calldatasize, 0x04))\n      shr(0xe0, calldataload(0x00))\n      dup1\n      0x8574cd14\n      gt\n      tag_10\n      jumpi\n      dup1\n      0x8574cd14\n      eq\n      tag_6\n      jumpi\n      dup1\n      0x995593db\n      eq\n      tag_7\n      jumpi\n      dup1\n      0xba3eeaca\n      eq\n      tag_8\n      jumpi\n      dup1\n      0xfeff9c1e\n      eq\n      tag_9\n      jumpi\n      jump(tag_2)\n    tag_10:\n      dup1\n      0x4ace5213\n      eq\n      tag_3\n      jumpi\n      dup1\n      0x737f545f\n      eq\n      tag_4\n      jumpi\n      dup1\n      0x73fea758\n      eq\n      tag_5\n      jumpi\n    tag_2:\n      revert(0x00, 0x00)\n        /* \"contracts/events.sol\":2886:3478  function siparisIlerle(uint256 _siparisId) ... */\n    tag_3:\n      tag_11\n      0x04\n      dup1\n      calldatasize\n      sub\n      dup2\n      add\n      swap1\n      tag_12\n      swap2\n      swap1\n      tag_13\n      jump\t// in\n    tag_12:\n      tag_14\n      jump\t// in\n    tag_11:\n      stop\n        /* \"contracts/events.sol\":1176:1202  uint256 public islemSayisi */\n    tag_4:\n      tag_15\n      tag_16\n      jump\t// in\n    tag_15:\n      mload(0x40)\n      tag_17\n      swap2\n      swap1\n      tag_18\n      jump\t// in\n    tag_17:\n      mload(0x40)\n      dup1\n      swap2\n      sub\n      swap1\n      return\n        /* \"contracts/events.sol\":3679:3881  function siparisGetir(uint256 _siparisId) ... */\n    tag_5:\n      tag_19\n      0x04\n      dup1\n      calldatasize\n      sub\n      dup2\n      add\n      swap1\n      tag_20\n      swap2\n      swap1\n      tag_13\n      jump\t// in\n    tag_20:\n      tag_21\n      jump\t// in\n    tag_19:\n      mload(0x40)\n      tag_22\n      swap2\n      swap1\n      tag_23\n      jump\t// in\n    tag_22:\n      mload(0x40)\n      dup1\n      swap2\n      sub\n      swap1\n      return\n        /* \"contracts/events.sol\":1073:1093  address public sahip */\n    tag_6:\n      tag_24\n      tag_25\n      jump\t// in\n    tag_24:\n      mload(0x40)\n      tag_26\n      swap2\n      swap1\n      tag_27\n      jump\t// in\n    tag_26:\n      mload(0x40)\n      dup1\n      swap2\n      sub\n      swap1\n      return\n        /* \"contracts/events.sol\":4071:4425  function postaKoduGuncelle(uint256 _siparisId, string memory _posta) ... */\n    tag_7:\n      tag_28\n      0x04\n      dup1\n      calldatasize\n      sub\n      dup2\n      add\n      swap1\n      tag_29\n      swap2\n      swap1\n      tag_30\n      jump\t// in\n    tag_29:\n      tag_31\n      jump\t// in\n    tag_28:\n      stop\n        /* \"contracts/events.sol\":999:1026  Siparis[] public siparisler */\n    tag_8:\n      tag_32\n      0x04\n      dup1\n      calldatasize\n      sub\n      dup2\n      add\n      swap1\n      tag_33\n      swap2\n      swap1\n      tag_13\n      jump\t// in\n    tag_33:\n      tag_34\n      jump\t// in\n    tag_32:\n      mload(0x40)\n      tag_35\n      swap4\n      swap3\n      swap2\n      swap1\n      tag_36\n      jump\t// in\n    tag_35:\n      mload(0x40)\n      dup1\n      swap2\n      sub\n      swap1\n      return\n        /* \"contracts/events.sol\":2178:2731  function siparisOlustur(string memory _postaKodu, uint256[] memory _urunler) ... */\n    tag_9:\n      tag_37\n      0x04\n      dup1\n      calldatasize\n      sub\n      dup2\n      add\n      swap1\n      tag_38\n      swap2\n      swap1\n      tag_39\n      jump\t// in\n    tag_38:\n      tag_40\n      jump\t// in\n    tag_37:\n      mload(0x40)\n      tag_41\n      swap2\n      swap1\n      tag_18\n      jump\t// in\n    tag_41:\n      mload(0x40)\n      dup1\n      swap2\n      sub\n      swap1\n      return\n        /* \"contracts/events.sol\":2886:3478  function siparisIlerle(uint256 _siparisId) ... */\n    tag_14:\n        /* \"contracts/events.sol\":2954:2964  _siparisId */\n      dup1\n        /* \"contracts/events.sol\":4864:4874  siparisler */\n      0x00\n        /* \"contracts/events.sol\":4864:4881  siparisler.length */\n      dup1\n      sload\n      swap1\n      pop\n        /* \"contracts/events.sol\":4851:4861  _siparisId */\n      dup2\n        /* \"contracts/events.sol\":4851:4881  _siparisId < siparisler.length */\n      lt\n        /* \"contracts/events.sol\":4843:4918  require(_siparisId < siparisler.length, \"Gecerli bir siparis ID'si degil.\") */\n      tag_43\n      jumpi\n      mload(0x40)\n      0x08c379a000000000000000000000000000000000000000000000000000000000\n      dup2\n      mstore\n      0x04\n      add\n      tag_44\n      swap1\n      tag_45\n      jump\t// in\n    tag_44:\n      mload(0x40)\n      dup1\n      swap2\n      sub\n      swap1\n      revert\n    tag_43:\n        /* \"contracts/events.sol\":5256:5261  sahip */\n      0x01\n      0x00\n      swap1\n      sload\n      swap1\n      0x0100\n      exp\n      swap1\n      div\n      0xffffffffffffffffffffffffffffffffffffffff\n      and\n        /* \"contracts/events.sol\":5242:5261  msg.sender == sahip */\n      0xffffffffffffffffffffffffffffffffffffffff\n      and\n        /* \"contracts/events.sol\":5242:5252  msg.sender */\n      caller\n        /* \"contracts/events.sol\":5242:5261  msg.sender == sahip */\n      0xffffffffffffffffffffffffffffffffffffffff\n      and\n      eq\n        /* \"contracts/events.sol\":5234:5279  require(msg.sender == sahip, \"Yetkiniz yok.\") */\n      tag_47\n      jumpi\n      mload(0x40)\n      0x08c379a000000000000000000000000000000000000000000000000000000000\n      dup2\n      mstore\n      0x04\n      add\n      tag_48\n      swap1\n      tag_49\n      jump\t// in\n    tag_48:\n      mload(0x40)\n      dup1\n      swap2\n      sub\n      swap1\n      revert\n    tag_47:\n        /* \"contracts/events.sol\":3022:3045  Siparis storage siparis */\n      0x00\n        /* \"contracts/events.sol\":3048:3058  siparisler */\n      0x00\n        /* \"contracts/events.sol\":3059:3069  _siparisId */\n      dup4\n        /* \"contracts/events.sol\":3048:3070  siparisler[_siparisId] */\n      dup2\n      sload\n      dup2\n      lt\n      tag_51\n      jumpi\n      tag_52\n      tag_53\n      jump\t// in\n    tag_52:\n    tag_51:\n      swap1\n      0x00\n      mstore\n      keccak256(0x00, 0x20)\n      swap1\n      0x04\n      mul\n      add\n        /* \"contracts/events.sol\":3022:3070  Siparis storage siparis = siparisler[_siparisId] */\n      swap1\n      pop\n        /* \"contracts/events.sol\":3106:3122  Durum.Kargolandi */\n      0x03\n        /* \"contracts/events.sol\":3089:3122  siparis.durum != Durum.Kargolandi */\n      dup1\n      dup2\n      gt\n      iszero\n      tag_55\n      jumpi\n      tag_56\n      tag_57\n      jump\t// in\n    tag_56:\n    tag_55:\n        /* \"contracts/events.sol\":3089:3096  siparis */\n      dup2\n        /* \"contracts/events.sol\":3089:3102  siparis.durum */\n      0x03\n      add\n      0x00\n      swap1\n      sload\n      swap1\n      0x0100\n      exp\n      swap1\n      div\n      0xff\n      and\n        /* \"contracts/events.sol\":3089:3122  siparis.durum != Durum.Kargolandi */\n      0x03\n      dup2\n      gt\n      iszero\n      tag_58\n      jumpi\n      tag_59\n      tag_57\n      jump\t// in\n    tag_59:\n    tag_58:\n      sub\n        /* \"contracts/events.sol\":3081:3152  require(siparis.durum != Durum.Kargolandi, \"Siparis zaten kargolandi.\") */\n      tag_60\n      jumpi\n      mload(0x40)\n      0x08c379a000000000000000000000000000000000000000000000000000000000\n      dup2\n      mstore\n      0x04\n      add\n      tag_61\n      swap1\n      tag_62\n      jump\t// in\n    tag_61:\n      mload(0x40)\n      dup1\n      swap2\n      sub\n      swap1\n      revert\n    tag_60:\n        /* \"contracts/events.sol\":3186:3198  Durum.Alindi */\n      0x00\n        /* \"contracts/events.sol\":3169:3198  siparis.durum == Durum.Alindi */\n      0x03\n      dup2\n      gt\n      iszero\n      tag_63\n      jumpi\n      tag_64\n      tag_57\n      jump\t// in\n    tag_64:\n    tag_63:\n        /* \"contracts/events.sol\":3169:3176  siparis */\n      dup2\n        /* \"contracts/events.sol\":3169:3182  siparis.durum */\n      0x03\n      add\n      0x00\n      swap1\n      sload\n      swap1\n      0x0100\n      exp\n      swap1\n      div\n      0xff\n      and\n        /* \"contracts/events.sol\":3169:3198  siparis.durum == Durum.Alindi */\n      0x03\n      dup2\n      gt\n      iszero\n      tag_65\n      jumpi\n      tag_66\n      tag_57\n      jump\t// in\n    tag_66:\n    tag_65:\n      sub\n        /* \"contracts/events.sol\":3165:3471  if (siparis.durum == Durum.Alindi) {... */\n      tag_67\n      jumpi\n        /* \"contracts/events.sol\":3231:3249  Durum.Hazirlaniyor */\n      0x01\n        /* \"contracts/events.sol\":3215:3222  siparis */\n      dup2\n        /* \"contracts/events.sol\":3215:3228  siparis.durum */\n      0x03\n      add\n      0x00\n        /* \"contracts/events.sol\":3215:3249  siparis.durum = Durum.Hazirlaniyor */\n      0x0100\n      exp\n      dup2\n      sload\n      dup2\n      0xff\n      mul\n      not\n      and\n      swap1\n      dup4\n      0x03\n      dup2\n      gt\n      iszero\n      tag_68\n      jumpi\n      tag_69\n      tag_57\n      jump\t// in\n    tag_69:\n    tag_68:\n      mul\n      or\n      swap1\n      sstore\n      pop\n        /* \"contracts/events.sol\":3165:3471  if (siparis.durum == Durum.Alindi) {... */\n      jump(tag_70)\n    tag_67:\n        /* \"contracts/events.sol\":3288:3306  Durum.Hazirlaniyor */\n      0x01\n        /* \"contracts/events.sol\":3271:3306  siparis.durum == Durum.Hazirlaniyor */\n      0x03\n      dup2\n      gt\n      iszero\n      tag_71\n      jumpi\n      tag_72\n      tag_57\n      jump\t// in\n    tag_72:\n    tag_71:\n        /* \"contracts/events.sol\":3271:3278  siparis */\n      dup2\n        /* \"contracts/events.sol\":3271:3284  siparis.durum */\n      0x03\n      add\n      0x00\n      swap1\n      sload\n      swap1\n      0x0100\n      exp\n      swap1\n      div\n      0xff\n      and\n        /* \"contracts/events.sol\":3271:3306  siparis.durum == Durum.Hazirlaniyor */\n      0x03\n      dup2\n      gt\n      iszero\n      tag_73\n      jumpi\n      tag_74\n      tag_57\n      jump\t// in\n    tag_74:\n    tag_73:\n      sub\n        /* \"contracts/events.sol\":3267:3471  if (siparis.durum == Durum.Hazirlaniyor) {... */\n      tag_75\n      jumpi\n        /* \"contracts/events.sol\":3339:3355  Durum.Paketlendi */\n      0x02\n        /* \"contracts/events.sol\":3323:3330  siparis */\n      dup2\n        /* \"contracts/events.sol\":3323:3336  siparis.durum */\n      0x03\n      add\n      0x00\n        /* \"contracts/events.sol\":3323:3355  siparis.durum = Durum.Paketlendi */\n      0x0100\n      exp\n      dup2\n      sload\n      dup2\n      0xff\n      mul\n      not\n      and\n      swap1\n      dup4\n      0x03\n      dup2\n      gt\n      iszero\n      tag_76\n      jumpi\n      tag_77\n      tag_57\n      jump\t// in\n    tag_77:\n    tag_76:\n      mul\n      or\n      swap1\n      sstore\n      pop\n        /* \"contracts/events.sol\":3267:3471  if (siparis.durum == Durum.Hazirlaniyor) {... */\n      jump(tag_78)\n    tag_75:\n        /* \"contracts/events.sol\":3394:3410  Durum.Paketlendi */\n      0x02\n        /* \"contracts/events.sol\":3377:3410  siparis.durum == Durum.Paketlendi */\n      0x03\n      dup2\n      gt\n      iszero\n      tag_79\n      jumpi\n      tag_80\n      tag_57\n      jump\t// in\n    tag_80:\n    tag_79:\n        /* \"contracts/events.sol\":3377:3384  siparis */\n      dup2\n        /* \"contracts/events.sol\":3377:3390  siparis.durum */\n      0x03\n      add\n      0x00\n      swap1\n      sload\n      swap1\n      0x0100\n      exp\n      swap1\n      div\n      0xff\n      and\n        /* \"contracts/events.sol\":3377:3410  siparis.durum == Durum.Paketlendi */\n      0x03\n      dup2\n      gt\n      iszero\n      tag_81\n      jumpi\n      tag_82\n      tag_57\n      jump\t// in\n    tag_82:\n    tag_81:\n      sub\n        /* \"contracts/events.sol\":3373:3471  if (siparis.durum == Durum.Paketlendi) {... */\n      tag_83\n      jumpi\n        /* \"contracts/events.sol\":3443:3459  Durum.Kargolandi */\n      0x03\n        /* \"contracts/events.sol\":3427:3434  siparis */\n      dup2\n        /* \"contracts/events.sol\":3427:3440  siparis.durum */\n      0x03\n      add\n      0x00\n        /* \"contracts/events.sol\":3427:3459  siparis.durum = Durum.Kargolandi */\n      0x0100\n      exp\n      dup2\n      sload\n      dup2\n      0xff\n      mul\n      not\n      and\n      swap1\n      dup4\n      0x03\n      dup2\n      gt\n      iszero\n      tag_84\n      jumpi\n      tag_85\n      tag_57\n      jump\t// in\n    tag_85:\n    tag_84:\n      mul\n      or\n      swap1\n      sstore\n      pop\n        /* \"contracts/events.sol\":3373:3471  if (siparis.durum == Durum.Paketlendi) {... */\n    tag_83:\n        /* \"contracts/events.sol\":3267:3471  if (siparis.durum == Durum.Hazirlaniyor) {... */\n    tag_78:\n        /* \"contracts/events.sol\":3165:3471  if (siparis.durum == Durum.Alindi) {... */\n    tag_70:\n        /* \"contracts/events.sol\":3011:3478  {... */\n      pop\n        /* \"contracts/events.sol\":2886:3478  function siparisIlerle(uint256 _siparisId) ... */\n      pop\n      pop\n      jump\t// out\n        /* \"contracts/events.sol\":1176:1202  uint256 public islemSayisi */\n    tag_16:\n      sload(0x02)\n      dup2\n      jump\t// out\n        /* \"contracts/events.sol\":3679:3881  function siparisGetir(uint256 _siparisId) ... */\n    tag_21:\n        /* \"contracts/events.sol\":3811:3825  Siparis memory */\n      tag_86\n      tag_87\n      jump\t// in\n    tag_86:\n        /* \"contracts/events.sol\":3746:3756  _siparisId */\n      dup2\n        /* \"contracts/events.sol\":4864:4874  siparisler */\n      0x00\n        /* \"contracts/events.sol\":4864:4881  siparisler.length */\n      dup1\n      sload\n      swap1\n      pop\n        /* \"contracts/events.sol\":4851:4861  _siparisId */\n      dup2\n        /* \"contracts/events.sol\":4851:4881  _siparisId < siparisler.length */\n      lt\n        /* \"contracts/events.sol\":4843:4918  require(_siparisId < siparisler.length, \"Gecerli bir siparis ID'si degil.\") */\n      tag_89\n      jumpi\n      mload(0x40)\n      0x08c379a000000000000000000000000000000000000000000000000000000000\n      dup2\n      mstore\n      0x04\n      add\n      tag_90\n      swap1\n      tag_45\n      jump\t// in\n    tag_90:\n      mload(0x40)\n      dup1\n      swap2\n      sub\n      swap1\n      revert\n    tag_89:\n        /* \"contracts/events.sol\":3851:3861  siparisler */\n      0x00\n        /* \"contracts/events.sol\":3862:3872  _siparisId */\n      dup4\n        /* \"contracts/events.sol\":3851:3873  siparisler[_siparisId] */\n      dup2\n      sload\n      dup2\n      lt\n      tag_92\n      jumpi\n      tag_93\n      tag_53\n      jump\t// in\n    tag_93:\n    tag_92:\n      swap1\n      0x00\n      mstore\n      keccak256(0x00, 0x20)\n      swap1\n      0x04\n      mul\n      add\n        /* \"contracts/events.sol\":3844:3873  return siparisler[_siparisId] */\n      mload(0x40)\n      dup1\n      0x80\n      add\n      0x40\n      mstore\n      swap1\n      dup2\n      0x00\n      dup3\n      add\n      0x00\n      swap1\n      sload\n      swap1\n      0x0100\n      exp\n      swap1\n      div\n      0xffffffffffffffffffffffffffffffffffffffff\n      and\n      0xffffffffffffffffffffffffffffffffffffffff\n      and\n      0xffffffffffffffffffffffffffffffffffffffff\n      and\n      dup2\n      mstore\n      0x20\n      add\n      0x01\n      dup3\n      add\n      dup1\n      sload\n      tag_95\n      swap1\n      tag_96\n      jump\t// in\n    tag_95:\n      dup1\n      0x1f\n      add\n      0x20\n      dup1\n      swap2\n      div\n      mul\n      0x20\n      add\n      mload(0x40)\n      swap1\n      dup2\n      add\n      0x40\n      mstore\n      dup1\n      swap3\n      swap2\n      swap1\n      dup2\n      dup2\n      mstore\n      0x20\n      add\n      dup3\n      dup1\n      sload\n      tag_97\n      swap1\n      tag_96\n      jump\t// in\n    tag_97:\n      dup1\n      iszero\n      tag_98\n      jumpi\n      dup1\n      0x1f\n      lt\n      tag_99\n      jumpi\n      0x0100\n      dup1\n      dup4\n      sload\n      div\n      mul\n      dup4\n      mstore\n      swap2\n      0x20\n      add\n      swap2\n      jump(tag_98)\n    tag_99:\n      dup3\n      add\n      swap2\n      swap1\n      0x00\n      mstore\n      keccak256(0x00, 0x20)\n      swap1\n    tag_100:\n      dup2\n      sload\n      dup2\n      mstore\n      swap1\n      0x01\n      add\n      swap1\n      0x20\n      add\n      dup1\n      dup4\n      gt\n      tag_100\n      jumpi\n      dup3\n      swap1\n      sub\n      0x1f\n      and\n      dup3\n      add\n      swap2\n    tag_98:\n      pop\n      pop\n      pop\n      pop\n      pop\n      dup2\n      mstore\n      0x20\n      add\n      0x02\n      dup3\n      add\n      dup1\n      sload\n      dup1\n      0x20\n      mul\n      0x20\n      add\n      mload(0x40)\n      swap1\n      dup2\n      add\n      0x40\n      mstore\n      dup1\n      swap3\n      swap2\n      swap1\n      dup2\n      dup2\n      mstore\n      0x20\n      add\n      dup3\n      dup1\n      sload\n      dup1\n      iszero\n      tag_101\n      jumpi\n      0x20\n      mul\n      dup3\n      add\n      swap2\n      swap1\n      0x00\n      mstore\n      keccak256(0x00, 0x20)\n      swap1\n    tag_102:\n      dup2\n      sload\n      dup2\n      mstore\n      0x20\n      add\n      swap1\n      0x01\n      add\n      swap1\n      dup1\n      dup4\n      gt\n      tag_102\n      jumpi\n    tag_101:\n      pop\n      pop\n      pop\n      pop\n      pop\n      dup2\n      mstore\n      0x20\n      add\n      0x03\n      dup3\n      add\n      0x00\n      swap1\n      sload\n      swap1\n      0x0100\n      exp\n      swap1\n      div\n      0xff\n      and\n      0x03\n      dup2\n      gt\n      iszero\n      tag_103\n      jumpi\n      tag_104\n      tag_57\n      jump\t// in\n    tag_104:\n    tag_103:\n      0x03\n      dup2\n      gt\n      iszero\n      tag_105\n      jumpi\n      tag_106\n      tag_57\n      jump\t// in\n    tag_106:\n    tag_105:\n      dup2\n      mstore\n      pop\n      pop\n      swap2\n      pop\n        /* \"contracts/events.sol\":3679:3881  function siparisGetir(uint256 _siparisId) ... */\n      pop\n      swap2\n      swap1\n      pop\n      jump\t// out\n        /* \"contracts/events.sol\":1073:1093  address public sahip */\n    tag_25:\n      0x01\n      0x00\n      swap1\n      sload\n      swap1\n      0x0100\n      exp\n      swap1\n      div\n      0xffffffffffffffffffffffffffffffffffffffff\n      and\n      dup2\n      jump\t// out\n        /* \"contracts/events.sol\":4071:4425  function postaKoduGuncelle(uint256 _siparisId, string memory _posta) ... */\n    tag_31:\n        /* \"contracts/events.sol\":4164:4174  _siparisId */\n      dup2\n        /* \"contracts/events.sol\":5589:5599  msg.sender */\n      caller\n        /* \"contracts/events.sol\":5555:5599  siparisler[_siparisId].musteri == msg.sender */\n      0xffffffffffffffffffffffffffffffffffffffff\n      and\n        /* \"contracts/events.sol\":5555:5565  siparisler */\n      0x00\n        /* \"contracts/events.sol\":5566:5576  _siparisId */\n      dup3\n        /* \"contracts/events.sol\":5555:5577  siparisler[_siparisId] */\n      dup2\n      sload\n      dup2\n      lt\n      tag_108\n      jumpi\n      tag_109\n      tag_53\n      jump\t// in\n    tag_109:\n    tag_108:\n      swap1\n      0x00\n      mstore\n      keccak256(0x00, 0x20)\n      swap1\n      0x04\n      mul\n      add\n        /* \"contracts/events.sol\":5555:5585  siparisler[_siparisId].musteri */\n      0x00\n      add\n      0x00\n      swap1\n      sload\n      swap1\n      0x0100\n      exp\n      swap1\n      div\n      0xffffffffffffffffffffffffffffffffffffffff\n      and\n        /* \"contracts/events.sol\":5555:5599  siparisler[_siparisId].musteri == msg.sender */\n      0xffffffffffffffffffffffffffffffffffffffff\n      and\n      eq\n        /* \"contracts/events.sol\":5547:5632  require(siparisler[_siparisId].musteri == msg.sender, \"Siparisin sahibi degilsiniz.\") */\n      tag_111\n      jumpi\n      mload(0x40)\n      0x08c379a000000000000000000000000000000000000000000000000000000000\n      dup2\n      mstore\n      0x04\n      add\n      tag_112\n      swap1\n      tag_113\n      jump\t// in\n    tag_112:\n      mload(0x40)\n      dup1\n      swap2\n      sub\n      swap1\n      revert\n    tag_111:\n        /* \"contracts/events.sol\":4222:4232  _siparisId */\n      dup3\n        /* \"contracts/events.sol\":4864:4874  siparisler */\n      0x00\n        /* \"contracts/events.sol\":4864:4881  siparisler.length */\n      dup1\n      sload\n      swap1\n      pop\n        /* \"contracts/events.sol\":4851:4861  _siparisId */\n      dup2\n        /* \"contracts/events.sol\":4851:4881  _siparisId < siparisler.length */\n      lt\n        /* \"contracts/events.sol\":4843:4918  require(_siparisId < siparisler.length, \"Gecerli bir siparis ID'si degil.\") */\n      tag_116\n      jumpi\n      mload(0x40)\n      0x08c379a000000000000000000000000000000000000000000000000000000000\n      dup2\n      mstore\n      0x04\n      add\n      tag_117\n      swap1\n      tag_45\n      jump\t// in\n    tag_117:\n      mload(0x40)\n      dup1\n      swap2\n      sub\n      swap1\n      revert\n    tag_116:\n        /* \"contracts/events.sol\":4278:4301  Siparis storage siparis */\n      0x00\n        /* \"contracts/events.sol\":4304:4314  siparisler */\n      0x00\n        /* \"contracts/events.sol\":4315:4325  _siparisId */\n      dup6\n        /* \"contracts/events.sol\":4304:4326  siparisler[_siparisId] */\n      dup2\n      sload\n      dup2\n      lt\n      tag_119\n      jumpi\n      tag_120\n      tag_53\n      jump\t// in\n    tag_120:\n    tag_119:\n      swap1\n      0x00\n      mstore\n      keccak256(0x00, 0x20)\n      swap1\n      0x04\n      mul\n      add\n        /* \"contracts/events.sol\":4278:4326  Siparis storage siparis = siparisler[_siparisId] */\n      swap1\n      pop\n        /* \"contracts/events.sol\":4357:4363  _posta */\n      dup4\n        /* \"contracts/events.sol\":4337:4344  siparis */\n      dup2\n        /* \"contracts/events.sol\":4337:4354  siparis.postaKodu */\n      0x01\n      add\n        /* \"contracts/events.sol\":4337:4363  siparis.postaKodu = _posta */\n      swap1\n      dup2\n      tag_122\n      swap2\n      swap1\n      tag_123\n      jump\t// in\n    tag_122:\n      pop\n        /* \"contracts/events.sol\":4381:4417  PostaKoduDegisti(_siparisId, _posta) */\n      0xa4425de20ad85e10fe61da0d44ee70412074f8e57b83bf2bf768455030595fec\n        /* \"contracts/events.sol\":4398:4408  _siparisId */\n      dup6\n        /* \"contracts/events.sol\":4410:4416  _posta */\n      dup6\n        /* \"contracts/events.sol\":4381:4417  PostaKoduDegisti(_siparisId, _posta) */\n      mload(0x40)\n      tag_124\n      swap3\n      swap2\n      swap1\n      tag_125\n      jump\t// in\n    tag_124:\n      mload(0x40)\n      dup1\n      swap2\n      sub\n      swap1\n      log1\n        /* \"contracts/events.sol\":4259:4425  {        ... */\n      pop\n        /* \"contracts/events.sol\":5051:5052  _ */\n      pop\n        /* \"contracts/events.sol\":5063:5074  islemSayisi */\n      0x02\n      0x00\n        /* \"contracts/events.sol\":5063:5076  islemSayisi++ */\n      dup2\n      sload\n      dup1\n      swap3\n      swap2\n      swap1\n      tag_126\n      swap1\n      tag_127\n      jump\t// in\n    tag_126:\n      swap2\n      swap1\n      pop\n      sstore\n      pop\n        /* \"contracts/events.sol\":4071:4425  function postaKoduGuncelle(uint256 _siparisId, string memory _posta) ... */\n      pop\n      pop\n      pop\n      jump\t// out\n        /* \"contracts/events.sol\":999:1026  Siparis[] public siparisler */\n    tag_34:\n      0x00\n      dup2\n      dup2\n      sload\n      dup2\n      lt\n      tag_128\n      jumpi\n      0x00\n      dup1\n      revert\n    tag_128:\n      swap1\n      0x00\n      mstore\n      keccak256(0x00, 0x20)\n      swap1\n      0x04\n      mul\n      add\n      0x00\n      swap2\n      pop\n      swap1\n      pop\n      dup1\n      0x00\n      add\n      0x00\n      swap1\n      sload\n      swap1\n      0x0100\n      exp\n      swap1\n      div\n      0xffffffffffffffffffffffffffffffffffffffff\n      and\n      swap1\n      dup1\n      0x01\n      add\n      dup1\n      sload\n      tag_130\n      swap1\n      tag_96\n      jump\t// in\n    tag_130:\n      dup1\n      0x1f\n      add\n      0x20\n      dup1\n      swap2\n      div\n      mul\n      0x20\n      add\n      mload(0x40)\n      swap1\n      dup2\n      add\n      0x40\n      mstore\n      dup1\n      swap3\n      swap2\n      swap1\n      dup2\n      dup2\n      mstore\n      0x20\n      add\n      dup3\n      dup1\n      sload\n      tag_131\n      swap1\n      tag_96\n      jump\t// in\n    tag_131:\n      dup1\n      iszero\n      tag_132\n      jumpi\n      dup1\n      0x1f\n      lt\n      tag_133\n      jumpi\n      0x0100\n      dup1\n      dup4\n      sload\n      div\n      mul\n      dup4\n      mstore\n      swap2\n      0x20\n      add\n      swap2\n      jump(tag_132)\n    tag_133:\n      dup3\n      add\n      swap2\n      swap1\n      0x00\n      mstore\n      keccak256(0x00, 0x20)\n      swap1\n    tag_134:\n      dup2\n      sload\n      dup2\n      mstore\n      swap1\n      0x01\n      add\n      swap1\n      0x20\n      add\n      dup1\n      dup4\n      gt\n      tag_134\n      jumpi\n      dup3\n      swap1\n      sub\n      0x1f\n      and\n      dup3\n      add\n      swap2\n    tag_132:\n      pop\n      pop\n      pop\n      pop\n      pop\n      swap1\n      dup1\n      0x03\n      add\n      0x00\n      swap1\n      sload\n      swap1\n      0x0100\n      exp\n      swap1\n      div\n      0xff\n      and\n      swap1\n      pop\n      dup4\n      jump\t// out\n        /* \"contracts/events.sol\":2178:2731  function siparisOlustur(string memory _postaKodu, uint256[] memory _urunler) ... */\n    tag_40:\n        /* \"contracts/events.sol\":2346:2353  uint256 */\n      0x00\n        /* \"contracts/events.sol\":2298:2306  _urunler */\n      dup2\n        /* \"contracts/events.sol\":4639:4640  0 */\n      0x00\n        /* \"contracts/events.sol\":4621:4629  _urunler */\n      dup2\n        /* \"contracts/events.sol\":4621:4636  _urunler.length */\n      mload\n        /* \"contracts/events.sol\":4621:4640  _urunler.length > 0 */\n      gt\n        /* \"contracts/events.sol\":4613:4654  require(_urunler.length > 0, \"Urun yok.\") */\n      tag_137\n      jumpi\n      mload(0x40)\n      0x08c379a000000000000000000000000000000000000000000000000000000000\n      dup2\n      mstore\n      0x04\n      add\n      tag_138\n      swap1\n      tag_139\n      jump\t// in\n    tag_138:\n      mload(0x40)\n      dup1\n      swap2\n      sub\n      swap1\n      revert\n    tag_137:\n        /* \"contracts/events.sol\":2372:2398  Siparis memory yeniSiparis */\n      tag_141\n      tag_87\n      jump\t// in\n    tag_141:\n        /* \"contracts/events.sol\":2431:2441  msg.sender */\n      caller\n        /* \"contracts/events.sol\":2409:2420  yeniSiparis */\n      dup2\n        /* \"contracts/events.sol\":2409:2428  yeniSiparis.musteri */\n      0x00\n      add\n        /* \"contracts/events.sol\":2409:2441  yeniSiparis.musteri = msg.sender */\n      swap1\n      0xffffffffffffffffffffffffffffffffffffffff\n      and\n      swap1\n      dup2\n      0xffffffffffffffffffffffffffffffffffffffff\n      and\n      dup2\n      mstore\n      pop\n      pop\n        /* \"contracts/events.sol\":2476:2486  _postaKodu */\n      dup5\n        /* \"contracts/events.sol\":2452:2463  yeniSiparis */\n      dup2\n        /* \"contracts/events.sol\":2452:2473  yeniSiparis.postaKodu */\n      0x20\n      add\n        /* \"contracts/events.sol\":2452:2486  yeniSiparis.postaKodu = _postaKodu */\n      dup2\n      swap1\n      mstore\n      pop\n        /* \"contracts/events.sol\":2519:2527  _urunler */\n      dup4\n        /* \"contracts/events.sol\":2497:2508  yeniSiparis */\n      dup2\n        /* \"contracts/events.sol\":2497:2516  yeniSiparis.urunler */\n      0x40\n      add\n        /* \"contracts/events.sol\":2497:2527  yeniSiparis.urunler = _urunler */\n      dup2\n      swap1\n      mstore\n      pop\n        /* \"contracts/events.sol\":2558:2570  Durum.Alindi */\n      0x00\n        /* \"contracts/events.sol\":2538:2549  yeniSiparis */\n      dup2\n        /* \"contracts/events.sol\":2538:2555  yeniSiparis.durum */\n      0x60\n      add\n        /* \"contracts/events.sol\":2538:2570  yeniSiparis.durum = Durum.Alindi */\n      swap1\n      0x03\n      dup2\n      gt\n      iszero\n      tag_142\n      jumpi\n      tag_143\n      tag_57\n      jump\t// in\n    tag_143:\n    tag_142:\n      swap1\n      dup2\n      0x03\n      dup2\n      gt\n      iszero\n      tag_144\n      jumpi\n      tag_145\n      tag_57\n      jump\t// in\n    tag_145:\n    tag_144:\n      dup2\n      mstore\n      pop\n      pop\n        /* \"contracts/events.sol\":2583:2593  siparisler */\n      0x00\n        /* \"contracts/events.sol\":2599:2610  yeniSiparis */\n      dup2\n        /* \"contracts/events.sol\":2583:2611  siparisler.push(yeniSiparis) */\n      swap1\n      dup1\n      0x01\n      dup2\n      sload\n      add\n      dup1\n      dup3\n      sstore\n      dup1\n      swap2\n      pop\n      pop\n      0x01\n      swap1\n      sub\n      swap1\n      0x00\n      mstore\n      keccak256(0x00, 0x20)\n      swap1\n      0x04\n      mul\n      add\n      0x00\n      swap1\n      swap2\n      swap1\n      swap2\n      swap1\n      swap2\n      pop\n      0x00\n      dup3\n      add\n      mload\n      dup2\n      0x00\n      add\n      exp(0x0100, 0x00)\n      dup2\n      sload\n      dup2\n      0xffffffffffffffffffffffffffffffffffffffff\n      mul\n      not\n      and\n      swap1\n      dup4\n      0xffffffffffffffffffffffffffffffffffffffff\n      and\n      mul\n      or\n      swap1\n      sstore\n      pop\n      0x20\n      dup3\n      add\n      mload\n      dup2\n      0x01\n      add\n      swap1\n      dup2\n      tag_147\n      swap2\n      swap1\n      tag_123\n      jump\t// in\n    tag_147:\n      pop\n      0x40\n      dup3\n      add\n      mload\n      dup2\n      0x02\n      add\n      swap1\n      dup1\n      mload\n      swap1\n      0x20\n      add\n      swap1\n      tag_148\n      swap3\n      swap2\n      swap1\n      tag_149\n      jump\t// in\n    tag_148:\n      pop\n      0x60\n      dup3\n      add\n      mload\n      dup2\n      0x03\n      add\n      exp(0x0100, 0x00)\n      dup2\n      sload\n      dup2\n      0xff\n      mul\n      not\n      and\n      swap1\n      dup4\n      0x03\n      dup2\n      gt\n      iszero\n      tag_150\n      jumpi\n      tag_151\n      tag_57\n      jump\t// in\n    tag_151:\n    tag_150:\n      mul\n      or\n      swap1\n      sstore\n      pop\n      pop\n      pop\n        /* \"contracts/events.sol\":2671:2681  msg.sender */\n      caller\n        /* \"contracts/events.sol\":2629:2682  SiparisOlusturuldu(siparisler.length - 1, msg.sender) */\n      0xffffffffffffffffffffffffffffffffffffffff\n      and\n      0xceb364ed4480534a1a9ef99d016b236e2facaaa4c02da707932b1ef14d7c9030\n        /* \"contracts/events.sol\":2668:2669  1 */\n      0x01\n        /* \"contracts/events.sol\":2648:2658  siparisler */\n      0x00\n        /* \"contracts/events.sol\":2648:2665  siparisler.length */\n      dup1\n      sload\n      swap1\n      pop\n        /* \"contracts/events.sol\":2648:2669  siparisler.length - 1 */\n      tag_152\n      swap2\n      swap1\n      tag_153\n      jump\t// in\n    tag_152:\n        /* \"contracts/events.sol\":2629:2682  SiparisOlusturuldu(siparisler.length - 1, msg.sender) */\n      mload(0x40)\n      tag_154\n      swap2\n      swap1\n      tag_18\n      jump\t// in\n    tag_154:\n      mload(0x40)\n      dup1\n      swap2\n      sub\n      swap1\n      log2\n        /* \"contracts/events.sol\":2722:2723  1 */\n      0x01\n        /* \"contracts/events.sol\":2702:2712  siparisler */\n      0x00\n        /* \"contracts/events.sol\":2702:2719  siparisler.length */\n      dup1\n      sload\n      swap1\n      pop\n        /* \"contracts/events.sol\":2702:2723  siparisler.length - 1 */\n      tag_155\n      swap2\n      swap1\n      tag_153\n      jump\t// in\n    tag_155:\n        /* \"contracts/events.sol\":2695:2723  return siparisler.length - 1 */\n      swap3\n      pop\n      pop\n        /* \"contracts/events.sol\":5051:5052  _ */\n      pop\n        /* \"contracts/events.sol\":5063:5074  islemSayisi */\n      0x02\n      0x00\n        /* \"contracts/events.sol\":5063:5076  islemSayisi++ */\n      dup2\n      sload\n      dup1\n      swap3\n      swap2\n      swap1\n      tag_156\n      swap1\n      tag_127\n      jump\t// in\n    tag_156:\n      swap2\n      swap1\n      pop\n      sstore\n      pop\n        /* \"contracts/events.sol\":2178:2731  function siparisOlustur(string memory _postaKodu, uint256[] memory _urunler) ... */\n      swap3\n      swap2\n      pop\n      pop\n      jump\t// out\n    tag_87:\n      mload(0x40)\n      dup1\n      0x80\n      add\n      0x40\n      mstore\n      dup1\n      and(0xffffffffffffffffffffffffffffffffffffffff, 0x00)\n      dup2\n      mstore\n      0x20\n      add\n      0x60\n      dup2\n      mstore\n      0x20\n      add\n      0x60\n      dup2\n      mstore\n      0x20\n      add\n      0x00\n      0x03\n      dup2\n      gt\n      iszero\n      tag_157\n      jumpi\n      tag_158\n      tag_57\n      jump\t// in\n    tag_158:\n    tag_157:\n      dup2\n      mstore\n      pop\n      swap1\n      jump\t// out\n    tag_149:\n      dup3\n      dup1\n      sload\n      dup3\n      dup3\n      sstore\n      swap1\n      0x00\n      mstore\n      keccak256(0x00, 0x20)\n      swap1\n      dup2\n      add\n      swap3\n      dup3\n      iszero\n      tag_159\n      jumpi\n      swap2\n      0x20\n      mul\n      dup3\n      add\n    tag_160:\n      dup3\n      dup2\n      gt\n      iszero\n      tag_161\n      jumpi\n      dup3\n      mload\n      dup3\n      sstore\n      swap2\n      0x20\n      add\n      swap2\n      swap1\n      0x01\n      add\n      swap1\n      jump(tag_160)\n    tag_161:\n    tag_159:\n      pop\n      swap1\n      pop\n      tag_162\n      swap2\n      swap1\n      tag_163\n      jump\t// in\n    tag_162:\n      pop\n      swap1\n      jump\t// out\n    tag_163:\n    tag_164:\n      dup1\n      dup3\n      gt\n      iszero\n      tag_165\n      jumpi\n      0x00\n      dup2\n      0x00\n      swap1\n      sstore\n      pop\n      0x01\n      add\n      jump(tag_164)\n    tag_165:\n      pop\n      swap1\n      jump\t// out\n        /* \"#utility.yul\":7:82   */\n    tag_166:\n        /* \"#utility.yul\":40:46   */\n      0x00\n        /* \"#utility.yul\":73:75   */\n      0x40\n        /* \"#utility.yul\":67:76   */\n      mload\n        /* \"#utility.yul\":57:76   */\n      swap1\n      pop\n        /* \"#utility.yul\":7:82   */\n      swap1\n      jump\t// out\n        /* \"#utility.yul\":88:205   */\n    tag_167:\n        /* \"#utility.yul\":197:198   */\n      0x00\n        /* \"#utility.yul\":194:195   */\n      0x00\n        /* \"#utility.yul\":187:199   */\n      revert\n        /* \"#utility.yul\":211:328   */\n    tag_168:\n        /* \"#utility.yul\":320:321   */\n      0x00\n        /* \"#utility.yul\":317:318   */\n      0x00\n        /* \"#utility.yul\":310:322   */\n      revert\n        /* \"#utility.yul\":334:411   */\n    tag_169:\n        /* \"#utility.yul\":371:378   */\n      0x00\n        /* \"#utility.yul\":400:405   */\n      dup2\n        /* \"#utility.yul\":389:405   */\n      swap1\n      pop\n        /* \"#utility.yul\":334:411   */\n      swap2\n      swap1\n      pop\n      jump\t// out\n        /* \"#utility.yul\":417:539   */\n    tag_170:\n        /* \"#utility.yul\":490:514   */\n      tag_243\n        /* \"#utility.yul\":508:513   */\n      dup2\n        /* \"#utility.yul\":490:514   */\n      tag_169\n      jump\t// in\n    tag_243:\n        /* \"#utility.yul\":483:488   */\n      dup2\n        /* \"#utility.yul\":480:515   */\n      eq\n        /* \"#utility.yul\":470:533   */\n      tag_244\n      jumpi\n        /* \"#utility.yul\":529:530   */\n      0x00\n        /* \"#utility.yul\":526:527   */\n      0x00\n        /* \"#utility.yul\":519:531   */\n      revert\n        /* \"#utility.yul\":470:533   */\n    tag_244:\n        /* \"#utility.yul\":417:539   */\n      pop\n      jump\t// out\n        /* \"#utility.yul\":545:684   */\n    tag_171:\n        /* \"#utility.yul\":591:596   */\n      0x00\n        /* \"#utility.yul\":629:635   */\n      dup2\n        /* \"#utility.yul\":616:636   */\n      calldataload\n        /* \"#utility.yul\":607:636   */\n      swap1\n      pop\n        /* \"#utility.yul\":645:678   */\n      tag_246\n        /* \"#utility.yul\":672:677   */\n      dup2\n        /* \"#utility.yul\":645:678   */\n      tag_170\n      jump\t// in\n    tag_246:\n        /* \"#utility.yul\":545:684   */\n      swap3\n      swap2\n      pop\n      pop\n      jump\t// out\n        /* \"#utility.yul\":690:1019   */\n    tag_13:\n        /* \"#utility.yul\":749:755   */\n      0x00\n        /* \"#utility.yul\":798:800   */\n      0x20\n        /* \"#utility.yul\":786:795   */\n      dup3\n        /* \"#utility.yul\":777:784   */\n      dup5\n        /* \"#utility.yul\":773:796   */\n      sub\n        /* \"#utility.yul\":769:801   */\n      slt\n        /* \"#utility.yul\":766:885   */\n      iszero\n      tag_248\n      jumpi\n        /* \"#utility.yul\":804:883   */\n      tag_249\n      tag_167\n      jump\t// in\n    tag_249:\n        /* \"#utility.yul\":766:885   */\n    tag_248:\n        /* \"#utility.yul\":924:925   */\n      0x00\n        /* \"#utility.yul\":949:1002   */\n      tag_250\n        /* \"#utility.yul\":994:1001   */\n      dup5\n        /* \"#utility.yul\":985:991   */\n      dup3\n        /* \"#utility.yul\":974:983   */\n      dup6\n        /* \"#utility.yul\":970:992   */\n      add\n        /* \"#utility.yul\":949:1002   */\n      tag_171\n      jump\t// in\n    tag_250:\n        /* \"#utility.yul\":939:1002   */\n      swap2\n      pop\n        /* \"#utility.yul\":895:1012   */\n      pop\n        /* \"#utility.yul\":690:1019   */\n      swap3\n      swap2\n      pop\n      pop\n      jump\t// out\n        /* \"#utility.yul\":1025:1143   */\n    tag_172:\n        /* \"#utility.yul\":1112:1136   */\n      tag_252\n        /* \"#utility.yul\":1130:1135   */\n      dup2\n        /* \"#utility.yul\":1112:1136   */\n      tag_169\n      jump\t// in\n    tag_252:\n        /* \"#utility.yul\":1107:1110   */\n      dup3\n        /* \"#utility.yul\":1100:1137   */\n      mstore\n        /* \"#utility.yul\":1025:1143   */\n      pop\n      pop\n      jump\t// out\n        /* \"#utility.yul\":1149:1371   */\n    tag_18:\n        /* \"#utility.yul\":1242:1246   */\n      0x00\n        /* \"#utility.yul\":1280:1282   */\n      0x20\n        /* \"#utility.yul\":1269:1278   */\n      dup3\n        /* \"#utility.yul\":1265:1283   */\n      add\n        /* \"#utility.yul\":1257:1283   */\n      swap1\n      pop\n        /* \"#utility.yul\":1293:1364   */\n      tag_254\n        /* \"#utility.yul\":1361:1362   */\n      0x00\n        /* \"#utility.yul\":1350:1359   */\n      dup4\n        /* \"#utility.yul\":1346:1363   */\n      add\n        /* \"#utility.yul\":1337:1343   */\n      dup5\n        /* \"#utility.yul\":1293:1364   */\n      tag_172\n      jump\t// in\n    tag_254:\n        /* \"#utility.yul\":1149:1371   */\n      swap3\n      swap2\n      pop\n      pop\n      jump\t// out\n        /* \"#utility.yul\":1377:1503   */\n    tag_173:\n        /* \"#utility.yul\":1414:1421   */\n      0x00\n        /* \"#utility.yul\":1454:1496   */\n      0xffffffffffffffffffffffffffffffffffffffff\n        /* \"#utility.yul\":1447:1452   */\n      dup3\n        /* \"#utility.yul\":1443:1497   */\n      and\n        /* \"#utility.yul\":1432:1497   */\n      swap1\n      pop\n        /* \"#utility.yul\":1377:1503   */\n      swap2\n      swap1\n      pop\n      jump\t// out\n        /* \"#utility.yul\":1509:1605   */\n    tag_174:\n        /* \"#utility.yul\":1546:1553   */\n      0x00\n        /* \"#utility.yul\":1575:1599   */\n      tag_257\n        /* \"#utility.yul\":1593:1598   */\n      dup3\n        /* \"#utility.yul\":1575:1599   */\n      tag_173\n      jump\t// in\n    tag_257:\n        /* \"#utility.yul\":1564:1599   */\n      swap1\n      pop\n        /* \"#utility.yul\":1509:1605   */\n      swap2\n      swap1\n      pop\n      jump\t// out\n        /* \"#utility.yul\":1611:1719   */\n    tag_175:\n        /* \"#utility.yul\":1688:1712   */\n      tag_259\n        /* \"#utility.yul\":1706:1711   */\n      dup2\n        /* \"#utility.yul\":1688:1712   */\n      tag_174\n      jump\t// in\n    tag_259:\n        /* \"#utility.yul\":1683:1686   */\n      dup3\n        /* \"#utility.yul\":1676:1713   */\n      mstore\n        /* \"#utility.yul\":1611:1719   */\n      pop\n      pop\n      jump\t// out\n        /* \"#utility.yul\":1725:1824   */\n    tag_176:\n        /* \"#utility.yul\":1777:1783   */\n      0x00\n        /* \"#utility.yul\":1811:1816   */\n      dup2\n        /* \"#utility.yul\":1805:1817   */\n      mload\n        /* \"#utility.yul\":1795:1817   */\n      swap1\n      pop\n        /* \"#utility.yul\":1725:1824   */\n      swap2\n      swap1\n      pop\n      jump\t// out\n        /* \"#utility.yul\":1830:1989   */\n    tag_177:\n        /* \"#utility.yul\":1904:1915   */\n      0x00\n        /* \"#utility.yul\":1938:1944   */\n      dup3\n        /* \"#utility.yul\":1933:1936   */\n      dup3\n        /* \"#utility.yul\":1926:1945   */\n      mstore\n        /* \"#utility.yul\":1978:1982   */\n      0x20\n        /* \"#utility.yul\":1973:1976   */\n      dup3\n        /* \"#utility.yul\":1969:1983   */\n      add\n        /* \"#utility.yul\":1954:1983   */\n      swap1\n      pop\n        /* \"#utility.yul\":1830:1989   */\n      swap3\n      swap2\n      pop\n      pop\n      jump\t// out\n        /* \"#utility.yul\":1995:2134   */\n    tag_178:\n        /* \"#utility.yul\":2084:2090   */\n      dup3\n        /* \"#utility.yul\":2079:2082   */\n      dup2\n        /* \"#utility.yul\":2074:2077   */\n      dup4\n        /* \"#utility.yul\":2068:2091   */\n      mcopy\n        /* \"#utility.yul\":2125:2126   */\n      0x00\n        /* \"#utility.yul\":2116:2122   */\n      dup4\n        /* \"#utility.yul\":2111:2114   */\n      dup4\n        /* \"#utility.yul\":2107:2123   */\n      add\n        /* \"#utility.yul\":2100:2127   */\n      mstore\n        /* \"#utility.yul\":1995:2134   */\n      pop\n      pop\n      pop\n      jump\t// out\n        /* \"#utility.yul\":2140:2242   */\n    tag_179:\n        /* \"#utility.yul\":2181:2187   */\n      0x00\n        /* \"#utility.yul\":2232:2234   */\n      0x1f\n        /* \"#utility.yul\":2228:2235   */\n      not\n        /* \"#utility.yul\":2223:2225   */\n      0x1f\n        /* \"#utility.yul\":2216:2221   */\n      dup4\n        /* \"#utility.yul\":2212:2226   */\n      add\n        /* \"#utility.yul\":2208:2236   */\n      and\n        /* \"#utility.yul\":2198:2236   */\n      swap1\n      pop\n        /* \"#utility.yul\":2140:2242   */\n      swap2\n      swap1\n      pop\n      jump\t// out\n        /* \"#utility.yul\":2248:2605   */\n    tag_180:\n        /* \"#utility.yul\":2326:2329   */\n      0x00\n        /* \"#utility.yul\":2354:2393   */\n      tag_265\n        /* \"#utility.yul\":2387:2392   */\n      dup3\n        /* \"#utility.yul\":2354:2393   */\n      tag_176\n      jump\t// in\n    tag_265:\n        /* \"#utility.yul\":2409:2470   */\n      tag_266\n        /* \"#utility.yul\":2463:2469   */\n      dup2\n        /* \"#utility.yul\":2458:2461   */\n      dup6\n        /* \"#utility.yul\":2409:2470   */\n      tag_177\n      jump\t// in\n    tag_266:\n        /* \"#utility.yul\":2402:2470   */\n      swap4\n      pop\n        /* \"#utility.yul\":2479:2544   */\n      tag_267\n        /* \"#utility.yul\":2537:2543   */\n      dup2\n        /* \"#utility.yul\":2532:2535   */\n      dup6\n        /* \"#utility.yul\":2525:2529   */\n      0x20\n        /* \"#utility.yul\":2518:2523   */\n      dup7\n        /* \"#utility.yul\":2514:2530   */\n      add\n        /* \"#utility.yul\":2479:2544   */\n      tag_178\n      jump\t// in\n    tag_267:\n        /* \"#utility.yul\":2569:2598   */\n      tag_268\n        /* \"#utility.yul\":2591:2597   */\n      dup2\n        /* \"#utility.yul\":2569:2598   */\n      tag_179\n      jump\t// in\n    tag_268:\n        /* \"#utility.yul\":2564:2567   */\n      dup5\n        /* \"#utility.yul\":2560:2599   */\n      add\n        /* \"#utility.yul\":2553:2599   */\n      swap2\n      pop\n        /* \"#utility.yul\":2330:2605   */\n      pop\n        /* \"#utility.yul\":2248:2605   */\n      swap3\n      swap2\n      pop\n      pop\n      jump\t// out\n        /* \"#utility.yul\":2611:2725   */\n    tag_181:\n        /* \"#utility.yul\":2678:2684   */\n      0x00\n        /* \"#utility.yul\":2712:2717   */\n      dup2\n        /* \"#utility.yul\":2706:2718   */\n      mload\n        /* \"#utility.yul\":2696:2718   */\n      swap1\n      pop\n        /* \"#utility.yul\":2611:2725   */\n      swap2\n      swap1\n      pop\n      jump\t// out\n        /* \"#utility.yul\":2731:2905   */\n    tag_182:\n        /* \"#utility.yul\":2820:2831   */\n      0x00\n        /* \"#utility.yul\":2854:2860   */\n      dup3\n        /* \"#utility.yul\":2849:2852   */\n      dup3\n        /* \"#utility.yul\":2842:2861   */\n      mstore\n        /* \"#utility.yul\":2894:2898   */\n      0x20\n        /* \"#utility.yul\":2889:2892   */\n      dup3\n        /* \"#utility.yul\":2885:2899   */\n      add\n        /* \"#utility.yul\":2870:2899   */\n      swap1\n      pop\n        /* \"#utility.yul\":2731:2905   */\n      swap3\n      swap2\n      pop\n      pop\n      jump\t// out\n        /* \"#utility.yul\":2911:3043   */\n    tag_183:\n        /* \"#utility.yul\":2978:2982   */\n      0x00\n        /* \"#utility.yul\":3001:3004   */\n      dup2\n        /* \"#utility.yul\":2993:3004   */\n      swap1\n      pop\n        /* \"#utility.yul\":3031:3035   */\n      0x20\n        /* \"#utility.yul\":3026:3029   */\n      dup3\n        /* \"#utility.yul\":3022:3036   */\n      add\n        /* \"#utility.yul\":3014:3036   */\n      swap1\n      pop\n        /* \"#utility.yul\":2911:3043   */\n      swap2\n      swap1\n      pop\n      jump\t// out\n        /* \"#utility.yul\":3049:3157   */\n    tag_184:\n        /* \"#utility.yul\":3126:3150   */\n      tag_273\n        /* \"#utility.yul\":3144:3149   */\n      dup2\n        /* \"#utility.yul\":3126:3150   */\n      tag_169\n      jump\t// in\n    tag_273:\n        /* \"#utility.yul\":3121:3124   */\n      dup3\n        /* \"#utility.yul\":3114:3151   */\n      mstore\n        /* \"#utility.yul\":3049:3157   */\n      pop\n      pop\n      jump\t// out\n        /* \"#utility.yul\":3163:3342   */\n    tag_185:\n        /* \"#utility.yul\":3232:3242   */\n      0x00\n        /* \"#utility.yul\":3253:3299   */\n      tag_275\n        /* \"#utility.yul\":3295:3298   */\n      dup4\n        /* \"#utility.yul\":3287:3293   */\n      dup4\n        /* \"#utility.yul\":3253:3299   */\n      tag_184\n      jump\t// in\n    tag_275:\n        /* \"#utility.yul\":3331:3335   */\n      0x20\n        /* \"#utility.yul\":3326:3329   */\n      dup4\n        /* \"#utility.yul\":3322:3336   */\n      add\n        /* \"#utility.yul\":3308:3336   */\n      swap1\n      pop\n        /* \"#utility.yul\":3163:3342   */\n      swap3\n      swap2\n      pop\n      pop\n      jump\t// out\n        /* \"#utility.yul\":3348:3461   */\n    tag_186:\n        /* \"#utility.yul\":3418:3422   */\n      0x00\n        /* \"#utility.yul\":3450:3454   */\n      0x20\n        /* \"#utility.yul\":3445:3448   */\n      dup3\n        /* \"#utility.yul\":3441:3455   */\n      add\n        /* \"#utility.yul\":3433:3455   */\n      swap1\n      pop\n        /* \"#utility.yul\":3348:3461   */\n      swap2\n      swap1\n      pop\n      jump\t// out\n        /* \"#utility.yul\":3497:4209   */\n    tag_187:\n        /* \"#utility.yul\":3606:3609   */\n      0x00\n        /* \"#utility.yul\":3635:3689   */\n      tag_278\n        /* \"#utility.yul\":3683:3688   */\n      dup3\n        /* \"#utility.yul\":3635:3689   */\n      tag_181\n      jump\t// in\n    tag_278:\n        /* \"#utility.yul\":3705:3781   */\n      tag_279\n        /* \"#utility.yul\":3774:3780   */\n      dup2\n        /* \"#utility.yul\":3769:3772   */\n      dup6\n        /* \"#utility.yul\":3705:3781   */\n      tag_182\n      jump\t// in\n    tag_279:\n        /* \"#utility.yul\":3698:3781   */\n      swap4\n      pop\n        /* \"#utility.yul\":3805:3861   */\n      tag_280\n        /* \"#utility.yul\":3855:3860   */\n      dup4\n        /* \"#utility.yul\":3805:3861   */\n      tag_183\n      jump\t// in\n    tag_280:\n        /* \"#utility.yul\":3884:3891   */\n      dup1\n        /* \"#utility.yul\":3915:3916   */\n      0x00\n        /* \"#utility.yul\":3900:4184   */\n    tag_281:\n        /* \"#utility.yul\":3925:3931   */\n      dup4\n        /* \"#utility.yul\":3922:3923   */\n      dup2\n        /* \"#utility.yul\":3919:3932   */\n      lt\n        /* \"#utility.yul\":3900:4184   */\n      iszero\n      tag_283\n      jumpi\n        /* \"#utility.yul\":4001:4007   */\n      dup2\n        /* \"#utility.yul\":3995:4008   */\n      mload\n        /* \"#utility.yul\":4028:4091   */\n      tag_284\n        /* \"#utility.yul\":4087:4090   */\n      dup9\n        /* \"#utility.yul\":4072:4085   */\n      dup3\n        /* \"#utility.yul\":4028:4091   */\n      tag_185\n      jump\t// in\n    tag_284:\n        /* \"#utility.yul\":4021:4091   */\n      swap8\n      pop\n        /* \"#utility.yul\":4114:4174   */\n      tag_285\n        /* \"#utility.yul\":4167:4173   */\n      dup4\n        /* \"#utility.yul\":4114:4174   */\n      tag_186\n      jump\t// in\n    tag_285:\n        /* \"#utility.yul\":4104:4174   */\n      swap3\n      pop\n        /* \"#utility.yul\":3960:4184   */\n      pop\n        /* \"#utility.yul\":3947:3948   */\n      0x01\n        /* \"#utility.yul\":3944:3945   */\n      dup2\n        /* \"#utility.yul\":3940:3949   */\n      add\n        /* \"#utility.yul\":3935:3949   */\n      swap1\n      pop\n        /* \"#utility.yul\":3900:4184   */\n      jump(tag_281)\n    tag_283:\n        /* \"#utility.yul\":3904:3918   */\n      pop\n        /* \"#utility.yul\":4200:4203   */\n      dup6\n        /* \"#utility.yul\":4193:4203   */\n      swap4\n      pop\n        /* \"#utility.yul\":3611:4209   */\n      pop\n      pop\n      pop\n        /* \"#utility.yul\":3497:4209   */\n      swap3\n      swap2\n      pop\n      pop\n      jump\t// out\n        /* \"#utility.yul\":4215:4395   */\n    tag_57:\n        /* \"#utility.yul\":4263:4340   */\n      0x4e487b7100000000000000000000000000000000000000000000000000000000\n        /* \"#utility.yul\":4260:4261   */\n      0x00\n        /* \"#utility.yul\":4253:4341   */\n      mstore\n        /* \"#utility.yul\":4360:4364   */\n      0x21\n        /* \"#utility.yul\":4357:4358   */\n      0x04\n        /* \"#utility.yul\":4350:4365   */\n      mstore\n        /* \"#utility.yul\":4384:4388   */\n      0x24\n        /* \"#utility.yul\":4381:4382   */\n      0x00\n        /* \"#utility.yul\":4374:4389   */\n      revert\n        /* \"#utility.yul\":4401:4513   */\n    tag_188:\n        /* \"#utility.yul\":4481:4482   */\n      0x04\n        /* \"#utility.yul\":4474:4479   */\n      dup2\n        /* \"#utility.yul\":4471:4483   */\n      lt\n        /* \"#utility.yul\":4461:4507   */\n      tag_288\n      jumpi\n        /* \"#utility.yul\":4487:4505   */\n      tag_289\n      tag_57\n      jump\t// in\n    tag_289:\n        /* \"#utility.yul\":4461:4507   */\n    tag_288:\n        /* \"#utility.yul\":4401:4513   */\n      pop\n      jump\t// out\n        /* \"#utility.yul\":4519:4644   */\n    tag_189:\n        /* \"#utility.yul\":4563:4570   */\n      0x00\n        /* \"#utility.yul\":4592:4597   */\n      dup2\n        /* \"#utility.yul\":4581:4597   */\n      swap1\n      pop\n        /* \"#utility.yul\":4598:4638   */\n      tag_291\n        /* \"#utility.yul\":4632:4637   */\n      dup3\n        /* \"#utility.yul\":4598:4638   */\n      tag_188\n      jump\t// in\n    tag_291:\n        /* \"#utility.yul\":4519:4644   */\n      swap2\n      swap1\n      pop\n      jump\t// out\n        /* \"#utility.yul\":4650:4775   */\n    tag_190:\n        /* \"#utility.yul\":4705:4714   */\n      0x00\n        /* \"#utility.yul\":4738:4769   */\n      tag_293\n        /* \"#utility.yul\":4763:4768   */\n      dup3\n        /* \"#utility.yul\":4738:4769   */\n      tag_189\n      jump\t// in\n    tag_293:\n        /* \"#utility.yul\":4725:4769   */\n      swap1\n      pop\n        /* \"#utility.yul\":4650:4775   */\n      swap2\n      swap1\n      pop\n      jump\t// out\n        /* \"#utility.yul\":4781:4912   */\n    tag_191:\n        /* \"#utility.yul\":4863:4905   */\n      tag_295\n        /* \"#utility.yul\":4899:4904   */\n      dup2\n        /* \"#utility.yul\":4863:4905   */\n      tag_190\n      jump\t// in\n    tag_295:\n        /* \"#utility.yul\":4858:4861   */\n      dup3\n        /* \"#utility.yul\":4851:4906   */\n      mstore\n        /* \"#utility.yul\":4781:4912   */\n      pop\n      pop\n      jump\t// out\n        /* \"#utility.yul\":4982:6050   */\n    tag_192:\n        /* \"#utility.yul\":5097:5100   */\n      0x00\n        /* \"#utility.yul\":5133:5137   */\n      0x80\n        /* \"#utility.yul\":5128:5131   */\n      dup4\n        /* \"#utility.yul\":5124:5138   */\n      add\n        /* \"#utility.yul\":5223:5227   */\n      0x00\n        /* \"#utility.yul\":5216:5221   */\n      dup4\n        /* \"#utility.yul\":5212:5228   */\n      add\n        /* \"#utility.yul\":5206:5229   */\n      mload\n        /* \"#utility.yul\":5242:5305   */\n      tag_297\n        /* \"#utility.yul\":5299:5303   */\n      0x00\n        /* \"#utility.yul\":5294:5297   */\n      dup7\n        /* \"#utility.yul\":5290:5304   */\n      add\n        /* \"#utility.yul\":5276:5288   */\n      dup3\n        /* \"#utility.yul\":5242:5305   */\n      tag_175\n      jump\t// in\n    tag_297:\n        /* \"#utility.yul\":5148:5315   */\n      pop\n        /* \"#utility.yul\":5402:5406   */\n      0x20\n        /* \"#utility.yul\":5395:5400   */\n      dup4\n        /* \"#utility.yul\":5391:5407   */\n      add\n        /* \"#utility.yul\":5385:5408   */\n      mload\n        /* \"#utility.yul\":5455:5458   */\n      dup5\n        /* \"#utility.yul\":5449:5453   */\n      dup3\n        /* \"#utility.yul\":5445:5459   */\n      sub\n        /* \"#utility.yul\":5438:5442   */\n      0x20\n        /* \"#utility.yul\":5433:5436   */\n      dup7\n        /* \"#utility.yul\":5429:5443   */\n      add\n        /* \"#utility.yul\":5422:5460   */\n      mstore\n        /* \"#utility.yul\":5481:5554   */\n      tag_298\n        /* \"#utility.yul\":5549:5553   */\n      dup3\n        /* \"#utility.yul\":5535:5547   */\n      dup3\n        /* \"#utility.yul\":5481:5554   */\n      tag_180\n      jump\t// in\n    tag_298:\n        /* \"#utility.yul\":5473:5554   */\n      swap2\n      pop\n        /* \"#utility.yul\":5325:5565   */\n      pop\n        /* \"#utility.yul\":5650:5654   */\n      0x40\n        /* \"#utility.yul\":5643:5648   */\n      dup4\n        /* \"#utility.yul\":5639:5655   */\n      add\n        /* \"#utility.yul\":5633:5656   */\n      mload\n        /* \"#utility.yul\":5703:5706   */\n      dup5\n        /* \"#utility.yul\":5697:5701   */\n      dup3\n        /* \"#utility.yul\":5693:5707   */\n      sub\n        /* \"#utility.yul\":5686:5690   */\n      0x40\n        /* \"#utility.yul\":5681:5684   */\n      dup7\n        /* \"#utility.yul\":5677:5691   */\n      add\n        /* \"#utility.yul\":5670:5708   */\n      mstore\n        /* \"#utility.yul\":5729:5832   */\n      tag_299\n        /* \"#utility.yul\":5827:5831   */\n      dup3\n        /* \"#utility.yul\":5813:5825   */\n      dup3\n        /* \"#utility.yul\":5729:5832   */\n      tag_187\n      jump\t// in\n    tag_299:\n        /* \"#utility.yul\":5721:5832   */\n      swap2\n      pop\n        /* \"#utility.yul\":5575:5843   */\n      pop\n        /* \"#utility.yul\":5926:5930   */\n      0x60\n        /* \"#utility.yul\":5919:5924   */\n      dup4\n        /* \"#utility.yul\":5915:5931   */\n      add\n        /* \"#utility.yul\":5909:5932   */\n      mload\n        /* \"#utility.yul\":5945:6013   */\n      tag_300\n        /* \"#utility.yul\":6007:6011   */\n      0x60\n        /* \"#utility.yul\":6002:6005   */\n      dup7\n        /* \"#utility.yul\":5998:6012   */\n      add\n        /* \"#utility.yul\":5984:5996   */\n      dup3\n        /* \"#utility.yul\":5945:6013   */\n      tag_191\n      jump\t// in\n    tag_300:\n        /* \"#utility.yul\":5853:6023   */\n      pop\n        /* \"#utility.yul\":6040:6044   */\n      dup1\n        /* \"#utility.yul\":6033:6044   */\n      swap2\n      pop\n        /* \"#utility.yul\":5102:6050   */\n      pop\n        /* \"#utility.yul\":4982:6050   */\n      swap3\n      swap2\n      pop\n      pop\n      jump\t// out\n        /* \"#utility.yul\":6056:6421   */\n    tag_23:\n        /* \"#utility.yul\":6195:6199   */\n      0x00\n        /* \"#utility.yul\":6233:6235   */\n      0x20\n        /* \"#utility.yul\":6222:6231   */\n      dup3\n        /* \"#utility.yul\":6218:6236   */\n      add\n        /* \"#utility.yul\":6210:6236   */\n      swap1\n      pop\n        /* \"#utility.yul\":6282:6291   */\n      dup2\n        /* \"#utility.yul\":6276:6280   */\n      dup2\n        /* \"#utility.yul\":6272:6292   */\n      sub\n        /* \"#utility.yul\":6268:6269   */\n      0x00\n        /* \"#utility.yul\":6257:6266   */\n      dup4\n        /* \"#utility.yul\":6253:6270   */\n      add\n        /* \"#utility.yul\":6246:6293   */\n      mstore\n        /* \"#utility.yul\":6310:6414   */\n      tag_302\n        /* \"#utility.yul\":6409:6413   */\n      dup2\n        /* \"#utility.yul\":6400:6406   */\n      dup5\n        /* \"#utility.yul\":6310:6414   */\n      tag_192\n      jump\t// in\n    tag_302:\n        /* \"#utility.yul\":6302:6414   */\n      swap1\n      pop\n        /* \"#utility.yul\":6056:6421   */\n      swap3\n      swap2\n      pop\n      pop\n      jump\t// out\n        /* \"#utility.yul\":6427:6545   */\n    tag_193:\n        /* \"#utility.yul\":6514:6538   */\n      tag_304\n        /* \"#utility.yul\":6532:6537   */\n      dup2\n        /* \"#utility.yul\":6514:6538   */\n      tag_174\n      jump\t// in\n    tag_304:\n        /* \"#utility.yul\":6509:6512   */\n      dup3\n        /* \"#utility.yul\":6502:6539   */\n      mstore\n        /* \"#utility.yul\":6427:6545   */\n      pop\n      pop\n      jump\t// out\n        /* \"#utility.yul\":6551:6773   */\n    tag_27:\n        /* \"#utility.yul\":6644:6648   */\n      0x00\n        /* \"#utility.yul\":6682:6684   */\n      0x20\n        /* \"#utility.yul\":6671:6680   */\n      dup3\n        /* \"#utility.yul\":6667:6685   */\n      add\n        /* \"#utility.yul\":6659:6685   */\n      swap1\n      pop\n        /* \"#utility.yul\":6695:6766   */\n      tag_306\n        /* \"#utility.yul\":6763:6764   */\n      0x00\n        /* \"#utility.yul\":6752:6761   */\n      dup4\n        /* \"#utility.yul\":6748:6765   */\n      add\n        /* \"#utility.yul\":6739:6745   */\n      dup5\n        /* \"#utility.yul\":6695:6766   */\n      tag_193\n      jump\t// in\n    tag_306:\n        /* \"#utility.yul\":6551:6773   */\n      swap3\n      swap2\n      pop\n      pop\n      jump\t// out\n        /* \"#utility.yul\":6779:6896   */\n    tag_194:\n        /* \"#utility.yul\":6888:6889   */\n      0x00\n        /* \"#utility.yul\":6885:6886   */\n      0x00\n        /* \"#utility.yul\":6878:6890   */\n      revert\n        /* \"#utility.yul\":6902:7019   */\n    tag_195:\n        /* \"#utility.yul\":7011:7012   */\n      0x00\n        /* \"#utility.yul\":7008:7009   */\n      0x00\n        /* \"#utility.yul\":7001:7013   */\n      revert\n        /* \"#utility.yul\":7025:7205   */\n    tag_196:\n        /* \"#utility.yul\":7073:7150   */\n      0x4e487b7100000000000000000000000000000000000000000000000000000000\n        /* \"#utility.yul\":7070:7071   */\n      0x00\n        /* \"#utility.yul\":7063:7151   */\n      mstore\n        /* \"#utility.yul\":7170:7174   */\n      0x41\n        /* \"#utility.yul\":7167:7168   */\n      0x04\n        /* \"#utility.yul\":7160:7175   */\n      mstore\n        /* \"#utility.yul\":7194:7198   */\n      0x24\n        /* \"#utility.yul\":7191:7192   */\n      0x00\n        /* \"#utility.yul\":7184:7199   */\n      revert\n        /* \"#utility.yul\":7211:7492   */\n    tag_197:\n        /* \"#utility.yul\":7294:7321   */\n      tag_311\n        /* \"#utility.yul\":7316:7320   */\n      dup3\n        /* \"#utility.yul\":7294:7321   */\n      tag_179\n      jump\t// in\n    tag_311:\n        /* \"#utility.yul\":7286:7292   */\n      dup2\n        /* \"#utility.yul\":7282:7322   */\n      add\n        /* \"#utility.yul\":7424:7430   */\n      dup2\n        /* \"#utility.yul\":7412:7422   */\n      dup2\n        /* \"#utility.yul\":7409:7431   */\n      lt\n        /* \"#utility.yul\":7388:7406   */\n      0xffffffffffffffff\n        /* \"#utility.yul\":7376:7386   */\n      dup3\n        /* \"#utility.yul\":7373:7407   */\n      gt\n        /* \"#utility.yul\":7370:7432   */\n      or\n        /* \"#utility.yul\":7367:7455   */\n      iszero\n      tag_312\n      jumpi\n        /* \"#utility.yul\":7435:7453   */\n      tag_313\n      tag_196\n      jump\t// in\n    tag_313:\n        /* \"#utility.yul\":7367:7455   */\n    tag_312:\n        /* \"#utility.yul\":7475:7485   */\n      dup1\n        /* \"#utility.yul\":7471:7473   */\n      0x40\n        /* \"#utility.yul\":7464:7486   */\n      mstore\n        /* \"#utility.yul\":7254:7492   */\n      pop\n        /* \"#utility.yul\":7211:7492   */\n      pop\n      pop\n      jump\t// out\n        /* \"#utility.yul\":7498:7627   */\n    tag_198:\n        /* \"#utility.yul\":7532:7538   */\n      0x00\n        /* \"#utility.yul\":7559:7579   */\n      tag_315\n      tag_166\n      jump\t// in\n    tag_315:\n        /* \"#utility.yul\":7549:7579   */\n      swap1\n      pop\n        /* \"#utility.yul\":7588:7621   */\n      tag_316\n        /* \"#utility.yul\":7616:7620   */\n      dup3\n        /* \"#utility.yul\":7608:7614   */\n      dup3\n        /* \"#utility.yul\":7588:7621   */\n      tag_197\n      jump\t// in\n    tag_316:\n        /* \"#utility.yul\":7498:7627   */\n      swap2\n      swap1\n      pop\n      jump\t// out\n        /* \"#utility.yul\":7633:7941   */\n    tag_199:\n        /* \"#utility.yul\":7695:7699   */\n      0x00\n        /* \"#utility.yul\":7785:7803   */\n      0xffffffffffffffff\n        /* \"#utility.yul\":7777:7783   */\n      dup3\n        /* \"#utility.yul\":7774:7804   */\n      gt\n        /* \"#utility.yul\":7771:7827   */\n      iszero\n      tag_318\n      jumpi\n        /* \"#utility.yul\":7807:7825   */\n      tag_319\n      tag_196\n      jump\t// in\n    tag_319:\n        /* \"#utility.yul\":7771:7827   */\n    tag_318:\n        /* \"#utility.yul\":7845:7874   */\n      tag_320\n        /* \"#utility.yul\":7867:7873   */\n      dup3\n        /* \"#utility.yul\":7845:7874   */\n      tag_179\n      jump\t// in\n    tag_320:\n        /* \"#utility.yul\":7837:7874   */\n      swap1\n      pop\n        /* \"#utility.yul\":7929:7933   */\n      0x20\n        /* \"#utility.yul\":7923:7927   */\n      dup2\n        /* \"#utility.yul\":7919:7934   */\n      add\n        /* \"#utility.yul\":7911:7934   */\n      swap1\n      pop\n        /* \"#utility.yul\":7633:7941   */\n      swap2\n      swap1\n      pop\n      jump\t// out\n        /* \"#utility.yul\":7947:8095   */\n    tag_200:\n        /* \"#utility.yul\":8045:8051   */\n      dup3\n        /* \"#utility.yul\":8040:8043   */\n      dup2\n        /* \"#utility.yul\":8035:8038   */\n      dup4\n        /* \"#utility.yul\":8022:8052   */\n      calldatacopy\n        /* \"#utility.yul\":8086:8087   */\n      0x00\n        /* \"#utility.yul\":8077:8083   */\n      dup4\n        /* \"#utility.yul\":8072:8075   */\n      dup4\n        /* \"#utility.yul\":8068:8084   */\n      add\n        /* \"#utility.yul\":8061:8088   */\n      mstore\n        /* \"#utility.yul\":7947:8095   */\n      pop\n      pop\n      pop\n      jump\t// out\n        /* \"#utility.yul\":8101:8526   */\n    tag_201:\n        /* \"#utility.yul\":8179:8184   */\n      0x00\n        /* \"#utility.yul\":8204:8270   */\n      tag_323\n        /* \"#utility.yul\":8220:8269   */\n      tag_324\n        /* \"#utility.yul\":8262:8268   */\n      dup5\n        /* \"#utility.yul\":8220:8269   */\n      tag_199\n      jump\t// in\n    tag_324:\n        /* \"#utility.yul\":8204:8270   */\n      tag_198\n      jump\t// in\n    tag_323:\n        /* \"#utility.yul\":8195:8270   */\n      swap1\n      pop\n        /* \"#utility.yul\":8293:8299   */\n      dup3\n        /* \"#utility.yul\":8286:8291   */\n      dup2\n        /* \"#utility.yul\":8279:8300   */\n      mstore\n        /* \"#utility.yul\":8331:8335   */\n      0x20\n        /* \"#utility.yul\":8324:8329   */\n      dup2\n        /* \"#utility.yul\":8320:8336   */\n      add\n        /* \"#utility.yul\":8369:8372   */\n      dup5\n        /* \"#utility.yul\":8360:8366   */\n      dup5\n        /* \"#utility.yul\":8355:8358   */\n      dup5\n        /* \"#utility.yul\":8351:8367   */\n      add\n        /* \"#utility.yul\":8348:8373   */\n      gt\n        /* \"#utility.yul\":8345:8457   */\n      iszero\n      tag_325\n      jumpi\n        /* \"#utility.yul\":8376:8455   */\n      tag_326\n      tag_195\n      jump\t// in\n    tag_326:\n        /* \"#utility.yul\":8345:8457   */\n    tag_325:\n        /* \"#utility.yul\":8466:8520   */\n      tag_327\n        /* \"#utility.yul\":8513:8519   */\n      dup5\n        /* \"#utility.yul\":8508:8511   */\n      dup3\n        /* \"#utility.yul\":8503:8506   */\n      dup6\n        /* \"#utility.yul\":8466:8520   */\n      tag_200\n      jump\t// in\n    tag_327:\n        /* \"#utility.yul\":8185:8526   */\n      pop\n        /* \"#utility.yul\":8101:8526   */\n      swap4\n      swap3\n      pop\n      pop\n      pop\n      jump\t// out\n        /* \"#utility.yul\":8546:8886   */\n    tag_202:\n        /* \"#utility.yul\":8602:8607   */\n      0x00\n        /* \"#utility.yul\":8651:8654   */\n      dup3\n        /* \"#utility.yul\":8644:8648   */\n      0x1f\n        /* \"#utility.yul\":8636:8642   */\n      dup4\n        /* \"#utility.yul\":8632:8649   */\n      add\n        /* \"#utility.yul\":8628:8655   */\n      slt\n        /* \"#utility.yul\":8618:8740   */\n      tag_329\n      jumpi\n        /* \"#utility.yul\":8659:8738   */\n      tag_330\n      tag_194\n      jump\t// in\n    tag_330:\n        /* \"#utility.yul\":8618:8740   */\n    tag_329:\n        /* \"#utility.yul\":8776:8782   */\n      dup2\n        /* \"#utility.yul\":8763:8783   */\n      calldataload\n        /* \"#utility.yul\":8801:8880   */\n      tag_331\n        /* \"#utility.yul\":8876:8879   */\n      dup5\n        /* \"#utility.yul\":8868:8874   */\n      dup3\n        /* \"#utility.yul\":8861:8865   */\n      0x20\n        /* \"#utility.yul\":8853:8859   */\n      dup7\n        /* \"#utility.yul\":8849:8866   */\n      add\n        /* \"#utility.yul\":8801:8880   */\n      tag_201\n      jump\t// in\n    tag_331:\n        /* \"#utility.yul\":8792:8880   */\n      swap2\n      pop\n        /* \"#utility.yul\":8608:8886   */\n      pop\n        /* \"#utility.yul\":8546:8886   */\n      swap3\n      swap2\n      pop\n      pop\n      jump\t// out\n        /* \"#utility.yul\":8892:9546   */\n    tag_30:\n        /* \"#utility.yul\":8970:8976   */\n      0x00\n        /* \"#utility.yul\":8978:8984   */\n      0x00\n        /* \"#utility.yul\":9027:9029   */\n      0x40\n        /* \"#utility.yul\":9015:9024   */\n      dup4\n        /* \"#utility.yul\":9006:9013   */\n      dup6\n        /* \"#utility.yul\":9002:9025   */\n      sub\n        /* \"#utility.yul\":8998:9030   */\n      slt\n        /* \"#utility.yul\":8995:9114   */\n      iszero\n      tag_333\n      jumpi\n        /* \"#utility.yul\":9033:9112   */\n      tag_334\n      tag_167\n      jump\t// in\n    tag_334:\n        /* \"#utility.yul\":8995:9114   */\n    tag_333:\n        /* \"#utility.yul\":9153:9154   */\n      0x00\n        /* \"#utility.yul\":9178:9231   */\n      tag_335\n        /* \"#utility.yul\":9223:9230   */\n      dup6\n        /* \"#utility.yul\":9214:9220   */\n      dup3\n        /* \"#utility.yul\":9203:9212   */\n      dup7\n        /* \"#utility.yul\":9199:9221   */\n      add\n        /* \"#utility.yul\":9178:9231   */\n      tag_171\n      jump\t// in\n    tag_335:\n        /* \"#utility.yul\":9168:9231   */\n      swap3\n      pop\n        /* \"#utility.yul\":9124:9241   */\n      pop\n        /* \"#utility.yul\":9308:9310   */\n      0x20\n        /* \"#utility.yul\":9297:9306   */\n      dup4\n        /* \"#utility.yul\":9293:9311   */\n      add\n        /* \"#utility.yul\":9280:9312   */\n      calldataload\n        /* \"#utility.yul\":9339:9357   */\n      0xffffffffffffffff\n        /* \"#utility.yul\":9331:9337   */\n      dup2\n        /* \"#utility.yul\":9328:9358   */\n      gt\n        /* \"#utility.yul\":9325:9442   */\n      iszero\n      tag_336\n      jumpi\n        /* \"#utility.yul\":9361:9440   */\n      tag_337\n      tag_168\n      jump\t// in\n    tag_337:\n        /* \"#utility.yul\":9325:9442   */\n    tag_336:\n        /* \"#utility.yul\":9466:9529   */\n      tag_338\n        /* \"#utility.yul\":9521:9528   */\n      dup6\n        /* \"#utility.yul\":9512:9518   */\n      dup3\n        /* \"#utility.yul\":9501:9510   */\n      dup7\n        /* \"#utility.yul\":9497:9519   */\n      add\n        /* \"#utility.yul\":9466:9529   */\n      tag_202\n      jump\t// in\n    tag_338:\n        /* \"#utility.yul\":9456:9529   */\n      swap2\n      pop\n        /* \"#utility.yul\":9251:9539   */\n      pop\n        /* \"#utility.yul\":8892:9546   */\n      swap3\n      pop\n      swap3\n      swap1\n      pop\n      jump\t// out\n        /* \"#utility.yul\":9552:9721   */\n    tag_203:\n        /* \"#utility.yul\":9636:9647   */\n      0x00\n        /* \"#utility.yul\":9670:9676   */\n      dup3\n        /* \"#utility.yul\":9665:9668   */\n      dup3\n        /* \"#utility.yul\":9658:9677   */\n      mstore\n        /* \"#utility.yul\":9710:9714   */\n      0x20\n        /* \"#utility.yul\":9705:9708   */\n      dup3\n        /* \"#utility.yul\":9701:9715   */\n      add\n        /* \"#utility.yul\":9686:9715   */\n      swap1\n      pop\n        /* \"#utility.yul\":9552:9721   */\n      swap3\n      swap2\n      pop\n      pop\n      jump\t// out\n        /* \"#utility.yul\":9727:10104   */\n    tag_204:\n        /* \"#utility.yul\":9815:9818   */\n      0x00\n        /* \"#utility.yul\":9843:9882   */\n      tag_341\n        /* \"#utility.yul\":9876:9881   */\n      dup3\n        /* \"#utility.yul\":9843:9882   */\n      tag_176\n      jump\t// in\n    tag_341:\n        /* \"#utility.yul\":9898:9969   */\n      tag_342\n        /* \"#utility.yul\":9962:9968   */\n      dup2\n        /* \"#utility.yul\":9957:9960   */\n      dup6\n        /* \"#utility.yul\":9898:9969   */\n      tag_203\n      jump\t// in\n    tag_342:\n        /* \"#utility.yul\":9891:9969   */\n      swap4\n      pop\n        /* \"#utility.yul\":9978:10043   */\n      tag_343\n        /* \"#utility.yul\":10036:10042   */\n      dup2\n        /* \"#utility.yul\":10031:10034   */\n      dup6\n        /* \"#utility.yul\":10024:10028   */\n      0x20\n        /* \"#utility.yul\":10017:10022   */\n      dup7\n        /* \"#utility.yul\":10013:10029   */\n      add\n        /* \"#utility.yul\":9978:10043   */\n      tag_178\n      jump\t// in\n    tag_343:\n        /* \"#utility.yul\":10068:10097   */\n      tag_344\n        /* \"#utility.yul\":10090:10096   */\n      dup2\n        /* \"#utility.yul\":10068:10097   */\n      tag_179\n      jump\t// in\n    tag_344:\n        /* \"#utility.yul\":10063:10066   */\n      dup5\n        /* \"#utility.yul\":10059:10098   */\n      add\n        /* \"#utility.yul\":10052:10098   */\n      swap2\n      pop\n        /* \"#utility.yul\":9819:10104   */\n      pop\n        /* \"#utility.yul\":9727:10104   */\n      swap3\n      swap2\n      pop\n      pop\n      jump\t// out\n        /* \"#utility.yul\":10110:10251   */\n    tag_205:\n        /* \"#utility.yul\":10202:10244   */\n      tag_346\n        /* \"#utility.yul\":10238:10243   */\n      dup2\n        /* \"#utility.yul\":10202:10244   */\n      tag_190\n      jump\t// in\n    tag_346:\n        /* \"#utility.yul\":10197:10200   */\n      dup3\n        /* \"#utility.yul\":10190:10245   */\n      mstore\n        /* \"#utility.yul\":10110:10251   */\n      pop\n      pop\n      jump\t// out\n        /* \"#utility.yul\":10257:10800   */\n    tag_36:\n        /* \"#utility.yul\":10431:10435   */\n      0x00\n        /* \"#utility.yul\":10469:10471   */\n      0x60\n        /* \"#utility.yul\":10458:10467   */\n      dup3\n        /* \"#utility.yul\":10454:10472   */\n      add\n        /* \"#utility.yul\":10446:10472   */\n      swap1\n      pop\n        /* \"#utility.yul\":10482:10553   */\n      tag_348\n        /* \"#utility.yul\":10550:10551   */\n      0x00\n        /* \"#utility.yul\":10539:10548   */\n      dup4\n        /* \"#utility.yul\":10535:10552   */\n      add\n        /* \"#utility.yul\":10526:10532   */\n      dup7\n        /* \"#utility.yul\":10482:10553   */\n      tag_193\n      jump\t// in\n    tag_348:\n        /* \"#utility.yul\":10600:10609   */\n      dup2\n        /* \"#utility.yul\":10594:10598   */\n      dup2\n        /* \"#utility.yul\":10590:10610   */\n      sub\n        /* \"#utility.yul\":10585:10587   */\n      0x20\n        /* \"#utility.yul\":10574:10583   */\n      dup4\n        /* \"#utility.yul\":10570:10588   */\n      add\n        /* \"#utility.yul\":10563:10611   */\n      mstore\n        /* \"#utility.yul\":10628:10706   */\n      tag_349\n        /* \"#utility.yul\":10701:10705   */\n      dup2\n        /* \"#utility.yul\":10692:10698   */\n      dup6\n        /* \"#utility.yul\":10628:10706   */\n      tag_204\n      jump\t// in\n    tag_349:\n        /* \"#utility.yul\":10620:10706   */\n      swap1\n      pop\n        /* \"#utility.yul\":10716:10793   */\n      tag_350\n        /* \"#utility.yul\":10789:10791   */\n      0x40\n        /* \"#utility.yul\":10778:10787   */\n      dup4\n        /* \"#utility.yul\":10774:10792   */\n      add\n        /* \"#utility.yul\":10765:10771   */\n      dup5\n        /* \"#utility.yul\":10716:10793   */\n      tag_205\n      jump\t// in\n    tag_350:\n        /* \"#utility.yul\":10257:10800   */\n      swap5\n      swap4\n      pop\n      pop\n      pop\n      pop\n      jump\t// out\n        /* \"#utility.yul\":10806:11117   */\n    tag_206:\n        /* \"#utility.yul\":10883:10887   */\n      0x00\n        /* \"#utility.yul\":10973:10991   */\n      0xffffffffffffffff\n        /* \"#utility.yul\":10965:10971   */\n      dup3\n        /* \"#utility.yul\":10962:10992   */\n      gt\n        /* \"#utility.yul\":10959:11015   */\n      iszero\n      tag_352\n      jumpi\n        /* \"#utility.yul\":10995:11013   */\n      tag_353\n      tag_196\n      jump\t// in\n    tag_353:\n        /* \"#utility.yul\":10959:11015   */\n    tag_352:\n        /* \"#utility.yul\":11045:11049   */\n      0x20\n        /* \"#utility.yul\":11037:11043   */\n      dup3\n        /* \"#utility.yul\":11033:11050   */\n      mul\n        /* \"#utility.yul\":11025:11050   */\n      swap1\n      pop\n        /* \"#utility.yul\":11105:11109   */\n      0x20\n        /* \"#utility.yul\":11099:11103   */\n      dup2\n        /* \"#utility.yul\":11095:11110   */\n      add\n        /* \"#utility.yul\":11087:11110   */\n      swap1\n      pop\n        /* \"#utility.yul\":10806:11117   */\n      swap2\n      swap1\n      pop\n      jump\t// out\n        /* \"#utility.yul\":11123:11240   */\n    tag_207:\n        /* \"#utility.yul\":11232:11233   */\n      0x00\n        /* \"#utility.yul\":11229:11230   */\n      0x00\n        /* \"#utility.yul\":11222:11234   */\n      revert\n        /* \"#utility.yul\":11263:11973   */\n    tag_208:\n        /* \"#utility.yul\":11359:11364   */\n      0x00\n        /* \"#utility.yul\":11384:11465   */\n      tag_356\n        /* \"#utility.yul\":11400:11464   */\n      tag_357\n        /* \"#utility.yul\":11457:11463   */\n      dup5\n        /* \"#utility.yul\":11400:11464   */\n      tag_206\n      jump\t// in\n    tag_357:\n        /* \"#utility.yul\":11384:11465   */\n      tag_198\n      jump\t// in\n    tag_356:\n        /* \"#utility.yul\":11375:11465   */\n      swap1\n      pop\n        /* \"#utility.yul\":11485:11490   */\n      dup1\n        /* \"#utility.yul\":11514:11520   */\n      dup4\n        /* \"#utility.yul\":11507:11512   */\n      dup3\n        /* \"#utility.yul\":11500:11521   */\n      mstore\n        /* \"#utility.yul\":11548:11552   */\n      0x20\n        /* \"#utility.yul\":11541:11546   */\n      dup3\n        /* \"#utility.yul\":11537:11553   */\n      add\n        /* \"#utility.yul\":11530:11553   */\n      swap1\n      pop\n        /* \"#utility.yul\":11601:11605   */\n      0x20\n        /* \"#utility.yul\":11593:11599   */\n      dup5\n        /* \"#utility.yul\":11589:11606   */\n      mul\n        /* \"#utility.yul\":11581:11587   */\n      dup4\n        /* \"#utility.yul\":11577:11607   */\n      add\n        /* \"#utility.yul\":11630:11633   */\n      dup6\n        /* \"#utility.yul\":11622:11628   */\n      dup2\n        /* \"#utility.yul\":11619:11634   */\n      gt\n        /* \"#utility.yul\":11616:11738   */\n      iszero\n      tag_358\n      jumpi\n        /* \"#utility.yul\":11649:11728   */\n      tag_359\n      tag_207\n      jump\t// in\n    tag_359:\n        /* \"#utility.yul\":11616:11738   */\n    tag_358:\n        /* \"#utility.yul\":11764:11770   */\n      dup4\n        /* \"#utility.yul\":11747:11967   */\n    tag_360:\n        /* \"#utility.yul\":11781:11787   */\n      dup2\n        /* \"#utility.yul\":11776:11779   */\n      dup2\n        /* \"#utility.yul\":11773:11788   */\n      lt\n        /* \"#utility.yul\":11747:11967   */\n      iszero\n      tag_362\n      jumpi\n        /* \"#utility.yul\":11856:11859   */\n      dup1\n        /* \"#utility.yul\":11885:11922   */\n      tag_363\n        /* \"#utility.yul\":11918:11921   */\n      dup9\n        /* \"#utility.yul\":11906:11916   */\n      dup3\n        /* \"#utility.yul\":11885:11922   */\n      tag_171\n      jump\t// in\n    tag_363:\n        /* \"#utility.yul\":11880:11883   */\n      dup5\n        /* \"#utility.yul\":11873:11923   */\n      mstore\n        /* \"#utility.yul\":11952:11956   */\n      0x20\n        /* \"#utility.yul\":11947:11950   */\n      dup5\n        /* \"#utility.yul\":11943:11957   */\n      add\n        /* \"#utility.yul\":11936:11957   */\n      swap4\n      pop\n        /* \"#utility.yul\":11823:11967   */\n      pop\n        /* \"#utility.yul\":11807:11811   */\n      0x20\n        /* \"#utility.yul\":11802:11805   */\n      dup2\n        /* \"#utility.yul\":11798:11812   */\n      add\n        /* \"#utility.yul\":11791:11812   */\n      swap1\n      pop\n        /* \"#utility.yul\":11747:11967   */\n      jump(tag_360)\n    tag_362:\n        /* \"#utility.yul\":11751:11772   */\n      pop\n        /* \"#utility.yul\":11365:11973   */\n      pop\n      pop\n        /* \"#utility.yul\":11263:11973   */\n      swap4\n      swap3\n      pop\n      pop\n      pop\n      jump\t// out\n        /* \"#utility.yul\":11996:12366   */\n    tag_209:\n        /* \"#utility.yul\":12067:12072   */\n      0x00\n        /* \"#utility.yul\":12116:12119   */\n      dup3\n        /* \"#utility.yul\":12109:12113   */\n      0x1f\n        /* \"#utility.yul\":12101:12107   */\n      dup4\n        /* \"#utility.yul\":12097:12114   */\n      add\n        /* \"#utility.yul\":12093:12120   */\n      slt\n        /* \"#utility.yul\":12083:12205   */\n      tag_365\n      jumpi\n        /* \"#utility.yul\":12124:12203   */\n      tag_366\n      tag_194\n      jump\t// in\n    tag_366:\n        /* \"#utility.yul\":12083:12205   */\n    tag_365:\n        /* \"#utility.yul\":12241:12247   */\n      dup2\n        /* \"#utility.yul\":12228:12248   */\n      calldataload\n        /* \"#utility.yul\":12266:12360   */\n      tag_367\n        /* \"#utility.yul\":12356:12359   */\n      dup5\n        /* \"#utility.yul\":12348:12354   */\n      dup3\n        /* \"#utility.yul\":12341:12345   */\n      0x20\n        /* \"#utility.yul\":12333:12339   */\n      dup7\n        /* \"#utility.yul\":12329:12346   */\n      add\n        /* \"#utility.yul\":12266:12360   */\n      tag_208\n      jump\t// in\n    tag_367:\n        /* \"#utility.yul\":12257:12360   */\n      swap2\n      pop\n        /* \"#utility.yul\":12073:12366   */\n      pop\n        /* \"#utility.yul\":11996:12366   */\n      swap3\n      swap2\n      pop\n      pop\n      jump\t// out\n        /* \"#utility.yul\":12372:13236   */\n    tag_39:\n        /* \"#utility.yul\":12475:12481   */\n      0x00\n        /* \"#utility.yul\":12483:12489   */\n      0x00\n        /* \"#utility.yul\":12532:12534   */\n      0x40\n        /* \"#utility.yul\":12520:12529   */\n      dup4\n        /* \"#utility.yul\":12511:12518   */\n      dup6\n        /* \"#utility.yul\":12507:12530   */\n      sub\n        /* \"#utility.yul\":12503:12535   */\n      slt\n        /* \"#utility.yul\":12500:12619   */\n      iszero\n      tag_369\n      jumpi\n        /* \"#utility.yul\":12538:12617   */\n      tag_370\n      tag_167\n      jump\t// in\n    tag_370:\n        /* \"#utility.yul\":12500:12619   */\n    tag_369:\n        /* \"#utility.yul\":12686:12687   */\n      0x00\n        /* \"#utility.yul\":12675:12684   */\n      dup4\n        /* \"#utility.yul\":12671:12688   */\n      add\n        /* \"#utility.yul\":12658:12689   */\n      calldataload\n        /* \"#utility.yul\":12716:12734   */\n      0xffffffffffffffff\n        /* \"#utility.yul\":12708:12714   */\n      dup2\n        /* \"#utility.yul\":12705:12735   */\n      gt\n        /* \"#utility.yul\":12702:12819   */\n      iszero\n      tag_371\n      jumpi\n        /* \"#utility.yul\":12738:12817   */\n      tag_372\n      tag_168\n      jump\t// in\n    tag_372:\n        /* \"#utility.yul\":12702:12819   */\n    tag_371:\n        /* \"#utility.yul\":12843:12906   */\n      tag_373\n        /* \"#utility.yul\":12898:12905   */\n      dup6\n        /* \"#utility.yul\":12889:12895   */\n      dup3\n        /* \"#utility.yul\":12878:12887   */\n      dup7\n        /* \"#utility.yul\":12874:12896   */\n      add\n        /* \"#utility.yul\":12843:12906   */\n      tag_202\n      jump\t// in\n    tag_373:\n        /* \"#utility.yul\":12833:12906   */\n      swap3\n      pop\n        /* \"#utility.yul\":12629:12916   */\n      pop\n        /* \"#utility.yul\":12983:12985   */\n      0x20\n        /* \"#utility.yul\":12972:12981   */\n      dup4\n        /* \"#utility.yul\":12968:12986   */\n      add\n        /* \"#utility.yul\":12955:12987   */\n      calldataload\n        /* \"#utility.yul\":13014:13032   */\n      0xffffffffffffffff\n        /* \"#utility.yul\":13006:13012   */\n      dup2\n        /* \"#utility.yul\":13003:13033   */\n      gt\n        /* \"#utility.yul\":13000:13117   */\n      iszero\n      tag_374\n      jumpi\n        /* \"#utility.yul\":13036:13115   */\n      tag_375\n      tag_168\n      jump\t// in\n    tag_375:\n        /* \"#utility.yul\":13000:13117   */\n    tag_374:\n        /* \"#utility.yul\":13141:13219   */\n      tag_376\n        /* \"#utility.yul\":13211:13218   */\n      dup6\n        /* \"#utility.yul\":13202:13208   */\n      dup3\n        /* \"#utility.yul\":13191:13200   */\n      dup7\n        /* \"#utility.yul\":13187:13209   */\n      add\n        /* \"#utility.yul\":13141:13219   */\n      tag_209\n      jump\t// in\n    tag_376:\n        /* \"#utility.yul\":13131:13219   */\n      swap2\n      pop\n        /* \"#utility.yul\":12926:13229   */\n      pop\n        /* \"#utility.yul\":12372:13236   */\n      swap3\n      pop\n      swap3\n      swap1\n      pop\n      jump\t// out\n        /* \"#utility.yul\":13242:13424   */\n    tag_210:\n        /* \"#utility.yul\":13382:13416   */\n      0x47656365726c6920626972207369706172697320494427736920646567696c2e\n        /* \"#utility.yul\":13378:13379   */\n      0x00\n        /* \"#utility.yul\":13370:13376   */\n      dup3\n        /* \"#utility.yul\":13366:13380   */\n      add\n        /* \"#utility.yul\":13359:13417   */\n      mstore\n        /* \"#utility.yul\":13242:13424   */\n      pop\n      jump\t// out\n        /* \"#utility.yul\":13430:13796   */\n    tag_211:\n        /* \"#utility.yul\":13572:13575   */\n      0x00\n        /* \"#utility.yul\":13593:13660   */\n      tag_379\n        /* \"#utility.yul\":13657:13659   */\n      0x20\n        /* \"#utility.yul\":13652:13655   */\n      dup4\n        /* \"#utility.yul\":13593:13660   */\n      tag_203\n      jump\t// in\n    tag_379:\n        /* \"#utility.yul\":13586:13660   */\n      swap2\n      pop\n        /* \"#utility.yul\":13669:13762   */\n      tag_380\n        /* \"#utility.yul\":13758:13761   */\n      dup3\n        /* \"#utility.yul\":13669:13762   */\n      tag_210\n      jump\t// in\n    tag_380:\n        /* \"#utility.yul\":13787:13789   */\n      0x20\n        /* \"#utility.yul\":13782:13785   */\n      dup3\n        /* \"#utility.yul\":13778:13790   */\n      add\n        /* \"#utility.yul\":13771:13790   */\n      swap1\n      pop\n        /* \"#utility.yul\":13430:13796   */\n      swap2\n      swap1\n      pop\n      jump\t// out\n        /* \"#utility.yul\":13802:14221   */\n    tag_45:\n        /* \"#utility.yul\":13968:13972   */\n      0x00\n        /* \"#utility.yul\":14006:14008   */\n      0x20\n        /* \"#utility.yul\":13995:14004   */\n      dup3\n        /* \"#utility.yul\":13991:14009   */\n      add\n        /* \"#utility.yul\":13983:14009   */\n      swap1\n      pop\n        /* \"#utility.yul\":14055:14064   */\n      dup2\n        /* \"#utility.yul\":14049:14053   */\n      dup2\n        /* \"#utility.yul\":14045:14065   */\n      sub\n        /* \"#utility.yul\":14041:14042   */\n      0x00\n        /* \"#utility.yul\":14030:14039   */\n      dup4\n        /* \"#utility.yul\":14026:14043   */\n      add\n        /* \"#utility.yul\":14019:14066   */\n      mstore\n        /* \"#utility.yul\":14083:14214   */\n      tag_382\n        /* \"#utility.yul\":14209:14213   */\n      dup2\n        /* \"#utility.yul\":14083:14214   */\n      tag_211\n      jump\t// in\n    tag_382:\n        /* \"#utility.yul\":14075:14214   */\n      swap1\n      pop\n        /* \"#utility.yul\":13802:14221   */\n      swap2\n      swap1\n      pop\n      jump\t// out\n        /* \"#utility.yul\":14227:14390   */\n    tag_212:\n        /* \"#utility.yul\":14367:14382   */\n      0x5965746b696e697a20796f6b2e00000000000000000000000000000000000000\n        /* \"#utility.yul\":14363:14364   */\n      0x00\n        /* \"#utility.yul\":14355:14361   */\n      dup3\n        /* \"#utility.yul\":14351:14365   */\n      add\n        /* \"#utility.yul\":14344:14383   */\n      mstore\n        /* \"#utility.yul\":14227:14390   */\n      pop\n      jump\t// out\n        /* \"#utility.yul\":14396:14762   */\n    tag_213:\n        /* \"#utility.yul\":14538:14541   */\n      0x00\n        /* \"#utility.yul\":14559:14626   */\n      tag_385\n        /* \"#utility.yul\":14623:14625   */\n      0x0d\n        /* \"#utility.yul\":14618:14621   */\n      dup4\n        /* \"#utility.yul\":14559:14626   */\n      tag_203\n      jump\t// in\n    tag_385:\n        /* \"#utility.yul\":14552:14626   */\n      swap2\n      pop\n        /* \"#utility.yul\":14635:14728   */\n      tag_386\n        /* \"#utility.yul\":14724:14727   */\n      dup3\n        /* \"#utility.yul\":14635:14728   */\n      tag_212\n      jump\t// in\n    tag_386:\n        /* \"#utility.yul\":14753:14755   */\n      0x20\n        /* \"#utility.yul\":14748:14751   */\n      dup3\n        /* \"#utility.yul\":14744:14756   */\n      add\n        /* \"#utility.yul\":14737:14756   */\n      swap1\n      pop\n        /* \"#utility.yul\":14396:14762   */\n      swap2\n      swap1\n      pop\n      jump\t// out\n        /* \"#utility.yul\":14768:15187   */\n    tag_49:\n        /* \"#utility.yul\":14934:14938   */\n      0x00\n        /* \"#utility.yul\":14972:14974   */\n      0x20\n        /* \"#utility.yul\":14961:14970   */\n      dup3\n        /* \"#utility.yul\":14957:14975   */\n      add\n        /* \"#utility.yul\":14949:14975   */\n      swap1\n      pop\n        /* \"#utility.yul\":15021:15030   */\n      dup2\n        /* \"#utility.yul\":15015:15019   */\n      dup2\n        /* \"#utility.yul\":15011:15031   */\n      sub\n        /* \"#utility.yul\":15007:15008   */\n      0x00\n        /* \"#utility.yul\":14996:15005   */\n      dup4\n        /* \"#utility.yul\":14992:15009   */\n      add\n        /* \"#utility.yul\":14985:15032   */\n      mstore\n        /* \"#utility.yul\":15049:15180   */\n      tag_388\n        /* \"#utility.yul\":15175:15179   */\n      dup2\n        /* \"#utility.yul\":15049:15180   */\n      tag_213\n      jump\t// in\n    tag_388:\n        /* \"#utility.yul\":15041:15180   */\n      swap1\n      pop\n        /* \"#utility.yul\":14768:15187   */\n      swap2\n      swap1\n      pop\n      jump\t// out\n        /* \"#utility.yul\":15193:15373   */\n    tag_53:\n        /* \"#utility.yul\":15241:15318   */\n      0x4e487b7100000000000000000000000000000000000000000000000000000000\n        /* \"#utility.yul\":15238:15239   */\n      0x00\n        /* \"#utility.yul\":15231:15319   */\n      mstore\n        /* \"#utility.yul\":15338:15342   */\n      0x32\n        /* \"#utility.yul\":15335:15336   */\n      0x04\n        /* \"#utility.yul\":15328:15343   */\n      mstore\n        /* \"#utility.yul\":15362:15366   */\n      0x24\n        /* \"#utility.yul\":15359:15360   */\n      0x00\n        /* \"#utility.yul\":15352:15367   */\n      revert\n        /* \"#utility.yul\":15379:15554   */\n    tag_214:\n        /* \"#utility.yul\":15519:15546   */\n      0x53697061726973207a6174656e206b6172676f6c616e64692e00000000000000\n        /* \"#utility.yul\":15515:15516   */\n      0x00\n        /* \"#utility.yul\":15507:15513   */\n      dup3\n        /* \"#utility.yul\":15503:15517   */\n      add\n        /* \"#utility.yul\":15496:15547   */\n      mstore\n        /* \"#utility.yul\":15379:15554   */\n      pop\n      jump\t// out\n        /* \"#utility.yul\":15560:15926   */\n    tag_215:\n        /* \"#utility.yul\":15702:15705   */\n      0x00\n        /* \"#utility.yul\":15723:15790   */\n      tag_392\n        /* \"#utility.yul\":15787:15789   */\n      0x19\n        /* \"#utility.yul\":15782:15785   */\n      dup4\n        /* \"#utility.yul\":15723:15790   */\n      tag_203\n      jump\t// in\n    tag_392:\n        /* \"#utility.yul\":15716:15790   */\n      swap2\n      pop\n        /* \"#utility.yul\":15799:15892   */\n      tag_393\n        /* \"#utility.yul\":15888:15891   */\n      dup3\n        /* \"#utility.yul\":15799:15892   */\n      tag_214\n      jump\t// in\n    tag_393:\n        /* \"#utility.yul\":15917:15919   */\n      0x20\n        /* \"#utility.yul\":15912:15915   */\n      dup3\n        /* \"#utility.yul\":15908:15920   */\n      add\n        /* \"#utility.yul\":15901:15920   */\n      swap1\n      pop\n        /* \"#utility.yul\":15560:15926   */\n      swap2\n      swap1\n      pop\n      jump\t// out\n        /* \"#utility.yul\":15932:16351   */\n    tag_62:\n        /* \"#utility.yul\":16098:16102   */\n      0x00\n        /* \"#utility.yul\":16136:16138   */\n      0x20\n        /* \"#utility.yul\":16125:16134   */\n      dup3\n        /* \"#utility.yul\":16121:16139   */\n      add\n        /* \"#utility.yul\":16113:16139   */\n      swap1\n      pop\n        /* \"#utility.yul\":16185:16194   */\n      dup2\n        /* \"#utility.yul\":16179:16183   */\n      dup2\n        /* \"#utility.yul\":16175:16195   */\n      sub\n        /* \"#utility.yul\":16171:16172   */\n      0x00\n        /* \"#utility.yul\":16160:16169   */\n      dup4\n        /* \"#utility.yul\":16156:16173   */\n      add\n        /* \"#utility.yul\":16149:16196   */\n      mstore\n        /* \"#utility.yul\":16213:16344   */\n      tag_395\n        /* \"#utility.yul\":16339:16343   */\n      dup2\n        /* \"#utility.yul\":16213:16344   */\n      tag_215\n      jump\t// in\n    tag_395:\n        /* \"#utility.yul\":16205:16344   */\n      swap1\n      pop\n        /* \"#utility.yul\":15932:16351   */\n      swap2\n      swap1\n      pop\n      jump\t// out\n        /* \"#utility.yul\":16357:16537   */\n    tag_216:\n        /* \"#utility.yul\":16405:16482   */\n      0x4e487b7100000000000000000000000000000000000000000000000000000000\n        /* \"#utility.yul\":16402:16403   */\n      0x00\n        /* \"#utility.yul\":16395:16483   */\n      mstore\n        /* \"#utility.yul\":16502:16506   */\n      0x22\n        /* \"#utility.yul\":16499:16500   */\n      0x04\n        /* \"#utility.yul\":16492:16507   */\n      mstore\n        /* \"#utility.yul\":16526:16530   */\n      0x24\n        /* \"#utility.yul\":16523:16524   */\n      0x00\n        /* \"#utility.yul\":16516:16531   */\n      revert\n        /* \"#utility.yul\":16543:16863   */\n    tag_96:\n        /* \"#utility.yul\":16587:16593   */\n      0x00\n        /* \"#utility.yul\":16624:16625   */\n      0x02\n        /* \"#utility.yul\":16618:16622   */\n      dup3\n        /* \"#utility.yul\":16614:16626   */\n      div\n        /* \"#utility.yul\":16604:16626   */\n      swap1\n      pop\n        /* \"#utility.yul\":16671:16672   */\n      0x01\n        /* \"#utility.yul\":16665:16669   */\n      dup3\n        /* \"#utility.yul\":16661:16673   */\n      and\n        /* \"#utility.yul\":16692:16710   */\n      dup1\n        /* \"#utility.yul\":16682:16763   */\n      tag_398\n      jumpi\n        /* \"#utility.yul\":16748:16752   */\n      0x7f\n        /* \"#utility.yul\":16740:16746   */\n      dup3\n        /* \"#utility.yul\":16736:16753   */\n      and\n        /* \"#utility.yul\":16726:16753   */\n      swap2\n      pop\n        /* \"#utility.yul\":16682:16763   */\n    tag_398:\n        /* \"#utility.yul\":16810:16812   */\n      0x20\n        /* \"#utility.yul\":16802:16808   */\n      dup3\n        /* \"#utility.yul\":16799:16813   */\n      lt\n        /* \"#utility.yul\":16779:16797   */\n      dup2\n        /* \"#utility.yul\":16776:16814   */\n      sub\n        /* \"#utility.yul\":16773:16857   */\n      tag_399\n      jumpi\n        /* \"#utility.yul\":16829:16847   */\n      tag_400\n      tag_216\n      jump\t// in\n    tag_400:\n        /* \"#utility.yul\":16773:16857   */\n    tag_399:\n        /* \"#utility.yul\":16594:16863   */\n      pop\n        /* \"#utility.yul\":16543:16863   */\n      swap2\n      swap1\n      pop\n      jump\t// out\n        /* \"#utility.yul\":16869:17047   */\n    tag_217:\n        /* \"#utility.yul\":17009:17039   */\n      0x53697061726973696e2073616869626920646567696c73696e697a2e00000000\n        /* \"#utility.yul\":17005:17006   */\n      0x00\n        /* \"#utility.yul\":16997:17003   */\n      dup3\n        /* \"#utility.yul\":16993:17007   */\n      add\n        /* \"#utility.yul\":16986:17040   */\n      mstore\n        /* \"#utility.yul\":16869:17047   */\n      pop\n      jump\t// out\n        /* \"#utility.yul\":17053:17419   */\n    tag_218:\n        /* \"#utility.yul\":17195:17198   */\n      0x00\n        /* \"#utility.yul\":17216:17283   */\n      tag_403\n        /* \"#utility.yul\":17280:17282   */\n      0x1c\n        /* \"#utility.yul\":17275:17278   */\n      dup4\n        /* \"#utility.yul\":17216:17283   */\n      tag_203\n      jump\t// in\n    tag_403:\n        /* \"#utility.yul\":17209:17283   */\n      swap2\n      pop\n        /* \"#utility.yul\":17292:17385   */\n      tag_404\n        /* \"#utility.yul\":17381:17384   */\n      dup3\n        /* \"#utility.yul\":17292:17385   */\n      tag_217\n      jump\t// in\n    tag_404:\n        /* \"#utility.yul\":17410:17412   */\n      0x20\n        /* \"#utility.yul\":17405:17408   */\n      dup3\n        /* \"#utility.yul\":17401:17413   */\n      add\n        /* \"#utility.yul\":17394:17413   */\n      swap1\n      pop\n        /* \"#utility.yul\":17053:17419   */\n      swap2\n      swap1\n      pop\n      jump\t// out\n        /* \"#utility.yul\":17425:17844   */\n    tag_113:\n        /* \"#utility.yul\":17591:17595   */\n      0x00\n        /* \"#utility.yul\":17629:17631   */\n      0x20\n        /* \"#utility.yul\":17618:17627   */\n      dup3\n        /* \"#utility.yul\":17614:17632   */\n      add\n        /* \"#utility.yul\":17606:17632   */\n      swap1\n      pop\n        /* \"#utility.yul\":17678:17687   */\n      dup2\n        /* \"#utility.yul\":17672:17676   */\n      dup2\n        /* \"#utility.yul\":17668:17688   */\n      sub\n        /* \"#utility.yul\":17664:17665   */\n      0x00\n        /* \"#utility.yul\":17653:17662   */\n      dup4\n        /* \"#utility.yul\":17649:17666   */\n      add\n        /* \"#utility.yul\":17642:17689   */\n      mstore\n        /* \"#utility.yul\":17706:17837   */\n      tag_406\n        /* \"#utility.yul\":17832:17836   */\n      dup2\n        /* \"#utility.yul\":17706:17837   */\n      tag_218\n      jump\t// in\n    tag_406:\n        /* \"#utility.yul\":17698:17837   */\n      swap1\n      pop\n        /* \"#utility.yul\":17425:17844   */\n      swap2\n      swap1\n      pop\n      jump\t// out\n        /* \"#utility.yul\":17850:17991   */\n    tag_219:\n        /* \"#utility.yul\":17899:17903   */\n      0x00\n        /* \"#utility.yul\":17922:17925   */\n      dup2\n        /* \"#utility.yul\":17914:17925   */\n      swap1\n      pop\n        /* \"#utility.yul\":17945:17948   */\n      dup2\n        /* \"#utility.yul\":17942:17943   */\n      0x00\n        /* \"#utility.yul\":17935:17949   */\n      mstore\n        /* \"#utility.yul\":17979:17983   */\n      0x20\n        /* \"#utility.yul\":17976:17977   */\n      0x00\n        /* \"#utility.yul\":17966:17984   */\n      keccak256\n        /* \"#utility.yul\":17958:17984   */\n      swap1\n      pop\n        /* \"#utility.yul\":17850:17991   */\n      swap2\n      swap1\n      pop\n      jump\t// out\n        /* \"#utility.yul\":17997:18090   */\n    tag_220:\n        /* \"#utility.yul\":18034:18040   */\n      0x00\n        /* \"#utility.yul\":18081:18083   */\n      0x20\n        /* \"#utility.yul\":18076:18078   */\n      0x1f\n        /* \"#utility.yul\":18069:18074   */\n      dup4\n        /* \"#utility.yul\":18065:18079   */\n      add\n        /* \"#utility.yul\":18061:18084   */\n      div\n        /* \"#utility.yul\":18051:18084   */\n      swap1\n      pop\n        /* \"#utility.yul\":17997:18090   */\n      swap2\n      swap1\n      pop\n      jump\t// out\n        /* \"#utility.yul\":18096:18203   */\n    tag_221:\n        /* \"#utility.yul\":18140:18148   */\n      0x00\n        /* \"#utility.yul\":18190:18195   */\n      dup3\n        /* \"#utility.yul\":18184:18188   */\n      dup3\n        /* \"#utility.yul\":18180:18196   */\n      shl\n        /* \"#utility.yul\":18159:18196   */\n      swap1\n      pop\n        /* \"#utility.yul\":18096:18203   */\n      swap3\n      swap2\n      pop\n      pop\n      jump\t// out\n        /* \"#utility.yul\":18209:18602   */\n    tag_222:\n        /* \"#utility.yul\":18278:18284   */\n      0x00\n        /* \"#utility.yul\":18328:18329   */\n      0x08\n        /* \"#utility.yul\":18316:18326   */\n      dup4\n        /* \"#utility.yul\":18312:18330   */\n      mul\n        /* \"#utility.yul\":18351:18448   */\n      tag_411\n        /* \"#utility.yul\":18381:18447   */\n      0xffffffffffffffffffffffffffffffffffffffffffffffffffffffffffffffff\n        /* \"#utility.yul\":18370:18379   */\n      dup3\n        /* \"#utility.yul\":18351:18448   */\n      tag_221\n      jump\t// in\n    tag_411:\n        /* \"#utility.yul\":18469:18508   */\n      tag_412\n        /* \"#utility.yul\":18499:18507   */\n      dup7\n        /* \"#utility.yul\":18488:18497   */\n      dup4\n        /* \"#utility.yul\":18469:18508   */\n      tag_221\n      jump\t// in\n    tag_412:\n        /* \"#utility.yul\":18457:18508   */\n      swap6\n      pop\n        /* \"#utility.yul\":18541:18545   */\n      dup1\n        /* \"#utility.yul\":18537:18546   */\n      not\n        /* \"#utility.yul\":18530:18535   */\n      dup5\n        /* \"#utility.yul\":18526:18547   */\n      and\n        /* \"#utility.yul\":18517:18547   */\n      swap4\n      pop\n        /* \"#utility.yul\":18590:18594   */\n      dup1\n        /* \"#utility.yul\":18580:18588   */\n      dup7\n        /* \"#utility.yul\":18576:18595   */\n      and\n        /* \"#utility.yul\":18569:18574   */\n      dup5\n        /* \"#utility.yul\":18566:18596   */\n      or\n        /* \"#utility.yul\":18556:18596   */\n      swap3\n      pop\n        /* \"#utility.yul\":18285:18602   */\n      pop\n      pop\n        /* \"#utility.yul\":18209:18602   */\n      swap4\n      swap3\n      pop\n      pop\n      pop\n      jump\t// out\n        /* \"#utility.yul\":18608:18668   */\n    tag_223:\n        /* \"#utility.yul\":18636:18639   */\n      0x00\n        /* \"#utility.yul\":18657:18662   */\n      dup2\n        /* \"#utility.yul\":18650:18662   */\n      swap1\n      pop\n        /* \"#utility.yul\":18608:18668   */\n      swap2\n      swap1\n      pop\n      jump\t// out\n        /* \"#utility.yul\":18674:18816   */\n    tag_224:\n        /* \"#utility.yul\":18724:18733   */\n      0x00\n        /* \"#utility.yul\":18757:18810   */\n      tag_415\n        /* \"#utility.yul\":18775:18809   */\n      tag_416\n        /* \"#utility.yul\":18784:18808   */\n      tag_417\n        /* \"#utility.yul\":18802:18807   */\n      dup5\n        /* \"#utility.yul\":18784:18808   */\n      tag_169\n      jump\t// in\n    tag_417:\n        /* \"#utility.yul\":18775:18809   */\n      tag_223\n      jump\t// in\n    tag_416:\n        /* \"#utility.yul\":18757:18810   */\n      tag_169\n      jump\t// in\n    tag_415:\n        /* \"#utility.yul\":18744:18810   */\n      swap1\n      pop\n        /* \"#utility.yul\":18674:18816   */\n      swap2\n      swap1\n      pop\n      jump\t// out\n        /* \"#utility.yul\":18822:18897   */\n    tag_225:\n        /* \"#utility.yul\":18865:18868   */\n      0x00\n        /* \"#utility.yul\":18886:18891   */\n      dup2\n        /* \"#utility.yul\":18879:18891   */\n      swap1\n      pop\n        /* \"#utility.yul\":18822:18897   */\n      swap2\n      swap1\n      pop\n      jump\t// out\n        /* \"#utility.yul\":18903:19172   */\n    tag_226:\n        /* \"#utility.yul\":19013:19052   */\n      tag_420\n        /* \"#utility.yul\":19044:19051   */\n      dup4\n        /* \"#utility.yul\":19013:19052   */\n      tag_224\n      jump\t// in\n    tag_420:\n        /* \"#utility.yul\":19074:19165   */\n      tag_421\n        /* \"#utility.yul\":19123:19164   */\n      tag_422\n        /* \"#utility.yul\":19147:19163   */\n      dup3\n        /* \"#utility.yul\":19123:19164   */\n      tag_225\n      jump\t// in\n    tag_422:\n        /* \"#utility.yul\":19115:19121   */\n      dup5\n        /* \"#utility.yul\":19108:19112   */\n      dup5\n        /* \"#utility.yul\":19102:19113   */\n      sload\n        /* \"#utility.yul\":19074:19165   */\n      tag_222\n      jump\t// in\n    tag_421:\n        /* \"#utility.yul\":19068:19072   */\n      dup3\n        /* \"#utility.yul\":19061:19166   */\n      sstore\n        /* \"#utility.yul\":18979:19172   */\n      pop\n        /* \"#utility.yul\":18903:19172   */\n      pop\n      pop\n      pop\n      jump\t// out\n        /* \"#utility.yul\":19178:19251   */\n    tag_227:\n        /* \"#utility.yul\":19223:19226   */\n      0x00\n        /* \"#utility.yul\":19244:19245   */\n      0x00\n        /* \"#utility.yul\":19237:19245   */\n      swap1\n      pop\n        /* \"#utility.yul\":19178:19251   */\n      swap1\n      jump\t// out\n        /* \"#utility.yul\":19257:19446   */\n    tag_228:\n        /* \"#utility.yul\":19334:19366   */\n      tag_425\n      tag_227\n      jump\t// in\n    tag_425:\n        /* \"#utility.yul\":19375:19440   */\n      tag_426\n        /* \"#utility.yul\":19433:19439   */\n      dup2\n        /* \"#utility.yul\":19425:19431   */\n      dup5\n        /* \"#utility.yul\":19419:19423   */\n      dup5\n        /* \"#utility.yul\":19375:19440   */\n      tag_226\n      jump\t// in\n    tag_426:\n        /* \"#utility.yul\":19310:19446   */\n      pop\n        /* \"#utility.yul\":19257:19446   */\n      pop\n      pop\n      jump\t// out\n        /* \"#utility.yul\":19452:19638   */\n    tag_229:\n        /* \"#utility.yul\":19512:19632   */\n    tag_428:\n        /* \"#utility.yul\":19529:19532   */\n      dup2\n        /* \"#utility.yul\":19522:19527   */\n      dup2\n        /* \"#utility.yul\":19519:19533   */\n      lt\n        /* \"#utility.yul\":19512:19632   */\n      iszero\n      tag_430\n      jumpi\n        /* \"#utility.yul\":19583:19622   */\n      tag_431\n        /* \"#utility.yul\":19620:19621   */\n      0x00\n        /* \"#utility.yul\":19613:19618   */\n      dup3\n        /* \"#utility.yul\":19583:19622   */\n      tag_228\n      jump\t// in\n    tag_431:\n        /* \"#utility.yul\":19556:19557   */\n      0x01\n        /* \"#utility.yul\":19549:19554   */\n      dup2\n        /* \"#utility.yul\":19545:19558   */\n      add\n        /* \"#utility.yul\":19536:19558   */\n      swap1\n      pop\n        /* \"#utility.yul\":19512:19632   */\n      jump(tag_428)\n    tag_430:\n        /* \"#utility.yul\":19452:19638   */\n      pop\n      pop\n      jump\t// out\n        /* \"#utility.yul\":19644:20187   */\n    tag_230:\n        /* \"#utility.yul\":19745:19747   */\n      0x1f\n        /* \"#utility.yul\":19740:19743   */\n      dup3\n        /* \"#utility.yul\":19737:19748   */\n      gt\n        /* \"#utility.yul\":19734:20180   */\n      iszero\n      tag_433\n      jumpi\n        /* \"#utility.yul\":19779:19817   */\n      tag_434\n        /* \"#utility.yul\":19811:19816   */\n      dup2\n        /* \"#utility.yul\":19779:19817   */\n      tag_219\n      jump\t// in\n    tag_434:\n        /* \"#utility.yul\":19863:19892   */\n      tag_435\n        /* \"#utility.yul\":19881:19891   */\n      dup5\n        /* \"#utility.yul\":19863:19892   */\n      tag_220\n      jump\t// in\n    tag_435:\n        /* \"#utility.yul\":19853:19861   */\n      dup2\n        /* \"#utility.yul\":19849:19893   */\n      add\n        /* \"#utility.yul\":20046:20048   */\n      0x20\n        /* \"#utility.yul\":20034:20044   */\n      dup6\n        /* \"#utility.yul\":20031:20049   */\n      lt\n        /* \"#utility.yul\":20028:20077   */\n      iszero\n      tag_436\n      jumpi\n        /* \"#utility.yul\":20067:20075   */\n      dup2\n        /* \"#utility.yul\":20052:20075   */\n      swap1\n      pop\n        /* \"#utility.yul\":20028:20077   */\n    tag_436:\n        /* \"#utility.yul\":20090:20170   */\n      tag_437\n        /* \"#utility.yul\":20146:20168   */\n      tag_438\n        /* \"#utility.yul\":20164:20167   */\n      dup6\n        /* \"#utility.yul\":20146:20168   */\n      tag_220\n      jump\t// in\n    tag_438:\n        /* \"#utility.yul\":20136:20144   */\n      dup4\n        /* \"#utility.yul\":20132:20169   */\n      add\n        /* \"#utility.yul\":20119:20130   */\n      dup3\n        /* \"#utility.yul\":20090:20170   */\n      tag_229\n      jump\t// in\n    tag_437:\n        /* \"#utility.yul\":19749:20180   */\n      pop\n      pop\n        /* \"#utility.yul\":19734:20180   */\n    tag_433:\n        /* \"#utility.yul\":19644:20187   */\n      pop\n      pop\n      pop\n      jump\t// out\n        /* \"#utility.yul\":20193:20310   */\n    tag_231:\n        /* \"#utility.yul\":20247:20255   */\n      0x00\n        /* \"#utility.yul\":20297:20302   */\n      dup3\n        /* \"#utility.yul\":20291:20295   */\n      dup3\n        /* \"#utility.yul\":20287:20303   */\n      shr\n        /* \"#utility.yul\":20266:20303   */\n      swap1\n      pop\n        /* \"#utility.yul\":20193:20310   */\n      swap3\n      swap2\n      pop\n      pop\n      jump\t// out\n        /* \"#utility.yul\":20316:20485   */\n    tag_232:\n        /* \"#utility.yul\":20360:20366   */\n      0x00\n        /* \"#utility.yul\":20393:20444   */\n      tag_441\n        /* \"#utility.yul\":20441:20442   */\n      0x00\n        /* \"#utility.yul\":20437:20443   */\n      not\n        /* \"#utility.yul\":20429:20434   */\n      dup5\n        /* \"#utility.yul\":20426:20427   */\n      0x08\n        /* \"#utility.yul\":20422:20435   */\n      mul\n        /* \"#utility.yul\":20393:20444   */\n      tag_231\n      jump\t// in\n    tag_441:\n        /* \"#utility.yul\":20389:20445   */\n      not\n        /* \"#utility.yul\":20474:20478   */\n      dup1\n        /* \"#utility.yul\":20468:20472   */\n      dup4\n        /* \"#utility.yul\":20464:20479   */\n      and\n        /* \"#utility.yul\":20454:20479   */\n      swap2\n      pop\n        /* \"#utility.yul\":20367:20485   */\n      pop\n        /* \"#utility.yul\":20316:20485   */\n      swap3\n      swap2\n      pop\n      pop\n      jump\t// out\n        /* \"#utility.yul\":20490:20785   */\n    tag_233:\n        /* \"#utility.yul\":20566:20570   */\n      0x00\n        /* \"#utility.yul\":20712:20741   */\n      tag_443\n        /* \"#utility.yul\":20737:20740   */\n      dup4\n        /* \"#utility.yul\":20731:20735   */\n      dup4\n        /* \"#utility.yul\":20712:20741   */\n      tag_232\n      jump\t// in\n    tag_443:\n        /* \"#utility.yul\":20704:20741   */\n      swap2\n      pop\n        /* \"#utility.yul\":20774:20777   */\n      dup3\n        /* \"#utility.yul\":20771:20772   */\n      0x02\n        /* \"#utility.yul\":20767:20778   */\n      mul\n        /* \"#utility.yul\":20761:20765   */\n      dup3\n        /* \"#utility.yul\":20758:20779   */\n      or\n        /* \"#utility.yul\":20750:20779   */\n      swap1\n      pop\n        /* \"#utility.yul\":20490:20785   */\n      swap3\n      swap2\n      pop\n      pop\n      jump\t// out\n        /* \"#utility.yul\":20790:22185   */\n    tag_123:\n        /* \"#utility.yul\":20907:20944   */\n      tag_445\n        /* \"#utility.yul\":20940:20943   */\n      dup3\n        /* \"#utility.yul\":20907:20944   */\n      tag_176\n      jump\t// in\n    tag_445:\n        /* \"#utility.yul\":21009:21027   */\n      0xffffffffffffffff\n        /* \"#utility.yul\":21001:21007   */\n      dup2\n        /* \"#utility.yul\":20998:21028   */\n      gt\n        /* \"#utility.yul\":20995:21051   */\n      iszero\n      tag_446\n      jumpi\n        /* \"#utility.yul\":21031:21049   */\n      tag_447\n      tag_196\n      jump\t// in\n    tag_447:\n        /* \"#utility.yul\":20995:21051   */\n    tag_446:\n        /* \"#utility.yul\":21075:21113   */\n      tag_448\n        /* \"#utility.yul\":21107:21111   */\n      dup3\n        /* \"#utility.yul\":21101:21112   */\n      sload\n        /* \"#utility.yul\":21075:21113   */\n      tag_96\n      jump\t// in\n    tag_448:\n        /* \"#utility.yul\":21160:21227   */\n      tag_449\n        /* \"#utility.yul\":21220:21226   */\n      dup3\n        /* \"#utility.yul\":21212:21218   */\n      dup3\n        /* \"#utility.yul\":21206:21210   */\n      dup6\n        /* \"#utility.yul\":21160:21227   */\n      tag_230\n      jump\t// in\n    tag_449:\n        /* \"#utility.yul\":21254:21255   */\n      0x00\n        /* \"#utility.yul\":21278:21282   */\n      0x20\n        /* \"#utility.yul\":21265:21282   */\n      swap1\n      pop\n        /* \"#utility.yul\":21310:21312   */\n      0x1f\n        /* \"#utility.yul\":21302:21308   */\n      dup4\n        /* \"#utility.yul\":21299:21313   */\n      gt\n        /* \"#utility.yul\":21327:21328   */\n      0x01\n        /* \"#utility.yul\":21322:21940   */\n      dup2\n      eq\n      tag_451\n      jumpi\n        /* \"#utility.yul\":21984:21985   */\n      0x00\n        /* \"#utility.yul\":22001:22007   */\n      dup5\n        /* \"#utility.yul\":21998:22075   */\n      iszero\n      tag_452\n      jumpi\n        /* \"#utility.yul\":22050:22059   */\n      dup3\n        /* \"#utility.yul\":22045:22048   */\n      dup8\n        /* \"#utility.yul\":22041:22060   */\n      add\n        /* \"#utility.yul\":22035:22061   */\n      mload\n        /* \"#utility.yul\":22026:22061   */\n      swap1\n      pop\n        /* \"#utility.yul\":21998:22075   */\n    tag_452:\n        /* \"#utility.yul\":22101:22168   */\n      tag_453\n        /* \"#utility.yul\":22161:22167   */\n      dup6\n        /* \"#utility.yul\":22154:22159   */\n      dup3\n        /* \"#utility.yul\":22101:22168   */\n      tag_233\n      jump\t// in\n    tag_453:\n        /* \"#utility.yul\":22095:22099   */\n      dup7\n        /* \"#utility.yul\":22088:22169   */\n      sstore\n        /* \"#utility.yul\":21957:22179   */\n      pop\n        /* \"#utility.yul\":21292:22179   */\n      jump(tag_450)\n        /* \"#utility.yul\":21322:21940   */\n    tag_451:\n        /* \"#utility.yul\":21374:21378   */\n      0x1f\n        /* \"#utility.yul\":21370:21379   */\n      not\n        /* \"#utility.yul\":21362:21368   */\n      dup5\n        /* \"#utility.yul\":21358:21380   */\n      and\n        /* \"#utility.yul\":21408:21445   */\n      tag_454\n        /* \"#utility.yul\":21440:21444   */\n      dup7\n        /* \"#utility.yul\":21408:21445   */\n      tag_219\n      jump\t// in\n    tag_454:\n        /* \"#utility.yul\":21467:21468   */\n      0x00\n        /* \"#utility.yul\":21481:21689   */\n    tag_455:\n        /* \"#utility.yul\":21495:21502   */\n      dup3\n        /* \"#utility.yul\":21492:21493   */\n      dup2\n        /* \"#utility.yul\":21489:21503   */\n      lt\n        /* \"#utility.yul\":21481:21689   */\n      iszero\n      tag_457\n      jumpi\n        /* \"#utility.yul\":21574:21583   */\n      dup5\n        /* \"#utility.yul\":21569:21572   */\n      dup10\n        /* \"#utility.yul\":21565:21584   */\n      add\n        /* \"#utility.yul\":21559:21585   */\n      mload\n        /* \"#utility.yul\":21551:21557   */\n      dup3\n        /* \"#utility.yul\":21544:21586   */\n      sstore\n        /* \"#utility.yul\":21625:21626   */\n      0x01\n        /* \"#utility.yul\":21617:21623   */\n      dup3\n        /* \"#utility.yul\":21613:21627   */\n      add\n        /* \"#utility.yul\":21603:21627   */\n      swap2\n      pop\n        /* \"#utility.yul\":21672:21674   */\n      0x20\n        /* \"#utility.yul\":21661:21670   */\n      dup6\n        /* \"#utility.yul\":21657:21675   */\n      add\n        /* \"#utility.yul\":21644:21675   */\n      swap5\n      pop\n        /* \"#utility.yul\":21518:21522   */\n      0x20\n        /* \"#utility.yul\":21515:21516   */\n      dup2\n        /* \"#utility.yul\":21511:21523   */\n      add\n        /* \"#utility.yul\":21506:21523   */\n      swap1\n      pop\n        /* \"#utility.yul\":21481:21689   */\n      jump(tag_455)\n    tag_457:\n        /* \"#utility.yul\":21717:21723   */\n      dup7\n        /* \"#utility.yul\":21708:21715   */\n      dup4\n        /* \"#utility.yul\":21705:21724   */\n      lt\n        /* \"#utility.yul\":21702:21881   */\n      iszero\n      tag_458\n      jumpi\n        /* \"#utility.yul\":21775:21784   */\n      dup5\n        /* \"#utility.yul\":21770:21773   */\n      dup10\n        /* \"#utility.yul\":21766:21785   */\n      add\n        /* \"#utility.yul\":21760:21786   */\n      mload\n        /* \"#utility.yul\":21818:21866   */\n      tag_459\n        /* \"#utility.yul\":21860:21864   */\n      0x1f\n        /* \"#utility.yul\":21852:21858   */\n      dup10\n        /* \"#utility.yul\":21848:21865   */\n      and\n        /* \"#utility.yul\":21837:21846   */\n      dup3\n        /* \"#utility.yul\":21818:21866   */\n      tag_232\n      jump\t// in\n    tag_459:\n        /* \"#utility.yul\":21810:21816   */\n      dup4\n        /* \"#utility.yul\":21803:21867   */\n      sstore\n        /* \"#utility.yul\":21725:21881   */\n      pop\n        /* \"#utility.yul\":21702:21881   */\n    tag_458:\n        /* \"#utility.yul\":21927:21928   */\n      0x01\n        /* \"#utility.yul\":21923:21924   */\n      0x02\n        /* \"#utility.yul\":21915:21921   */\n      dup9\n        /* \"#utility.yul\":21911:21925   */\n      mul\n        /* \"#utility.yul\":21907:21929   */\n      add\n        /* \"#utility.yul\":21901:21905   */\n      dup9\n        /* \"#utility.yul\":21894:21930   */\n      sstore\n        /* \"#utility.yul\":21329:21940   */\n      pop\n      pop\n      pop\n        /* \"#utility.yul\":21292:22179   */\n    tag_450:\n      pop\n        /* \"#utility.yul\":20882:22185   */\n      pop\n      pop\n      pop\n        /* \"#utility.yul\":20790:22185   */\n      pop\n      pop\n      jump\t// out\n        /* \"#utility.yul\":22191:22614   */\n    tag_125:\n        /* \"#utility.yul\":22332:22336   */\n      0x00\n        /* \"#utility.yul\":22370:22372   */\n      0x40\n        /* \"#utility.yul\":22359:22368   */\n      dup3\n        /* \"#utility.yul\":22355:22373   */\n      add\n        /* \"#utility.yul\":22347:22373   */\n      swap1\n      pop\n        /* \"#utility.yul\":22383:22454   */\n      tag_461\n        /* \"#utility.yul\":22451:22452   */\n      0x00\n        /* \"#utility.yul\":22440:22449   */\n      dup4\n        /* \"#utility.yul\":22436:22453   */\n      add\n        /* \"#utility.yul\":22427:22433   */\n      dup6\n        /* \"#utility.yul\":22383:22454   */\n      tag_172\n      jump\t// in\n    tag_461:\n        /* \"#utility.yul\":22501:22510   */\n      dup2\n        /* \"#utility.yul\":22495:22499   */\n      dup2\n        /* \"#utility.yul\":22491:22511   */\n      sub\n        /* \"#utility.yul\":22486:22488   */\n      0x20\n        /* \"#utility.yul\":22475:22484   */\n      dup4\n        /* \"#utility.yul\":22471:22489   */\n      add\n        /* \"#utility.yul\":22464:22512   */\n      mstore\n        /* \"#utility.yul\":22529:22607   */\n      tag_462\n        /* \"#utility.yul\":22602:22606   */\n      dup2\n        /* \"#utility.yul\":22593:22599   */\n      dup5\n        /* \"#utility.yul\":22529:22607   */\n      tag_204\n      jump\t// in\n    tag_462:\n        /* \"#utility.yul\":22521:22607   */\n      swap1\n      pop\n        /* \"#utility.yul\":22191:22614   */\n      swap4\n      swap3\n      pop\n      pop\n      pop\n      jump\t// out\n        /* \"#utility.yul\":22620:22800   */\n    tag_234:\n        /* \"#utility.yul\":22668:22745   */\n      0x4e487b7100000000000000000000000000000000000000000000000000000000\n        /* \"#utility.yul\":22665:22666   */\n      0x00\n        /* \"#utility.yul\":22658:22746   */\n      mstore\n        /* \"#utility.yul\":22765:22769   */\n      0x11\n        /* \"#utility.yul\":22762:22763   */\n      0x04\n        /* \"#utility.yul\":22755:22770   */\n      mstore\n        /* \"#utility.yul\":22789:22793   */\n      0x24\n        /* \"#utility.yul\":22786:22787   */\n      0x00\n        /* \"#utility.yul\":22779:22794   */\n      revert\n        /* \"#utility.yul\":22806:23039   */\n    tag_127:\n        /* \"#utility.yul\":22845:22848   */\n      0x00\n        /* \"#utility.yul\":22868:22892   */\n      tag_465\n        /* \"#utility.yul\":22886:22891   */\n      dup3\n        /* \"#utility.yul\":22868:22892   */\n      tag_169\n      jump\t// in\n    tag_465:\n        /* \"#utility.yul\":22859:22892   */\n      swap2\n      pop\n        /* \"#utility.yul\":22914:22980   */\n      0xffffffffffffffffffffffffffffffffffffffffffffffffffffffffffffffff\n        /* \"#utility.yul\":22907:22912   */\n      dup3\n        /* \"#utility.yul\":22904:22981   */\n      sub\n        /* \"#utility.yul\":22901:23004   */\n      tag_466\n      jumpi\n        /* \"#utility.yul\":22984:23002   */\n      tag_467\n      tag_234\n      jump\t// in\n    tag_467:\n        /* \"#utility.yul\":22901:23004   */\n    tag_466:\n        /* \"#utility.yul\":23031:23032   */\n      0x01\n        /* \"#utility.yul\":23024:23029   */\n      dup3\n        /* \"#utility.yul\":23020:23033   */\n      add\n        /* \"#utility.yul\":23013:23033   */\n      swap1\n      pop\n        /* \"#utility.yul\":22806:23039   */\n      swap2\n      swap1\n      pop\n      jump\t// out\n        /* \"#utility.yul\":23045:23204   */\n    tag_235:\n        /* \"#utility.yul\":23185:23196   */\n      0x5572756e20796f6b2e0000000000000000000000000000000000000000000000\n        /* \"#utility.yul\":23181:23182   */\n      0x00\n        /* \"#utility.yul\":23173:23179   */\n      dup3\n        /* \"#utility.yul\":23169:23183   */\n      add\n        /* \"#utility.yul\":23162:23197   */\n      mstore\n        /* \"#utility.yul\":23045:23204   */\n      pop\n      jump\t// out\n        /* \"#utility.yul\":23210:23575   */\n    tag_236:\n        /* \"#utility.yul\":23352:23355   */\n      0x00\n        /* \"#utility.yul\":23373:23439   */\n      tag_470\n        /* \"#utility.yul\":23437:23438   */\n      0x09\n        /* \"#utility.yul\":23432:23435   */\n      dup4\n        /* \"#utility.yul\":23373:23439   */\n      tag_203\n      jump\t// in\n    tag_470:\n        /* \"#utility.yul\":23366:23439   */\n      swap2\n      pop\n        /* \"#utility.yul\":23448:23541   */\n      tag_471\n        /* \"#utility.yul\":23537:23540   */\n      dup3\n        /* \"#utility.yul\":23448:23541   */\n      tag_235\n      jump\t// in\n    tag_471:\n        /* \"#utility.yul\":23566:23568   */\n      0x20\n        /* \"#utility.yul\":23561:23564   */\n      dup3\n        /* \"#utility.yul\":23557:23569   */\n      add\n        /* \"#utility.yul\":23550:23569   */\n      swap1\n      pop\n        /* \"#utility.yul\":23210:23575   */\n      swap2\n      swap1\n      pop\n      jump\t// out\n        /* \"#utility.yul\":23581:24000   */\n    tag_139:\n        /* \"#utility.yul\":23747:23751   */\n      0x00\n        /* \"#utility.yul\":23785:23787   */\n      0x20\n        /* \"#utility.yul\":23774:23783   */\n      dup3\n        /* \"#utility.yul\":23770:23788   */\n      add\n        /* \"#utility.yul\":23762:23788   */\n      swap1\n      pop\n        /* \"#utility.yul\":23834:23843   */\n      dup2\n        /* \"#utility.yul\":23828:23832   */\n      dup2\n        /* \"#utility.yul\":23824:23844   */\n      sub\n        /* \"#utility.yul\":23820:23821   */\n      0x00\n        /* \"#utility.yul\":23809:23818   */\n      dup4\n        /* \"#utility.yul\":23805:23822   */\n      add\n        /* \"#utility.yul\":23798:23845   */\n      mstore\n        /* \"#utility.yul\":23862:23993   */\n      tag_473\n        /* \"#utility.yul\":23988:23992   */\n      dup2\n        /* \"#utility.yul\":23862:23993   */\n      tag_236\n      jump\t// in\n    tag_473:\n        /* \"#utility.yul\":23854:23993   */\n      swap1\n      pop\n        /* \"#utility.yul\":23581:24000   */\n      swap2\n      swap1\n      pop\n      jump\t// out\n        /* \"#utility.yul\":24006:24200   */\n    tag_153:\n        /* \"#utility.yul\":24046:24050   */\n      0x00\n        /* \"#utility.yul\":24066:24086   */\n      tag_475\n        /* \"#utility.yul\":24084:24085   */\n      dup3\n        /* \"#utility.yul\":24066:24086   */\n      tag_169\n      jump\t// in\n    tag_475:\n        /* \"#utility.yul\":24061:24086   */\n      swap2\n      pop\n        /* \"#utility.yul\":24100:24120   */\n      tag_476\n        /* \"#utility.yul\":24118:24119   */\n      dup4\n        /* \"#utility.yul\":24100:24120   */\n      tag_169\n      jump\t// in\n    tag_476:\n        /* \"#utility.yul\":24095:24120   */\n      swap3\n      pop\n        /* \"#utility.yul\":24144:24145   */\n      dup3\n        /* \"#utility.yul\":24141:24142   */\n      dup3\n        /* \"#utility.yul\":24137:24146   */\n      sub\n        /* \"#utility.yul\":24129:24146   */\n      swap1\n      pop\n        /* \"#utility.yul\":24168:24169   */\n      dup2\n        /* \"#utility.yul\":24162:24166   */\n      dup2\n        /* \"#utility.yul\":24159:24170   */\n      gt\n        /* \"#utility.yul\":24156:24193   */\n      iszero\n      tag_477\n      jumpi\n        /* \"#utility.yul\":24173:24191   */\n      tag_478\n      tag_234\n      jump\t// in\n    tag_478:\n        /* \"#utility.yul\":24156:24193   */\n    tag_477:\n        /* \"#utility.yul\":24006:24200   */\n      swap3\n      swap2\n      pop\n      pop\n      jump\t// out\n\n    auxdata: 0xa26469706673582212205e95071145fe40c6bd5c5a3e248422a55671c153ddc0a1db0bfc13108c9ef21564736f6c634300081c0033\n}\n",
				"bytecode": {
					"linkReferences": {},
					"object": "6080604052348015600e575f5ffd5b503360015f6101000a81548173ffffffffffffffffffffffffffffffffffffffff021916908373ffffffffffffffffffffffffffffffffffffffff16021790555061181a8061005c5f395ff3fe608060405234801561000f575f5ffd5b506004361061007b575f3560e01c80638574cd14116100595780638574cd14146100e9578063995593db14610107578063ba3eeaca14610123578063feff9c1e146101555761007b565b80634ace52131461007f578063737f545f1461009b57806373fea758146100b9575b5f5ffd5b61009960048036038101906100949190610be0565b610185565b005b6100a361043c565b6040516100b09190610c1a565b60405180910390f35b6100d360048036038101906100ce9190610be0565b610442565b6040516100e09190610e73565b60405180910390f35b6100f1610637565b6040516100fe9190610ea2565b60405180910390f35b610121600480360381019061011c9190610fe7565b61065c565b005b61013d60048036038101906101389190610be0565b6107dd565b60405161014c93929190611098565b60405180910390f35b61016f600480360381019061016a9190611198565b6108c2565b60405161017c9190610c1a565b60405180910390f35b805f8054905081106101cc576040517f08c379a00000000000000000000000000000000000000000000000000000000081526004016101c390611258565b60405180910390fd5b60015f9054906101000a900473ffffffffffffffffffffffffffffffffffffffff1673ffffffffffffffffffffffffffffffffffffffff163373ffffffffffffffffffffffffffffffffffffffff161461025b576040517f08c379a0000000000000000000000000000000000000000000000000000000008152600401610252906112c0565b60405180910390fd5b5f5f838154811061026f5761026e6112de565b5b905f5260205f20906004020190506003808111156102905761028f610d99565b5b816003015f9054906101000a900460ff1660038111156102b3576102b2610d99565b5b036102f3576040517f08c379a00000000000000000000000000000000000000000000000000000000081526004016102ea90611355565b60405180910390fd5b5f600381111561030657610305610d99565b5b816003015f9054906101000a900460ff16600381111561032957610328610d99565b5b0361035f576001816003015f6101000a81548160ff0219169083600381111561035557610354610d99565b5b0217905550610437565b6001600381111561037357610372610d99565b5b816003015f9054906101000a900460ff16600381111561039657610395610d99565b5b036103cc576002816003015f6101000a81548160ff021916908360038111156103c2576103c1610d99565b5b0217905550610436565b600260038111156103e0576103df610d99565b5b816003015f9054906101000a900460ff16600381111561040357610402610d99565b5b03610435576003816003015f6101000a81548160ff0219169083600381111561042f5761042e610d99565b5b02179055505b5b5b505050565b60025481565b61044a610ae8565b815f805490508110610491576040517f08c379a000000000000000000000000000000000000000000000000000000000815260040161048890611258565b60405180910390fd5b5f83815481106104a4576104a36112de565b5b905f5260205f2090600402016040518060800160405290815f82015f9054906101000a900473ffffffffffffffffffffffffffffffffffffffff1673ffffffffffffffffffffffffffffffffffffffff1673ffffffffffffffffffffffffffffffffffffffff16815260200160018201805461051f906113a0565b80601f016020809104026020016040519081016040528092919081815260200182805461054b906113a0565b80156105965780601f1061056d57610100808354040283529160200191610596565b820191905f5260205f20905b81548152906001019060200180831161057957829003601f168201915b50505050508152602001600282018054806020026020016040519081016040528092919081815260200182805480156105ec57602002820191905f5260205f20905b8154815260200190600101908083116105d8575b50505050508152602001600382015f9054906101000a900460ff16600381111561061957610618610d99565b5b600381111561062b5761062a610d99565b5b81525050915050919050565b60015f9054906101000a900473ffffffffffffffffffffffffffffffffffffffff1681565b813373ffffffffffffffffffffffffffffffffffffffff165f8281548110610687576106866112de565b5b905f5260205f2090600402015f015f9054906101000a900473ffffffffffffffffffffffffffffffffffffffff1673ffffffffffffffffffffffffffffffffffffffff161461070b576040517f08c379a00000000000000000000000000000000000000000000000000000000081526004016107029061141a565b60405180910390fd5b825f805490508110610752576040517f08c379a000000000000000000000000000000000000000000000000000000000815260040161074990611258565b60405180910390fd5b5f5f8581548110610766576107656112de565b5b905f5260205f20906004020190508381600101908161078591906115d8565b507fa4425de20ad85e10fe61da0d44ee70412074f8e57b83bf2bf768455030595fec85856040516107b79291906116a7565b60405180910390a1505060025f8154809291906107d390611702565b9190505550505050565b5f81815481106107eb575f80fd5b905f5260205f2090600402015f91509050805f015f9054906101000a900473ffffffffffffffffffffffffffffffffffffffff169080600101805461082f906113a0565b80601f016020809104026020016040519081016040528092919081815260200182805461085b906113a0565b80156108a65780601f1061087d576101008083540402835291602001916108a6565b820191905f5260205f20905b81548152906001019060200180831161088957829003601f168201915b505050505090806003015f9054906101000a900460ff16905083565b5f815f815111610907576040517f08c379a00000000000000000000000000000000000000000000000000000000081526004016108fe90611793565b60405180910390fd5b61090f610ae8565b33815f019073ffffffffffffffffffffffffffffffffffffffff16908173ffffffffffffffffffffffffffffffffffffffff16815250508481602001819052508381604001819052505f816060019060038111156109705761096f610d99565b5b9081600381111561098457610983610d99565b5b815250505f81908060018154018082558091505060019003905f5260205f2090600402015f909190919091505f820151815f015f6101000a81548173ffffffffffffffffffffffffffffffffffffffff021916908373ffffffffffffffffffffffffffffffffffffffff1602179055506020820151816001019081610a0991906115d8565b506040820151816002019080519060200190610a26929190610b36565b506060820151816003015f6101000a81548160ff02191690836003811115610a5157610a50610d99565b5b021790555050503373ffffffffffffffffffffffffffffffffffffffff167fceb364ed4480534a1a9ef99d016b236e2facaaa4c02da707932b1ef14d7c903060015f80549050610aa191906117b1565b604051610aae9190610c1a565b60405180910390a260015f80549050610ac791906117b1565b9250505060025f815480929190610add90611702565b919050555092915050565b60405180608001604052805f73ffffffffffffffffffffffffffffffffffffffff16815260200160608152602001606081526020015f6003811115610b3057610b2f610d99565b5b81525090565b828054828255905f5260205f20908101928215610b70579160200282015b82811115610b6f578251825591602001919060010190610b54565b5b509050610b7d9190610b81565b5090565b5b80821115610b98575f815f905550600101610b82565b5090565b5f604051905090565b5f5ffd5b5f5ffd5b5f819050919050565b610bbf81610bad565b8114610bc9575f5ffd5b50565b5f81359050610bda81610bb6565b92915050565b5f60208284031215610bf557610bf4610ba5565b5b5f610c0284828501610bcc565b91505092915050565b610c1481610bad565b82525050565b5f602082019050610c2d5f830184610c0b565b92915050565b5f73ffffffffffffffffffffffffffffffffffffffff82169050919050565b5f610c5c82610c33565b9050919050565b610c6c81610c52565b82525050565b5f81519050919050565b5f82825260208201905092915050565b8281835e5f83830152505050565b5f601f19601f8301169050919050565b5f610cb482610c72565b610cbe8185610c7c565b9350610cce818560208601610c8c565b610cd781610c9a565b840191505092915050565b5f81519050919050565b5f82825260208201905092915050565b5f819050602082019050919050565b610d1481610bad565b82525050565b5f610d258383610d0b565b60208301905092915050565b5f602082019050919050565b5f610d4782610ce2565b610d518185610cec565b9350610d5c83610cfc565b805f5b83811015610d8c578151610d738882610d1a565b9750610d7e83610d31565b925050600181019050610d5f565b5085935050505092915050565b7f4e487b71000000000000000000000000000000000000000000000000000000005f52602160045260245ffd5b60048110610dd757610dd6610d99565b5b50565b5f819050610de782610dc6565b919050565b5f610df682610dda565b9050919050565b610e0681610dec565b82525050565b5f608083015f830151610e215f860182610c63565b5060208301518482036020860152610e398282610caa565b91505060408301518482036040860152610e538282610d3d565b9150506060830151610e686060860182610dfd565b508091505092915050565b5f6020820190508181035f830152610e8b8184610e0c565b905092915050565b610e9c81610c52565b82525050565b5f602082019050610eb55f830184610e93565b92915050565b5f5ffd5b5f5ffd5b7f4e487b71000000000000000000000000000000000000000000000000000000005f52604160045260245ffd5b610ef982610c9a565b810181811067ffffffffffffffff82111715610f1857610f17610ec3565b5b80604052505050565b5f610f2a610b9c565b9050610f368282610ef0565b919050565b5f67ffffffffffffffff821115610f5557610f54610ec3565b5b610f5e82610c9a565b9050602081019050919050565b828183375f83830152505050565b5f610f8b610f8684610f3b565b610f21565b905082815260208101848484011115610fa757610fa6610ebf565b5b610fb2848285610f6b565b509392505050565b5f82601f830112610fce57610fcd610ebb565b5b8135610fde848260208601610f79565b91505092915050565b5f5f60408385031215610ffd57610ffc610ba5565b5b5f61100a85828601610bcc565b925050602083013567ffffffffffffffff81111561102b5761102a610ba9565b5b61103785828601610fba565b9150509250929050565b5f82825260208201905092915050565b5f61105b82610c72565b6110658185611041565b9350611075818560208601610c8c565b61107e81610c9a565b840191505092915050565b61109281610dec565b82525050565b5f6060820190506110ab5f830186610e93565b81810360208301526110bd8185611051565b90506110cc6040830184611089565b949350505050565b5f67ffffffffffffffff8211156110ee576110ed610ec3565b5b602082029050602081019050919050565b5f5ffd5b5f611115611110846110d4565b610f21565b90508083825260208201905060208402830185811115611138576111376110ff565b5b835b81811015611161578061114d8882610bcc565b84526020840193505060208101905061113a565b5050509392505050565b5f82601f83011261117f5761117e610ebb565b5b813561118f848260208601611103565b91505092915050565b5f5f604083850312156111ae576111ad610ba5565b5b5f83013567ffffffffffffffff8111156111cb576111ca610ba9565b5b6111d785828601610fba565b925050602083013567ffffffffffffffff8111156111f8576111f7610ba9565b5b6112048582860161116b565b9150509250929050565b7f47656365726c6920626972207369706172697320494427736920646567696c2e5f82015250565b5f611242602083611041565b915061124d8261120e565b602082019050919050565b5f6020820190508181035f83015261126f81611236565b9050919050565b7f5965746b696e697a20796f6b2e000000000000000000000000000000000000005f82015250565b5f6112aa600d83611041565b91506112b582611276565b602082019050919050565b5f6020820190508181035f8301526112d78161129e565b9050919050565b7f4e487b71000000000000000000000000000000000000000000000000000000005f52603260045260245ffd5b7f53697061726973207a6174656e206b6172676f6c616e64692e000000000000005f82015250565b5f61133f601983611041565b915061134a8261130b565b602082019050919050565b5f6020820190508181035f83015261136c81611333565b9050919050565b7f4e487b71000000000000000000000000000000000000000000000000000000005f52602260045260245ffd5b5f60028204905060018216806113b757607f821691505b6020821081036113ca576113c9611373565b5b50919050565b7f53697061726973696e2073616869626920646567696c73696e697a2e000000005f82015250565b5f611404601c83611041565b915061140f826113d0565b602082019050919050565b5f6020820190508181035f830152611431816113f8565b9050919050565b5f819050815f5260205f209050919050565b5f6020601f8301049050919050565b5f82821b905092915050565b5f600883026114947fffffffffffffffffffffffffffffffffffffffffffffffffffffffffffffffff82611459565b61149e8683611459565b95508019841693508086168417925050509392505050565b5f819050919050565b5f6114d96114d46114cf84610bad565b6114b6565b610bad565b9050919050565b5f819050919050565b6114f2836114bf565b6115066114fe826114e0565b848454611465565b825550505050565b5f5f905090565b61151d61150e565b6115288184846114e9565b505050565b5b8181101561154b576115405f82611515565b60018101905061152e565b5050565b601f8211156115905761156181611438565b61156a8461144a565b81016020851015611579578190505b61158d6115858561144a565b83018261152d565b50505b505050565b5f82821c905092915050565b5f6115b05f1984600802611595565b1980831691505092915050565b5f6115c883836115a1565b9150826002028217905092915050565b6115e182610c72565b67ffffffffffffffff8111156115fa576115f9610ec3565b5b61160482546113a0565b61160f82828561154f565b5f60209050601f831160018114611640575f841561162e578287015190505b61163885826115bd565b86555061169f565b601f19841661164e86611438565b5f5b8281101561167557848901518255600182019150602085019450602081019050611650565b86831015611692578489015161168e601f8916826115a1565b8355505b6001600288020188555050505b505050505050565b5f6040820190506116ba5f830185610c0b565b81810360208301526116cc8184611051565b90509392505050565b7f4e487b71000000000000000000000000000000000000000000000000000000005f52601160045260245ffd5b5f61170c82610bad565b91507fffffffffffffffffffffffffffffffffffffffffffffffffffffffffffffffff820361173e5761173d6116d5565b5b600182019050919050565b7f5572756e20796f6b2e00000000000000000000000000000000000000000000005f82015250565b5f61177d600983611041565b915061178882611749565b602082019050919050565b5f6020820190508181035f8301526117aa81611771565b9050919050565b5f6117bb82610bad565b91506117c683610bad565b92508282039050818111156117de576117dd6116d5565b5b9291505056fea26469706673582212205e95071145fe40c6bd5c5a3e248422a55671c153ddc0a1db0bfc13108c9ef21564736f6c634300081c0033",
					"opcodes": "PUSH1 0x80 PUSH1 0x40 MSTORE CALLVALUE DUP1 ISZERO PUSH1 0xE JUMPI PUSH0 PUSH0 REVERT JUMPDEST POP CALLER PUSH1 0x1 PUSH0 PUSH2 0x100 EXP DUP2 SLOAD DUP2 PUSH20 0xFFFFFFFFFFFFFFFFFFFFFFFFFFFFFFFFFFFFFFFF MUL NOT AND SWAP1 DUP4 PUSH20 0xFFFFFFFFFFFFFFFFFFFFFFFFFFFFFFFFFFFFFFFF AND MUL OR SWAP1 SSTORE POP PUSH2 0x181A DUP1 PUSH2 0x5C PUSH0 CODECOPY PUSH0 RETURN INVALID PUSH1 0x80 PUSH1 0x40 MSTORE CALLVALUE DUP1 ISZERO PUSH2 0xF JUMPI PUSH0 PUSH0 REVERT JUMPDEST POP PUSH1 0x4 CALLDATASIZE LT PUSH2 0x7B JUMPI PUSH0 CALLDATALOAD PUSH1 0xE0 SHR DUP1 PUSH4 0x8574CD14 GT PUSH2 0x59 JUMPI DUP1 PUSH4 0x8574CD14 EQ PUSH2 0xE9 JUMPI DUP1 PUSH4 0x995593DB EQ PUSH2 0x107 JUMPI DUP1 PUSH4 0xBA3EEACA EQ PUSH2 0x123 JUMPI DUP1 PUSH4 0xFEFF9C1E EQ PUSH2 0x155 JUMPI PUSH2 0x7B JUMP JUMPDEST DUP1 PUSH4 0x4ACE5213 EQ PUSH2 0x7F JUMPI DUP1 PUSH4 0x737F545F EQ PUSH2 0x9B JUMPI DUP1 PUSH4 0x73FEA758 EQ PUSH2 0xB9 JUMPI JUMPDEST PUSH0 PUSH0 REVERT JUMPDEST PUSH2 0x99 PUSH1 0x4 DUP1 CALLDATASIZE SUB DUP2 ADD SWAP1 PUSH2 0x94 SWAP2 SWAP1 PUSH2 0xBE0 JUMP JUMPDEST PUSH2 0x185 JUMP JUMPDEST STOP JUMPDEST PUSH2 0xA3 PUSH2 0x43C JUMP JUMPDEST PUSH1 0x40 MLOAD PUSH2 0xB0 SWAP2 SWAP1 PUSH2 0xC1A JUMP JUMPDEST PUSH1 0x40 MLOAD DUP1 SWAP2 SUB SWAP1 RETURN JUMPDEST PUSH2 0xD3 PUSH1 0x4 DUP1 CALLDATASIZE SUB DUP2 ADD SWAP1 PUSH2 0xCE SWAP2 SWAP1 PUSH2 0xBE0 JUMP JUMPDEST PUSH2 0x442 JUMP JUMPDEST PUSH1 0x40 MLOAD PUSH2 0xE0 SWAP2 SWAP1 PUSH2 0xE73 JUMP JUMPDEST PUSH1 0x40 MLOAD DUP1 SWAP2 SUB SWAP1 RETURN JUMPDEST PUSH2 0xF1 PUSH2 0x637 JUMP JUMPDEST PUSH1 0x40 MLOAD PUSH2 0xFE SWAP2 SWAP1 PUSH2 0xEA2 JUMP JUMPDEST PUSH1 0x40 MLOAD DUP1 SWAP2 SUB SWAP1 RETURN JUMPDEST PUSH2 0x121 PUSH1 0x4 DUP1 CALLDATASIZE SUB DUP2 ADD SWAP1 PUSH2 0x11C SWAP2 SWAP1 PUSH2 0xFE7 JUMP JUMPDEST PUSH2 0x65C JUMP JUMPDEST STOP JUMPDEST PUSH2 0x13D PUSH1 0x4 DUP1 CALLDATASIZE SUB DUP2 ADD SWAP1 PUSH2 0x138 SWAP2 SWAP1 PUSH2 0xBE0 JUMP JUMPDEST PUSH2 0x7DD JUMP JUMPDEST PUSH1 0x40 MLOAD PUSH2 0x14C SWAP4 SWAP3 SWAP2 SWAP1 PUSH2 0x1098 JUMP JUMPDEST PUSH1 0x40 MLOAD DUP1 SWAP2 SUB SWAP1 RETURN JUMPDEST PUSH2 0x16F PUSH1 0x4 DUP1 CALLDATASIZE SUB DUP2 ADD SWAP1 PUSH2 0x16A SWAP2 SWAP1 PUSH2 0x1198 JUMP JUMPDEST PUSH2 0x8C2 JUMP JUMPDEST PUSH1 0x40 MLOAD PUSH2 0x17C SWAP2 SWAP1 PUSH2 0xC1A JUMP JUMPDEST PUSH1 0x40 MLOAD DUP1 SWAP2 SUB SWAP1 RETURN JUMPDEST DUP1 PUSH0 DUP1 SLOAD SWAP1 POP DUP2 LT PUSH2 0x1CC JUMPI PUSH1 0x40 MLOAD PUSH32 0x8C379A000000000000000000000000000000000000000000000000000000000 DUP2 MSTORE PUSH1 0x4 ADD PUSH2 0x1C3 SWAP1 PUSH2 0x1258 JUMP JUMPDEST PUSH1 0x40 MLOAD DUP1 SWAP2 SUB SWAP1 REVERT JUMPDEST PUSH1 0x1 PUSH0 SWAP1 SLOAD SWAP1 PUSH2 0x100 EXP SWAP1 DIV PUSH20 0xFFFFFFFFFFFFFFFFFFFFFFFFFFFFFFFFFFFFFFFF AND PUSH20 0xFFFFFFFFFFFFFFFFFFFFFFFFFFFFFFFFFFFFFFFF AND CALLER PUSH20 0xFFFFFFFFFFFFFFFFFFFFFFFFFFFFFFFFFFFFFFFF AND EQ PUSH2 0x25B JUMPI PUSH1 0x40 MLOAD PUSH32 0x8C379A000000000000000000000000000000000000000000000000000000000 DUP2 MSTORE PUSH1 0x4 ADD PUSH2 0x252 SWAP1 PUSH2 0x12C0 JUMP JUMPDEST PUSH1 0x40 MLOAD DUP1 SWAP2 SUB SWAP1 REVERT JUMPDEST PUSH0 PUSH0 DUP4 DUP2 SLOAD DUP2 LT PUSH2 0x26F JUMPI PUSH2 0x26E PUSH2 0x12DE JUMP JUMPDEST JUMPDEST SWAP1 PUSH0 MSTORE PUSH1 0x20 PUSH0 KECCAK256 SWAP1 PUSH1 0x4 MUL ADD SWAP1 POP PUSH1 0x3 DUP1 DUP2 GT ISZERO PUSH2 0x290 JUMPI PUSH2 0x28F PUSH2 0xD99 JUMP JUMPDEST JUMPDEST DUP2 PUSH1 0x3 ADD PUSH0 SWAP1 SLOAD SWAP1 PUSH2 0x100 EXP SWAP1 DIV PUSH1 0xFF AND PUSH1 0x3 DUP2 GT ISZERO PUSH2 0x2B3 JUMPI PUSH2 0x2B2 PUSH2 0xD99 JUMP JUMPDEST JUMPDEST SUB PUSH2 0x2F3 JUMPI PUSH1 0x40 MLOAD PUSH32 0x8C379A000000000000000000000000000000000000000000000000000000000 DUP2 MSTORE PUSH1 0x4 ADD PUSH2 0x2EA SWAP1 PUSH2 0x1355 JUMP JUMPDEST PUSH1 0x40 MLOAD DUP1 SWAP2 SUB SWAP1 REVERT JUMPDEST PUSH0 PUSH1 0x3 DUP2 GT ISZERO PUSH2 0x306 JUMPI PUSH2 0x305 PUSH2 0xD99 JUMP JUMPDEST JUMPDEST DUP2 PUSH1 0x3 ADD PUSH0 SWAP1 SLOAD SWAP1 PUSH2 0x100 EXP SWAP1 DIV PUSH1 0xFF AND PUSH1 0x3 DUP2 GT ISZERO PUSH2 0x329 JUMPI PUSH2 0x328 PUSH2 0xD99 JUMP JUMPDEST JUMPDEST SUB PUSH2 0x35F JUMPI PUSH1 0x1 DUP2 PUSH1 0x3 ADD PUSH0 PUSH2 0x100 EXP DUP2 SLOAD DUP2 PUSH1 0xFF MUL NOT AND SWAP1 DUP4 PUSH1 0x3 DUP2 GT ISZERO PUSH2 0x355 JUMPI PUSH2 0x354 PUSH2 0xD99 JUMP JUMPDEST JUMPDEST MUL OR SWAP1 SSTORE POP PUSH2 0x437 JUMP JUMPDEST PUSH1 0x1 PUSH1 0x3 DUP2 GT ISZERO PUSH2 0x373 JUMPI PUSH2 0x372 PUSH2 0xD99 JUMP JUMPDEST JUMPDEST DUP2 PUSH1 0x3 ADD PUSH0 SWAP1 SLOAD SWAP1 PUSH2 0x100 EXP SWAP1 DIV PUSH1 0xFF AND PUSH1 0x3 DUP2 GT ISZERO PUSH2 0x396 JUMPI PUSH2 0x395 PUSH2 0xD99 JUMP JUMPDEST JUMPDEST SUB PUSH2 0x3CC JUMPI PUSH1 0x2 DUP2 PUSH1 0x3 ADD PUSH0 PUSH2 0x100 EXP DUP2 SLOAD DUP2 PUSH1 0xFF MUL NOT AND SWAP1 DUP4 PUSH1 0x3 DUP2 GT ISZERO PUSH2 0x3C2 JUMPI PUSH2 0x3C1 PUSH2 0xD99 JUMP JUMPDEST JUMPDEST MUL OR SWAP1 SSTORE POP PUSH2 0x436 JUMP JUMPDEST PUSH1 0x2 PUSH1 0x3 DUP2 GT ISZERO PUSH2 0x3E0 JUMPI PUSH2 0x3DF PUSH2 0xD99 JUMP JUMPDEST JUMPDEST DUP2 PUSH1 0x3 ADD PUSH0 SWAP1 SLOAD SWAP1 PUSH2 0x100 EXP SWAP1 DIV PUSH1 0xFF AND PUSH1 0x3 DUP2 GT ISZERO PUSH2 0x403 JUMPI PUSH2 0x402 PUSH2 0xD99 JUMP JUMPDEST JUMPDEST SUB PUSH2 0x435 JUMPI PUSH1 0x3 DUP2 PUSH1 0x3 ADD PUSH0 PUSH2 0x100 EXP DUP2 SLOAD DUP2 PUSH1 0xFF MUL NOT AND SWAP1 DUP4 PUSH1 0x3 DUP2 GT ISZERO PUSH2 0x42F JUMPI PUSH2 0x42E PUSH2 0xD99 JUMP JUMPDEST JUMPDEST MUL OR SWAP1 SSTORE POP JUMPDEST JUMPDEST JUMPDEST POP POP POP JUMP JUMPDEST PUSH1 0x2 SLOAD DUP2 JUMP JUMPDEST PUSH2 0x44A PUSH2 0xAE8 JUMP JUMPDEST DUP2 PUSH0 DUP1 SLOAD SWAP1 POP DUP2 LT PUSH2 0x491 JUMPI PUSH1 0x40 MLOAD PUSH32 0x8C379A000000000000000000000000000000000000000000000000000000000 DUP2 MSTORE PUSH1 0x4 ADD PUSH2 0x488 SWAP1 PUSH2 0x1258 JUMP JUMPDEST PUSH1 0x40 MLOAD DUP1 SWAP2 SUB SWAP1 REVERT JUMPDEST PUSH0 DUP4 DUP2 SLOAD DUP2 LT PUSH2 0x4A4 JUMPI PUSH2 0x4A3 PUSH2 0x12DE JUMP JUMPDEST JUMPDEST SWAP1 PUSH0 MSTORE PUSH1 0x20 PUSH0 KECCAK256 SWAP1 PUSH1 0x4 MUL ADD PUSH1 0x40 MLOAD DUP1 PUSH1 0x80 ADD PUSH1 0x40 MSTORE SWAP1 DUP2 PUSH0 DUP3 ADD PUSH0 SWAP1 SLOAD SWAP1 PUSH2 0x100 EXP SWAP1 DIV PUSH20 0xFFFFFFFFFFFFFFFFFFFFFFFFFFFFFFFFFFFFFFFF AND PUSH20 0xFFFFFFFFFFFFFFFFFFFFFFFFFFFFFFFFFFFFFFFF AND PUSH20 0xFFFFFFFFFFFFFFFFFFFFFFFFFFFFFFFFFFFFFFFF AND DUP2 MSTORE PUSH1 0x20 ADD PUSH1 0x1 DUP3 ADD DUP1 SLOAD PUSH2 0x51F SWAP1 PUSH2 0x13A0 JUMP JUMPDEST DUP1 PUSH1 0x1F ADD PUSH1 0x20 DUP1 SWAP2 DIV MUL PUSH1 0x20 ADD PUSH1 0x40 MLOAD SWAP1 DUP2 ADD PUSH1 0x40 MSTORE DUP1 SWAP3 SWAP2 SWAP1 DUP2 DUP2 MSTORE PUSH1 0x20 ADD DUP3 DUP1 SLOAD PUSH2 0x54B SWAP1 PUSH2 0x13A0 JUMP JUMPDEST DUP1 ISZERO PUSH2 0x596 JUMPI DUP1 PUSH1 0x1F LT PUSH2 0x56D JUMPI PUSH2 0x100 DUP1 DUP4 SLOAD DIV MUL DUP4 MSTORE SWAP2 PUSH1 0x20 ADD SWAP2 PUSH2 0x596 JUMP JUMPDEST DUP3 ADD SWAP2 SWAP1 PUSH0 MSTORE PUSH1 0x20 PUSH0 KECCAK256 SWAP1 JUMPDEST DUP2 SLOAD DUP2 MSTORE SWAP1 PUSH1 0x1 ADD SWAP1 PUSH1 0x20 ADD DUP1 DUP4 GT PUSH2 0x579 JUMPI DUP3 SWAP1 SUB PUSH1 0x1F AND DUP3 ADD SWAP2 JUMPDEST POP POP POP POP POP DUP2 MSTORE PUSH1 0x20 ADD PUSH1 0x2 DUP3 ADD DUP1 SLOAD DUP1 PUSH1 0x20 MUL PUSH1 0x20 ADD PUSH1 0x40 MLOAD SWAP1 DUP2 ADD PUSH1 0x40 MSTORE DUP1 SWAP3 SWAP2 SWAP1 DUP2 DUP2 MSTORE PUSH1 0x20 ADD DUP3 DUP1 SLOAD DUP1 ISZERO PUSH2 0x5EC JUMPI PUSH1 0x20 MUL DUP3 ADD SWAP2 SWAP1 PUSH0 MSTORE PUSH1 0x20 PUSH0 KECCAK256 SWAP1 JUMPDEST DUP2 SLOAD DUP2 MSTORE PUSH1 0x20 ADD SWAP1 PUSH1 0x1 ADD SWAP1 DUP1 DUP4 GT PUSH2 0x5D8 JUMPI JUMPDEST POP POP POP POP POP DUP2 MSTORE PUSH1 0x20 ADD PUSH1 0x3 DUP3 ADD PUSH0 SWAP1 SLOAD SWAP1 PUSH2 0x100 EXP SWAP1 DIV PUSH1 0xFF AND PUSH1 0x3 DUP2 GT ISZERO PUSH2 0x619 JUMPI PUSH2 0x618 PUSH2 0xD99 JUMP JUMPDEST JUMPDEST PUSH1 0x3 DUP2 GT ISZERO PUSH2 0x62B JUMPI PUSH2 0x62A PUSH2 0xD99 JUMP JUMPDEST JUMPDEST DUP2 MSTORE POP POP SWAP2 POP POP SWAP2 SWAP1 POP JUMP JUMPDEST PUSH1 0x1 PUSH0 SWAP1 SLOAD SWAP1 PUSH2 0x100 EXP SWAP1 DIV PUSH20 0xFFFFFFFFFFFFFFFFFFFFFFFFFFFFFFFFFFFFFFFF AND DUP2 JUMP JUMPDEST DUP2 CALLER PUSH20 0xFFFFFFFFFFFFFFFFFFFFFFFFFFFFFFFFFFFFFFFF AND PUSH0 DUP3 DUP2 SLOAD DUP2 LT PUSH2 0x687 JUMPI PUSH2 0x686 PUSH2 0x12DE JUMP JUMPDEST JUMPDEST SWAP1 PUSH0 MSTORE PUSH1 0x20 PUSH0 KECCAK256 SWAP1 PUSH1 0x4 MUL ADD PUSH0 ADD PUSH0 SWAP1 SLOAD SWAP1 PUSH2 0x100 EXP SWAP1 DIV PUSH20 0xFFFFFFFFFFFFFFFFFFFFFFFFFFFFFFFFFFFFFFFF AND PUSH20 0xFFFFFFFFFFFFFFFFFFFFFFFFFFFFFFFFFFFFFFFF AND EQ PUSH2 0x70B JUMPI PUSH1 0x40 MLOAD PUSH32 0x8C379A000000000000000000000000000000000000000000000000000000000 DUP2 MSTORE PUSH1 0x4 ADD PUSH2 0x702 SWAP1 PUSH2 0x141A JUMP JUMPDEST PUSH1 0x40 MLOAD DUP1 SWAP2 SUB SWAP1 REVERT JUMPDEST DUP3 PUSH0 DUP1 SLOAD SWAP1 POP DUP2 LT PUSH2 0x752 JUMPI PUSH1 0x40 MLOAD PUSH32 0x8C379A000000000000000000000000000000000000000000000000000000000 DUP2 MSTORE PUSH1 0x4 ADD PUSH2 0x749 SWAP1 PUSH2 0x1258 JUMP JUMPDEST PUSH1 0x40 MLOAD DUP1 SWAP2 SUB SWAP1 REVERT JUMPDEST PUSH0 PUSH0 DUP6 DUP2 SLOAD DUP2 LT PUSH2 0x766 JUMPI PUSH2 0x765 PUSH2 0x12DE JUMP JUMPDEST JUMPDEST SWAP1 PUSH0 MSTORE PUSH1 0x20 PUSH0 KECCAK256 SWAP1 PUSH1 0x4 MUL ADD SWAP1 POP DUP4 DUP2 PUSH1 0x1 ADD SWAP1 DUP2 PUSH2 0x785 SWAP2 SWAP1 PUSH2 0x15D8 JUMP JUMPDEST POP PUSH32 0xA4425DE20AD85E10FE61DA0D44EE70412074F8E57B83BF2BF768455030595FEC DUP6 DUP6 PUSH1 0x40 MLOAD PUSH2 0x7B7 SWAP3 SWAP2 SWAP1 PUSH2 0x16A7 JUMP JUMPDEST PUSH1 0x40 MLOAD DUP1 SWAP2 SUB SWAP1 LOG1 POP POP PUSH1 0x2 PUSH0 DUP2 SLOAD DUP1 SWAP3 SWAP2 SWAP1 PUSH2 0x7D3 SWAP1 PUSH2 0x1702 JUMP JUMPDEST SWAP2 SWAP1 POP SSTORE POP POP POP POP JUMP JUMPDEST PUSH0 DUP2 DUP2 SLOAD DUP2 LT PUSH2 0x7EB JUMPI PUSH0 DUP1 REVERT JUMPDEST SWAP1 PUSH0 MSTORE PUSH1 0x20 PUSH0 KECCAK256 SWAP1 PUSH1 0x4 MUL ADD PUSH0 SWAP2 POP SWAP1 POP DUP1 PUSH0 ADD PUSH0 SWAP1 SLOAD SWAP1 PUSH2 0x100 EXP SWAP1 DIV PUSH20 0xFFFFFFFFFFFFFFFFFFFFFFFFFFFFFFFFFFFFFFFF AND SWAP1 DUP1 PUSH1 0x1 ADD DUP1 SLOAD PUSH2 0x82F SWAP1 PUSH2 0x13A0 JUMP JUMPDEST DUP1 PUSH1 0x1F ADD PUSH1 0x20 DUP1 SWAP2 DIV MUL PUSH1 0x20 ADD PUSH1 0x40 MLOAD SWAP1 DUP2 ADD PUSH1 0x40 MSTORE DUP1 SWAP3 SWAP2 SWAP1 DUP2 DUP2 MSTORE PUSH1 0x20 ADD DUP3 DUP1 SLOAD PUSH2 0x85B SWAP1 PUSH2 0x13A0 JUMP JUMPDEST DUP1 ISZERO PUSH2 0x8A6 JUMPI DUP1 PUSH1 0x1F LT PUSH2 0x87D JUMPI PUSH2 0x100 DUP1 DUP4 SLOAD DIV MUL DUP4 MSTORE SWAP2 PUSH1 0x20 ADD SWAP2 PUSH2 0x8A6 JUMP JUMPDEST DUP3 ADD SWAP2 SWAP1 PUSH0 MSTORE PUSH1 0x20 PUSH0 KECCAK256 SWAP1 JUMPDEST DUP2 SLOAD DUP2 MSTORE SWAP1 PUSH1 0x1 ADD SWAP1 PUSH1 0x20 ADD DUP1 DUP4 GT PUSH2 0x889 JUMPI DUP3 SWAP1 SUB PUSH1 0x1F AND DUP3 ADD SWAP2 JUMPDEST POP POP POP POP POP SWAP1 DUP1 PUSH1 0x3 ADD PUSH0 SWAP1 SLOAD SWAP1 PUSH2 0x100 EXP SWAP1 DIV PUSH1 0xFF AND SWAP1 POP DUP4 JUMP JUMPDEST PUSH0 DUP2 PUSH0 DUP2 MLOAD GT PUSH2 0x907 JUMPI PUSH1 0x40 MLOAD PUSH32 0x8C379A000000000000000000000000000000000000000000000000000000000 DUP2 MSTORE PUSH1 0x4 ADD PUSH2 0x8FE SWAP1 PUSH2 0x1793 JUMP JUMPDEST PUSH1 0x40 MLOAD DUP1 SWAP2 SUB SWAP1 REVERT JUMPDEST PUSH2 0x90F PUSH2 0xAE8 JUMP JUMPDEST CALLER DUP2 PUSH0 ADD SWAP1 PUSH20 0xFFFFFFFFFFFFFFFFFFFFFFFFFFFFFFFFFFFFFFFF AND SWAP1 DUP2 PUSH20 0xFFFFFFFFFFFFFFFFFFFFFFFFFFFFFFFFFFFFFFFF AND DUP2 MSTORE POP POP DUP5 DUP2 PUSH1 0x20 ADD DUP2 SWAP1 MSTORE POP DUP4 DUP2 PUSH1 0x40 ADD DUP2 SWAP1 MSTORE POP PUSH0 DUP2 PUSH1 0x60 ADD SWAP1 PUSH1 0x3 DUP2 GT ISZERO PUSH2 0x970 JUMPI PUSH2 0x96F PUSH2 0xD99 JUMP JUMPDEST JUMPDEST SWAP1 DUP2 PUSH1 0x3 DUP2 GT ISZERO PUSH2 0x984 JUMPI PUSH2 0x983 PUSH2 0xD99 JUMP JUMPDEST JUMPDEST DUP2 MSTORE POP POP PUSH0 DUP2 SWAP1 DUP1 PUSH1 0x1 DUP2 SLOAD ADD DUP1 DUP3 SSTORE DUP1 SWAP2 POP POP PUSH1 0x1 SWAP1 SUB SWAP1 PUSH0 MSTORE PUSH1 0x20 PUSH0 KECCAK256 SWAP1 PUSH1 0x4 MUL ADD PUSH0 SWAP1 SWAP2 SWAP1 SWAP2 SWAP1 SWAP2 POP PUSH0 DUP3 ADD MLOAD DUP2 PUSH0 ADD PUSH0 PUSH2 0x100 EXP DUP2 SLOAD DUP2 PUSH20 0xFFFFFFFFFFFFFFFFFFFFFFFFFFFFFFFFFFFFFFFF MUL NOT AND SWAP1 DUP4 PUSH20 0xFFFFFFFFFFFFFFFFFFFFFFFFFFFFFFFFFFFFFFFF AND MUL OR SWAP1 SSTORE POP PUSH1 0x20 DUP3 ADD MLOAD DUP2 PUSH1 0x1 ADD SWAP1 DUP2 PUSH2 0xA09 SWAP2 SWAP1 PUSH2 0x15D8 JUMP JUMPDEST POP PUSH1 0x40 DUP3 ADD MLOAD DUP2 PUSH1 0x2 ADD SWAP1 DUP1 MLOAD SWAP1 PUSH1 0x20 ADD SWAP1 PUSH2 0xA26 SWAP3 SWAP2 SWAP1 PUSH2 0xB36 JUMP JUMPDEST POP PUSH1 0x60 DUP3 ADD MLOAD DUP2 PUSH1 0x3 ADD PUSH0 PUSH2 0x100 EXP DUP2 SLOAD DUP2 PUSH1 0xFF MUL NOT AND SWAP1 DUP4 PUSH1 0x3 DUP2 GT ISZERO PUSH2 0xA51 JUMPI PUSH2 0xA50 PUSH2 0xD99 JUMP JUMPDEST JUMPDEST MUL OR SWAP1 SSTORE POP POP POP CALLER PUSH20 0xFFFFFFFFFFFFFFFFFFFFFFFFFFFFFFFFFFFFFFFF AND PUSH32 0xCEB364ED4480534A1A9EF99D016B236E2FACAAA4C02DA707932B1EF14D7C9030 PUSH1 0x1 PUSH0 DUP1 SLOAD SWAP1 POP PUSH2 0xAA1 SWAP2 SWAP1 PUSH2 0x17B1 JUMP JUMPDEST PUSH1 0x40 MLOAD PUSH2 0xAAE SWAP2 SWAP1 PUSH2 0xC1A JUMP JUMPDEST PUSH1 0x40 MLOAD DUP1 SWAP2 SUB SWAP1 LOG2 PUSH1 0x1 PUSH0 DUP1 SLOAD SWAP1 POP PUSH2 0xAC7 SWAP2 SWAP1 PUSH2 0x17B1 JUMP JUMPDEST SWAP3 POP POP POP PUSH1 0x2 PUSH0 DUP2 SLOAD DUP1 SWAP3 SWAP2 SWAP1 PUSH2 0xADD SWAP1 PUSH2 0x1702 JUMP JUMPDEST SWAP2 SWAP1 POP SSTORE POP SWAP3 SWAP2 POP POP JUMP JUMPDEST PUSH1 0x40 MLOAD DUP1 PUSH1 0x80 ADD PUSH1 0x40 MSTORE DUP1 PUSH0 PUSH20 0xFFFFFFFFFFFFFFFFFFFFFFFFFFFFFFFFFFFFFFFF AND DUP2 MSTORE PUSH1 0x20 ADD PUSH1 0x60 DUP2 MSTORE PUSH1 0x20 ADD PUSH1 0x60 DUP2 MSTORE PUSH1 0x20 ADD PUSH0 PUSH1 0x3 DUP2 GT ISZERO PUSH2 0xB30 JUMPI PUSH2 0xB2F PUSH2 0xD99 JUMP JUMPDEST JUMPDEST DUP2 MSTORE POP SWAP1 JUMP JUMPDEST DUP3 DUP1 SLOAD DUP3 DUP3 SSTORE SWAP1 PUSH0 MSTORE PUSH1 0x20 PUSH0 KECCAK256 SWAP1 DUP2 ADD SWAP3 DUP3 ISZERO PUSH2 0xB70 JUMPI SWAP2 PUSH1 0x20 MUL DUP3 ADD JUMPDEST DUP3 DUP2 GT ISZERO PUSH2 0xB6F JUMPI DUP3 MLOAD DUP3 SSTORE SWAP2 PUSH1 0x20 ADD SWAP2 SWAP1 PUSH1 0x1 ADD SWAP1 PUSH2 0xB54 JUMP JUMPDEST JUMPDEST POP SWAP1 POP PUSH2 0xB7D SWAP2 SWAP1 PUSH2 0xB81 JUMP JUMPDEST POP SWAP1 JUMP JUMPDEST JUMPDEST DUP1 DUP3 GT ISZERO PUSH2 0xB98 JUMPI PUSH0 DUP2 PUSH0 SWAP1 SSTORE POP PUSH1 0x1 ADD PUSH2 0xB82 JUMP JUMPDEST POP SWAP1 JUMP JUMPDEST PUSH0 PUSH1 0x40 MLOAD SWAP1 POP SWAP1 JUMP JUMPDEST PUSH0 PUSH0 REVERT JUMPDEST PUSH0 PUSH0 REVERT JUMPDEST PUSH0 DUP2 SWAP1 POP SWAP2 SWAP1 POP JUMP JUMPDEST PUSH2 0xBBF DUP2 PUSH2 0xBAD JUMP JUMPDEST DUP2 EQ PUSH2 0xBC9 JUMPI PUSH0 PUSH0 REVERT JUMPDEST POP JUMP JUMPDEST PUSH0 DUP2 CALLDATALOAD SWAP1 POP PUSH2 0xBDA DUP2 PUSH2 0xBB6 JUMP JUMPDEST SWAP3 SWAP2 POP POP JUMP JUMPDEST PUSH0 PUSH1 0x20 DUP3 DUP5 SUB SLT ISZERO PUSH2 0xBF5 JUMPI PUSH2 0xBF4 PUSH2 0xBA5 JUMP JUMPDEST JUMPDEST PUSH0 PUSH2 0xC02 DUP5 DUP3 DUP6 ADD PUSH2 0xBCC JUMP JUMPDEST SWAP2 POP POP SWAP3 SWAP2 POP POP JUMP JUMPDEST PUSH2 0xC14 DUP2 PUSH2 0xBAD JUMP JUMPDEST DUP3 MSTORE POP POP JUMP JUMPDEST PUSH0 PUSH1 0x20 DUP3 ADD SWAP1 POP PUSH2 0xC2D PUSH0 DUP4 ADD DUP5 PUSH2 0xC0B JUMP JUMPDEST SWAP3 SWAP2 POP POP JUMP JUMPDEST PUSH0 PUSH20 0xFFFFFFFFFFFFFFFFFFFFFFFFFFFFFFFFFFFFFFFF DUP3 AND SWAP1 POP SWAP2 SWAP1 POP JUMP JUMPDEST PUSH0 PUSH2 0xC5C DUP3 PUSH2 0xC33 JUMP JUMPDEST SWAP1 POP SWAP2 SWAP1 POP JUMP JUMPDEST PUSH2 0xC6C DUP2 PUSH2 0xC52 JUMP JUMPDEST DUP3 MSTORE POP POP JUMP JUMPDEST PUSH0 DUP2 MLOAD SWAP1 POP SWAP2 SWAP1 POP JUMP JUMPDEST PUSH0 DUP3 DUP3 MSTORE PUSH1 0x20 DUP3 ADD SWAP1 POP SWAP3 SWAP2 POP POP JUMP JUMPDEST DUP3 DUP2 DUP4 MCOPY PUSH0 DUP4 DUP4 ADD MSTORE POP POP POP JUMP JUMPDEST PUSH0 PUSH1 0x1F NOT PUSH1 0x1F DUP4 ADD AND SWAP1 POP SWAP2 SWAP1 POP JUMP JUMPDEST PUSH0 PUSH2 0xCB4 DUP3 PUSH2 0xC72 JUMP JUMPDEST PUSH2 0xCBE DUP2 DUP6 PUSH2 0xC7C JUMP JUMPDEST SWAP4 POP PUSH2 0xCCE DUP2 DUP6 PUSH1 0x20 DUP7 ADD PUSH2 0xC8C JUMP JUMPDEST PUSH2 0xCD7 DUP2 PUSH2 0xC9A JUMP JUMPDEST DUP5 ADD SWAP2 POP POP SWAP3 SWAP2 POP POP JUMP JUMPDEST PUSH0 DUP2 MLOAD SWAP1 POP SWAP2 SWAP1 POP JUMP JUMPDEST PUSH0 DUP3 DUP3 MSTORE PUSH1 0x20 DUP3 ADD SWAP1 POP SWAP3 SWAP2 POP POP JUMP JUMPDEST PUSH0 DUP2 SWAP1 POP PUSH1 0x20 DUP3 ADD SWAP1 POP SWAP2 SWAP1 POP JUMP JUMPDEST PUSH2 0xD14 DUP2 PUSH2 0xBAD JUMP JUMPDEST DUP3 MSTORE POP POP JUMP JUMPDEST PUSH0 PUSH2 0xD25 DUP4 DUP4 PUSH2 0xD0B JUMP JUMPDEST PUSH1 0x20 DUP4 ADD SWAP1 POP SWAP3 SWAP2 POP POP JUMP JUMPDEST PUSH0 PUSH1 0x20 DUP3 ADD SWAP1 POP SWAP2 SWAP1 POP JUMP JUMPDEST PUSH0 PUSH2 0xD47 DUP3 PUSH2 0xCE2 JUMP JUMPDEST PUSH2 0xD51 DUP2 DUP6 PUSH2 0xCEC JUMP JUMPDEST SWAP4 POP PUSH2 0xD5C DUP4 PUSH2 0xCFC JUMP JUMPDEST DUP1 PUSH0 JUMPDEST DUP4 DUP2 LT ISZERO PUSH2 0xD8C JUMPI DUP2 MLOAD PUSH2 0xD73 DUP9 DUP3 PUSH2 0xD1A JUMP JUMPDEST SWAP8 POP PUSH2 0xD7E DUP4 PUSH2 0xD31 JUMP JUMPDEST SWAP3 POP POP PUSH1 0x1 DUP2 ADD SWAP1 POP PUSH2 0xD5F JUMP JUMPDEST POP DUP6 SWAP4 POP POP POP POP SWAP3 SWAP2 POP POP JUMP JUMPDEST PUSH32 0x4E487B7100000000000000000000000000000000000000000000000000000000 PUSH0 MSTORE PUSH1 0x21 PUSH1 0x4 MSTORE PUSH1 0x24 PUSH0 REVERT JUMPDEST PUSH1 0x4 DUP2 LT PUSH2 0xDD7 JUMPI PUSH2 0xDD6 PUSH2 0xD99 JUMP JUMPDEST JUMPDEST POP JUMP JUMPDEST PUSH0 DUP2 SWAP1 POP PUSH2 0xDE7 DUP3 PUSH2 0xDC6 JUMP JUMPDEST SWAP2 SWAP1 POP JUMP JUMPDEST PUSH0 PUSH2 0xDF6 DUP3 PUSH2 0xDDA JUMP JUMPDEST SWAP1 POP SWAP2 SWAP1 POP JUMP JUMPDEST PUSH2 0xE06 DUP2 PUSH2 0xDEC JUMP JUMPDEST DUP3 MSTORE POP POP JUMP JUMPDEST PUSH0 PUSH1 0x80 DUP4 ADD PUSH0 DUP4 ADD MLOAD PUSH2 0xE21 PUSH0 DUP7 ADD DUP3 PUSH2 0xC63 JUMP JUMPDEST POP PUSH1 0x20 DUP4 ADD MLOAD DUP5 DUP3 SUB PUSH1 0x20 DUP7 ADD MSTORE PUSH2 0xE39 DUP3 DUP3 PUSH2 0xCAA JUMP JUMPDEST SWAP2 POP POP PUSH1 0x40 DUP4 ADD MLOAD DUP5 DUP3 SUB PUSH1 0x40 DUP7 ADD MSTORE PUSH2 0xE53 DUP3 DUP3 PUSH2 0xD3D JUMP JUMPDEST SWAP2 POP POP PUSH1 0x60 DUP4 ADD MLOAD PUSH2 0xE68 PUSH1 0x60 DUP7 ADD DUP3 PUSH2 0xDFD JUMP JUMPDEST POP DUP1 SWAP2 POP POP SWAP3 SWAP2 POP POP JUMP JUMPDEST PUSH0 PUSH1 0x20 DUP3 ADD SWAP1 POP DUP2 DUP2 SUB PUSH0 DUP4 ADD MSTORE PUSH2 0xE8B DUP2 DUP5 PUSH2 0xE0C JUMP JUMPDEST SWAP1 POP SWAP3 SWAP2 POP POP JUMP JUMPDEST PUSH2 0xE9C DUP2 PUSH2 0xC52 JUMP JUMPDEST DUP3 MSTORE POP POP JUMP JUMPDEST PUSH0 PUSH1 0x20 DUP3 ADD SWAP1 POP PUSH2 0xEB5 PUSH0 DUP4 ADD DUP5 PUSH2 0xE93 JUMP JUMPDEST SWAP3 SWAP2 POP POP JUMP JUMPDEST PUSH0 PUSH0 REVERT JUMPDEST PUSH0 PUSH0 REVERT JUMPDEST PUSH32 0x4E487B7100000000000000000000000000000000000000000000000000000000 PUSH0 MSTORE PUSH1 0x41 PUSH1 0x4 MSTORE PUSH1 0x24 PUSH0 REVERT JUMPDEST PUSH2 0xEF9 DUP3 PUSH2 0xC9A JUMP JUMPDEST DUP2 ADD DUP2 DUP2 LT PUSH8 0xFFFFFFFFFFFFFFFF DUP3 GT OR ISZERO PUSH2 0xF18 JUMPI PUSH2 0xF17 PUSH2 0xEC3 JUMP JUMPDEST JUMPDEST DUP1 PUSH1 0x40 MSTORE POP POP POP JUMP JUMPDEST PUSH0 PUSH2 0xF2A PUSH2 0xB9C JUMP JUMPDEST SWAP1 POP PUSH2 0xF36 DUP3 DUP3 PUSH2 0xEF0 JUMP JUMPDEST SWAP2 SWAP1 POP JUMP JUMPDEST PUSH0 PUSH8 0xFFFFFFFFFFFFFFFF DUP3 GT ISZERO PUSH2 0xF55 JUMPI PUSH2 0xF54 PUSH2 0xEC3 JUMP JUMPDEST JUMPDEST PUSH2 0xF5E DUP3 PUSH2 0xC9A JUMP JUMPDEST SWAP1 POP PUSH1 0x20 DUP2 ADD SWAP1 POP SWAP2 SWAP1 POP JUMP JUMPDEST DUP3 DUP2 DUP4 CALLDATACOPY PUSH0 DUP4 DUP4 ADD MSTORE POP POP POP JUMP JUMPDEST PUSH0 PUSH2 0xF8B PUSH2 0xF86 DUP5 PUSH2 0xF3B JUMP JUMPDEST PUSH2 0xF21 JUMP JUMPDEST SWAP1 POP DUP3 DUP2 MSTORE PUSH1 0x20 DUP2 ADD DUP5 DUP5 DUP5 ADD GT ISZERO PUSH2 0xFA7 JUMPI PUSH2 0xFA6 PUSH2 0xEBF JUMP JUMPDEST JUMPDEST PUSH2 0xFB2 DUP5 DUP3 DUP6 PUSH2 0xF6B JUMP JUMPDEST POP SWAP4 SWAP3 POP POP POP JUMP JUMPDEST PUSH0 DUP3 PUSH1 0x1F DUP4 ADD SLT PUSH2 0xFCE JUMPI PUSH2 0xFCD PUSH2 0xEBB JUMP JUMPDEST JUMPDEST DUP2 CALLDATALOAD PUSH2 0xFDE DUP5 DUP3 PUSH1 0x20 DUP7 ADD PUSH2 0xF79 JUMP JUMPDEST SWAP2 POP POP SWAP3 SWAP2 POP POP JUMP JUMPDEST PUSH0 PUSH0 PUSH1 0x40 DUP4 DUP6 SUB SLT ISZERO PUSH2 0xFFD JUMPI PUSH2 0xFFC PUSH2 0xBA5 JUMP JUMPDEST JUMPDEST PUSH0 PUSH2 0x100A DUP6 DUP3 DUP7 ADD PUSH2 0xBCC JUMP JUMPDEST SWAP3 POP POP PUSH1 0x20 DUP4 ADD CALLDATALOAD PUSH8 0xFFFFFFFFFFFFFFFF DUP2 GT ISZERO PUSH2 0x102B JUMPI PUSH2 0x102A PUSH2 0xBA9 JUMP JUMPDEST JUMPDEST PUSH2 0x1037 DUP6 DUP3 DUP7 ADD PUSH2 0xFBA JUMP JUMPDEST SWAP2 POP POP SWAP3 POP SWAP3 SWAP1 POP JUMP JUMPDEST PUSH0 DUP3 DUP3 MSTORE PUSH1 0x20 DUP3 ADD SWAP1 POP SWAP3 SWAP2 POP POP JUMP JUMPDEST PUSH0 PUSH2 0x105B DUP3 PUSH2 0xC72 JUMP JUMPDEST PUSH2 0x1065 DUP2 DUP6 PUSH2 0x1041 JUMP JUMPDEST SWAP4 POP PUSH2 0x1075 DUP2 DUP6 PUSH1 0x20 DUP7 ADD PUSH2 0xC8C JUMP JUMPDEST PUSH2 0x107E DUP2 PUSH2 0xC9A JUMP JUMPDEST DUP5 ADD SWAP2 POP POP SWAP3 SWAP2 POP POP JUMP JUMPDEST PUSH2 0x1092 DUP2 PUSH2 0xDEC JUMP JUMPDEST DUP3 MSTORE POP POP JUMP JUMPDEST PUSH0 PUSH1 0x60 DUP3 ADD SWAP1 POP PUSH2 0x10AB PUSH0 DUP4 ADD DUP7 PUSH2 0xE93 JUMP JUMPDEST DUP2 DUP2 SUB PUSH1 0x20 DUP4 ADD MSTORE PUSH2 0x10BD DUP2 DUP6 PUSH2 0x1051 JUMP JUMPDEST SWAP1 POP PUSH2 0x10CC PUSH1 0x40 DUP4 ADD DUP5 PUSH2 0x1089 JUMP JUMPDEST SWAP5 SWAP4 POP POP POP POP JUMP JUMPDEST PUSH0 PUSH8 0xFFFFFFFFFFFFFFFF DUP3 GT ISZERO PUSH2 0x10EE JUMPI PUSH2 0x10ED PUSH2 0xEC3 JUMP JUMPDEST JUMPDEST PUSH1 0x20 DUP3 MUL SWAP1 POP PUSH1 0x20 DUP2 ADD SWAP1 POP SWAP2 SWAP1 POP JUMP JUMPDEST PUSH0 PUSH0 REVERT JUMPDEST PUSH0 PUSH2 0x1115 PUSH2 0x1110 DUP5 PUSH2 0x10D4 JUMP JUMPDEST PUSH2 0xF21 JUMP JUMPDEST SWAP1 POP DUP1 DUP4 DUP3 MSTORE PUSH1 0x20 DUP3 ADD SWAP1 POP PUSH1 0x20 DUP5 MUL DUP4 ADD DUP6 DUP2 GT ISZERO PUSH2 0x1138 JUMPI PUSH2 0x1137 PUSH2 0x10FF JUMP JUMPDEST JUMPDEST DUP4 JUMPDEST DUP2 DUP2 LT ISZERO PUSH2 0x1161 JUMPI DUP1 PUSH2 0x114D DUP9 DUP3 PUSH2 0xBCC JUMP JUMPDEST DUP5 MSTORE PUSH1 0x20 DUP5 ADD SWAP4 POP POP PUSH1 0x20 DUP2 ADD SWAP1 POP PUSH2 0x113A JUMP JUMPDEST POP POP POP SWAP4 SWAP3 POP POP POP JUMP JUMPDEST PUSH0 DUP3 PUSH1 0x1F DUP4 ADD SLT PUSH2 0x117F JUMPI PUSH2 0x117E PUSH2 0xEBB JUMP JUMPDEST JUMPDEST DUP2 CALLDATALOAD PUSH2 0x118F DUP5 DUP3 PUSH1 0x20 DUP7 ADD PUSH2 0x1103 JUMP JUMPDEST SWAP2 POP POP SWAP3 SWAP2 POP POP JUMP JUMPDEST PUSH0 PUSH0 PUSH1 0x40 DUP4 DUP6 SUB SLT ISZERO PUSH2 0x11AE JUMPI PUSH2 0x11AD PUSH2 0xBA5 JUMP JUMPDEST JUMPDEST PUSH0 DUP4 ADD CALLDATALOAD PUSH8 0xFFFFFFFFFFFFFFFF DUP2 GT ISZERO PUSH2 0x11CB JUMPI PUSH2 0x11CA PUSH2 0xBA9 JUMP JUMPDEST JUMPDEST PUSH2 0x11D7 DUP6 DUP3 DUP7 ADD PUSH2 0xFBA JUMP JUMPDEST SWAP3 POP POP PUSH1 0x20 DUP4 ADD CALLDATALOAD PUSH8 0xFFFFFFFFFFFFFFFF DUP2 GT ISZERO PUSH2 0x11F8 JUMPI PUSH2 0x11F7 PUSH2 0xBA9 JUMP JUMPDEST JUMPDEST PUSH2 0x1204 DUP6 DUP3 DUP7 ADD PUSH2 0x116B JUMP JUMPDEST SWAP2 POP POP SWAP3 POP SWAP3 SWAP1 POP JUMP JUMPDEST PUSH32 0x47656365726C6920626972207369706172697320494427736920646567696C2E PUSH0 DUP3 ADD MSTORE POP JUMP JUMPDEST PUSH0 PUSH2 0x1242 PUSH1 0x20 DUP4 PUSH2 0x1041 JUMP JUMPDEST SWAP2 POP PUSH2 0x124D DUP3 PUSH2 0x120E JUMP JUMPDEST PUSH1 0x20 DUP3 ADD SWAP1 POP SWAP2 SWAP1 POP JUMP JUMPDEST PUSH0 PUSH1 0x20 DUP3 ADD SWAP1 POP DUP2 DUP2 SUB PUSH0 DUP4 ADD MSTORE PUSH2 0x126F DUP2 PUSH2 0x1236 JUMP JUMPDEST SWAP1 POP SWAP2 SWAP1 POP JUMP JUMPDEST PUSH32 0x5965746B696E697A20796F6B2E00000000000000000000000000000000000000 PUSH0 DUP3 ADD MSTORE POP JUMP JUMPDEST PUSH0 PUSH2 0x12AA PUSH1 0xD DUP4 PUSH2 0x1041 JUMP JUMPDEST SWAP2 POP PUSH2 0x12B5 DUP3 PUSH2 0x1276 JUMP JUMPDEST PUSH1 0x20 DUP3 ADD SWAP1 POP SWAP2 SWAP1 POP JUMP JUMPDEST PUSH0 PUSH1 0x20 DUP3 ADD SWAP1 POP DUP2 DUP2 SUB PUSH0 DUP4 ADD MSTORE PUSH2 0x12D7 DUP2 PUSH2 0x129E JUMP JUMPDEST SWAP1 POP SWAP2 SWAP1 POP JUMP JUMPDEST PUSH32 0x4E487B7100000000000000000000000000000000000000000000000000000000 PUSH0 MSTORE PUSH1 0x32 PUSH1 0x4 MSTORE PUSH1 0x24 PUSH0 REVERT JUMPDEST PUSH32 0x53697061726973207A6174656E206B6172676F6C616E64692E00000000000000 PUSH0 DUP3 ADD MSTORE POP JUMP JUMPDEST PUSH0 PUSH2 0x133F PUSH1 0x19 DUP4 PUSH2 0x1041 JUMP JUMPDEST SWAP2 POP PUSH2 0x134A DUP3 PUSH2 0x130B JUMP JUMPDEST PUSH1 0x20 DUP3 ADD SWAP1 POP SWAP2 SWAP1 POP JUMP JUMPDEST PUSH0 PUSH1 0x20 DUP3 ADD SWAP1 POP DUP2 DUP2 SUB PUSH0 DUP4 ADD MSTORE PUSH2 0x136C DUP2 PUSH2 0x1333 JUMP JUMPDEST SWAP1 POP SWAP2 SWAP1 POP JUMP JUMPDEST PUSH32 0x4E487B7100000000000000000000000000000000000000000000000000000000 PUSH0 MSTORE PUSH1 0x22 PUSH1 0x4 MSTORE PUSH1 0x24 PUSH0 REVERT JUMPDEST PUSH0 PUSH1 0x2 DUP3 DIV SWAP1 POP PUSH1 0x1 DUP3 AND DUP1 PUSH2 0x13B7 JUMPI PUSH1 0x7F DUP3 AND SWAP2 POP JUMPDEST PUSH1 0x20 DUP3 LT DUP2 SUB PUSH2 0x13CA JUMPI PUSH2 0x13C9 PUSH2 0x1373 JUMP JUMPDEST JUMPDEST POP SWAP2 SWAP1 POP JUMP JUMPDEST PUSH32 0x53697061726973696E2073616869626920646567696C73696E697A2E00000000 PUSH0 DUP3 ADD MSTORE POP JUMP JUMPDEST PUSH0 PUSH2 0x1404 PUSH1 0x1C DUP4 PUSH2 0x1041 JUMP JUMPDEST SWAP2 POP PUSH2 0x140F DUP3 PUSH2 0x13D0 JUMP JUMPDEST PUSH1 0x20 DUP3 ADD SWAP1 POP SWAP2 SWAP1 POP JUMP JUMPDEST PUSH0 PUSH1 0x20 DUP3 ADD SWAP1 POP DUP2 DUP2 SUB PUSH0 DUP4 ADD MSTORE PUSH2 0x1431 DUP2 PUSH2 0x13F8 JUMP JUMPDEST SWAP1 POP SWAP2 SWAP1 POP JUMP JUMPDEST PUSH0 DUP2 SWAP1 POP DUP2 PUSH0 MSTORE PUSH1 0x20 PUSH0 KECCAK256 SWAP1 POP SWAP2 SWAP1 POP JUMP JUMPDEST PUSH0 PUSH1 0x20 PUSH1 0x1F DUP4 ADD DIV SWAP1 POP SWAP2 SWAP1 POP JUMP JUMPDEST PUSH0 DUP3 DUP3 SHL SWAP1 POP SWAP3 SWAP2 POP POP JUMP JUMPDEST PUSH0 PUSH1 0x8 DUP4 MUL PUSH2 0x1494 PUSH32 0xFFFFFFFFFFFFFFFFFFFFFFFFFFFFFFFFFFFFFFFFFFFFFFFFFFFFFFFFFFFFFFFF DUP3 PUSH2 0x1459 JUMP JUMPDEST PUSH2 0x149E DUP7 DUP4 PUSH2 0x1459 JUMP JUMPDEST SWAP6 POP DUP1 NOT DUP5 AND SWAP4 POP DUP1 DUP7 AND DUP5 OR SWAP3 POP POP POP SWAP4 SWAP3 POP POP POP JUMP JUMPDEST PUSH0 DUP2 SWAP1 POP SWAP2 SWAP1 POP JUMP JUMPDEST PUSH0 PUSH2 0x14D9 PUSH2 0x14D4 PUSH2 0x14CF DUP5 PUSH2 0xBAD JUMP JUMPDEST PUSH2 0x14B6 JUMP JUMPDEST PUSH2 0xBAD JUMP JUMPDEST SWAP1 POP SWAP2 SWAP1 POP JUMP JUMPDEST PUSH0 DUP2 SWAP1 POP SWAP2 SWAP1 POP JUMP JUMPDEST PUSH2 0x14F2 DUP4 PUSH2 0x14BF JUMP JUMPDEST PUSH2 0x1506 PUSH2 0x14FE DUP3 PUSH2 0x14E0 JUMP JUMPDEST DUP5 DUP5 SLOAD PUSH2 0x1465 JUMP JUMPDEST DUP3 SSTORE POP POP POP POP JUMP JUMPDEST PUSH0 PUSH0 SWAP1 POP SWAP1 JUMP JUMPDEST PUSH2 0x151D PUSH2 0x150E JUMP JUMPDEST PUSH2 0x1528 DUP2 DUP5 DUP5 PUSH2 0x14E9 JUMP JUMPDEST POP POP POP JUMP JUMPDEST JUMPDEST DUP2 DUP2 LT ISZERO PUSH2 0x154B JUMPI PUSH2 0x1540 PUSH0 DUP3 PUSH2 0x1515 JUMP JUMPDEST PUSH1 0x1 DUP2 ADD SWAP1 POP PUSH2 0x152E JUMP JUMPDEST POP POP JUMP JUMPDEST PUSH1 0x1F DUP3 GT ISZERO PUSH2 0x1590 JUMPI PUSH2 0x1561 DUP2 PUSH2 0x1438 JUMP JUMPDEST PUSH2 0x156A DUP5 PUSH2 0x144A JUMP JUMPDEST DUP2 ADD PUSH1 0x20 DUP6 LT ISZERO PUSH2 0x1579 JUMPI DUP2 SWAP1 POP JUMPDEST PUSH2 0x158D PUSH2 0x1585 DUP6 PUSH2 0x144A JUMP JUMPDEST DUP4 ADD DUP3 PUSH2 0x152D JUMP JUMPDEST POP POP JUMPDEST POP POP POP JUMP JUMPDEST PUSH0 DUP3 DUP3 SHR SWAP1 POP SWAP3 SWAP2 POP POP JUMP JUMPDEST PUSH0 PUSH2 0x15B0 PUSH0 NOT DUP5 PUSH1 0x8 MUL PUSH2 0x1595 JUMP JUMPDEST NOT DUP1 DUP4 AND SWAP2 POP POP SWAP3 SWAP2 POP POP JUMP JUMPDEST PUSH0 PUSH2 0x15C8 DUP4 DUP4 PUSH2 0x15A1 JUMP JUMPDEST SWAP2 POP DUP3 PUSH1 0x2 MUL DUP3 OR SWAP1 POP SWAP3 SWAP2 POP POP JUMP JUMPDEST PUSH2 0x15E1 DUP3 PUSH2 0xC72 JUMP JUMPDEST PUSH8 0xFFFFFFFFFFFFFFFF DUP2 GT ISZERO PUSH2 0x15FA JUMPI PUSH2 0x15F9 PUSH2 0xEC3 JUMP JUMPDEST JUMPDEST PUSH2 0x1604 DUP3 SLOAD PUSH2 0x13A0 JUMP JUMPDEST PUSH2 0x160F DUP3 DUP3 DUP6 PUSH2 0x154F JUMP JUMPDEST PUSH0 PUSH1 0x20 SWAP1 POP PUSH1 0x1F DUP4 GT PUSH1 0x1 DUP2 EQ PUSH2 0x1640 JUMPI PUSH0 DUP5 ISZERO PUSH2 0x162E JUMPI DUP3 DUP8 ADD MLOAD SWAP1 POP JUMPDEST PUSH2 0x1638 DUP6 DUP3 PUSH2 0x15BD JUMP JUMPDEST DUP7 SSTORE POP PUSH2 0x169F JUMP JUMPDEST PUSH1 0x1F NOT DUP5 AND PUSH2 0x164E DUP7 PUSH2 0x1438 JUMP JUMPDEST PUSH0 JUMPDEST DUP3 DUP2 LT ISZERO PUSH2 0x1675 JUMPI DUP5 DUP10 ADD MLOAD DUP3 SSTORE PUSH1 0x1 DUP3 ADD SWAP2 POP PUSH1 0x20 DUP6 ADD SWAP5 POP PUSH1 0x20 DUP2 ADD SWAP1 POP PUSH2 0x1650 JUMP JUMPDEST DUP7 DUP4 LT ISZERO PUSH2 0x1692 JUMPI DUP5 DUP10 ADD MLOAD PUSH2 0x168E PUSH1 0x1F DUP10 AND DUP3 PUSH2 0x15A1 JUMP JUMPDEST DUP4 SSTORE POP JUMPDEST PUSH1 0x1 PUSH1 0x2 DUP9 MUL ADD DUP9 SSTORE POP POP POP JUMPDEST POP POP POP POP POP POP JUMP JUMPDEST PUSH0 PUSH1 0x40 DUP3 ADD SWAP1 POP PUSH2 0x16BA PUSH0 DUP4 ADD DUP6 PUSH2 0xC0B JUMP JUMPDEST DUP2 DUP2 SUB PUSH1 0x20 DUP4 ADD MSTORE PUSH2 0x16CC DUP2 DUP5 PUSH2 0x1051 JUMP JUMPDEST SWAP1 POP SWAP4 SWAP3 POP POP POP JUMP JUMPDEST PUSH32 0x4E487B7100000000000000000000000000000000000000000000000000000000 PUSH0 MSTORE PUSH1 0x11 PUSH1 0x4 MSTORE PUSH1 0x24 PUSH0 REVERT JUMPDEST PUSH0 PUSH2 0x170C DUP3 PUSH2 0xBAD JUMP JUMPDEST SWAP2 POP PUSH32 0xFFFFFFFFFFFFFFFFFFFFFFFFFFFFFFFFFFFFFFFFFFFFFFFFFFFFFFFFFFFFFFFF DUP3 SUB PUSH2 0x173E JUMPI PUSH2 0x173D PUSH2 0x16D5 JUMP JUMPDEST JUMPDEST PUSH1 0x1 DUP3 ADD SWAP1 POP SWAP2 SWAP1 POP JUMP JUMPDEST PUSH32 0x5572756E20796F6B2E0000000000000000000000000000000000000000000000 PUSH0 DUP3 ADD MSTORE POP JUMP JUMPDEST PUSH0 PUSH2 0x177D PUSH1 0x9 DUP4 PUSH2 0x1041 JUMP JUMPDEST SWAP2 POP PUSH2 0x1788 DUP3 PUSH2 0x1749 JUMP JUMPDEST PUSH1 0x20 DUP3 ADD SWAP1 POP SWAP2 SWAP1 POP JUMP JUMPDEST PUSH0 PUSH1 0x20 DUP3 ADD SWAP1 POP DUP2 DUP2 SUB PUSH0 DUP4 ADD MSTORE PUSH2 0x17AA DUP2 PUSH2 0x1771 JUMP JUMPDEST SWAP1 POP SWAP2 SWAP1 POP JUMP JUMPDEST PUSH0 PUSH2 0x17BB DUP3 PUSH2 0xBAD JUMP JUMPDEST SWAP2 POP PUSH2 0x17C6 DUP4 PUSH2 0xBAD JUMP JUMPDEST SWAP3 POP DUP3 DUP3 SUB SWAP1 POP DUP2 DUP2 GT ISZERO PUSH2 0x17DE JUMPI PUSH2 0x17DD PUSH2 0x16D5 JUMP JUMPDEST JUMPDEST SWAP3 SWAP2 POP POP JUMP INVALID LOG2 PUSH5 0x6970667358 0x22 SLT KECCAK256 MCOPY SWAP6 SMOD GT GASLIMIT INVALID BLOCKHASH 0xC6 0xBD TLOAD GAS RETURNDATACOPY 0x24 DUP5 0x22 0xA5 JUMP PUSH18 0xC153DDC0A1DB0BFC13108C9EF21564736F6C PUSH4 0x4300081C STOP CALLER "
				},
				"gasEstimates": {
					"creation": {
						"codeDepositCost": "1234000",
						"executionCost": "25544",
						"totalCost": "1259544"
					},
					"external": {
						"islemSayisi()": "2448",
						"postaKoduGuncelle(uint256,string)": "infinite",
						"sahip()": "2508",
						"siparisGetir(uint256)": "infinite",
						"siparisIlerle(uint256)": "40063",
						"siparisOlustur(string,uint256[])": "infinite",
						"siparisler(uint256)": "infinite"
					}
				},
				"methodIdentifiers": {
					"islemSayisi()": "737f545f",
					"postaKoduGuncelle(uint256,string)": "995593db",
					"sahip()": "8574cd14",
					"siparisGetir(uint256)": "73fea758",
					"siparisIlerle(uint256)": "4ace5213",
					"siparisOlustur(string,uint256[])": "feff9c1e",
					"siparisler(uint256)": "ba3eeaca"
				}
			},
			"storageLayout": {
				"storage": [
					{
						"astId": 22,
						"contract": "contracts/events.sol:Etkinlikler",
						"label": "siparisler",
						"offset": 0,
						"slot": "0",
						"type": "t_array(t_struct(Siparis)18_storage)dyn_storage"
					},
					{
						"astId": 24,
						"contract": "contracts/events.sol:Etkinlikler",
						"label": "sahip",
						"offset": 0,
						"slot": "1",
						"type": "t_address"
					},
					{
						"astId": 26,
						"contract": "contracts/events.sol:Etkinlikler",
						"label": "islemSayisi",
						"offset": 0,
						"slot": "2",
						"type": "t_uint256"
					}
				],
				"types": {
					"t_address": {
						"encoding": "inplace",
						"label": "address",
						"numberOfBytes": "20"
					},
					"t_array(t_struct(Siparis)18_storage)dyn_storage": {
						"base": "t_struct(Siparis)18_storage",
						"encoding": "dynamic_array",
						"label": "struct Etkinlikler.Siparis[]",
						"numberOfBytes": "32"
					},
					"t_array(t_uint256)dyn_storage": {
						"base": "t_uint256",
						"encoding": "dynamic_array",
						"label": "uint256[]",
						"numberOfBytes": "32"
					},
					"t_enum(Durum)7": {
						"encoding": "inplace",
						"label": "enum Etkinlikler.Durum",
						"numberOfBytes": "1"
					},
					"t_string_storage": {
						"encoding": "bytes",
						"label": "string",
						"numberOfBytes": "32"
					},
					"t_struct(Siparis)18_storage": {
						"encoding": "inplace",
						"label": "struct Etkinlikler.Siparis",
						"members": [
							{
								"astId": 9,
								"contract": "contracts/events.sol:Etkinlikler",
								"label": "musteri",
								"offset": 0,
								"slot": "0",
								"type": "t_address"
							},
							{
								"astId": 11,
								"contract": "contracts/events.sol:Etkinlikler",
								"label": "postaKodu",
								"offset": 0,
								"slot": "1",
								"type": "t_string_storage"
							},
							{
								"astId": 14,
								"contract": "contracts/events.sol:Etkinlikler",
								"label": "urunler",
								"offset": 0,
								"slot": "2",
								"type": "t_array(t_uint256)dyn_storage"
							},
							{
								"astId": 17,
								"contract": "contracts/events.sol:Etkinlikler",
								"label": "durum",
								"offset": 0,
								"slot": "3",
								"type": "t_enum(Durum)7"
							}
						],
						"numberOfBytes": "128"
					},
					"t_uint256": {
						"encoding": "inplace",
						"label": "uint256",
						"numberOfBytes": "32"
					}
				}
			},
			"userdoc": {
				"kind": "user",
				"methods": {},
				"version": 1
			}
		}
	}
}