{
	"contracts/video12.sol": {
		"Math": {
			"abi": [
				{
					"inputs": [
						{
							"internalType": "uint256",
							"name": "x",
							"type": "uint256"
						},
						{
							"internalType": "uint256",
							"name": "y",
							"type": "uint256"
						}
					],
					"name": "dvide",
					"outputs": [
						{
							"internalType": "uint256",
							"name": "",
							"type": "uint256"
						}
					],
					"stateMutability": "pure",
					"type": "function"
				},
				{
					"inputs": [
						{
							"internalType": "uint256",
							"name": "a",
							"type": "uint256"
						},
						{
							"internalType": "uint256",
							"name": "b",
							"type": "uint256"
						}
					],
					"name": "min",
					"outputs": [
						{
							"internalType": "uint256",
							"name": "",
							"type": "uint256"
						}
					],
					"stateMutability": "pure",
					"type": "function"
				},
				{
					"inputs": [
						{
							"internalType": "uint256",
							"name": "x",
							"type": "uint256"
						},
						{
							"internalType": "uint256",
							"name": "y",
							"type": "uint256"
						}
					],
					"name": "plus",
					"outputs": [
						{
							"internalType": "uint256",
							"name": "",
							"type": "uint256"
						}
					],
					"stateMutability": "pure",
					"type": "function"
				}
			],
			"devdoc": {
				"kind": "dev",
				"methods": {},
				"version": 1
			},
			"evm": {
				"assembly": "    /* \"contracts/video12.sol\":57:566  library Math{\r... */\n  dataSize(sub_0)\n  dataOffset(sub_0)\n  0x0b\n  dup3\n  dup3\n  dup3\n  codecopy\n  dup1\n  mload\n  0x00\n  byte\n  0x73\n  eq\n  tag_1\n  jumpi\n  mstore(0x00, 0x4e487b7100000000000000000000000000000000000000000000000000000000)\n  mstore(0x04, 0x00)\n  revert(0x00, 0x24)\ntag_1:\n  mstore(0x00, address)\n  0x73\n  dup2\n  mstore8\n  dup3\n  dup2\n  return\nstop\n\nsub_0: assembly {\n        /* \"contracts/video12.sol\":57:566  library Math{\r... */\n      eq(address, deployTimeAddress())\n      mstore(0x40, 0x80)\n      jumpi(tag_1, lt(calldatasize, 0x04))\n      shr(0xe0, calldataload(0x00))\n      dup1\n      0x01d7e30f\n      eq\n      tag_2\n      jumpi\n      dup1\n      0x66098d4f\n      eq\n      tag_3\n      jumpi\n      dup1\n      0x7ae2b5c7\n      eq\n      tag_4\n      jumpi\n    tag_1:\n      0x00\n      dup1\n      revert\n        /* \"contracts/video12.sol\":212:344  function dvide(uint x, uint y)public pure returns(uint){\r... */\n    tag_2:\n      tag_5\n      0x04\n      dup1\n      calldatasize\n      sub\n      dup2\n      add\n      swap1\n      tag_6\n      swap2\n      swap1\n      tag_7\n      jump\t// in\n    tag_6:\n      tag_8\n      jump\t// in\n    tag_5:\n      mload(0x40)\n      tag_9\n      swap2\n      swap1\n      tag_10\n      jump\t// in\n    tag_9:\n      mload(0x40)\n      dup1\n      swap2\n      sub\n      swap1\n      return\n        /* \"contracts/video12.sol\":123:206  function plus(uint x, uint y)public pure returns(uint){\r... */\n    tag_3:\n      tag_11\n      0x04\n      dup1\n      calldatasize\n      sub\n      dup2\n      add\n      swap1\n      tag_12\n      swap2\n      swap1\n      tag_7\n      jump\t// in\n    tag_12:\n      tag_13\n      jump\t// in\n    tag_11:\n      mload(0x40)\n      tag_14\n      swap2\n      swap1\n      tag_10\n      jump\t// in\n    tag_14:\n      mload(0x40)\n      dup1\n      swap2\n      sub\n      swap1\n      return\n        /* \"contracts/video12.sol\":350:561  function min(uint a, uint b)public pure returns(uint){\r... */\n    tag_4:\n      tag_15\n      0x04\n      dup1\n      calldatasize\n      sub\n      dup2\n      add\n      swap1\n      tag_16\n      swap2\n      swap1\n      tag_7\n      jump\t// in\n    tag_16:\n      tag_17\n      jump\t// in\n    tag_15:\n      mload(0x40)\n      tag_18\n      swap2\n      swap1\n      tag_10\n      jump\t// in\n    tag_18:\n      mload(0x40)\n      dup1\n      swap2\n      sub\n      swap1\n      return\n        /* \"contracts/video12.sol\":212:344  function dvide(uint x, uint y)public pure returns(uint){\r... */\n    tag_8:\n        /* \"contracts/video12.sol\":262:266  uint */\n      0x00\n        /* \"contracts/video12.sol\":290:291  0 */\n      dup1\n        /* \"contracts/video12.sol\":286:287  y */\n      dup3\n        /* \"contracts/video12.sol\":286:291  y !=0 */\n      eq\n      iszero\n        /* \"contracts/video12.sol\":278:315  require(y !=0,\"bu sayiyi begenmedim\") */\n      tag_20\n      jumpi\n      mload(0x40)\n      0x08c379a000000000000000000000000000000000000000000000000000000000\n      dup2\n      mstore\n      0x04\n      add\n      tag_21\n      swap1\n      tag_22\n      jump\t// in\n    tag_21:\n      mload(0x40)\n      dup1\n      swap2\n      sub\n      swap1\n      revert\n    tag_20:\n        /* \"contracts/video12.sol\":335:336  y */\n      dup2\n        /* \"contracts/video12.sol\":333:334  x */\n      dup4\n        /* \"contracts/video12.sol\":333:336  x/y */\n      tag_23\n      swap2\n      swap1\n      tag_24\n      jump\t// in\n    tag_23:\n        /* \"contracts/video12.sol\":326:336  return x/y */\n      swap1\n      pop\n        /* \"contracts/video12.sol\":212:344  function dvide(uint x, uint y)public pure returns(uint){\r... */\n      swap3\n      swap2\n      pop\n      pop\n      jump\t// out\n        /* \"contracts/video12.sol\":123:206  function plus(uint x, uint y)public pure returns(uint){\r... */\n    tag_13:\n        /* \"contracts/video12.sol\":172:176  uint */\n      0x00\n        /* \"contracts/video12.sol\":197:198  y */\n      dup2\n        /* \"contracts/video12.sol\":195:196  x */\n      dup4\n        /* \"contracts/video12.sol\":195:198  x+y */\n      tag_26\n      swap2\n      swap1\n      tag_27\n      jump\t// in\n    tag_26:\n        /* \"contracts/video12.sol\":188:198  return x+y */\n      swap1\n      pop\n        /* \"contracts/video12.sol\":123:206  function plus(uint x, uint y)public pure returns(uint){\r... */\n      swap3\n      swap2\n      pop\n      pop\n      jump\t// out\n        /* \"contracts/video12.sol\":350:561  function min(uint a, uint b)public pure returns(uint){\r... */\n    tag_17:\n        /* \"contracts/video12.sol\":398:402  uint */\n      0x00\n        /* \"contracts/video12.sol\":426:427  0 */\n      dup1\n        /* \"contracts/video12.sol\":422:423  b */\n      dup3\n        /* \"contracts/video12.sol\":422:427  b !=0 */\n      eq\n      iszero\n        /* \"contracts/video12.sol\":414:451  require(b !=0,\"bu sayiyi begenmedim\") */\n      tag_29\n      jumpi\n      mload(0x40)\n      0x08c379a000000000000000000000000000000000000000000000000000000000\n      dup2\n      mstore\n      0x04\n      add\n      tag_30\n      swap1\n      tag_22\n      jump\t// in\n    tag_30:\n      mload(0x40)\n      dup1\n      swap2\n      sub\n      swap1\n      revert\n    tag_29:\n        /* \"contracts/video12.sol\":468:469  b */\n      dup2\n        /* \"contracts/video12.sol\":465:466  a */\n      dup4\n        /* \"contracts/video12.sol\":465:469  a<=b */\n      gt\n        /* \"contracts/video12.sol\":462:554  if(a<=b){\r... */\n      tag_31\n      jumpi\n        /* \"contracts/video12.sol\":492:493  a */\n      dup3\n        /* \"contracts/video12.sol\":485:493  return a */\n      swap1\n      pop\n      jump(tag_28)\n        /* \"contracts/video12.sol\":462:554  if(a<=b){\r... */\n    tag_31:\n        /* \"contracts/video12.sol\":541:542  b */\n      dup2\n        /* \"contracts/video12.sol\":534:542  return b */\n      swap1\n      pop\n        /* \"contracts/video12.sol\":350:561  function min(uint a, uint b)public pure returns(uint){\r... */\n    tag_28:\n      swap3\n      swap2\n      pop\n      pop\n      jump\t// out\n        /* \"#utility.yul\":7:146   */\n    tag_34:\n      0x00\n        /* \"#utility.yul\":91:97   */\n      dup2\n        /* \"#utility.yul\":78:98   */\n      calldataload\n        /* \"#utility.yul\":69:98   */\n      swap1\n      pop\n        /* \"#utility.yul\":107:140   */\n      tag_36\n        /* \"#utility.yul\":134:139   */\n      dup2\n        /* \"#utility.yul\":107:140   */\n      tag_37\n      jump\t// in\n    tag_36:\n        /* \"#utility.yul\":59:146   */\n      swap3\n      swap2\n      pop\n      pop\n      jump\t// out\n        /* \"#utility.yul\":152:559   */\n    tag_7:\n      0x00\n      dup1\n        /* \"#utility.yul\":277:279   */\n      0x40\n        /* \"#utility.yul\":265:274   */\n      dup4\n        /* \"#utility.yul\":256:263   */\n      dup6\n        /* \"#utility.yul\":252:275   */\n      sub\n        /* \"#utility.yul\":248:280   */\n      slt\n        /* \"#utility.yul\":245:247   */\n      iszero\n      tag_39\n      jumpi\n        /* \"#utility.yul\":293:294   */\n      0x00\n        /* \"#utility.yul\":290:291   */\n      dup1\n        /* \"#utility.yul\":283:295   */\n      revert\n        /* \"#utility.yul\":245:247   */\n    tag_39:\n        /* \"#utility.yul\":336:337   */\n      0x00\n        /* \"#utility.yul\":361:414   */\n      tag_40\n        /* \"#utility.yul\":406:413   */\n      dup6\n        /* \"#utility.yul\":397:403   */\n      dup3\n        /* \"#utility.yul\":386:395   */\n      dup7\n        /* \"#utility.yul\":382:404   */\n      add\n        /* \"#utility.yul\":361:414   */\n      tag_34\n      jump\t// in\n    tag_40:\n        /* \"#utility.yul\":351:414   */\n      swap3\n      pop\n        /* \"#utility.yul\":307:424   */\n      pop\n        /* \"#utility.yul\":463:465   */\n      0x20\n        /* \"#utility.yul\":489:542   */\n      tag_41\n        /* \"#utility.yul\":534:541   */\n      dup6\n        /* \"#utility.yul\":525:531   */\n      dup3\n        /* \"#utility.yul\":514:523   */\n      dup7\n        /* \"#utility.yul\":510:532   */\n      add\n        /* \"#utility.yul\":489:542   */\n      tag_34\n      jump\t// in\n    tag_41:\n        /* \"#utility.yul\":479:542   */\n      swap2\n      pop\n        /* \"#utility.yul\":434:552   */\n      pop\n        /* \"#utility.yul\":235:559   */\n      swap3\n      pop\n      swap3\n      swap1\n      pop\n      jump\t// out\n        /* \"#utility.yul\":565:883   */\n    tag_42:\n      0x00\n        /* \"#utility.yul\":728:795   */\n      tag_44\n        /* \"#utility.yul\":792:794   */\n      0x14\n        /* \"#utility.yul\":787:790   */\n      dup4\n        /* \"#utility.yul\":728:795   */\n      tag_45\n      jump\t// in\n    tag_44:\n        /* \"#utility.yul\":721:795   */\n      swap2\n      pop\n        /* \"#utility.yul\":825:847   */\n      0x62752073617969796920626567656e6d6564696d000000000000000000000000\n        /* \"#utility.yul\":821:822   */\n      0x00\n        /* \"#utility.yul\":816:819   */\n      dup4\n        /* \"#utility.yul\":812:823   */\n      add\n        /* \"#utility.yul\":805:848   */\n      mstore\n        /* \"#utility.yul\":874:876   */\n      0x20\n        /* \"#utility.yul\":869:872   */\n      dup3\n        /* \"#utility.yul\":865:877   */\n      add\n        /* \"#utility.yul\":858:877   */\n      swap1\n      pop\n        /* \"#utility.yul\":711:883   */\n      swap2\n      swap1\n      pop\n      jump\t// out\n        /* \"#utility.yul\":889:1015   */\n    tag_46:\n        /* \"#utility.yul\":984:1008   */\n      tag_48\n        /* \"#utility.yul\":1002:1007   */\n      dup2\n        /* \"#utility.yul\":984:1008   */\n      tag_49\n      jump\t// in\n    tag_48:\n        /* \"#utility.yul\":979:982   */\n      dup3\n        /* \"#utility.yul\":972:1009   */\n      mstore\n        /* \"#utility.yul\":962:1015   */\n      pop\n      pop\n      jump\t// out\n        /* \"#utility.yul\":1021:1440   */\n    tag_22:\n      0x00\n        /* \"#utility.yul\":1225:1227   */\n      0x20\n        /* \"#utility.yul\":1214:1223   */\n      dup3\n        /* \"#utility.yul\":1210:1228   */\n      add\n        /* \"#utility.yul\":1202:1228   */\n      swap1\n      pop\n        /* \"#utility.yul\":1274:1283   */\n      dup2\n        /* \"#utility.yul\":1268:1272   */\n      dup2\n        /* \"#utility.yul\":1264:1284   */\n      sub\n        /* \"#utility.yul\":1260:1261   */\n      0x00\n        /* \"#utility.yul\":1249:1258   */\n      dup4\n        /* \"#utility.yul\":1245:1262   */\n      add\n        /* \"#utility.yul\":1238:1285   */\n      mstore\n        /* \"#utility.yul\":1302:1433   */\n      tag_51\n        /* \"#utility.yul\":1428:1432   */\n      dup2\n        /* \"#utility.yul\":1302:1433   */\n      tag_42\n      jump\t// in\n    tag_51:\n        /* \"#utility.yul\":1294:1433   */\n      swap1\n      pop\n        /* \"#utility.yul\":1192:1440   */\n      swap2\n      swap1\n      pop\n      jump\t// out\n        /* \"#utility.yul\":1446:1684   */\n    tag_10:\n      0x00\n        /* \"#utility.yul\":1585:1587   */\n      0x20\n        /* \"#utility.yul\":1574:1583   */\n      dup3\n        /* \"#utility.yul\":1570:1588   */\n      add\n        /* \"#utility.yul\":1562:1588   */\n      swap1\n      pop\n        /* \"#utility.yul\":1598:1677   */\n      tag_53\n        /* \"#utility.yul\":1674:1675   */\n      0x00\n        /* \"#utility.yul\":1663:1672   */\n      dup4\n        /* \"#utility.yul\":1659:1676   */\n      add\n        /* \"#utility.yul\":1650:1656   */\n      dup5\n        /* \"#utility.yul\":1598:1677   */\n      tag_46\n      jump\t// in\n    tag_53:\n        /* \"#utility.yul\":1552:1684   */\n      swap3\n      swap2\n      pop\n      pop\n      jump\t// out\n        /* \"#utility.yul\":1690:1859   */\n    tag_45:\n      0x00\n        /* \"#utility.yul\":1808:1814   */\n      dup3\n        /* \"#utility.yul\":1803:1806   */\n      dup3\n        /* \"#utility.yul\":1796:1815   */\n      mstore\n        /* \"#utility.yul\":1848:1852   */\n      0x20\n        /* \"#utility.yul\":1843:1846   */\n      dup3\n        /* \"#utility.yul\":1839:1853   */\n      add\n        /* \"#utility.yul\":1824:1853   */\n      swap1\n      pop\n        /* \"#utility.yul\":1786:1859   */\n      swap3\n      swap2\n      pop\n      pop\n      jump\t// out\n        /* \"#utility.yul\":1865:2170   */\n    tag_27:\n      0x00\n        /* \"#utility.yul\":1924:1944   */\n      tag_56\n        /* \"#utility.yul\":1942:1943   */\n      dup3\n        /* \"#utility.yul\":1924:1944   */\n      tag_49\n      jump\t// in\n    tag_56:\n        /* \"#utility.yul\":1919:1944   */\n      swap2\n      pop\n        /* \"#utility.yul\":1958:1978   */\n      tag_57\n        /* \"#utility.yul\":1976:1977   */\n      dup4\n        /* \"#utility.yul\":1958:1978   */\n      tag_49\n      jump\t// in\n    tag_57:\n        /* \"#utility.yul\":1953:1978   */\n      swap3\n      pop\n        /* \"#utility.yul\":2112:2113   */\n      dup3\n        /* \"#utility.yul\":2044:2110   */\n      0xffffffffffffffffffffffffffffffffffffffffffffffffffffffffffffffff\n        /* \"#utility.yul\":2040:2114   */\n      sub\n        /* \"#utility.yul\":2037:2038   */\n      dup3\n        /* \"#utility.yul\":2034:2115   */\n      gt\n        /* \"#utility.yul\":2031:2033   */\n      iszero\n      tag_58\n      jumpi\n        /* \"#utility.yul\":2118:2136   */\n      tag_59\n      tag_60\n      jump\t// in\n    tag_59:\n        /* \"#utility.yul\":2031:2033   */\n    tag_58:\n        /* \"#utility.yul\":2162:2163   */\n      dup3\n        /* \"#utility.yul\":2159:2160   */\n      dup3\n        /* \"#utility.yul\":2155:2164   */\n      add\n        /* \"#utility.yul\":2148:2164   */\n      swap1\n      pop\n        /* \"#utility.yul\":1909:2170   */\n      swap3\n      swap2\n      pop\n      pop\n      jump\t// out\n        /* \"#utility.yul\":2176:2361   */\n    tag_24:\n      0x00\n        /* \"#utility.yul\":2233:2253   */\n      tag_62\n        /* \"#utility.yul\":2251:2252   */\n      dup3\n        /* \"#utility.yul\":2233:2253   */\n      tag_49\n      jump\t// in\n    tag_62:\n        /* \"#utility.yul\":2228:2253   */\n      swap2\n      pop\n        /* \"#utility.yul\":2267:2287   */\n      tag_63\n        /* \"#utility.yul\":2285:2286   */\n      dup4\n        /* \"#utility.yul\":2267:2287   */\n      tag_49\n      jump\t// in\n    tag_63:\n        /* \"#utility.yul\":2262:2287   */\n      swap3\n      pop\n        /* \"#utility.yul\":2306:2307   */\n      dup3\n        /* \"#utility.yul\":2296:2298   */\n      tag_64\n      jumpi\n        /* \"#utility.yul\":2311:2329   */\n      tag_65\n      tag_66\n      jump\t// in\n    tag_65:\n        /* \"#utility.yul\":2296:2298   */\n    tag_64:\n        /* \"#utility.yul\":2353:2354   */\n      dup3\n        /* \"#utility.yul\":2350:2351   */\n      dup3\n        /* \"#utility.yul\":2346:2355   */\n      div\n        /* \"#utility.yul\":2341:2355   */\n      swap1\n      pop\n        /* \"#utility.yul\":2218:2361   */\n      swap3\n      swap2\n      pop\n      pop\n      jump\t// out\n        /* \"#utility.yul\":2367:2444   */\n    tag_49:\n      0x00\n        /* \"#utility.yul\":2433:2438   */\n      dup2\n        /* \"#utility.yul\":2422:2438   */\n      swap1\n      pop\n        /* \"#utility.yul\":2412:2444   */\n      swap2\n      swap1\n      pop\n      jump\t// out\n        /* \"#utility.yul\":2450:2630   */\n    tag_60:\n        /* \"#utility.yul\":2498:2575   */\n      0x4e487b7100000000000000000000000000000000000000000000000000000000\n        /* \"#utility.yul\":2495:2496   */\n      0x00\n        /* \"#utility.yul\":2488:2576   */\n      mstore\n        /* \"#utility.yul\":2595:2599   */\n      0x11\n        /* \"#utility.yul\":2592:2593   */\n      0x04\n        /* \"#utility.yul\":2585:2600   */\n      mstore\n        /* \"#utility.yul\":2619:2623   */\n      0x24\n        /* \"#utility.yul\":2616:2617   */\n      0x00\n        /* \"#utility.yul\":2609:2624   */\n      revert\n        /* \"#utility.yul\":2636:2816   */\n    tag_66:\n        /* \"#utility.yul\":2684:2761   */\n      0x4e487b7100000000000000000000000000000000000000000000000000000000\n        /* \"#utility.yul\":2681:2682   */\n      0x00\n        /* \"#utility.yul\":2674:2762   */\n      mstore\n        /* \"#utility.yul\":2781:2785   */\n      0x12\n        /* \"#utility.yul\":2778:2779   */\n      0x04\n        /* \"#utility.yul\":2771:2786   */\n      mstore\n        /* \"#utility.yul\":2805:2809   */\n      0x24\n        /* \"#utility.yul\":2802:2803   */\n      0x00\n        /* \"#utility.yul\":2795:2810   */\n      revert\n        /* \"#utility.yul\":2822:2944   */\n    tag_37:\n        /* \"#utility.yul\":2895:2919   */\n      tag_71\n        /* \"#utility.yul\":2913:2918   */\n      dup2\n        /* \"#utility.yul\":2895:2919   */\n      tag_49\n      jump\t// in\n    tag_71:\n        /* \"#utility.yul\":2888:2893   */\n      dup2\n        /* \"#utility.yul\":2885:2920   */\n      eq\n        /* \"#utility.yul\":2875:2877   */\n      tag_72\n      jumpi\n        /* \"#utility.yul\":2934:2935   */\n      0x00\n        /* \"#utility.yul\":2931:2932   */\n      dup1\n        /* \"#utility.yul\":2924:2936   */\n      revert\n        /* \"#utility.yul\":2875:2877   */\n    tag_72:\n        /* \"#utility.yul\":2865:2944   */\n      pop\n      jump\t// out\n\n    auxdata: 0xa264697066735822122097a75323ecacbe3a03a856fe0d249e59c3754d309a025e8785cf26d5dfd53a9764736f6c63430008000033\n}\n",
				"bytecode": {
					"linkReferences": {},
					"object": "6103d5610053600b82828239805160001a607314610046577f4e487b7100000000000000000000000000000000000000000000000000000000600052600060045260246000fd5b30600052607381538281f3fe730000000000000000000000000000000000000000301460806040526004361061004b5760003560e01c806301d7e30f1461005057806366098d4f146100805780637ae2b5c7146100b0575b600080fd5b61006a600480360381019061006591906101c2565b6100e0565b604051610077919061026d565b60405180910390f35b61009a600480360381019061009591906101c2565b610139565b6040516100a7919061026d565b60405180910390f35b6100ca60048036038101906100c591906101c2565b61014f565b6040516100d7919061026d565b60405180910390f35b600080821415610125576040517f08c379a000000000000000000000000000000000000000000000000000000000815260040161011c9061024d565b60405180910390fd5b818361013191906102ef565b905092915050565b600081836101479190610299565b905092915050565b600080821415610194576040517f08c379a000000000000000000000000000000000000000000000000000000000815260040161018b9061024d565b60405180910390fd5b8183116101a3578290506101a7565b8190505b92915050565b6000813590506101bc81610388565b92915050565b600080604083850312156101d557600080fd5b60006101e3858286016101ad565b92505060206101f4858286016101ad565b9150509250929050565b600061020b601483610288565b91507f62752073617969796920626567656e6d6564696d0000000000000000000000006000830152602082019050919050565b61024781610320565b82525050565b60006020820190508181036000830152610266816101fe565b9050919050565b6000602082019050610282600083018461023e565b92915050565b600082825260208201905092915050565b60006102a482610320565b91506102af83610320565b9250827fffffffffffffffffffffffffffffffffffffffffffffffffffffffffffffffff038211156102e4576102e361032a565b5b828201905092915050565b60006102fa82610320565b915061030583610320565b92508261031557610314610359565b5b828204905092915050565b6000819050919050565b7f4e487b7100000000000000000000000000000000000000000000000000000000600052601160045260246000fd5b7f4e487b7100000000000000000000000000000000000000000000000000000000600052601260045260246000fd5b61039181610320565b811461039c57600080fd5b5056fea264697066735822122097a75323ecacbe3a03a856fe0d249e59c3754d309a025e8785cf26d5dfd53a9764736f6c63430008000033",
					"opcodes": "PUSH2 0x3D5 PUSH2 0x53 PUSH1 0xB DUP3 DUP3 DUP3 CODECOPY DUP1 MLOAD PUSH1 0x0 BYTE PUSH1 0x73 EQ PUSH2 0x46 JUMPI PUSH32 0x4E487B7100000000000000000000000000000000000000000000000000000000 PUSH1 0x0 MSTORE PUSH1 0x0 PUSH1 0x4 MSTORE PUSH1 0x24 PUSH1 0x0 REVERT JUMPDEST ADDRESS PUSH1 0x0 MSTORE PUSH1 0x73 DUP2 MSTORE8 DUP3 DUP2 RETURN INVALID PUSH20 0x0 ADDRESS EQ PUSH1 0x80 PUSH1 0x40 MSTORE PUSH1 0x4 CALLDATASIZE LT PUSH2 0x4B JUMPI PUSH1 0x0 CALLDATALOAD PUSH1 0xE0 SHR DUP1 PUSH4 0x1D7E30F EQ PUSH2 0x50 JUMPI DUP1 PUSH4 0x66098D4F EQ PUSH2 0x80 JUMPI DUP1 PUSH4 0x7AE2B5C7 EQ PUSH2 0xB0 JUMPI JUMPDEST PUSH1 0x0 DUP1 REVERT JUMPDEST PUSH2 0x6A PUSH1 0x4 DUP1 CALLDATASIZE SUB DUP2 ADD SWAP1 PUSH2 0x65 SWAP2 SWAP1 PUSH2 0x1C2 JUMP JUMPDEST PUSH2 0xE0 JUMP JUMPDEST PUSH1 0x40 MLOAD PUSH2 0x77 SWAP2 SWAP1 PUSH2 0x26D JUMP JUMPDEST PUSH1 0x40 MLOAD DUP1 SWAP2 SUB SWAP1 RETURN JUMPDEST PUSH2 0x9A PUSH1 0x4 DUP1 CALLDATASIZE SUB DUP2 ADD SWAP1 PUSH2 0x95 SWAP2 SWAP1 PUSH2 0x1C2 JUMP JUMPDEST PUSH2 0x139 JUMP JUMPDEST PUSH1 0x40 MLOAD PUSH2 0xA7 SWAP2 SWAP1 PUSH2 0x26D JUMP JUMPDEST PUSH1 0x40 MLOAD DUP1 SWAP2 SUB SWAP1 RETURN JUMPDEST PUSH2 0xCA PUSH1 0x4 DUP1 CALLDATASIZE SUB DUP2 ADD SWAP1 PUSH2 0xC5 SWAP2 SWAP1 PUSH2 0x1C2 JUMP JUMPDEST PUSH2 0x14F JUMP JUMPDEST PUSH1 0x40 MLOAD PUSH2 0xD7 SWAP2 SWAP1 PUSH2 0x26D JUMP JUMPDEST PUSH1 0x40 MLOAD DUP1 SWAP2 SUB SWAP1 RETURN JUMPDEST PUSH1 0x0 DUP1 DUP3 EQ ISZERO PUSH2 0x125 JUMPI PUSH1 0x40 MLOAD PUSH32 0x8C379A000000000000000000000000000000000000000000000000000000000 DUP2 MSTORE PUSH1 0x4 ADD PUSH2 0x11C SWAP1 PUSH2 0x24D JUMP JUMPDEST PUSH1 0x40 MLOAD DUP1 SWAP2 SUB SWAP1 REVERT JUMPDEST DUP2 DUP4 PUSH2 0x131 SWAP2 SWAP1 PUSH2 0x2EF JUMP JUMPDEST SWAP1 POP SWAP3 SWAP2 POP POP JUMP JUMPDEST PUSH1 0x0 DUP2 DUP4 PUSH2 0x147 SWAP2 SWAP1 PUSH2 0x299 JUMP JUMPDEST SWAP1 POP SWAP3 SWAP2 POP POP JUMP JUMPDEST PUSH1 0x0 DUP1 DUP3 EQ ISZERO PUSH2 0x194 JUMPI PUSH1 0x40 MLOAD PUSH32 0x8C379A000000000000000000000000000000000000000000000000000000000 DUP2 MSTORE PUSH1 0x4 ADD PUSH2 0x18B SWAP1 PUSH2 0x24D JUMP JUMPDEST PUSH1 0x40 MLOAD DUP1 SWAP2 SUB SWAP1 REVERT JUMPDEST DUP2 DUP4 GT PUSH2 0x1A3 JUMPI DUP3 SWAP1 POP PUSH2 0x1A7 JUMP JUMPDEST DUP2 SWAP1 POP JUMPDEST SWAP3 SWAP2 POP POP JUMP JUMPDEST PUSH1 0x0 DUP2 CALLDATALOAD SWAP1 POP PUSH2 0x1BC DUP2 PUSH2 0x388 JUMP JUMPDEST SWAP3 SWAP2 POP POP JUMP JUMPDEST PUSH1 0x0 DUP1 PUSH1 0x40 DUP4 DUP6 SUB SLT ISZERO PUSH2 0x1D5 JUMPI PUSH1 0x0 DUP1 REVERT JUMPDEST PUSH1 0x0 PUSH2 0x1E3 DUP6 DUP3 DUP7 ADD PUSH2 0x1AD JUMP JUMPDEST SWAP3 POP POP PUSH1 0x20 PUSH2 0x1F4 DUP6 DUP3 DUP7 ADD PUSH2 0x1AD JUMP JUMPDEST SWAP2 POP POP SWAP3 POP SWAP3 SWAP1 POP JUMP JUMPDEST PUSH1 0x0 PUSH2 0x20B PUSH1 0x14 DUP4 PUSH2 0x288 JUMP JUMPDEST SWAP2 POP PUSH32 0x62752073617969796920626567656E6D6564696D000000000000000000000000 PUSH1 0x0 DUP4 ADD MSTORE PUSH1 0x20 DUP3 ADD SWAP1 POP SWAP2 SWAP1 POP JUMP JUMPDEST PUSH2 0x247 DUP2 PUSH2 0x320 JUMP JUMPDEST DUP3 MSTORE POP POP JUMP JUMPDEST PUSH1 0x0 PUSH1 0x20 DUP3 ADD SWAP1 POP DUP2 DUP2 SUB PUSH1 0x0 DUP4 ADD MSTORE PUSH2 0x266 DUP2 PUSH2 0x1FE JUMP JUMPDEST SWAP1 POP SWAP2 SWAP1 POP JUMP JUMPDEST PUSH1 0x0 PUSH1 0x20 DUP3 ADD SWAP1 POP PUSH2 0x282 PUSH1 0x0 DUP4 ADD DUP5 PUSH2 0x23E JUMP JUMPDEST SWAP3 SWAP2 POP POP JUMP JUMPDEST PUSH1 0x0 DUP3 DUP3 MSTORE PUSH1 0x20 DUP3 ADD SWAP1 POP SWAP3 SWAP2 POP POP JUMP JUMPDEST PUSH1 0x0 PUSH2 0x2A4 DUP3 PUSH2 0x320 JUMP JUMPDEST SWAP2 POP PUSH2 0x2AF DUP4 PUSH2 0x320 JUMP JUMPDEST SWAP3 POP DUP3 PUSH32 0xFFFFFFFFFFFFFFFFFFFFFFFFFFFFFFFFFFFFFFFFFFFFFFFFFFFFFFFFFFFFFFFF SUB DUP3 GT ISZERO PUSH2 0x2E4 JUMPI PUSH2 0x2E3 PUSH2 0x32A JUMP JUMPDEST JUMPDEST DUP3 DUP3 ADD SWAP1 POP SWAP3 SWAP2 POP POP JUMP JUMPDEST PUSH1 0x0 PUSH2 0x2FA DUP3 PUSH2 0x320 JUMP JUMPDEST SWAP2 POP PUSH2 0x305 DUP4 PUSH2 0x320 JUMP JUMPDEST SWAP3 POP DUP3 PUSH2 0x315 JUMPI PUSH2 0x314 PUSH2 0x359 JUMP JUMPDEST JUMPDEST DUP3 DUP3 DIV SWAP1 POP SWAP3 SWAP2 POP POP JUMP JUMPDEST PUSH1 0x0 DUP2 SWAP1 POP SWAP2 SWAP1 POP JUMP JUMPDEST PUSH32 0x4E487B7100000000000000000000000000000000000000000000000000000000 PUSH1 0x0 MSTORE PUSH1 0x11 PUSH1 0x4 MSTORE PUSH1 0x24 PUSH1 0x0 REVERT JUMPDEST PUSH32 0x4E487B7100000000000000000000000000000000000000000000000000000000 PUSH1 0x0 MSTORE PUSH1 0x12 PUSH1 0x4 MSTORE PUSH1 0x24 PUSH1 0x0 REVERT JUMPDEST PUSH2 0x391 DUP2 PUSH2 0x320 JUMP JUMPDEST DUP2 EQ PUSH2 0x39C JUMPI PUSH1 0x0 DUP1 REVERT JUMPDEST POP JUMP INVALID LOG2 PUSH5 0x6970667358 0x22 SLT KECCAK256 SWAP8 0xA7 MSTORE8 0x23 0xEC 0xAC 0xBE GASPRICE SUB 0xA8 JUMP INVALID 0xD 0x24 SWAP15 MSIZE 0xC3 PUSH22 0x4D309A025E8785CF26D5DFD53A9764736F6C63430008 STOP STOP CALLER "
				},
				"gasEstimates": {
					"creation": {
						"codeDepositCost": "196200",
						"executionCost": "263",
						"totalCost": "196463"
					},
					"external": {
						"dvide(uint256,uint256)": "infinite",
						"min(uint256,uint256)": "infinite",
						"plus(uint256,uint256)": "infinite"
					}
				},
				"methodIdentifiers": {
					"dvide(uint256,uint256)": "01d7e30f",
					"min(uint256,uint256)": "7ae2b5c7",
					"plus(uint256,uint256)": "66098d4f"
				}
			},
			"storageLayout": {
				"storage": [],
				"types": null
			},
			"userdoc": {
				"kind": "user",
				"methods": {},
				"version": 1
			}
		}
	}
}